:020000040800F2
:10000000900A0020350200089D270008C923000837
:1000100079260008711B00080F2D00080000000061
:10002000000000000000000000000000A92C0008F3
:10003000731B000800000000A72C0008AB2C000870
:100040004F0200084F0200084F0200084F0200084C
:100050004F0200084F0200084F0200084F0200083C
:100060004F0200084F0200084F0200084F0200082C
:100070004F0200084F0200084F0200084F0200081C
:100080004F0200084F0200084F0200084F0200080C
:100090004F0200084F0200084F020008AB1B000887
:1000A0004F0200084F0200084F0200084F020008EC
:1000B0004F0200084F0200084F0200084F020008DC
:1000C0004F0200084F0200084F0200084F020008CC
:1000D0004F0200084F0200084F0200084F020008BC
:1000E0004F0200084F0200084F02000800F002F81B
:1000F00000F090F80AA090E8000C82448344AAF132
:100100000107DA4501D100F085F8AFF2090EBAE82F
:100110000F0013F0010F18BFFB1A43F0010318473B
:100120004846000068460000103A24BF78C878C1ED
:10013000FAD8520724BF30C830C144BF04680C60ED
:10014000704700000023002400250026103A28BF35
:1001500078C1FBD8520728BF30C148BF0B60704739
:100160006E2900F0AD81702900F0EF82662903F05E
:100170006085652903F05D85672903F05A8561294B
:1001800003F0598503681B0A28BF41F080016929E3
:1001900000F05A81642900F05781752900F05481DC
:1001A0006F2900F07C82782900F0BB82E92900F0F9
:1001B0001782E42900F01482F52900F01182EF295A
:1001C00000F07982F82900F0BA820368DB0928BFC1
:1001D00041F08001632900F0C187732900F0C687D0
:1001E000E32900F0D187F32900F0D687002070477B
:1001F0001FB501F027F804000020002102F0E4FF01
:10020000401C60600020002102F0C8FFE0601FBDBC
:1002100010B510BD00F0E8FF1146FFF7E9FF02F04E
:10022000EBFE01F0C5F803B4FFF7F2FF03BC01F0E9
:10023000C9F800000948804709480047FEE7FEE783
:10024000FEE7FEE7FEE7FEE7FEE7FEE7FEE7FEE786
:1002500004480549054A064B704700000D2D00086B
:10026000ED00000890040020900A00209006002075
:10027000900600201CB50C46064B7B446946009056
:10028000204600F036F904460020694600F044F9A3
:1002900020461CBD9B0200004FF0000200B5134633
:1002A00094469646203922BFA0E80C50A0E80C5096
:1002B000B1F12001BFF4F7AF090728BFA0E80C5047
:1002C00048BF0CC05DF804EB890028BF40F8042B40
:1002D00008BF704748BF20F8022B11F0804F18BFAD
:1002E00000F8012B704700004FF0013C50F8042B40
:1002F00051F8043B9A4221D1A2EB0C03934313EA39
:10030000CC1317D150F8042B51F8043B9A4215D165
:10031000A2EB0C03934313EACC130BD150F8042B3C
:1003200051F8043B9A4209D1A2EB0C03934313EA20
:10033000CC13DBD04FF00000704700BFD01A01BAD9
:10034000B1FA81F101F0180122FA01F0CB40C1F1BC
:100350002001DBB2C0B2C01A2CFA01F3D11A9143CA
:1003600011EAC311E6D1704770477047704710B566
:1003700000F0BAFA006810BD10B5044600F0B4FAF7
:10038000046010BD70B5044685690068C10601D5DA
:10039000302600E02026C00707D070BDD4E9012137
:1003A00030469047206A401C20626D1EF6D570BD15
:1003B00070B5044685690078C00707D170BDD4E9DF
:1003C000012120209047206A401C20626D1EF6D536
:1003D00070BD09684A0501D540B27047C905FCD512
:1003E00000B2704709684A0501D5C0B27047C90517
:1003F000FCD580B2704770B50C460546012A05D081
:100400002878800600D5EA69002302E0012305E090
:100410005B1C934202D2E05C0028F9D1A869E6187F
:10042000C01AA861286A184428622846FFF7AAFF64
:1004300004E0D5E9012114F8010B9047B442F8D348
:100440002846FFF7B5FF70BD2DE9F04106460024B0
:1004500010687529314616A510D0FFF7BAFF00289D
:1004600002DA404213A507E031688A0701D512A5D8
:1004700002E0490704D511A5012401E0FFF7B2FF0E
:1004800000210A2206F1240709E0B0FBF2FCB0FBD0
:10049000F2F302FB1C00303078541846491C002847
:1004A000F3D123462A463046BDE8F04100F065BA54
:1004B000000000002D0000002B00000020000000C4
:1004C00011680268006A530501D508700AE0D30577
:1004D00001D5088006E0130603D5C217C1E9000262
:1004E00000E008600120704701694A1C0261087839
:1004F000704700B58FB0CDE9013100210591054964
:100500007944CDE903101146684600F029F90FB08F
:1005100000BD0000E5FFFFFF0A6802F8010B0A605A
:10052000704700002DE9FF5F15468A460446DFF854
:10053000AC80F8440027D8E900103E46CDE9001011
:1005400010E03AF816106A4602A800F029FE411C95
:1005500007D02178890603D5E269391891420DD870
:100560000744761C2078800602D5E069B84205DD94
:10057000AE42E6DB3AF816000028E2D1A069C01BC3
:10058000A0612046FFF7FEFED8E90010CDE900107B
:10059000002017E03AF818106A4602A800F000FEA2
:1005A000B0F1FF3F81460BD000250DF1080B05E0AF
:1005B000D4E901211BF8050090476D1C4D45F7D388
:1005C00008F10100B0428046E4DB206A3844206232
:1005D0002046FFF7EDFEBDE8FF9F0000364100001A
:1005E0002DE9F0418046D21D22F007020025D2E914
:1005F0000002F52915A614D0011E72F1000106DAD9
:100600000023D0EB030063EB020211A608E0D8F848
:1006100000108B0701D50FA602E0490701D50EA6F1
:1006200001251146002408F1240704E000F060F9D8
:1006300030323A55641C50EA0102F7D12B4632465B
:1006400021464046BDE8F04100F097B900000000A7
:100650002D0000002B0000002000000030B400211D
:1006600000F1240408E002F00705D208303542EA20
:100670004372DB086554491C52EA0305F3D1046850
:10068000002310A2250707D5A40600D421B1C46910
:1006900001230DA2641EC46130BC00F06EB910B518
:1006A000044621461068FFF79DFE02462046BDE83D
:1006B00010400023D2E7D21D22F00701D1E9002328
:1006C000CCE700000000000030000000F0B40D4650
:1006D0000188090502D5214C7C4402E01F4C7C4472
:1006E0000E34002100F1240608E002F00F07120981
:1006F000E75D42EA03721B097754491C52EA03077B
:10070000F3D102780023120704D5702D06D009B169
:10071000022311342246F0BC00F02FB9012310341B
:10072000F8E770B504460D4621461068FFF75AFEFB
:10073000024629462046BDE870400023C6E7D21D88
:1007400022F00703D3E90023C0E70368126843F0EF
:10075000200303600823C3610023B7E7983F00002C
:100760002DE9F05F894604464FF0000ADFF874B1C6
:10077000FB44C0F820A02046E1688847002874D0D8
:10078000252806D0D4E901219047206A401C206228
:10079000F1E700265F462046E168884720280546A5
:1007A00007DB312D05D2781910F8200C08B106436B
:1007B000F1E7B00701D526F00406C4F81CA0002715
:1007C000C4F818A02A2D09D0284602F0DFFA38B361
:1007D00004EB8708303DC8F8185019E059F8041B9D
:1007E000204604EB87029161E1688847012F0546A6
:1007F00018D1E069002820DA26F020061DE0D8F89C
:10080000180000EB800005EB40003038C8F81800F5
:100810002046E1688847054602F0B8FA0028EED184
:10082000012F0AD02E2D08D12046E16888477F1C71
:100830000546022F46F02006C4DBA069002803DA33
:10084000404246F00106A061F00701D026F01006F4
:100850006C2D0BD0682D09D04C2D39D06A2D35D098
:10086000742D35D07A2D33D016E038E0E1682F466C
:1008700020468847B842054609D16C2F26D04FF450
:100880008060E168064320468847054604E06C2FF7
:100890001AD04FF4807006430DB3A5F1410019281A
:1008A00002D8203546F400664A462946204626608E
:1008B0004E46FFF755FC80B101280BD0F61D26F0FF
:1008C000070000F1080956E74020E4E78020D8E758
:1008D0000020D6E706F104094DE7284652E7206AD2
:1008E000BDE8F09F283F0000004870472C0400201E
:1008F00030B5B0F10A024FEA900E71F100034EEAF2
:10090000817EB0EB0E0061EB91014FEA101E4EEAC2
:10091000017E10EB0E0041EB11114FEA102E4EEA52
:10092000016E10EB0E0041EB11214FEA104E4EEA22
:10093000014E10EB0E0041EB1141401841F1000156
:100940004FEAD00040EA41704FEAD10110EB800538
:100950004FEA810444EA907444EB01046D1944EBBE
:100960000404521BA3414FF0000348BF0A3200D5D4
:1009700030BD401C41F1000130BD2DE9F0470D466E
:1009800099469246044600F124080168880604D579
:10099000E06921F01001216000E00120A84201DDA2
:1009A000471B00E00027A1697A1902EB0900081A29
:1009B000A0612078C00602D42046FFF7E3FC0026A1
:1009C00008E0D4E901211AF806009047206A401C8B
:1009D000761C20624E45F4DB2078C0060AD52046FE
:1009E000FFF7D0FC06E0D4E9012130209047206ACF
:1009F000401C2062381EA7F10107F4DC07E0D4E9AF
:100A0000012118F805009047206A401C2062281E2A
:100A1000A5F10105F3DC2046FFF7CAFC20780006AB
:100A200002D50220BDE8F0870120FBE770472DE9E1
:100A3000FF4F0C461E464FF0FF378BB0D2E9000146
:100A4000DDF860800A908A46C1F30A5505B93D4633
:100A5000002108464FF00000BAF1000F00F44000FA
:100A600005DA00EB80004FF4400101EA50004FEA44
:100A70009059B9F1010F00DDB9460A9850EA4A00D1
:100A80000ED044F61050A5F2FF3545432F14B8F1AF
:100A9000000F1ED07542291E1EDDC9F100021CE0A8
:100AA000B8F1010F4FF0000001D0302103E0F24314
:100AB00005E02154401CB042FBDB304600220021FF
:100AC00021540B99C1F80880C1E900200FB0BDE89E
:100AD000F08FBD1B6D1CDEE74A4600DA694206A8AE
:100AE00000F0F4FB06AB93E8070003AB83E80700D4
:100AF00050460A9900F06DFC8DE80700A0F5005003
:100B00001F3800900398002D0ADD42F21F014A466B
:100B10000844002303A90390684600F0D6FE09E0CC
:100B2000A0F500504A461F38002303A903906846E9
:100B300000F0E0FE8DE807000004000C03D04FF049
:100B4000FF30410800E01046B8F1000F03D000224A
:100B5000009215461EE0751E05D4FFF7C9FE30321F
:100B600062556D1EF9D5B3460122084302D000221A
:100B70007F1C04E02078302801D100227F1E002A4B
:100B8000099784D01DE0112D07DAFFF7B1FE30324E
:100B900062556D1C50EA0102F5D1084302D000985D
:100BA000C8B10EE00021681E05E0235C625C63545E
:100BB0002254401E491C8142F7DBAB46A81B401E55
:100BC0000990002004F80B000B98099AC0F80880DF
:100BD000C0E9002B7AE711264FF0000857E72DE90E
:100BE000F04F88460446D21D22F0070191B0D1E9AA
:100BF0000001CDE90A0102F08BF802460B98C00F04
:100C000001D02D2007E02068810701D52B2002E0CC
:100C1000202101EAC000032A099001D0072A05DB40
:100C200003464146204600F011FB0BE12078800688
:100C300001D5E06900E00620B8F1650F814606D0D5
:100C4000B8F1660F18D0B8F1670F70D131E000200D
:100C5000B9F1110F009001DB112301E009F101034B
:100C60000AAA01A90CA8FFF7E2FEDDE90C70002634
:100C700009F10105834647E001204B4600904FF003
:100C800000470AAA01A90CA8FFF7D1FEDDE90DB0C3
:100C90000C995D46002610B909F101000D18B9EB59
:100CA000050003D4C0F1FF3609F10105A5EB0900E9
:100CB0002BE0B9F1010F01DA4FF001090020B9F181
:100CC000110F0090484601DD112300E003460AAAF7
:100CD00001A90CA8FFF7ABFEDDE90C704D4600261C
:100CE0008346207800070AD4AB4500DA5D4601A8A8
:100CF000012D04DD411911F8011C302907D04F45A1
:100D000002DA17F1040F04DA012082460FE06D1EAB
:100D1000EEE7002F02DCED1B3E4403E0781CA84206
:100D200000DD7D1CB81B00F1010A4FF00047207860
:100D3000000703D4AA4501DB4FF0FF3A0021B7F1C9
:100D4000004F0DF143088DF8431024D002202B23CF
:100D5000002F01DA7F422D230A21021EA0F101009B
:100D600000DC5FB197FBF1FC97FBF1F201FB1C7C0F
:100D700017460CF1300C08F801CDEEE7A8F10100A0
:100D800003702188090501D5452100E06521A0F106
:100D9000010800F8011C09980FA9A1EB0807FF1D25
:100DA00000B10120411901EBEA70A1693844081A29
:100DB000401EA0612078C00602D42046FFF7E2FA68
:100DC000099828B1D4E901219047206A401C20628B
:100DD0002078C00622D52046FFF7D4FA1EE0002E68
:100DE00004DBB34502DD01A8805D00E03020D4E9DA
:100DF00001219047206A401C2062761CAAF1010064
:100E00005FEA000A0AD100F01DFAC0680168405C80
:100E1000D4E901219047206A401C2062281EA5F1D8
:100E20000105DCDC07E0D4E9012118F8010B90474B
:100E3000206A401C2062381EA7F10107F3DC20461F
:100E4000FFF7B6FA032011B041E600002DE9F04F9C
:100E500004460D46D21D22F0070089B0D0E9009764
:100E60004846394601F054FF0246F80F01D02D23C1
:100E700007E02068810701D52B2302E0202101EA49
:100E8000C0038DF820300BB1012000E00020032AC0
:100E9000824601D0072A04DB2946204600F0D6F915
:100EA0003FE12078800601D40D2500E0E569C7F315
:100EB0000A560D2D49DA00214FEA175B08464FF01C
:100EC0000000002F00F4400007DA00EB80004FF430
:100ED000400100EBD07001EA60008115012901DDBD
:100EE0004FF0FF3100224FEA850CBCF1180F06D3FA
:100EF0001346ACF118004FF08052C24003E04FF4AB
:100F0000801323FA0CF30CF10C0CBCF1200F04D36A
:100F1000ACF1200C09FA0CF001E007FA0CF0002902
:100F20004FF0004801DD18B90FE00ED140450CD359
:100F300019EB02095F4121B9404502D19F4329EADB
:100F40000209BBEB175F00D0761C2088000502D594
:100F50007B48784402E07A487844193808AA30235C
:100F600002F80A30037C0AF10101002E0AF1020A9C
:100F700053546A4602DC4FF0300101E04FF031017A
:100F80004FF001088DF8001002D0A6F2FF3603E002
:100F900059EA470100D06B4E002D02DC2178090789
:100FA00004D54FF002082E218DF80110C44600210F
:100FB0000BE0C7F303433F01C35C491C6D1E02F8FD
:100FC0000830052908F1010801DA002DF1DC0021C3
:100FD0000CE000EB1973491C1B786D1E082902F800
:100FE00008304FEA091908F1010801DA002DF0DC98
:100FF00021688B0602D516E0A8F10108E04505DD61
:1010000002EB080313F8013C302BF5D0B8F1000FC8
:1010100009DD02EB080313F8013C2E2B03D109076D
:1010200001D4A8F10108002D05DD3E2102F80810C9
:101030006D1E08F10108407C002E02F8080008F13E
:10104000010804DA2D20764202F8080002E02B2085
:1010500002F808000A214FF47A70864208F101086C
:101060000BDB96FBF0F3303302F8083096FBF0F31D
:1010700008F1010800FB136601E0642E0CDB64201C
:1010800096FBF0F3303302F8083096FBF0F308F1EA
:10109000010800FB136601E00A2E06DB96FBF1F067
:1010A000303002F8080008F1010896FBF1F001FB6E
:1010B0001060303002F80800A16908F1010808EB5F
:1010C000050202EB0A00081AA0612078C00602D4CB
:1010D0002046FFF757F9216A08AE01EB0A002062AB
:1010E00004E0D4E9012116F8010B9047BAF1010A96
:1010F000F7D22078C00602D52046FFF743F96E46A6
:1011000009E016F8010B3E280FD0D4E901219047E1
:10111000206A401C2062B8F10108F2D22046FFF795
:1011200047F909B00320BDE8F08F206A2844206207
:1011300003E0D4E90121302090476D1EEBD3F8E79E
:101140006A37000002FCFFFF10B5436913B1AFF32B
:10115000008001E0FFF74FF9012010BD127800F187
:1011600024010A7000224A700122EDE711684FF055
:10117000FF32E9E710B5436913B1AFF3008001E036
:10118000FFF7D0F9012010BD128800F124018284FC
:101190000022C2840122EDE711684FF0FF32E9E737
:1011A00070B516460C46054600F044F8036893F8FF
:1011B0000101012806D0FF2C0FD8185D68B101206D
:1011C0002C7070BDD3F807013246214603F2071395
:1011D00003442846BDE8704018474FF0FF3070BD0B
:1011E000004870472C0400207546FFF7F9FFAE4613
:1011F00005006946534620F00700854618B020B523
:10120000FFF726F8BDE820404FF000064FF000073A
:101210004FF000084FF0000B21F00701AC46ACE89E
:10122000C009ACE8C009ACE8C009ACE8C0098D460B
:101230007047000010B500F005F8001D10BD00BF9C
:10124000891F0000004870474C0400202DE9F04140
:101250001F46044603260168072A01F4006004DBE8
:1012600008B116A505E016A503E008B115A500E034
:1012700015A521F010002060A069C01EA0610FB16B
:10128000401EA0612046FFF77DF84FB1D4E901214F
:1012900038469047206A401C2062C01C206206E04D
:1012A000206AFAE7D4E9012115F8010B9047761E70
:1012B000F8D22046FFF77CF8BDE8F0814E414E00A1
:1012C0006E616E00494E4600696E66002DE9F0477A
:1012D000814616468AB0354878440DC88DE80D0021
:1012E00032487844801C03AC0DC884E80D0041F6F8
:1012F0009B300844372190FBF1F290FBF1F5A5F10A
:10130000800501FB12041B3C02D56442012000E071
:101310000020DFF898A080460027FA44AAF1BE0A10
:101320000EE0E0070AD03246684607EB470101238A
:101330000AEB810100F0DEFA8DE8070064107F1CE3
:10134000002CEED1194F7F44AE3F19E0E80715D0CD
:1013500007EB04100DF1180A90E80E008AE80E0061
:10136000C068F04201D1981908903246012306A9BD
:1013700003A800F0BFFA03AB83E807006D10641CFC
:10138000002DE3D14FF0010332466946B8F1000F5A
:1013900003A802D000F099FA01E000F0ABFAC9E925
:1013A0000001C9F808200AB0BDE8F08774340000D5
:1013B00010B50446AFF300802046BDE81040FEF7AC
:1013C00032BF000001491820ABBEFEE72600020034
:1013D00070475FEA400C08BF91F0000F4FEA8C2382
:1013E0004FEAC12243EA51514FEA1C5018BF00F5A1
:1013F000F0404FEA300018BF41F000415FEA6C5CFA
:1014000000F02980BCF1FF3F08BF40F080407047EA
:10141000130C06BF12044FF0100C4FF0000C130E0B
:1014200004BF12020CF1080C130F04BF12010CF1DF
:10143000040C930F04BF92000CF1020CD30F04BFF5
:1014400052000CF1010C11464FF00002A0F11F00F8
:10145000A0EB0C00704711F0004F08BF704731F04F
:1014600000413FF4D5AF0B0C06BF09044FF0100C40
:101470004FF0000C0B0E04BF09020CF1080C0B0F0F
:1014800004BF09010CF1040C8B0F04BF89000CF19F
:10149000020CCB0F04BF49000CF1010CCCF120036E
:1014A000A0EB0C0022FA03F302FA0CF241EA03016A
:1014B00000F10100704720F07F4C80EA030023F028
:1014C0007F47ACEB070303F57C5300F0004003F1CA
:1014D000FF032DE980494FEA154B09B44FEA144345
:1014E00025EA0B4E24EA03480FF2042606EB1327E5
:1014F00049083E785FEA320203FB0667C7F500073A
:1015000007FB06F64FEA54374FEAD64606F10206C5
:1015100007FB066CCCF1005C4FEA1C472CEA074C39
:1015200007FB06F40CFB06F504EB15464FEA96168E
:1015300034BF00204FF000404FEAD13706FB07FCD4
:101540004FEA1C4C0CFB0BF7D21B03FB0CF761EBB7
:1015500007010CFB0EF7B0EB074072EB17420CFBD8
:1015600008F734BFA2EB0742B2EB074261EB174129
:101570004FEA0C444FEA910706FB07FC4FEA1C4C6C
:101580000CFB0BF7B0EBC74072EB573203FB0CF7C9
:1015900034BFA2EBC742B2EBC74261EB57310CFB41
:1015A0000EF7B0EBC70072EB57720CFB08F734BFB5
:1015B000A2EBC702B2EBC70261EB5771039F4FEA80
:1015C000816141EA921104EBCC044FEAD1374FEA32
:1015D000826206FB07FC42EA90124FEA80604FEA03
:1015E0001C4C0CFB0BF7D21B03FB0CF761EB070148
:1015F0000CFB0EF7B0EB074072EB17420CFB08F741
:1016000034BFA2EB0742B2EB074261EB17414FEA4E
:101610008C554FEA910704EB9C2406FB07FC4FEA2C
:101620001C4C0CFB0BF7B0EBC74072EB573203FBC3
:101630000CF734BFA2EBC742B2EBC74261EB5731A4
:101640000CFB0EF7B0EBC70072EB57720CFB08F700
:1016500034BFA2EBC702B2EBC70261EB577115EBC7
:101660004C254FEA816141EA92114FEA82624FEACA
:10167000D13742EA901206FB07FC44F100044FEA1E
:1016800080604FEA1C4C0CFB0BF7D21B03FB0CF7E2
:1016900061EB07010CFB0EF7B0EB074072EB174252
:1016A0000CFB08F734BFA2EB0742B2EB074261EB39
:1016B000174115EB1C154FEA813141EA92414FEA7F
:1016C000823242EA90424FEA80304FEA0C7644F18F
:1016D000000448EA03434EEA0B484FF0000EB2EB19
:1016E000080C71EB030724BF624639464EEB0E0E21
:1016F0004FF0000B0018524149414BEB0B0BB2EB82
:10170000080C71EB03077BF1000B24BF62463946DE
:101710004EEB0E0E4FF0000B0018524149414BEBBF
:101720000B0BB2EB080C71EB03077BF1000B24BF32
:10173000624639464EEB0E0E51EA020718BF46F0DC
:10174000010616EB0E7655F1000254F1000103D5A7
:10175000BDE88901BDE80088BDE88901BDE8004811
:10176000B619524141EB0101A3F10103704780809A
:101770007F7E7D7C7B7A79787776767574737271EB
:1017800071706F6E6E6D6C6C6B6A6A6968686766A3
:1017900066656464636362616160605F5F5E5E5D35
:1017A0005D5C5C5B5B5A5A595958585757565655A9
:1017B00055555454535352525251515050504F4F0B
:1017C0004F4E4E4D4D4D4C4C4C4B4B4B4A4A4A495B
:1017D000494948484847474747464646454545449E
:1017E0004444444343434342424242414141002B2B
:1017F0009C4630D477002BD01CB54FEA370703B492
:101800004FF010004FF01001BAF1000F06D0BCF1FC
:10181000000FDCBF40F0080040F008014FF000006E
:101820000FBCBDE810400BF1010BBBF1010F08BF6D
:101830005FEA170722BF12F1010211F101014FF017
:10184000004143F1000300F0004043EA000070470C
:10185000F9D35708D0E746EA064613F1400F4FEA9E
:1018600016461FDD13F1200FDFBF16430A46002185
:1018700020335B42BED0C3F1200746EA064602FA97
:1018800007F74FEA164646EA0706C3F1200722FA91
:1018900003F201FA07F721FA03F14FF0000342EADD
:1018A0000702A7E746EA020646EA06464FEA164658
:1018B00046EA0106BCBF46EA0646360C4FF0000376
:1018C0004FF000024FF0000194E72DE9804C9A465A
:1018D000934670B491E8380007C831EA400C48BF1D
:1018E00034EA430C03D5FFF7E6FDFFF780FFF0BCB9
:1018F000BDE8008C2DE9804C9A46934670B491E87F
:10190000380007C810F0804F08BF13F0804F03D194
:1019100000F005F8FFF76BFFF0BCBDE8008C20F08D
:101920007F4780EA030023F07F4C07EB0C03A3F50D
:101930007C5300F00040A3F1FE0392F0000F00F092
:10194000B38095F0000F00F077802DE901494FEA50
:1019500011404FEA144621EA004800FB06FC24EA45
:10196000064708FB06F607FB08F800FB07F718EB2D
:1019700006484CEB164C4FEA124B18EB07484FEA5F
:1019800015464CEB174022EA0B4E0BFB06FC25EAF2
:1019900006470EFB06F607FB0EFE0BFB07F71EEBDA
:1019A000064E4CEB164C4FF000061EEB074E4CEB70
:1019B000174B18EB0B0840F1000018EB0E0B58EB1F
:1019C000000840F100008F1A4FF000013CBFC943EE
:1019D000661B14BFB5EB040C00213CBFC943F61BCA
:1019E0004FEA17444EEA8E0E27EA04454FEA1C4799
:1019F00004FB07622CEA074C05FB07F70CFB05F616
:101A000004FB0CFC16EB074642EB174216EB0C46A8
:101A100042EB1C421BEB060658EB0202414146EA30
:101A20009E0601D5BDE80189B619524141EB01017D
:101A3000A3F10103BDE801894FEA14454FEA1147BC
:101A400024EA054621EA074C05FB07F406FB07F7E5
:101A50000CFB06F105FB0CFC11EB074144EB1744B2
:101A60004FEA124711EB0C4144EB1C4422EA074CAD
:101A700005FB07F206FB07F70CFB06F605FB0CFC63
:101A800016EB074642EB174216EB0C4642EB1C45A1
:101A90006A1854F1000148BF7047B619524141EB32
:101AA0000101A3F10103704795F0000F37D04FEA11
:101AB00011424FEA144721EA024624EA074C02FB8E
:101AC00007F106FB07F70CFB06F402FB0CFC14EB1A
:101AD000074441EB17414FEA154714EB0C4441EB27
:101AE0001C4125EA074C02FB07F506FB07F70CFB38
:101AF00006F602FB0CFC16EB074645EB174516EB0A
:101B00000C4645EB1C42121951F1000148BF7047C9
:101B1000B619524141EB0101A3F1010370474FEAAD
:101B200014454FEA114724EA054621EA074C05FB14
:101B300007F106FB07F70CFB06F24FF0000605FB6A
:101B40000CFC12EB074241EB174112EB0C4251EB3C
:101B50001C4148BF7047921841EB0101A3F10103FA
:101B6000704710B500F0ABFEBDE8104000F02DBC92
:101B7000FEE7704700B502464FF47A7302E018465C
:101B800000F003F8521EFAD200BD00EBC000C10005
:101B90004FF0E0204161002181610521016101696F
:101BA000C903FCD5042101617047202000F008B86A
:101BB000202802D1014800F037BC704714000020F3
:101BC000044910B50A68024202D00860FFF7F0FF2E
:101BD00010BD0000140401402DE9F84FDFF8B89162
:101BE0000024A9F1040B23460F2709F1040AABF1E5
:101BF000040EC9E00125A5402A40AA427DD1674EC6
:101C0000D1F804C0ACEB0608B44532D014DCBCF10A
:101C1000030F3AD009DCBCF1000F2AD0BCF1010F50
:101C20001CD0BCF1020F31D11DE0BCF1110F17D057
:101C3000BCF1120F2AD119E0B8F5881F19D006DCC3
:101C4000B8F5803F15D0B8F5801F1FD111E0B8F569
:101C5000001F0ED0B8F5041F18D10AE0CB6815E0BC
:101C6000CB681B1D12E0CB6808330FE0CB680C3348
:101C70000CE08B682BB1012B4FF0080303D04561BA
:101C800004E0042302E0056100E00023FF2A01D8FC
:101C9000064601E000F104064FEA840501D9A5F1EA
:101CA0002005D6F8008007FA05FC28EA0C0803FA9C
:101CB00005F548EA0508C6F800804D68ED0062D5D4
:101CC000374DAE6946F00106AE61AD6924F00306FA
:101CD00005F001050095334D06EB050CDCF80850C6
:101CE000A607360F07FA06F825EA0805DFF8B880D8
:101CF000404503D14FF0000817E044E0DFF8AC8026
:101D0000404502D14FF001080FE0DFF8A4804045C4
:101D100002D14FF0020808E0DFF89880404502D178
:101D20004FF0030801E04FF0040808FA06F848EA0B
:101D30000508CCF808804D68D9F80060ED024D46E2
:101D400001D5164300E096432E604D68DAF8006036
:101D5000AD02554601D5164300E096432E604D680E
:101D6000DBF80060AD035D4601D5164300E0964305
:101D70002E604D68DEF80060ED03754601D5164310
:101D800000E096432E60641C0D682A46E5407FF40F
:101D900031AFBDE8F88F00000804014000001110C9
:101DA000001002400000014000080140000C01400A
:101DB00000100140001401408068084000D001205C
:101DC00070470AB1016170470904FBE70148806868
:101DD0007047000004000020024881680278114426
:101DE0008160704704000020074810B5016841F089
:101DF00010010160032000F075F80F2000F006F8D4
:101E000000F024F8002010BD0020024070B50D4DF8
:101E100004464FF47A712878B1FBF0F00A4909685A
:101E2000B1FBF0F000F0BCFA48B9102C07D2002248
:101E30002146501E00F036F800206C6070BD012075
:101E400070BD000004000020100000200C4808B500
:101E5000816941F001018161816901F00101009115
:101E6000C16941F08051C161C06900F080500090AB
:101E70000448416821F0E06141F00071416008BD13
:101E80000010024000000140002809DB00F01F02A2
:101E9000012191404009800000F1E020C0F80011CC
:101EA00070470000F0B40E4B1B680C46C3F30223CE
:101EB000C3F10705042D00D90425191D072901D2F6
:101EC000002300E0DB1E012606FA05F1491E214031
:101ED00099409E40761E16403143F0BC00F03FBF53
:101EE0000CED00E0064900F0070208684FF6FF031A
:101EF000184040EA0220034A10430860704700007F
:101F00000CED00E00000FA052DE9F0470F46050052
:101F100061D0434E306800F00700B84209D2306803
:101F200020F0070038433060306800F00700B84206
:101F300051D128683B4C810712D5400703D5606812
:101F400040F4E06060602878000703D5606840F4E2
:101F5000605060606068A96820F0F000084360602D
:101F60002878C00728D06868012810D02168022886
:101F700010D0890700292EDA616821F0030101439E
:101F80006160FFF723FF804641F288390DE0216848
:101F90008903EFE78901EDE7FFF718FFA0EB0801E0
:101FA000494502D90320BDE8F0876068696800F000
:101FB0000C00B0EB810FEFD1306800F00700B842A1
:101FC0000BD9306820F0070038433060306800F0EB
:101FD0000700B84201D00120E5E72878400705D581
:101FE0006068E96820F4E0600843606028780007D2
:101FF00006D56068296920F4605040EAC10060603D
:1020000000F018F86168084AC1F30311515CC84038
:102010000649086006480068FFF7F8FE0020C2E79E
:1020200000200240001002402C3D0008100000205B
:10203000080000200E4A51680E4801F00C03042BE2
:1020400011D0082B0FD10C48C1F38343C903C05CE6
:102050000AD55168084AC1F34041921E515C054AB5
:102060005043B0FBF1F0704704494843704700000B
:102070000010024000127A001C3D000800093D00DB
:102080002DE9F84F040070D02078C04DC00749D02A
:102090006868C0F38100012807D06868C0F3810038
:1020A000022809D16868C00306D52868800339D59D
:1020B00060680028E7D035E06068B0F5803F0BD05D
:1020C00010B1B0F5A02F11D0286820F4803028601E
:1020D000286820F4802002E0286840F480302860DE
:1020E000606890B1FFF772FE06460AE0286840F487
:1020F00080202860F0E700BFFFF768FE801B64289F
:1021000073D828688003F7D50CE0FFF75FFE06461A
:1021100005E000BFFFF75AFE801B6428F0D828684E
:102120008003F7D420789A4E80074FF001094FF0D2
:10213000000839D5686810F00C0F07D06868C0F344
:102140008100022809D16868C00306D42868800786
:1021500014D52069012808D110E02069B0B1C6F873
:102160000090FFF733FE074605E00AE1FFF72EFE79
:10217000C01B0228C4D828688007F7D52868616981
:1021800020F0F80040EAC10028600DE0C6F80080A9
:10219000FFF71CFE074604E0FFF718FEC01B0228ED
:1021A00023D828688007F7D4207800072CD57948F1
:1021B000A169D9B1C0F80090FFF708FE074604E016
:1021C000FFF704FEC01B02280FD8686A8007F7D506
:1021D00071484FF4FA510068B0FBF1F0009000BF75
:1021E0000098411E0091FAD20EE080E0C0F8008015
:1021F000FFF7ECFD074604E0FFF7E8FDC01B0228EF
:1022000075D8686A8007F7D42078400760D5E869F8
:102210000027C00008D4E86940F08050E861E86910
:10222000012700F0805000905C480168C90513D474
:102230000168834641F480710160FFF7C7FD824663
:1022400006E000BFFFF7C2FDA0EB0A0064284ED8ED
:10225000DBF80000C005F5D5E06801280AD008B118
:10226000052813D0286A20F001002862286A20F08F
:10227000040002E0286A40F001002862E06841F2B0
:10228000883B98B1FFF7A2FD82460BE0286A40F038
:1022900004002862EEE700BFFFF798FDA0EB0A01FB
:1022A00059455AD8286A8007F6D50CE0FFF78EFD0D
:1022B000824605E0FFF78AFDA0EB0A0159454CD89C
:1022C000286A8007F6D41FB1E86920F08050E861E1
:1022D000E06988B36968C1F38101022944D002280A
:1022E000C6F8608004D0FFF771FD044638E034E0A2
:1022F000FFF76CFD074604E0FFF768FDC01B0228EE
:102300002BD828688001F7D4206AB0F5803F05D12A
:102310006868A16820F4003008436860D4E90801C7
:102320000843696821F4741108436860C6F8609036
:10233000FFF74CFD044606E025E000BFFFF746FD31
:10234000001B022809D828688001F7D51BE000BFD0
:10235000FFF73CFD001B022802D90320BDE8F88FDF
:1023600028688001F4D40EE00128F7D06868226A5A
:1023700000F48031914204D1616A00F47010884207
:1023800001D00120EAE70020E8E700000010024049
:1023900000004242800442421000002000700040D1
:1023A00010B5401EB0F1807F01D3012010BD4FF069
:1023B000E02460610F21601700F0D1FC0020A061D3
:1023C00007202061002010BDFEE710B500F055F990
:1023D0006420FFF7CFFB80216B2000F0DFF8642042
:1023E000FFF7C8FB01216B2000F0D8F818211B2053
:1023F00000F0D4F818211C2000F0D0F803211A2096
:1024000000F0CCF800216A2000F0C8F80021232059
:1024100000F0C4F88021372000F0C0F80121BDE8A9
:102420001040382000F0BAB82DE9FF4104463B25A2
:102430000E26E84600F07BF9D02000F062F900F0AB
:102440002DF9284600F05DF900F028F900F06FF949
:10245000D12000F056F900F021F90025B6F101076E
:1024600000F02BF908F80500BD4201D1012000E081
:10247000002000F03BF96D1CEDB2B542F0D300F046
:1024800065F9BDF8000040BA2080BDF8020040BAEE
:1024900000B260800546BDF8040040BA00B2A080DA
:1024A000BDF8081049BAE180BDF80A1049BA218187
:1024B000BDF80C1049BA618101F0D0F906462846F2
:1024C00001F0CCF9314600F069FC1F4E314601F0B5
:1024D000DDF901F06DF81D4FDFF874803A46434690
:1024E00000F0BAFE00F086FE2061B4F9040001F0AD
:1024F000B5F9014601F0CAF90546B4F9020001F048
:10250000ADF9014601F0C2F9294601F07DF800F06D
:102510002FFE0546B4F9000001F0A0F980F000405C
:10252000294600F03BFC314601F0B0F901F040F8DB
:102530003A46434600F090FE00F05CFEE06000206A
:102540006061BDE8FF81000000003443182D445451
:10255000FB21094010B5752400F0E9F8D02000F007
:10256000D0F800F09BF818B100F0F0F8FF2010BD93
:10257000204600F0C6F800F091F800F0D8F8D1201D
:1025800000F0BFF800F08AF800F097F80446012048
:1025900000F0ACF800F0DAF8204610BD70B50C463B
:1025A000054600F0C4F8D02000F0ABF800F076F853
:1025B00018B1BDE8704000F0C9B8284600F0A1F895
:1025C00000F06CF8204600F09CF800F067F8F0E7A7
:1025D00030B585B000200090019002900390234810
:1025E000816941F010018161816901F0100104915C
:1025F000816941F020018161816901F0200104912C
:10260000816941F004018161816901F00401049153
:10261000816941F0080181618069154D00F0080071
:102620004FF446740490002221462846FFF7C9FB68
:102630001120CDE9004001240320CDE90240694684
:102640002846FFF7C9FA202000900A48CDE9010486
:1026500069462846FFF7C0FA002211461720FFF707
:1026600021FC1720FFF710FC05B030BD0010024020
:10267000000C014000002110FEE7FFF7A9BF000099
:1026800010B508210448FFF797FB04460A20FFF71E
:102690007CFA204610BD0000000C014010B501205E
:1026A00000F06EF8012000F05DF8FFF7E9FF044646
:1026B000002000F057F8204610BD70B5002501201D
:1026C00000F05EF800248026012000F04BF8FFF7B0
:1026D000D7FF10B126FA04F00543002000F042F8BD
:1026E000641CE4B2082CEFD3284670BD10B500F08E
:1026F00047F8012000F036F8BDE81040002000F057
:1027000031B870B500240646802525FA04F0304023
:1027100000D0012000F034F8012000F023F8002060
:1027200000F020F8641CE4B2082CEED370BD10B5A4
:10273000012000F025F8012000F014F8002000F03E
:102740001FF8BDE81040002000F00CB810B50020C4
:1027500000F016F8012000F005F8BDE81040012057
:1027600000F00EB810B5024610210448FFF729FB0F
:10277000BDE810400A20FFF708BA0000000C014035
:1027800010B5024608210448FFF71BFBBDE81040C6
:102790000A20FFF7FAB90000000C0140FEE7000034
:1027A00010B50021074C0A46002004EBC1131A544F
:1027B000401CC0B28028FAD3491CC9B20829F3D3FF
:1027C00010BD00002C000020F0B50B4424E00446AE
:1027D00085181DE07F2C19D8002917DB3F2915DC4F
:1027E000CE1701EB56764FEAE60C0D4F26F00706A2
:1027F00007EBCC172744A1EB060E97F800C0012683
:1028000006FA0EF62CEA060C87F800C0641C24B207
:10281000A542DFDC491C09B28B42D8DCF0BD0000C8
:102820002C00002010B500204FF47A720021491CC2
:102830009142FCD3401C9042F8D3FFF7C9FE01201F
:1028400000F0F8F9BDE81040012000F0FBB970B5C8
:1028500000240646802525FA04F0304000D00120EF
:1028600000F0F0F9012000F0E5F9002000F0E2F9B5
:10287000641CE4B2082CEED3012000F0DBF9BDE8C3
:102880007040002000F0D6B910B5012000F0DAF950
:10289000012000F0CFF9002000F0D4F9BDE810408D
:1028A000002000F0C7B910B5002000F0CBF90120DE
:1028B00000F0C0F9BDE81040012000F0C3B910B528
:1028C000FFF7B0FFAE2000F0C5F9D52000F0C2F947
:1028D000802000F0BFF9A82000F0BCF93F2000F0F4
:1028E000B9F9D32000F0B6F9002000F0B3F9402088
:1028F00000F0B0F9A12000F0ADF9C82000F0AAF96D
:10290000DA2000F0A7F9122000F0A4F9812000F0ED
:10291000A1F9CF2000F09EF9D92000F09BF9F12019
:1029200000F098F9DB2000F095F9302000F092F9E2
:10293000A42000F08FF9A62000F08CF98D2000F083
:1029400089F9142000F086F9AF2000F083F9FFF731
:1029500027FFBDE8104000F059B90FB470B5C0B002
:1029600014460D46064648AA68464799FDF782FC7C
:1029700023466A462946304600F092F840B070BCC3
:102980005DF814FB10B50C4640F0B00000F062F9A1
:10299000102040EA141000F05DF904F00F00BDE8CB
:1029A000104000F057B9000008B5082B0DD0062BD9
:1029B0000AD10A4B02EB420203EB4202C03A0092F8
:1029C0000823062200F00EF808BD054B03EB0212A7
:1029D000A2F50072102300920822F3E72C430008AE
:1029E0003C3D00082DE9F04F1F4616460D46824635
:1029F0000024FFF7E9FE7F1EF81707EB5070012156
:102A0000DFF898B001EBE00743E000203DE000BFB5
:102A10000AEB00037F2B36D8E91705EB5171CA107A
:102A200021F00701691A002D03DA521E083112B293
:102A300009B202EB0409B9F1070F0ED8099A04FB99
:102A400006F802440BEBC91E18F802201EF803C05A
:102A50008A404CEA020C0EF803C009F10102072A71
:102A600011D80BEBC91202EB0308099A04FB06FC10
:102A7000024498F880301CF80220C1F10801CA40D5
:102A8000134388F88030401CC0B2B042C0D3641CED
:102A9000E4B2A742B9DCBDE8F08F00002C000020B2
:102AA0002DE9FF4F002483B09B4690462546A24661
:102AB000DFF850919EE0100610D403988DF80420A2
:102AC000641C2844A4B28DF805A000B25B460499AA
:102AD000FFF76AFF05EB0B0085B28BE00620B0EB39
:102AE000521F0ED1641CA0B28DF8042018F80010FB
:102AF000002974D08DF80510401C84B28DF806A012
:102B00003CE00E20B0EB121F16D1641CA0B28DF871
:102B1000042018F80010002971D0401C80B28DF8F4
:102B2000051018F80010002969D08DF80610401C17
:102B300084B28DF807A021E01E20B0EBD20F1FD188
:102B4000641CA0B28DF8042018F80010002956D09B
:102B5000401C80B28DF8051018F8001000294ED0E6
:102B6000401C80B28DF8061018F80010002946D0DD
:102B7000401C8DF8071084B28DF808A0002609E0EB
:102B8000641CA4B236E0384601A9FDF7ADFB68B17C
:102B9000761CB6B206EB860000EB461101EB09008D
:102BA000074619A1FDF7A0FB0028ECD1BBF1080FE7
:102BB00003D0BBF1060F1DD112E006EB860000EB3F
:102BC000461101EB0900401D009003981023284492
:102BD00000B21A460499FFF705FF103509E00EE030
:102BE00003980623284400B23F220499FFF7DCFE35
:102BF000AD1DADB218F80420002A7FF45CAF07B019
:102C0000BDE8F08F664500080000000070B5084D73
:102C1000002400212046FFF7B5FE05EBC4108021FB
:102C200000F029F8641CE4B2082CF2D370BD000057
:102C30002C00002002464FF480710148FFF7C1B814
:102C4000000C014002464FF400710148FFF7B9B88B
:102C5000000C014010B50446FFF716FE7820FFF780
:102C6000F6FD0020FFF7F3FD2046FFF7F0FDBDE87D
:102C70001040FFF718BE70B50D460646FFF704FE7C
:102C80007820FFF7E4FD4020FFF7E1FD002404E099
:102C9000305DFFF7DCFD641CE4B2AC42F8D3BDE864
:102CA0007040FFF700BE70477047FFF795B830B52A
:102CB0008FB028216846FDF7EFFA14210AA8FDF726
:102CC000EBFA01210804CDE900100024029402254A
:102CD0000491CDE907504FF4E01009906846FFF7E2
:102CE000CFF908B172B6FEE70F20CDE90A054FF41F
:102CF0008060CDE90C4002210AA80E94FFF704F988
:102D0000002801D072B6FEE70FB030BD7047FEE775
:102D1000490050EAC12018BF04204A0D18BF40F0F6
:102D2000010040F2FF72B2EB515F08BF40F00200B9
:102D3000012808BF052070474100080218BF042081
:102D40000A0E18BF40F001004FF07F4232EA010145
:102D500008BF40F00200012808BF0520704709079E
:102D6000090E002804DB00F1E02080F80014704711
:102D700000F00F0000F1E02080F8141D704700F013
:102D800043BC6FF05E01080700F089BF30380A28A5
:102D900001D2012070470020704700002DE9F04764
:102DA0004FF0684202EB40030C460546B3F1654F15
:102DB0003CBF02EB4102B2F1654F7CD2C0F3C75376
:102DC000C1F3C7529A1A1B2A06DD10F0004F14BF38
:102DD00076487748BDE8F08712F11A0F17DA11F03C
:102DE000004F06D010F0004F0CBF72487248BDE88B
:102DF000F0872146284600F06FFC0446FFF79CFF51
:102E0000042808BFFFF7BDFF2046BDE8F087420059
:102E1000B2EB410F25D910F0004F19BF674F684E34
:102E2000684F694E224685F0004415460A4680F0F8
:102E3000004110460A1A5200B2F1807F40D2484049
:102E40006249DFF88CA110F0004F18D04FF03F48D6
:102E5000384600F079FE07465146304600F074FED1
:102E600017E011F0004F04BF00263746E2D010F003
:102E7000004F19BF574F584E584F594EDAE74FF091
:102E80007C58384600F0C0FB07465146304600F0FB
:102E9000BBFB06464146284600F0F8FC214600F000
:102EA000B3FB82462146404600F0F0FC294600F084
:102EB000B9FD514600E037E000F00EFC044604E0A6
:102EC0002146284600F008FC0446014600F0DEFCDE
:102ED0008046444900F0DAFC434900F095FB414646
:102EE00000F0D4FC414900F08FFB414600F0CEFCDD
:102EF0003F4900F089FB414600F0C8FC3D4900F025
:102F000083FB05464146204600F0C0FC294600F000
:102F1000BDFC314600F078FB214600F075FB3946D8
:102F2000BDE8F04700F070BB4FF07F42B2EB400FBE
:102F300028BFB2EB410F03D2BDE8F047FFF71FBF38
:102F400040EA01035B0008BF44F0FF410AD0B2EB46
:102F5000400F08BFB2EB410F06D125F0804024F0AE
:102F6000804105460C4629E7B2EB400F12BF5FEAED
:102F7000410245F0FF4004F000413FF41FAF4A001A
:102F800092EA40033FF51AAF002AACBF4FF09F46CC
:102F90004FF03E56314600F079FC0546314620465A
:102FA00000F074FC04462846214607E7DB0FC9BF42
:102FB000DB0FC93FDB0F4940DB0F49C00000C9BF31
:102FC00022AAFDB90000C93F22AAFD390060ED3EEA
:102FD000C30ACE37000049C022AA7DBA000049408A
:102FE00022AA7D3A2DAD65BD8FB8D53D0FB511BE76
:102FF00061C84C3EA8AAAABE1CB5FEF7F5FEFFF7B5
:1030000056FEFFF7E5FAFEF7ACFDFFF7A3FA3349EA
:1030100033A306220870002100900846FFF79DFCAC
:10302000FFF7F4FD334C00BFB4F90000009032A369
:10303000062208210020FFF790FCB4F9020000905E
:1030400030A3062210210020FFF787FCB4F904000A
:1030500000902FA3062218210020FFF77EFCB4F970
:10306000060000902DA3062208214020FFF775FCE2
:10307000B4F9080000902CA3062210214020FFF78D
:103080006CFCB4F90A0000902AA306221821402003
:10309000FFF763FCE06800F08BFACDE9000128A39C
:1030A000062220210020FFF758FC206900F080FA5A
:1030B000CDE9000126A3062228210020FFF74DFCC0
:1030C000606900F075FACDE9000125A306223021E0
:1030D0000020FFF742FCFFF799FDA5E70000002064
:1030E0004D5055363035302049443A20253032583D
:1030F0000000000014000020416363583A252B3083
:1031000034640000416363593A252B303464000075
:103110004163635A3A252B30346400004779725872
:103120003A252B3034640000477972593A252B3008
:10313000346400004779725A3A252B303464000019
:1031400050697463683A252B302E32660000000007
:10315000526F6C6C3A20252B302E32660000000036
:103160005961773A2020252B302E3266000000006E
:1031700070B5054600F060FC044620F00040C0F148
:10318000FF40C00F08D025F00040C0F1FF40C00F45
:1031900004BF0120FDF7F0F8204670BD10B50029EE
:1031A0000AD00878002807D005487844FDF79CF835
:1031B000002801D0002010BD0248784410BD000056
:1031C000DE150000D615000010B500290AD00878D9
:1031D000002807D005487844FDF786F8002801D07C
:1031E000002010BD0248784410BD0000CE1500003C
:1031F000C615000021F00042A2F16052B2F5801F16
:1032000001F0004328BFD2F17F6C0BD95FEA001CAC
:1032100043EAC20242EB507018BF704728BF20F04B
:1032200001007047B2F5801FBCBF184670474FEAD7
:10323000410C1CF5001F02D2084600F0EEBB70B531
:1032400000F062F900000089FFF7F6BF4FF0004080
:10325000A0F58000704700002DE9C04130B4DFF8D0
:10326000A0C23CEA111418BF3CEA131400F0EC8031
:1032700081EA03051CEA111444EAD57418BF1CEA5C
:10328000131500F0C780A4EB05044FF0004545EA94
:10329000C12145EAC32341EA505143EA525304F1A4
:1032A0007F74994204F500344FEAC0204FEAC222ED
:1032B00008BF904200F09C804FEA13650FF2401661
:1032C000765D4FEA134506FB05F7C7F1807706FBED
:1032D00007F74FEAD737A7FB03687642C8F580386F
:1032E000A7FB06CE38BFA8F1010807FB08E64FF0A0
:1032F000000EA6FB028CE6FB03CEDCF1000CCEF147
:10330000004E38BFAEF1010EA6FB0C584FF000077F
:103310004FF00005E6FB0E87A1FB08C6A0FB07CE19
:1033200016EB0E0645F10005E1FB076515F1E04ED1
:103330007EBFA4F580345FEA46066D4116F1800732
:1033400045F100054FEA17274FEA066647EA056789
:10335000A6F1DE46B6F1805F4FEA15251FD9384643
:1033600024F0010C05EBC471BCF1FE6F01EB0C11F4
:1033700002D8F0BCBDE8008124425CBF01F5801E8C
:103380009EEAC47F02D4F0BCBDE80081244238D458
:10339000F0BCA1F1C041BDE8004100F003B94FEA23
:1033A000D22242EA43524FEAD323A7FB02864FEAD6
:1033B000D02040EA415007FB03661EEA0E0F4FEA99
:1033C000D12105FB026658BFA6EB0056B6EB0056AE
:1033D0004FEA520E4EEAC37E18EB0E0E56EB530E1A
:1033E000BDD518EB02085E417F1C55F10005B6E71C
:1033F0004FF480154FF000074FF000064FF0000823
:10340000ADE7F0BC4FF0000001F1C04101F0004118
:10341000BDE8008111EA0C1F0CEA131500D00CE086
:1034200013EA0C1F00F025804FF00000F0BC81EA89
:10343000030101F00041BDE80081F0BCBDE800419E
:1034400081EA030100F0AEB8F0BCBDE8004170B500
:1034500000F05AF8097EFC3E00F007B881EA03014B
:103460004FF0000001F00041704781EA030100F0D5
:1034700099B8F0BCBDE800414FF000002149704709
:10348000FFFDFBF9F7F5F4F2F0EEEDEBE9E8E6E429
:10349000E3E1E0DEDDDBDAD8D7D5D4D3D1D0CFCDB0
:1034A000CCCBCAC8C7C6C5C4C2C1C0BFBEBDBCBBE9
:1034B000BAB9B8B7B6B5B4B3B2B1B0AFAEADACABE4
:1034C000AAA9A8A8A7A6A5A4A3A3A2A1A09F9F9EBE
:1034D0009D9C9C9B9A999998979796959594939370
:1034E000929191908F8F8E8E8D8C8C8B8B8A898907
:1034F000888887878685858484838382828181808A
:103500000000FF070000F87F0EF1020E2EF0030E00
:103510005EF8046B364205D4012A43EB030515F52A
:10352000001F12D8012841EB010C1CF5001F0CD81C
:103530000ED14FEAD17C15F5001F0CEB4C0C0CF1B1
:10354000020C08BF4CEBD37C04E04FF0080C01E008
:103550004FEAD37C0CEB4C0526FA05F606F007067D
:10356000B6F1040C06D20EEB860CBDE870404CF0B0
:10357000010C6047DFE80CF0090B02024FF000413C
:103580004FF00000A1F5002170BD1946104601283A
:1035900051EB010418BFD4F5001484BF002001F0E2
:1035A000004170BD0808A0F500114FEA31017047D5
:1035B00043004FEAD30C4FEA3C0C43401FBF400787
:1035C0000CF1605113F0FE4F70471CF0006F03D1F7
:1035D00000200CF0004170470CF0004343EA5070AB
:1035E00010B540EACC0000F0D2F900BF0000009214
:1035F0004FEA0001FFF7D6BF4FF000414FF0000047
:10360000A1F500217047000090EA010F48BF81F04A
:10361000004100F1A082421A3CBF801A89184FEA8B
:10362000D0524FF07F4C1CEA410FA2EBD15318BF90
:103630009CEA026F00F03B804FF0004C4CEA002007
:103640004CEA012121FA03FC10EB0C0C1ED202F112
:10365000FF325FEA1C2040EBC25038BF70471CF0BD
:103660007F0F4FEA400C18BFBCF17F4F38BF704747
:10367000C3F12003994008BF20F00100BCF17F4F47
:1036800038BF7047A0F1C04000F0C7B94FEA3C0016
:10369000000A40EBC25028BF1CF0FF0F4FEA400C5D
:1036A000E6D018BFBCF17F4F38BF7047EAE79CEA0D
:1036B000026F05D010EA5C0F08BF00F000407047B1
:1036C00010B500F064F900BF64FBBE3E014800F095
:1036D000B4BA00BF0000C07F4FF47F0C1CEAD012C8
:1036E0001EBF1CEAD11392EA0C0F93EA0C0F00F0F4
:1036F000858090EA010F48BF42F4807240F4000CCC
:1037000041F400002CF07F4120F07F4000B5814261
:10371000A2EB03020FF2081CACEB504EC0F100000C
:103720009EF800E04FEA4E0E00FB0EFC38BF490049
:103730004FEA2C1C02F5FA020CFB0EF34FEACE1EE8
:103740004FEA112C4FEAC1210EEB635E42EB22429D
:103750000EFB0CFC4FEA1C5300FB03114FEA112C2B
:103760004FEA01310EFB0CFC4FEADC4C00FB0C1164
:10377000C14228BF09184CEB03335DF804EB10EB92
:10378000410143EBC250B2F57C0F38BF704729D5D9
:1037900012F0F00F1CBF00F1C04000F00040704775
:1037A000008182838485868788898B8C8D8E8F911A
:1037B0009293959697999A9C9D9FA0A2A3A5A7A83E
:1037C000AAACAEB0B2B3B5B7B9BCBEC0C2C5C7C96A
:1037D000CCCED1D4D7D9DCDFE2E6E9ECF0F3F7FACE
:1037E000FE0000004FEA400C0CF1807CBCF17E4FE3
:1037F00028BF7047B0F1C04000F00FB990EA010F48
:103800000CEAD11348BF42F48072624538BF634569
:1038100007D213F47F0F16D080EA010000F00040B9
:10382000704710B500F0B3F8097EFC3E00F005B813
:1038300080EA010000F00040704780EA010000F0DB
:10384000004000F0EAB812F47F0F04BF024870474E
:1038500080EA010000F0E1B80000C07F10F00041F4
:1038600048BF4042B0FA80F310FA03F2C3F19D035F
:103870000BD051EAC35101EB1220530638BF7047F9
:1038800000F1010008BF20F0010070474FF47F0CE9
:103890001CEAD0121EBF1CEAD11392EA0C0F93EA65
:1038A0000C0F00F0478090EA010F48BF42F480728D
:1038B0004FF0004C4CEA00204CEA012102EB0302DD
:1038C000A0FB0113A2F50002002918BF43F0010379
:1038D0005B0028BF4FEA330342EB22425FEA132C1E
:1038E0004CEBC2502EBFBCEB436FB2F57C0F704760
:1038F0004FEA036CBCF1004F08BF20F00100B2F5A5
:103900007C0F38BF70470BD582F0FF0212F5803F65
:10391000C8BF704700F1C040D8BF00F000407047FA
:1039200000F5000C5FEA4C0C48BF7047B0F1C04096
:1039300000F073B890EA010F0CEAD11348BF42F4CB
:103940008072624538BF634504D280EA010000F00E
:103950000040704710B500F01AF800BF8900013E22
:1039600000F007B800F009B85FEA410C5FEA1C6C90
:1039700008D080EA010000F050B85FEA400C5FEA2E
:103980001C6CF6D14FF00040A0F5800070470EF19E
:10399000020E2EF0030E5EF8044B244204D44FEACC
:1039A0004102B2F17F4F11D84FEA4003B3F17F4F8C
:1039B0000CD80ED14FEAD07CB2F17F4F0CEB4C0CFF
:1039C0000CF1020C08BF4CEBD17C04E04FF0080C6A
:1039D00001E04FEAD17C0CEB4C0324FA03F404F031
:1039E0000704B4F1040C06D20EEB840CBDE81040C1
:1039F0004CF0010C6047DFE80CF0070802024FF0C2
:103A00000040A0F5800010BD0846420018BFD2F16A
:103A1000807288BF00F0004010BDFF2141EAD05005
:103A2000C005704780F0004090EA010F7FF5F3ADCC
:103A300081F0004100F08FB84FEAD051002988BFD3
:103A4000D1F1FF0240F2758001F17D014FEA0020C3
:103A500070B5490840F0004038BF40080EA2430E40
:103A6000040CD25C02FB02F304FB03F3C3F14043FA
:103A7000A3FB0254ED0D45EA442202FB02F3A0FB36
:103A800003546D42C4F1404438BF641EA2FB0535A7
:103A90000023E2FB0453EA0B42EA4342A0FB02325A
:103AA00012F14004A2F12103E40903F07F031F2B6C
:103AB00032D904EBC15070BDFEFAF7F3F0ECE9E641
:103AC000E4E1DEDCD9D7D4D2D0CECCCAC8C6C4C2D9
:103AD000C1BFBDBCBAB9B7B6B4B3B2B0AFAEACAB90
:103AE000AAA9A8A7A6A4A3A2A1A09F9E9E9D9C9BB5
:103AF0009A999897979695949393929190908F8E88
:103B00008E8D8C8C8B8A8A89898887878686858426
:103B1000848383828281818004FB04F6B6EB0046B5
:103B200003D5E64248BF641CC3E7A64258BF641CE5
:103B3000BFE711F0FF0F02D100F00040704710B551
:103B4000FFF725FF7FDBFFBE90EA010F48BF81F042
:103B500000413FF560AD421A04D882F00042A0EB6C
:103B6000020011444FEAD0524FF07F4C1CEA410F43
:103B7000A2EBD15318BF9CEA026F4AD04FF0004C21
:103B80004CEA00204CEA012121FA03FCB0EB0C0CBA
:103B90000FD412F0FE0F36D05FEA4C001DD5001294
:103BA00040EBC25038BF70471CF03F0F18BF704742
:103BB0000BE0A2F101025FEA1C2040EBC25038BFCB
:103BC00070471CF07F0F18BF7047C3F12003994066
:103BD00014BF401E20F00100704780084FEA1223F6
:103BE00008BF7047B0FA80FCA2EB0C02CCF1280CA5
:103BF00060FA0CF093EA122F04BF00EBC25070473A
:103C00004FEAC3707047130A5FEADC1008BF7047C1
:103C1000F6E79CEA026F04D010EA5C0F08BF0020B0
:103C2000704710B5FFF7B3FE40DFF63E81F000406D
:103C30007047FCF7D4BFFDF709B90CF00F03092B4F
:103C400008BF082000F051800A2B0BD0082B18BFAA
:103C5000704708BF1CF0400F0AD04FF000004FF033
:103C6000000170471CF0400F18BF4FF00040704734
:103C70001CF0100F08D020F0704300F07F4242EAA1
:103C8000D3014FEA4370704700F0604021F07F425B
:103C900042EA000201F07F4040EA727070474FF044
:103CA000FF0212EAD0521CBF92F0FF038B42C2BF48
:103CB000D14200EBC1507047002A0AD0002B0BD034
:103CC000002900F00040A4BF40F0FE4040F4000096
:103CD000704700F00040704743024FF00B0C18BFD4
:103CE0004CF0806C7FF4F2AC70471CF4801F11D054
:103CF0001CF4E02F03D06FEACC31490070474FF03D
:103D00004050EFF3008222F0704242EA000282F358
:103D1000008870474FF0000070470102020304055D
:103D2000060708090A0B0C0D0E0F1010000000000A
:103D3000000000000102030406070809000000005B
:103D4000000000000000000000000000000000F87B
:103D500000000000000000333000000000160E00DC
:103D6000160E0000000000000000000040C0784077
:103D7000C0784000043F04043F040400007088FC45
:103D800008300000001820FF211E0000F008F0009D
:103D9000E018000000211C031E211E0000F008880E
:103DA000700000001E212324192721100000001696
:103DB0000E0000000000000000000000000000E015
:103DC0001804020000000007182040000002041838
:103DD000E00000000040201807000000404080F094
:103DE000804040000202010F01020200000000F0CA
:103DF000000000000101011F01010100000000009E
:103E00000000000000B07000000000000000000092
:103E1000000000000001010101010101000000009B
:103E20000000000000303000000000000000000032
:103E300080601804006018060100000000E010080F
:103E40000810E000000F102020100F00001010F8E4
:103E5000000000000020203F202000000070080823
:103E600008887000003028242221300000300888A3
:103E7000884830000018202020110E000000C020CB
:103E800010F8000000070424243F240000F80888EC
:103E9000880808000019212020110E0000E0108879
:103EA00088180000000F112020110E0000380808AB
:103EB000C83808000000003F0000000000708808BB
:103EC00008887000001C222121221C0000E010083C
:103ED0000810E0000000312222110F00000000C095
:103EE000C00000000000003030000000000000C0F2
:103EF000C0000000000080B07000000000008040A2
:103F0000201008000001020408102000404040403A
:103F1000404040000404040404040400000810208D
:103F200040800000002010080402010000704808D2
:103F30000808F0000000003036010000C030C8283A
:103F4000E810E0000718272423140B000000C038F5
:103F5000E0000000203C23020227382008F888886F
:103F600088700000203F202020110E00C03008087B
:103F700008083800071820202010080008F8080852
:103F80000810E000203F202020100F0008F888884B
:103F9000E8081000203F20202320180008F8888817
:103FA000E8081000203F200003000000C03008088F
:103FB0000838000007182020221E020008F8080018
:103FC0000008F808203F210101213F20000808F8DF
:103FD000080800000020203F202000000000080802
:103FE000F8080800C08080807F00000008F888C0C2
:103FF00028180800203F20012638200008F8080073
:1040000000000000203F20202020300008F8F800A9
:10401000F8F80800203F003F003F200008F830C0BB
:104020000008F808203F200007183F00E0100808AB
:104030000810E0000F10202020100F0008F80808DA
:104040000808F000203F210101010000E0100808ED
:104050000810E0000F18242438504F0008F8888812
:1040600088887000203F2000030C302000708808F2
:10407000080838000038202121221C00180808F800
:10408000080818000000203F2000000008F8080081
:104090000008F808001F202020201F000878880052
:1040A00000C83808000007380E010000F80800F8C2
:1040B0000008F800033C0700073C0300081868806C
:1040C0008068180820302C03032C30200838C800E2
:1040D000C83808000000203F200000001008080831
:1040E000C83808002038262120201800000000FED3
:1040F000020202000000007F40404000000C30C07F
:1041000000000000000000010638C00000020202AA
:10411000FE000000004040407F000000002010082A
:104120000408102000000000000000000000000053
:104130000000000080808080808080800002040871
:10414000000000000000000000000000000080806F
:10415000808000000019242222223F2008F80080DD
:1041600080000000003F112020110E0000000080A0
:1041700080800000000E112020201100000000802F
:104180008088F800000E112020103F200000808061
:1041900080800000001F222222221300008080F075
:1041A000888888180020203F2020000000008080A0
:1041B00080808000006B94949493600008F80080E5
:1041C00080800000203F210000203F200080989840
:1041D000000000000020203F2020000000000080A0
:1041E0009898000000C08080807F000008F80000E0
:1041F00080808000203F24022D302000000808F835
:10420000000000000020203F2020000080808080EF
:1042100080808000203F20003F20003F0080800001
:104220008080000000203F2100203F20000080808F
:1042300080800000001F202020201F008080008040
:104240008000000080FFA12020110E0000000080EF
:1042500080808000000E112020A0FF8080808000E0
:104260008080800020203F2120000100000080800D
:10427000808080000033242424241900008080E002
:10428000808000000000001F2020000080800000CF
:1042900000808000001F202020103F2080808000B0
:1042A0000080808000010E300806010080800080C0
:1042B000008080800F300C030C300F0000808000E5
:1042C000808080000020312E0E3120008080800010
:1042D0000080808080818E701806010000808080C0
:1042E000808080000021302C22213000000000005E
:1042F000807C020200000000003F404000000000FF
:10430000FF00000000000000FF0000000002027C2F
:10431000800000000040403F00000000008040405E
:10432000800000800000000000010100000000008B
:1043300000000000002F000000000700070000142C
:104340007F147F1400242A7F2A120023130864623A
:1043500000364955225000000007000000001C22D2
:104360004100000041221C000014083E081400080F
:10437000083E0808000000A06000000808080808BF
:10438000000060600000002010080402003E514957
:10439000453E0000427F40000042615149460021F5
:1043A00041454B31001814127F100027454545390F
:1043B000003C4A494930000171090503003649496A
:1043C000493600064949291E000036360000000023
:1043D000563600000008142241000014141414146E
:1043E000000041221408000201510906003E49550F
:1043F000592E007C1211127C007F49494936003E3B
:1044000041414122007F4141221C007F49494941ED
:10441000007F09090901003E4149497A007F0808E7
:10442000087F0000417F4100002040413F01007FA4
:1044300008142241007F40404040007F020C027F70
:10444000007F0408107F003E4141413E007F090982
:104450000906003E4151215E007F091929460046A8
:10446000494949310001017F0101003F4040403F7F
:10447000001F2040201F003F4038403F00631408C9
:1044800014630007087008070061514945430000A4
:104490007F414100000204081020000041417F00DC
:1044A00000040201020400404040404000000102BC
:1044B0000400002054545478007F484444380038A5
:1044C0004444442000384444487F0038545454182D
:1044D00000087E0901020018A4A4A47C007F08043F
:1044E00004780000447D4000004080847D00007F0F
:1044F000102844000000417F4000007C041804782C
:10450000007C0804047800384444443800FC242427
:1045100024180018242418FC007C0804040800480F
:104520005454542000043F444020003C4040207C30
:10453000001C2040201C003C4030403C004428101F
:104540002844001CA0A0A07C004464544C440000FB
:10455000087F41000000007F00000000417F08004C
:10456000000804081008EFBC8C00000000000000E8
:1045700000000000000000000000000000583800AB
:104580000000000000000000000000E38082000046
:10459000000000000000000000000000000000001B
:1045A0000000182424180000000000000000000093
:1045B000E4BDA00000008060F8074020180F08C884
:1045C0000808281800010000FF00100C0340807F3D
:1045D0000001061800E5A5BD00001010F01F10F046
:1045E00000808282E2928A8680004022150816614D
:1045F000000040807F0000000000E4B8960000202A
:104600002020FE2020FF202020FF2020202000004E
:1046100000007F404047444444474040400000E79A
:10462000958C0000000000FE929292FE929292FE03
:104630000000000008080484621E010001FE02045C
:10464000040808000000000000FF01010131090911
:104650000909897101010101FFFF8080808080804C
:104660009681808080808080FF0000000000000034
:1046700000000000303132333435363738394142AA
:1046800043444546403058003031323334353637B4
:104690003839616263646566403078000400000860
:1046A0000000000000000002000100001030313264
:1046B0003334353637383961626364656678700043
:1046C0003031323334353637383941424344454648
:1046D0005850000002400000000000A00000000050
:1046E00005400000000000C8000000000C40000071
:1046F0000000409C00000000194000000020BCBEEB
:104700000000000034400000BFC91B8E0000000400
:10471000B5400000504BCFD06607E2CF010000004B
:104720006C4100003E8251AADFEEA7340100000078
:10473000D9420000DCB5A0E23A301F97FFFFFFFF2F
:10474000B4450000FD25A0C8E9A3C14FFFFFFFFF4E
:10475000FF3F00000000008000000000FF3F00005D
:104760000000008000000000B448000800000020A5
:104770001400000028010008C848000814000020A8
:104780007C0A0000440100081C00000043000000F7
:10479000F8FFFFFF0C0000000E0000000F000000FB
:1047A0002E0000001001000043000000F8FFFFFF92
:1047B0000040404040404040404041414141414034
:1047C00040404040404040404040404040404040E9
:1047D0004005020202020202020202020202020278
:1047E000022020202020202020202002020202027D
:1047F00002029090909090901010101010101010D5
:1048000010101010101010101010101002020202E0
:104810000202888888888888080808080808080824
:104820000808080808080808080808080202020220
:104830004000000000000000000000000000000038
:104840000000000000000000000000000000000068
:104850000000000000000000000000000000000058
:104860000000000000000000000000000000000048
:104870000000000000000000000000000000000038
:104880000000000000000000000000000000000028
:104890000000000000000000000000000000000018
:1048A0000000000000000000000000000000000008
:1048B00000000000000000000100000010000000E7
:0848C0000000000000127A0064
:04000005080000ED02
:00000001FF
