:020000040800F2
:10000000D00A002035020008A32A00089125000824
:10001000A12A0008551D0008133000080000000048
:10002000000000000000000000000000AD2F0008EC
:10003000571D000800000000AB2F0008AF2F00087C
:100040004F0200084F0200084F0200084F0200084C
:100050004F0200084F0200084F0200084F0200083C
:100060004F0200084F0200084F0200084F0200082C
:100070004F0200084F0200084F0200084F0200081C
:100080004F0200084F0200084F0200084F0200080C
:100090004F0200084F0200084F020008591D0008D7
:1000A0004F0200084F0200084F0200084F020008EC
:1000B0004F0200084F0200084F0200084F020008DC
:1000C0004F0200084F0200084F0200084F020008CC
:1000D0004F0200084F0200084F0200084F020008BC
:1000E0004F0200084F0200084F02000800F002F81B
:1000F00000F090F80AA090E8000C82448344AAF132
:100100000107DA4501D100F085F8AFF2090EBAE82F
:100110000F0013F0010F18BFFB1A43F0010318473B
:10012000147E0000347E0000103A24BF78C878C1E5
:10013000FAD8520724BF30C830C144BF04680C60ED
:10014000704700000023002400250026103A28BF35
:1001500078C1FBD8520728BF30C148BF0B60704739
:100160006E2900F07D82702900F0BF83662906F0B9
:100170007A82652906F07782672906F07482612900
:1001800006F0738203681B0A28BF41F080016929C9
:1001900000F02A82642900F02782752900F0248269
:1001A0006F2900F04C83782900F08B83E92900F057
:1001B000E782E42900F0E482F52900F0E182EF29EA
:1001C00000F04983F82900F08A830368DB0928BF1F
:1001D00041F08001632901F0B380732901F0B880F8
:1001E000E32901F0C380F32901F0C88000207047A3
:1001F0001FB501F019F904000020002105F00AFAEA
:10020000401C60600020002105F0EEF9E0601FBD99
:1002100010B510BD01F0DAF81146FFF7E9FF04F060
:10022000EFF901F0B7F903B4FFF7F2FF03BC01F0F7
:10023000BBF900000948804709480047FEE7FEE790
:10024000FEE7FEE7FEE7FEE7FEE7FEE7FEE7FEE786
:1002500004480549054A064B704700001130000864
:10026000ED000008D0040020D00A0020D0060020B5
:10027000D006002010B54C1084EA530404D5404247
:10028000C1F1000138BF491E1B4204D55242C3F1DF
:10029000000338BF5B1E00F0C2F814F0804F04D09A
:1002A0004042C1F1000138BF491E14F0004F04D094
:1002B0005242C3F1000338BF5B1E10BD1CB50C4693
:1002C000064B7B4469460090204600F0E2F9044664
:1002D0000020694600F0F0F920461CBDF303000041
:1002E00040EA010310B59B070FD1042A0DD310C8B3
:1002F00008C9121F9C42F8D020BA19BA884201D905
:10030000012010BD4FF0FF3010BD1AB1D30703D04C
:10031000521C07E0002010BD10F8013B11F8014B02
:100320001B1B07D110F8013B11F8014B1B1B01D11E
:10033000921EF1D1184610BD02F0FF0343EA0322DA
:1003400042EA024200F0A2BB4FF0000200B51346A1
:1003500094469646203922BFA0E80C50A0E80C50E5
:10036000B1F12001BFF4F7AF090728BFA0E80C5096
:1003700048BF0CC05DF804EB890028BF40F8042B8F
:1003800008BF704748BF20F8022B11F0804F18BFFC
:1003900000F8012B704700004FF0013C50F8042B8F
:1003A00051F8043B9A4221D1A2EB0C03934313EA88
:1003B000CC1317D150F8042B51F8043B9A4215D1B5
:1003C000A2EB0C03934313EACC130BD150F8042B8C
:1003D00051F8043B9A4209D1A2EB0C03934313EA70
:1003E000CC13DBD04FF00000704700BFD01A01BA29
:1003F000B1FA81F101F0180122FA01F0CB40C1F10C
:100400002001DBB2C0B2C01A2CFA01F3D11A914319
:1004100011EAC311E6D1704770477047704753EA3D
:10042000020C00F069802DE9F04B4FF00006002B24
:100430001FBFB3FA83F503FA05F424FA05F65E400C
:1004400012BF1643B2FA82F502FA05F4C5F120058F
:100450001EBF22FA05FC44EA0C04203556EA044C7F
:100460004FEA144418BF641C4FF000084FF0000915
:10047000904271EB030C39D3002919BFB1FA81F70F
:1004800001FA07F6B0FA80F700FA07F6C7F120077D
:100490001EBF20FA07FC46EA0C062037B6FBF4FC28
:1004A000A7EB0507103F07F01F0BCBF120060CFA56
:1004B0000BFB2CFA06F644BFB3460026202FA4BF40
:1004C0005E464FF0000B5BEA060C08BF4FF0010BD5
:1004D00019EB0B09ABFB027C48EB0608C01B06FBC3
:1004E00002CC0BFB03CC71EB0C01C1E70B460246BF
:1004F00041464846BDE8F08B13B54FF000004FF081
:100500000001AFF30080BDE81C40704710B500F05B
:10051000DDFA006810BD10B5044600F0D7FA04609B
:1005200010BD70B5044685690068C10601D5302646
:1005300000E02026C00707D070BDD4E90121304675
:100540009047206A401C20626D1EF6D570BD70B5C4
:10055000044685690078C00707D170BDD4E9012140
:1005600020209047206A401C20626D1EF6D570BD89
:1005700009684A0501D540B27047C905FCD500B2EB
:10058000704709684A0501D5C0B27047C905FCD556
:1005900080B2704770B50C460546012A05D0287810
:1005A000800600D5EA69002302E0012305E05B1C18
:1005B000934202D2E05C0028F9D1A869E618C01A7B
:1005C000A861286A184428622846FFF7AAFF04E0B9
:1005D000D5E9012114F8010B9047B442F8D328461D
:1005E000FFF7B5FF70BD00002DE9F041064600247D
:1005F00010687529314616A510D0FFF7B9FF0028FD
:1006000002DA404213A507E031688A0701D512A536
:1006100002E0490704D511A5012401E0FFF7B1FF6D
:1006200000210A2206F1240709E0B0FBF2FCB0FB2E
:10063000F2F302FB1C00303078541846491C0028A5
:10064000F3D123462A463046BDE8F04100F087BA90
:10065000000000002D0000002B0000002000000022
:1006600011680268006A530501D508700AE0D305D5
:1006700001D5088006E0130603D5C217C1E90002C0
:1006800000E008600120704701694A1C0261087897
:10069000704700B58FB0CDE90131002105910549C2
:1006A0007944CDE903101146684600F029F90FB0EE
:1006B00000BD0000E5FFFFFF0A6802F8010B0A60B9
:1006C000704700002DE9FF5F15468A460446DFF8B3
:1006D000AC80F8440027D8E900103E46CDE9001070
:1006E00010E03AF816106A4602A800F04BFE411CD2
:1006F00007D02178890603D5E269391891420DD8CF
:100700000744761C2078800602D5E069B84205DDF2
:10071000AE42E6DB3AF816000028E2D1A069C01B21
:10072000A0612046FFF7FDFED8E90010CDE90010DA
:10073000002017E03AF818106A4602A800F022FEDE
:10074000B0F1FF3F81460BD000250DF1080B05E00D
:10075000D4E901211BF8050090476D1C4D45F7D3E6
:1007600008F10100B0428046E4DB206A3844206290
:100770002046FFF7ECFEBDE8FF9F0000BA760000C0
:100780002DE9F0418046D21D22F007020025D2E972
:100790000002F52915A614D0011E72F1000106DA37
:1007A0000023D0EB030063EB020211A608E0D8F8A7
:1007B00000108B0701D50FA602E0490701D50EA650
:1007C00001251146002408F1240704E000F082F915
:1007D00030323A55641C50EA0102F7D12B463246BA
:1007E00021464046BDE8F04100F0B9B900000000E4
:1007F0002D0000002B0000002000000030B400217C
:1008000000F1240408E002F00705D208303542EA7E
:100810004372DB086554491C52EA0305F3D10468AE
:10082000002310A2250707D5A40600D421B1C4696E
:1008300001230DA2641EC46130BC00F090B910B554
:10084000044621461068FFF79CFE02462046BDE89C
:1008500010400023D2E7D21D22F00701D1E9002386
:10086000CCE700000000000030000000F0B40D46AE
:100870000188090502D5214C7C4402E01F4C7C44D0
:100880000E34002100F1240608E002F00F071209DF
:10089000E75D42EA03721B097754491C52EA0307D9
:1008A000F3D102780023120704D5702D06D009B1C8
:1008B000022311342246F0BC00F051B90123103458
:1008C000F8E770B504460D4621461068FFF759FE5B
:1008D000024629462046BDE870400023C6E7D21DE7
:1008E00022F00703D3E90023C0E70368126843F04E
:1008F000200303600823C3610023B7E71C750000D1
:100900002DE9F05F894604464FF0000ADFF874B124
:10091000FB44C0F820A02046E1688847002874D036
:10092000252806D0D4E901219047206A401C206286
:10093000F1E700265F462046E16888472028054603
:1009400007DB312D05D2781910F8200C08B10643C9
:10095000F1E7B00701D526F00406C4F81CA0002773
:10096000C4F818A02A2D09D0284602F0DFFB38B3BE
:1009700004EB8708303DC8F8185019E059F8041BFB
:10098000204604EB87029161E1688847012F054604
:1009900018D1E069002820DA26F020061DE0D8F8FA
:1009A000180000EB800005EB40003038C8F8180054
:1009B0002046E1688847054602F0B8FB0028EED1E2
:1009C000012F0AD02E2D08D12046E16888477F1CD0
:1009D0000546022F46F02006C4DBA069002803DA92
:1009E000404246F00106A061F00701D026F0100653
:1009F0006C2D0BD0682D09D04C2D39D06A2D35D0F7
:100A0000742D35D07A2D33D016E038E0E1682F46CA
:100A100020468847B842054609D16C2F26D04FF4AE
:100A20008060E168064320468847054604E06C2F55
:100A30001AD04FF4807006430DB3A5F14100192878
:100A400002D8203546F400664A46294620462660EC
:100A50004E46FFF785FB80B101280BD0F61D26F02E
:100A6000070000F1080956E74020E4E78020D8E7B6
:100A70000020D6E706F104094DE7284652E7206A30
:100A8000BDE8F09FAC7400004FF000020429C0F0F4
:100A9000128010F0030C3FF459ACCCF1040CBCF103
:100AA000020F18BF00F8012BA8BF20F8022BA1EB02
:100AB0000C01FFF74BBC5FEAC17C24BF00F8012B9F
:100AC00000F8012B48BF00F8012B70470048704721
:100AD0007004002030B5B0F10A024FEA900E71F1B7
:100AE00000034EEA817EB0EB0E0061EB91014FEA0C
:100AF000101E4EEA017E10EB0E0041EB11114FEA81
:100B0000102E4EEA016E10EB0E0041EB11214FEA60
:100B1000104E4EEA014E10EB0E0041EB1141401811
:100B200041F100014FEAD00040EA41704FEAD101A3
:100B300010EB80054FEA810444EA907444EB010411
:100B40006D1944EB0404521BA3414FF0000348BF4E
:100B50000A3200D530BD401C41F1000130BD2DE905
:100B6000F0470D4699469246044600F12408016874
:100B7000880604D5E06921F01001216000E0012021
:100B8000A84201DD471B00E00027A1697A1902EBAA
:100B90000900081AA0612078C00602D42046FFF799
:100BA000C0FC002608E0D4E901211AF806009047AD
:100BB000206A401C761C20624E45F4DB2078C0067B
:100BC0000AD52046FFF7ADFC06E0D4E9012130202C
:100BD0009047206A401C2062381EA7F10107F4DC10
:100BE00007E0D4E9012118F805009047206A401C6D
:100BF0002062281EA5F10105F3DC2046FFF7A7FCC3
:100C00002078000602D50220BDE8F0870120FBE72E
:100C100070472DE9FF4F0C461E464FF0FF378BB053
:100C2000D2E90001DDF860800A908A46C1F30A55D6
:100C300005B93D46002108464FF00000BAF1000F0B
:100C400000F4400005DA00EB80004FF4400101EAB7
:100C500050004FEA9059B9F1010F00DDB9460A98EA
:100C600050EA4A000ED044F61050A5F2FF35454335
:100C70002F14B8F1000F1ED07542291E1EDDC9F1D8
:100C800000021CE0B8F1010F4FF0000001D030214C
:100C900003E0F24305E02154401CB042FBDB304648
:100CA0000022002121540B99C1F80880C1E90020DD
:100CB0000FB0BDE8F08FBD1B6D1CDEE74A4600DAC1
:100CC000694206A800F0F4FB06AB93E8070003AB0B
:100CD00083E8070050460A9900F06DFC8DE8070094
:100CE000A0F500501F3800900398002D0ADD42F255
:100CF0001F014A460844002303A90390684600F0F8
:100D0000D6FE09E0A0F500504A461F38002303A98B
:100D10000390684600F0E0FE8DE807000004000C38
:100D200003D04FF0FF30410800E01046B8F1000F4B
:100D300003D00022009215461EE0751E05D4FFF771
:100D4000C9FE303262556D1EF9D5B3460122084303
:100D500002D000227F1C04E02078302801D100223C
:100D60007F1E002A099784D01DE0112D07DAFFF7B6
:100D7000B1FE303262556D1C50EA0102F5D10843D4
:100D800002D00098C8B10EE00021681E05E0235C87
:100D9000625C63542254401E491C8142F7DBAB461F
:100DA000A81B401E0990002004F80B000B98099A1C
:100DB000C0F80880C0E9002B7AE711264FF0000840
:100DC00057E72DE9F04F88460446D21D22F007016F
:100DD00091B0D1E90001CDE90A0102F01BF9024608
:100DE0000B98C00F01D02D2007E02068810701D5A6
:100DF0002B2002E0202101EAC000032A099001D043
:100E0000072A05DB03464146204600F011FB0BE1B3
:100E10002078800601D5E06900E00620B8F1650F72
:100E2000814606D0B8F1660F18D0B8F1670F70D1BF
:100E300031E00020B9F1110F009001DB112301E036
:100E400009F101030AAA01A90CA8FFF7E2FEDDE9F6
:100E50000C70002609F10105834647E001204B464E
:100E600000904FF000470AAA01A90CA8FFF7D1FE95
:100E7000DDE90DB00C995D46002610B909F10100BD
:100E80000D18B9EB050003D4C0F1FF3609F10105D7
:100E9000A5EB09002BE0B9F1010F01DA4FF00109D0
:100EA0000020B9F1110F0090484601DD112300E048
:100EB00003460AAA01A90CA8FFF7ABFEDDE90C70F6
:100EC0004D4600268346207800070AD4AB4500DA59
:100ED0005D4601A8012D04DD411911F8011C3029DE
:100EE00007D04F4502DA17F1040F04DA01208246D9
:100EF0000FE06D1EEEE7002F02DCED1B3E4403E029
:100F0000781CA84200DD7D1CB81B00F1010A4FF0DF
:100F100000472078000703D4AA4501DB4FF0FF3AD1
:100F20000021B7F1004F0DF143088DF8431024D094
:100F300002202B23002F01DA7F422D230A21021EDB
:100F4000A0F1010000DC5FB197FBF1FC97FBF1F22F
:100F500001FB1C7C17460CF1300C08F801CDEEE7C4
:100F6000A8F1010003702188090501D5452100E0A1
:100F70006521A0F1010800F8011C09980FA9A1EB57
:100F80000807FF1D00B10120411901EBEA70A169BA
:100F90003844081A401EA0612078C00602D42046BA
:100FA000FFF7BFFA099828B1D4E901219047206AD8
:100FB000401C20622078C00622D52046FFF7B1FAF7
:100FC0001EE0002E04DBB34502DD01A8805D00E0D9
:100FD0003020D4E901219047206A401C2062761C11
:100FE000AAF101005FEA000A0AD100F01DFAC06808
:100FF0000168405CD4E901219047206A401C2062CE
:10100000281EA5F10105DCDC07E0D4E9012118F870
:10101000010B9047206A401C2062381EA7F101078F
:10102000F3DC2046FFF793FA032011B041E60000FD
:101030002DE9F04F04460D46D21D22F0070089B07D
:10104000D0E900974846394601F0E4FF0246F80F20
:1010500001D02D2307E02068810701D52B2302E072
:10106000202101EAC0038DF820300BB1012000E0FF
:101070000020032A824601D0072A04DB29462046A5
:1010800000F0D6F93FE12078800601D40D2500E07C
:10109000E569C7F30A560D2D49DA00214FEA175BBF
:1010A00008464FF00000002F00F4400007DA00EB84
:1010B00080004FF4400100EBD07001EA6000811520
:1010C000012901DD4FF0FF3100224FEA850CBCF110
:1010D000180F06D31346ACF118004FF08052C240EF
:1010E00003E04FF4801323FA0CF30CF10C0CBCF169
:1010F000200F04D3ACF1200C09FA0CF001E007FA40
:101100000CF000294FF0004801DD18B90FE00ED1B6
:1011100040450CD319EB02095F4121B9404502D18A
:101120009F4329EA0209BBEB175F00D0761C208899
:10113000000502D57B48784402E07A4878441938A3
:1011400008AA302302F80A30037C0AF10101002EBC
:101150000AF1020A53546A4602DC4FF0300101E002
:101160004FF031014FF001088DF8001002D0A6F2C7
:10117000FF3603E059EA470100D06B4E002D02DC38
:101180002178090704D54FF002082E218DF80110AF
:10119000C44600210BE0C7F303433F01C35C491C75
:1011A0006D1E02F80830052908F1010801DA002D4A
:1011B000F1DC00210CE000EB1973491C1B786D1E5B
:1011C000082902F808304FEA091908F1010801DA84
:1011D000002DF0DC21688B0602D516E0A8F101088D
:1011E000E04505DD02EB080313F8013C302BF5D098
:1011F000B8F1000F09DD02EB080313F8013C2E2BB8
:1012000003D1090701D4A8F10108002D05DD3E2115
:1012100002F808106D1E08F10108407C002E02F84B
:10122000080008F1010804DA2D20764202F80800CF
:1012300002E02B2002F808000A214FF47A7086425F
:1012400008F101080BDB96FBF0F3303302F80830AD
:1012500096FBF0F308F1010800FB136601E0642E31
:101260000CDB642096FBF0F3303302F8083096FB79
:10127000F0F308F1010800FB136601E00A2E06DB1B
:1012800096FBF1F0303002F8080008F1010896FBF7
:10129000F1F001FB1060303002F80800A16908F19C
:1012A000010808EB050202EB0A00081AA061207889
:1012B000C00602D42046FFF734F9216A08AE01EBDC
:1012C0000A00206204E0D4E9012116F8010B9047DE
:1012D000BAF1010AF7D22078C00602D52046FFF7FE
:1012E00020F96E4609E016F8010B3E280FD0D4E92C
:1012F00001219047206A401C2062B8F10108F2D217
:101300002046FFF724F909B00320BDE8F08F206ADA
:101310002844206203E0D4E90121302090476D1E6B
:10132000EBD3F8E7516D000002FCFFFF10B54369F5
:1013300013B1AFF3008001E0FFF72CF9012010BDDD
:10134000127800F124010A7000224A700122EDE7B0
:1013500011684FF0FF32E9E710B5436913B1AFF3FD
:10136000008001E0FFF7AEF9012010BD128800F106
:10137000240182840022C2840122EDE711684FF02B
:10138000FF32E9E770B516460C46054600F044F812
:10139000036893F80101012806D0FF2C0FD8185DCF
:1013A00068B101202C7070BDD3F807013246214688
:1013B00003F2071303442846BDE8704018474FF076
:1013C000FF3070BD00487047700400207546FFF77D
:1013D000F9FFAE4605006946534620F007008546F2
:1013E00018B020B5FEF734FFBDE820404FF00006EE
:1013F0004FF000074FF000084FF0000B21F00701FD
:10140000AC46ACE8C009ACE8C009ACE8C009ACE83F
:10141000C0098D467047000010B500F005F8001DAA
:1014200010BD00BFF141000000487047900400204B
:101430002DE9F0411F46044603260168072A01F4FE
:10144000006004DB08B116A505E016A503E008B1AD
:1014500015A500E015A521F010002060A069C01EB0
:10146000A0610FB1401EA0612046FFF75AF84FB1AE
:10147000D4E9012138469047206A401C2062C01CF4
:10148000206206E0206AFAE7D4E9012115F8010B91
:101490009047761EF8D22046FFF759F8BDE8F08154
:1014A0004E414E006E616E00494E4600696E660008
:1014B0002DE9F047814616468AB0354878440DC874
:1014C0008DE80D0032487844801C03AC0DC884E8D8
:1014D0000D0041F69B300844372190FBF1F290FB60
:1014E000F1F5A5F1800501FB12041B3C02D5644215
:1014F000012000E00020DFF898A080460027FA4491
:10150000AAF1BE0A0EE0E0070AD03246684607EBB1
:10151000470101230AEB810100F0DEFA8DE80700A4
:1015200064107F1C002CEED1194F7F44AE3F19E0B0
:10153000E80715D007EB04100DF1180A90E80E002B
:101540008AE80E00C068F04201D19819089032462E
:10155000012306A903A800F0BFFA03AB83E8070044
:101560006D10641C002DE3D14FF001033246694633
:10157000B8F1000F03A802D000F099FA01E000F0E2
:10158000ABFAC9E90001C9F808200AB0BDE8F08744
:101590005C6A000010B50446AFF300802046BDE849
:1015A0001040FEF740BE000001491820ABBEFEE728
:1015B0002600020070475FEA400C08BF91F0000F60
:1015C0004FEA8C234FEAC12243EA51514FEA1C50A3
:1015D00018BF00F5F0404FEA300018BF41F000415D
:1015E0005FEA6C5C00F02980BCF1FF3F08BF40F06F
:1015F00080407047130C06BF12044FF0100C4FF0E0
:10160000000C130E04BF12020CF1080C130F04BFE0
:1016100012010CF1040C930F04BF92000CF1020CA8
:10162000D30F04BF52000CF1010C11464FF0000221
:10163000A0F11F00A0EB0C00704711F0004F08BF95
:10164000704731F000413FF4D5AF0B0C06BF0904E1
:101650004FF0100C4FF0000C0B0E04BF09020CF100
:10166000080C0B0F04BF09010CF1040C8B0F04BF15
:1016700089000CF1020CCB0F04BF49000CF1010CE6
:10168000CCF12003A0EB0C0022FA03F302FA0CF2D7
:1016900041EA030100F10100704720F07F4C80EA2D
:1016A000030023F07F47ACEB070303F57C5300F006
:1016B000004003F1FF032DE980494FEA154B09B4BF
:1016C0004FEA144325EA0B4E24EA03480FF204269E
:1016D00006EB132749083E785FEA320203FB0667F0
:1016E000C7F5000707FB06F64FEA54374FEAD64620
:1016F00006F1020607FB066CCCF1005C4FEA1C47C2
:101700002CEA074C07FB06F40CFB06F504EB154628
:101710004FEA961634BF00204FF000404FEAD13711
:1017200006FB07FC4FEA1C4C0CFB0BF7D21B03FB20
:101730000CF761EB07010CFB0EF7B0EB074072EB07
:1017400017420CFB08F734BFA2EB0742B2EB07428B
:1017500061EB17414FEA0C444FEA910706FB07FC87
:101760004FEA1C4C0CFB0BF7B0EBC74072EB573247
:1017700003FB0CF734BFA2EBC742B2EBC74261EBED
:1017800057310CFB0EF7B0EBC70072EB57720CFB36
:1017900008F734BFA2EBC702B2EBC70261EB577187
:1017A000039F4FEA816141EA921104EBCC044FEAB6
:1017B000D1374FEA826206FB07FC42EA90124FEAF9
:1017C00080604FEA1C4C0CFB0BF7D21B03FB0CF7A1
:1017D00061EB07010CFB0EF7B0EB074072EB174211
:1017E0000CFB08F734BFA2EB0742B2EB074261EBF8
:1017F00017414FEA8C554FEA910704EB9C2406FBF6
:1018000007FC4FEA1C4C0CFB0BF7B0EBC74072EB2C
:10181000573203FB0CF734BFA2EBC742B2EBC7420F
:1018200061EB57310CFB0EF7B0EBC70072EB577250
:101830000CFB08F734BFA2EBC702B2EBC70261EBA7
:10184000577115EB4C254FEA816141EA92114FEA3D
:1018500082624FEAD13742EA901206FB07FC44F15C
:1018600000044FEA80604FEA1C4C0CFB0BF7D21BC4
:1018700003FB0CF761EB07010CFB0EF7B0EB074025
:1018800072EB17420CFB08F734BFA2EB0742B2EB36
:10189000074261EB174115EB1C154FEA813141EA14
:1018A00092414FEA823242EA90424FEA80304FEA58
:1018B0000C7644F1000448EA03434EEA0B484FF02B
:1018C000000EB2EB080C71EB030724BF62463946E9
:1018D0004EEB0E0E4FF0000B0018524149414BEBFE
:1018E0000B0BB2EB080C71EB03077BF1000B24BF71
:1018F000624639464EEB0E0E4FF0000B0018524177
:1019000049414BEB0B0BB2EB080C71EB03077BF17E
:10191000000B24BF624639464EEB0E0E51EA020719
:1019200018BF46F0010616EB0E7655F1000254F191
:10193000000103D5BDE88901BDE80088BDE8890143
:10194000BDE80048B619524141EB0101A3F1010382
:10195000704780807F7E7D7C7B7A7978777676751C
:101960007473727171706F6E6E6D6C6C6B6A6A6994
:101970006868676666656464636362616160605F2E
:101980005F5E5E5D5D5C5C5B5B5A5A5959585857A7
:10199000575656555555545453535252525151500F
:1019A00050504F4F4F4E4E4D4D4D4C4C4C4B4B4B62
:1019B0004A4A4A49494948484847474747464646A8
:1019C00045454544444444434343434242424241E3
:1019D0004141002B9C4630D477002BD01CB54FEAF8
:1019E000370703B44FF010004FF01001BAF1000FA9
:1019F00006D0BCF1000FDCBF40F0080040F0080149
:101A00004FF000000FBCBDE810400BF1010BBBF123
:101A1000010F08BF5FEA170722BF12F1010211F19F
:101A200001014FF0004143F1000300F0004043EAA0
:101A300000007047F9D35708D0E746EA064613F18D
:101A4000400F4FEA16461FDD13F1200FDFBF16438C
:101A50000A46002120335B42BED0C3F1200746EA8C
:101A6000064602FA07F74FEA164646EA0706C3F1AA
:101A7000200722FA03F201FA07F721FA03F14FF0E7
:101A8000000342EA0702A7E746EA020646EA0646DC
:101A90004FEA164646EA0106BCBF46EA0646360C41
:101AA0004FF000034FF000024FF0000194E72DE9E2
:101AB000804C9A46934670B491E8380007C831EAE2
:101AC000400C48BF34EA430C03D5FFF7E6FDFFF7AF
:101AD00080FFF0BCBDE8008C2DE9804C9A4693460F
:101AE00070B491E8380007C810F0804F08BF13F0B9
:101AF000804F03D100F005F8FFF76BFFF0BCBDE8A5
:101B0000008C20F07F4780EA030023F07F4C07EB36
:101B10000C03A3F57C5300F00040A3F1FE0392F008
:101B2000000F00F0B38095F0000F00F077802DE9F2
:101B300001494FEA11404FEA144621EA004800FBF0
:101B400006FC24EA064708FB06F607FB08F800FB3C
:101B500007F718EB06484CEB164C4FEA124B18EB04
:101B600007484FEA15464CEB174022EA0B4E0BFB99
:101B700006FC25EA06470EFB06F607FB0EFE0BFBEE
:101B800007F71EEB064E4CEB164C4FF000061EEB13
:101B9000074E4CEB174B18EB0B0840F1000018EB0D
:101BA0000E0B58EB000840F100008F1A4FF00001B7
:101BB0003CBFC943661B14BFB5EB040C00213CBFFE
:101BC000C943F61B4FEA17444EEA8E0E27EA044536
:101BD0004FEA1C4704FB07622CEA074C05FB07F79A
:101BE0000CFB05F604FB0CFC16EB074642EB174218
:101BF00016EB0C4642EB1C421BEB060658EB0202AE
:101C0000414146EA9E0601D5BDE80189B619524117
:101C100041EB0101A3F10103BDE801894FEA14453D
:101C20004FEA114724EA054621EA074C05FB07F471
:101C300006FB07F70CFB06F105FB0CFC11EB07415B
:101C400044EB17444FEA124711EB0C4144EB1C44A0
:101C500022EA074C05FB07F206FB07F70CFB06F62A
:101C600005FB0CFC16EB074642EB174216EB0C4645
:101C700042EB1C456A1854F1000148BF7047B61981
:101C8000524141EB0101A3F10103704795F0000FB0
:101C900037D04FEA11424FEA144721EA024624EABC
:101CA000074C02FB07F106FB07F70CFB06F402FBEF
:101CB0000CFC14EB074441EB17414FEA154714EBBA
:101CC0000C4441EB1C4125EA074C02FB07F506FBDF
:101CD00007F70CFB06F602FB0CFC16EB074645EB80
:101CE000174516EB0C4645EB1C42121951F1000149
:101CF00048BF7047B619524141EB0101A3F10103FE
:101D000070474FEA14454FEA114724EA054621EA95
:101D1000074C05FB07F106FB07F70CFB06F24FF03B
:101D2000000605FB0CFC12EB074241EB174112EBDE
:101D30000C4251EB1C4148BF7047921841EB010126
:101D4000A3F10103704710B500F03BFFBDE8104060
:101D500000F036BDFEE77047202000F015B8000007
:101D600070B5044600F016F90546601C02D0044820
:101D70000078044400F00EF9401BA042FAD370BD75
:101D80000000002070470000044910B50A680242B4
:101D900002D00860FFF7F6FF10BD000014040140F8
:101DA0002DE9F84FDFF8B8910024A9F1040B234680
:101DB0000F2709F1040AABF1040EC9E00125A54083
:101DC0002A40AA427DD1674ED1F804C0ACEB060888
:101DD000B44532D014DCBCF1030F3AD009DCBCF1BD
:101DE000000F2AD0BCF1010F1CD0BCF1020F31D181
:101DF0001DE0BCF1110F17D0BCF1120F2AD119E070
:101E0000B8F5881F19D006DCB8F5803F15D0B8F5B5
:101E1000801F1FD111E0B8F5001F0ED0B8F5041FC8
:101E200018D10AE0CB6815E0CB681B1D12E0CB6827
:101E300008330FE0CB680C330CE08B682BB1012B1F
:101E40004FF0080303D0456104E0042302E005617C
:101E500000E00023FF2A01D8064601E000F1040655
:101E60004FEA840501D9A5F12005D6F8008007FACC
:101E700005FC28EA0C0803FA05F548EA0508C6F847
:101E800000804D68ED0062D5374DAE6946F0010621
:101E9000AE61AD6924F0030605F001050095334DF0
:101EA00006EB050CDCF80850A607360F07FA06F813
:101EB00025EA0805DFF8B880404503D14FF0000857
:101EC00017E044E0DFF8AC80404502D14FF0010854
:101ED0000FE0DFF8A480404502D14FF0020808E08F
:101EE000DFF89880404502D14FF0030801E04FF041
:101EF000040808FA06F848EA0508CCF808804D6896
:101F0000D9F80060ED024D4601D5164300E0964336
:101F10002E604D68DAF80060AD02554601D51643D3
:101F200000E096432E604D68DBF80060AD035D462F
:101F300001D5164300E096432E604D68DEF8006040
:101F4000ED03754601D5164300E096432E60641CF0
:101F50000D682A46E5407FF431AFBDE8F88F0000F8
:101F60000804014000001110001002400000014070
:101F700000080140000C0140001001400014014025
:101F80008068084000D0012070470AB101617047A5
:101F90000904FBE70148806870470000000000204A
:101FA0000248816802781144816070470000002077
:101FB000074810B5016841F010010160032000F0EE
:101FC00075F80F2000F006F800F024F8002010BD8E
:101FD0000020024070B50D4D04464FF47A71287808
:101FE000B1FBF0F00A490968B1FBF0F000F0BCFA6F
:101FF00048B9102C07D200222146501E00F036F8B6
:1020000000206C6070BD012070BD00000000002049
:102010000C0000200C4808B5816941F00101816184
:10202000816901F001010091C16941F08051C161F4
:10203000C06900F0805000900448416821F0E061E0
:1020400041F00071416008BD0010024000000140F5
:10205000002809DB00F01F020121914040098000A7
:1020600000F1E020C0F8001170470000F0B40E4B02
:102070001B680C46C3F30223C3F10705042D00D9E6
:102080000425191D072901D2002300E0DB1E0126CB
:1020900006FA05F1491E214099409E40761E1640E1
:1020A0003143F0BC00F0CABF0CED00E0064900F07F
:1020B000070208684FF6FF03184040EA0220034A6F
:1020C00010430860704700000CED00E00000FA05C6
:1020D0002DE9F0470F46050061D0434E306800F00F
:1020E0000700B84209D2306820F00700384330605A
:1020F000306800F00700B84251D128683B4C810796
:1021000012D5400703D5606840F4E060606028782D
:10211000000703D5606840F4605060606068A9689B
:1021200020F0F000084360602878C00728D0686875
:10213000012810D02168022810D0890700292EDA42
:10214000616821F0030101436160FFF723FF8046CE
:1021500041F288390DE021688903EFE78901EDE755
:10216000FFF718FFA0EB0801494502D90320BDE89D
:10217000F0876068696800F00C00B0EB810FEFD168
:10218000306800F00700B8420BD9306820F0070033
:1021900038433060306800F00700B84201D00120B9
:1021A000E5E72878400705D56068E96820F4E06035
:1021B000084360602878000706D56068296920F424
:1021C000605040EAC100606000F018F86168084A99
:1021D000C1F30311515CC840064908600648006815
:1021E000FFF7F8FE0020C2E7002002400010024086
:1021F000BC6700080C000020040000200E4A516853
:102200000E4801F00C03042B11D0082B0FD10C4801
:10221000C1F38343C903C05C0AD55168084AC1F3BE
:102220004041921E515C054A5043B0FBF1F07047AB
:1022300004494843704700000010024000127A0031
:10224000AC67000800093D002DE9F84F040070D08C
:102250002078C04DC00749D06868C0F381000128CC
:1022600007D06868C0F38100022809D16868C003FC
:1022700006D52868800339D560680028E7D035E0A6
:102280006068B0F5803F0BD010B1B0F5A02F11D031
:10229000286820F480302860286820F4802002E03C
:1022A000286840F480302860606890B1FFF772FEC3
:1022B00006460AE0286840F480202860F0E700BF66
:1022C000FFF768FE801B642873D828688003F7D561
:1022D0000CE0FFF75FFE064605E000BFFFF75AFE81
:1022E000801B6428F0D828688003F7D420789A4EA1
:1022F00080074FF001094FF0000839D5686810F0E9
:102300000C0F07D06868C0F38100022809D1686803
:10231000C00306D42868800714D52069012808D195
:1023200010E02069B0B1C6F80090FFF733FE074611
:1023300005E00AE1FFF72EFEC01B0228C4D828687A
:102340008007F7D52868616920F0F80040EAC100ED
:1023500028600DE0C6F80080FFF71CFE074604E089
:10236000FFF718FEC01B022823D828688007F7D47F
:10237000207800072CD57948A169D9B1C0F8009020
:10238000FFF708FE074604E0FFF704FEC01B022823
:102390000FD8686A8007F7D571484FF4FA51006882
:1023A000B0FBF1F0009000BF0098411E0091FAD2FE
:1023B0000EE080E0C0F80080FFF7ECFD074604E087
:1023C000FFF7E8FDC01B022875D8686A8007F7D4BC
:1023D0002078400760D5E8690027C00008D4E86984
:1023E00040F08050E861E869012700F080500090DB
:1023F0005C480168C90513D40168834641F48071C3
:102400000160FFF7C7FD824606E000BFFFF7C2FD8F
:10241000A0EB0A0064284ED8DBF80000C005F5D513
:10242000E06801280AD008B1052813D0286A20F0F6
:1024300001002862286A20F0040002E0286A40F0C7
:1024400001002862E06841F2883B98B1FFF7A2FDE5
:1024500082460BE0286A40F004002862EEE700BFE5
:10246000FFF798FDA0EB0A0159455AD8286A800762
:10247000F6D50CE0FFF78EFD824605E0FFF78AFDFA
:10248000A0EB0A0159454CD8286A8007F6D41FB141
:10249000E86920F08050E861E06988B36968C1F3B9
:1024A0008101022944D00228C6F8608004D0FFF7D9
:1024B00071FD044638E034E0FFF76CFD074604E0A8
:1024C000FFF768FDC01B02282BD828688001F7D4CD
:1024D000206AB0F5803F05D16868A16820F400301B
:1024E00008436860D4E908010843696821F474115D
:1024F00008436860C6F86090FFF74CFD044606E0AC
:1025000025E000BFFFF746FD001B022809D8286818
:102510008001F7D51BE000BFFFF73CFD001B022840
:1025200002D90320BDE8F88F28688001F4D40EE0BA
:102530000128F7D06868226A00F48031914204D102
:10254000616A00F47010884201D00120EAE700209F
:10255000E8E70000001002400000424280044242CE
:102560000C0000200070004010B5401EB0F1807FCC
:1025700001D3012010BD4FF0E02460610F216017EE
:1025800000F05CFD0020A06107202061002010BD4C
:10259000FEE7000010B50E4C002208212046FFF790
:1025A000F4FC00F017F8012210212046FFF7EDFCA3
:1025B00000F010F8002210212046FFF7E6FC00F0A2
:1025C00009F820460122BDE810400821FFF7DDBCD4
:1025D000000C01400020401CC0B20A28FBD3704709
:1025E0000C4800B5816985B041F0080181618069BE
:1025F000694600F008000490182000900320039022
:10260000112001900448FFF7CBFB00F09DF805B0C6
:1026100000BD000000100240000C014010B50C4C41
:10262000012208212046FFF7B0FCFFF7D3FF01226B
:1026300010212046FFF7A9FCFFF7CCFF0022102154
:102640002046FFF7A2FCBDE81040FFF7C3BF000023
:10265000000C01402DE9F0410024134E07462546A9
:102660006006040E012210213046FFF78EFCFFF7B2
:10267000B1FF08213046FFF783FC08B1641CE4B2C7
:10268000002210213046FFF780FCFFF7A3FF6D1CEE
:10269000EDB2082DE4D327B1FFF77CFF2046BDE85B
:1026A000F081FFF7BBFFF9E7000C014070B5154E54
:1026B00005460024280601D5012200E00022082159
:1026C0003046FFF762FCFFF785FF012210213046FC
:1026D000FFF75BFCFFF77EFF002210213046FFF77B
:1026E00054FC072C04D1012208213046FFF74DFC91
:1026F0006806050EFFF76EFF641CE4B2082CD9D300
:1027000070BD0000000C014010B50E4C01220821E4
:102710002046FFF73AFC012210212046FFF735FC46
:10272000FFF758FF002208212046FFF72EFCFFF795
:1027300051FF002210212046FFF727FCBDE8104082
:10274000FFF748BF000C014010B50A4C00220821D9
:102750002046FFF71AFC012210212046FFF715FC46
:10276000FFF738FF20460122BDE810400821FFF79F
:102770000CBC0000000C014070B5104D0122082176
:102780002846FFF702FCFFF725FF0122102128460B
:10279000FFF7FBFBFFF71EFF08212846FFF7F0FBC2
:1027A00008B1012400E00024002210212846FFF790
:1027B000ECFBFFF70FFF204670BD0000000C01404E
:1027C00010B500F00AF8002803D1BDE8104002F06F
:1027D0006DB810BD752000F03BB810B5FFF700FFD5
:1027E00080216B2000F0C1F86420FFF7B9FA0021C6
:1027F0006B2000F0BAF8032000F083F8002000F00E
:102800007BF8C82000F09AF80021382000F0ADF8DD
:1028100000216A2000F0A9F80021232000F0A5F88B
:102820008021372000F0A1F8752000F011F8682809
:1028300001D0012010BD01216B2000F096F800218D
:102840006C2000F092F8642000F078F8002010BDB1
:1028500010B50446FFF758FFD020FFF727FFFFF71A
:102860008BFF2046FFF722FFFFF786FFFFF74CFFA5
:10287000D120FFF71BFFFFF77FFF0020FFF7EAFEE5
:102880000446FFF761FF204610BD00002DE9F0412E
:102890001D4614460F460646FFF736FF7006000E2B
:1028A000FFF704FFFFF768FF20B1FFF74DFF01209E
:1028B000BDE8F0813846FFF7F9FEFFF75DFFFFF74F
:1028C00023FF012000EB4600C0B2FFF7EFFEFFF749
:1028D00053FF09E0012C0DD05FF00100FFF7BAFEB5
:1028E000641E05F8010BE4B2002CF3D1FFF72CFFB6
:1028F0000020DDE70020F1E7C006010E1C2000F0FB
:1029000034B8C006010E1B2000F02FB8BC2801D33C
:10291000012110E0622801D302210CE02A2801D312
:10292000032108E0142801D3042104E00A2801D37C
:10293000052100E006211A2000F017B810B5044662
:102940004FF47A70844201D9044602E0042C00D28C
:102950000424B0FBF4F0401EC1B2192000F005F8C9
:102960006008BDE81040FFF7D1BF70B50C460546C2
:10297000FFF7CAFED020FFF799FEFFF7FDFE50B922
:102980002846FFF793FEFFF7F7FE2046FFF78EFE7F
:10299000FFF7F2FE18B1FFF7D7FE012070BDFFF779
:1029A000D3FE002070BD2DE9F0411E4615460F46AE
:1029B0000446FFF7A9FE6006000EFFF777FEFFF75B
:1029C000DBFE60B93846FFF771FEFFF7D5FE002445
:1029D0000CE0305DFFF76AFEFFF7CEFE20B1FFF797
:1029E000B3FE0120BDE8F081641CE4B2AC42F0D338
:1029F000FFF7AAFE0020F5E730B585B00020009073
:102A00000190029003902348816941F01001816197
:102A1000816901F010010491816941F02001816117
:102A2000816901F020010491816941F00401816113
:102A3000816901F004010491816941F0080181611B
:102A40008069154D00F008004FF446740490002290
:102A500021462846FFF799FA1120CDE900400124CC
:102A60000320CDE9024069462846FFF799F9202066
:102A700000900A48CDE9010469462846FFF790F91D
:102A8000002211461720FFF7F1FA1720FFF7E0FAAE
:102A900005B030BD00100240000C014000002110C4
:102AA000FEE7FEE710B50021074C0A46002004EBC4
:102AB000C1131A54401CC0B28028FAD3491CC9B2B1
:102AC0000829F3D310BD000060000020F0B50B44CE
:102AD00024E0044685181DE07F2C19D8002917DB57
:102AE0003F2915DCCE1701EB56764FEAE60C0D4F69
:102AF00026F0070607EBCC172744A1EB060E97F844
:102B000000C0012606FA0EF62CEA060C87F800C073
:102B1000641C24B2A542DFDC491C09B28B42D8DC1C
:102B2000F0BD00006000002010B500204FF47A7264
:102B30000021491C9142FCD3401C9042F8D3FFF77E
:102B40005BFF012000F0F8F9BDE81040012000F023
:102B5000FBB970B500240646802525FA04F0304004
:102B600000D0012000F0F0F9012000F0E5F900208C
:102B700000F0E2F9641CE4B2082CEED3012000F06E
:102B8000DBF9BDE87040002000F0D6B910B5012097
:102B900000F0DAF9012000F0CFF9002000F0D4F9BC
:102BA000BDE81040002000F0C7B910B5002000F0CB
:102BB000CBF9012000F0C0F9BDE81040012000F081
:102BC000C3B910B5FFF7B0FFAE2000F0C5F9D520AE
:102BD00000F0C2F9802000F0BFF9A82000F0BCF995
:102BE0003F2000F0B9F9D32000F0B6F9002000F042
:102BF000B3F9402000F0B0F9A12000F0ADF9C820F1
:102C000000F0AAF9DA2000F0A7F9122000F0A4F9E8
:102C1000812000F0A1F9CF2000F09EF9D92000F02A
:102C20009BF9F12000F098F9DB2000F095F93020B5
:102C300000F092F9A42000F08FF9A62000F08CF9A2
:102C40008D2000F089F9142000F086F9AF2000F003
:102C500083F9FFF727FFBDE8104000F059B90FB422
:102C600070B5C0B014460D46064648AA6846479956
:102C7000FDF724FB23466A462946304600F092F8C9
:102C800040B070BC5DF814FB10B50C4640F0B000CD
:102C900000F062F9102040EA141000F05DF904F031
:102CA0000F00BDE8104000F057B9000008B5082B30
:102CB0000DD0062B0AD10A4B02EB420203EB420273
:102CC000C03A00920823062200F00EF808BD054B1A
:102CD00003EB0212A2F50072102300920822F3E720
:102CE000BC6D0008CC6700082DE9F04F1F46164662
:102CF0000D4682460024FFF7E9FE7F1EF81707EB1A
:102D000050700121DFF898B001EBE00743E00020AC
:102D10003DE000BF0AEB00037F2B36D8E91705EB37
:102D20005171CA1021F00701691A002D03DA521EF1
:102D3000083112B209B202EB0409B9F1070F0ED83B
:102D4000099A04FB06F802440BEBC91E18F802208E
:102D50001EF803C08A404CEA020C0EF803C009F1C9
:102D60000102072A11D80BEBC91202EB0308099ADA
:102D700004FB06FC024498F880301CF80220C1F1E4
:102D80000801CA40134388F88030401CC0B2B042EA
:102D9000C0D3641CE4B2A742B9DCBDE8F08F0000E8
:102DA000600000202DE9FF4F002483B09B46904631
:102DB0002546A246DFF850919EE0100610D40398F5
:102DC0008DF80420641C2844A4B28DF805A000B23C
:102DD0005B460499FFF76AFF05EB0B0085B28BE0B9
:102DE0000620B0EB521F0ED1641CA0B28DF8042057
:102DF00018F80010002974D08DF80510401C84B21A
:102E00008DF806A03CE00E20B0EB121F16D1641C1A
:102E1000A0B28DF8042018F80010002971D0401CD1
:102E200080B28DF8051018F80010002969D08DF8CF
:102E30000610401C84B28DF807A021E01E20B0EBE4
:102E4000D20F1FD1641CA0B28DF8042018F8001016
:102E5000002956D0401C80B28DF8051018F80010DB
:102E600000294ED0401C80B28DF8061018F80010D2
:102E7000002946D0401C8DF8071084B28DF808A0B8
:102E8000002609E0641CA4B236E0384601A9FDF72B
:102E900083FA68B1761CB6B206EB860000EB4611E9
:102EA00001EB0900074619A1FDF776FA0028ECD1DD
:102EB000BBF1080F03D0BBF1060F1DD112E006EBEA
:102EC000860000EB461101EB0900401D00900398BD
:102ED0001023284400B21A460499FFF705FF103565
:102EE00009E00EE003980623284400B23F2204992B
:102EF000FFF7DCFEAD1DADB218F80420002A7FF408
:102F00005CAF07B0BDE8F08FF66F0008000000006E
:102F100070B5084D002400212046FFF7B5FE05EBF3
:102F2000C410802100F029F8641CE4B2082CF2D30C
:102F300070BD00006000002002464FF4807101481F
:102F4000FFF723B8000C014002464FF4007101481E
:102F5000FFF71BB8000C014010B50446FFF716FE42
:102F60007820FFF7F6FD0020FFF7F3FD2046FFF77E
:102F7000F0FDBDE81040FFF718BE70B50D460646DF
:102F8000FFF704FE7820FFF7E4FD4020FFF7E1FDA6
:102F9000002404E0305DFFF7DCFD641CE4B2AC42C9
:102FA000F8D3BDE87040FFF700BE70477047FEF7EA
:102FB000F7BF30B58FB028216846FDF7C5F9142159
:102FC0000AA8FDF7C1F901210804CDE90010002489
:102FD000029402250491CDE907504FF4E0100990C6
:102FE0006846FFF731F908B172B6FEE70F20CDE968
:102FF0000A054FF48060CDE90C4002210AA80E9426
:10300000FFF766F8002801D072B6FEE70FB030BDBA
:103010007047FEE7490050EAC12018BF04204A0D5E
:1030200018BF40F0010040F2FF72B2EB515F08BFE1
:1030300040F00200012808BF052070470907090E6B
:10304000002804DB00F1E02080F80014704700F055
:103050000F0000F1E02080F8141D70472DE9F041C9
:103060004F1E00EBC7010446D1E9000115461E467C
:1030700037F006020DD02A46334602F01BFD7F1EB4
:1030800004EBC703D3E9002302F00CFB37F0060280
:10309000F1D1022F25D0042F13D0062F18BFBDE881
:1030A000F0812A46334602F005FDD4E90A2302F0F6
:1030B000F9FA2A46334602F0FDFCD4E9082302F06F
:1030C000F1FA2A46334602F0F5FCD4E9062302F071
:1030D000E9FA2A46334602F0EDFCD4E9042302F073
:1030E000E1FA2A46334602F0E5FCD4E9022302F075
:1030F000D9FA2A46334602F0DDFCD4E90023BDE8C4
:10310000F04102F0CFBA012203F0E3BA02F0CABAEA
:10311000002213461046114602F074BB024A0020FA
:10312000110703F0D6BA000001FDFFFF30380A286E
:1031300001D2012070470020704700002DE9FE4FAA
:1031400007460E460025684600F0DAFF00246FF0BF
:103150000F0AE8464FF0010957F8240056F82410EA
:10316000401A00D5404203F011F9514603F0DFFA4E
:1031700058F8241011F0FF4F0BD003F009F84FF06E
:103180007E5103F0FBF90A4920F00040884205DC3B
:1031900007E0084908440849884202D309FA04F0C4
:1031A0000543641C032CD7DB2846BDE8FE8F0000D6
:1031B000295C0F3E666666C19A99D9002DE9F04DEB
:1031C0008D4F21F0004A86B005460C46BA452ADBF1
:1031D000AAEB070028430AD08848824501DC1AD1AF
:1031E000CDB106B02846BDE8F04DFFF78CBF844A4C
:1031F000844B284602F05EFC07460E46824A834B0B
:103200002846214602F056FC06B03A463346BDE851
:10321000F04D02F047BA0120FDF77DF906B0BDE898
:10322000F04DFFF775BF7A48824542DABAF1795F0F
:103230000BDA2846FFF7EEFE042808BFFFF76EFF03
:10324000284606B02146BDE8F08D2A460B461046BA
:1032500002F030FC834602466E480E460B460621BD
:103260007844FFF7FBFE5A46334602F023FC8046C3
:1032700069488A465A46334604217844FFF7EEFEF1
:103280005A46334602F016FC00223B4602F00AFA88
:1032900002460B464046514602F0B4FA2A462346FF
:1032A00002F008FC06B02A462346BDE8F04D02F0C5
:1032B000F9B9284624F0004100223D463B4602F081
:1032C000F7FC4FF0FF3203F004FA0646024653487B
:1032D0000F460B4606217844FFF7C0FE32463B46B8
:1032E00002F0E8FBCDE900014D4832463B4604219F
:1032F0007844FFF7B3FE32463B4602F0DBFB002288
:103300002B4602F0CFF9834602913046394602F04F
:1033100045F9804643480D46504517DCDDE900017C
:103320005A46029B02F06EFA42462B4602F0C2FB5E
:1033300042462B4602F0B6F9012203F0CAF9304AA0
:10334000304B02F0A7FD304A304B4CE04FF0000A02
:1033500052460B46404602F0A5F9CDE9031052460D
:103360002B461046194602F0A5FB32463B4602F0BA
:103370009FFCDDE9033202F045FA06460F46DDE91F
:1033800000015A46029B02F03DFA83460091012259
:103390003046394603F09DF9194A1A4B02F088FC71
:1033A00006460F4601224046294603F092F95A4646
:1033B000009B02F07FFB32463B4602F06BFD064667
:1033C0000F4601225046294603F083F90E4DDFF8DF
:1033D00058802A46434602F06BFC32463B4602F0D8
:1033E00067FC2A46434602F063FC002CD8BF81F0FC
:1033F000004106B0BDE8F08D0000F03F0000F07F16
:10340000075C143326A6913C182D4454FB21F93F48
:103410000000E03FDC4A0000F24A0000664A00007B
:103420007C4A00003333EF3FFB21E93F2DE9F84FA1
:1034300004460D4621F0004000917349814211DCA1
:103440007249884201DC06D12CB120462946BDE8EC
:10345000F84FFFF758BE6E48002DCCBF6D496E493E
:10346000BDE8F88F6D49814211DD6D498142D8BFB9
:103470004FF0FF366DDD20462946FFF7CBFD0428CF
:1034800008BFFFF74BFE20462946BDE8F88F654987
:10349000654F25F00045814233DD6449814219DDE5
:1034A000002632464FF080432046294602F0FAF8C3
:1034B00080468A4601222046294603F00AF9002266
:1034C0003B4602F0E7FC4246534602F09BF90446B5
:1034D0000D463EE001260022BA463B4620462946DC
:1034E00002F0E0F880460F46002253462046294667
:1034F00002F0D0FC42463B4602F084F904460D46F9
:1035000027E04B4981421BDDDFF828A1022600227B
:1035100053462046294602F0CDFA00223B4602F0EF
:10352000C1F880460F46002253462046294602F045
:10353000B1FC42463B4602F065F904460D4608E000
:10354000032622462B4600203B4902F05BF9044645
:103550000D4622462B461046194602F0ABFA8B4622
:10356000824602460B4602F0A5FA07460246334859
:1035700088460B4606217844FFF770FD52465B46AD
:1035800002F098FA82462E488B463A464346052179
:103590007844FFF763FD3A46434602F08BFA024651
:1035A0000B46002E504659460CDA02F07BF82246B4
:1035B0002B4602F07FFA01B022462B46BDE8F04FC1
:1035C00002F076BB02F06EF822462B4602F072FA49
:1035D0001C4A7A4402EBC603D3E9002302F05AFCEA
:1035E00022462B4602F056FC174A7A4402EBC603E9
:1035F000D3E9002302F05CFB009A002AB8BF81F0F7
:103600000041BDE8F88F0000000010440000F07F8A
:10361000182D4454FB21F93FFB21F9BF0000DC3F8A
:103620000000203E0000F33F0000F03F0000E63FB6
:10363000008003400000F83F0000F0BFC6480000D3
:103640008448000022480000EA4700002DE9F04DC0
:103650009446CCF1000423F000464CEA0404524F97
:1036600046EAD4749A46884621F00042BC4206D805
:10367000454240EA050442EAD474BC4204D9BDE89C
:10368000F04D6246FFF742BDAAF14055A5F17F65B6
:1036900055EA0C040BD0022404EAAA74434DDFF867
:1036A00010E144EAD87452EA000B04D00CE0BDE803
:1036B000F04DFFF7BBBE002C14BF012CBDE8F08D10
:1036C000022C30D0032C32D056EA0C0B0AD0BE426A
:1036D00020D1BA4209D126F0804622F080423346FA
:1036E000114617E000291ADB25E0DFF8C8B0FB44DB
:1036F000002C04BFDBE90001BDE8F08D012C02BF06
:10370000DBE9000181F00041BDE8F08D022C0AD018
:10371000032C0CD0BA4212D1B8F1000F0BDA2348B7
:103720002549BDE8F08D28462449BDE8F08D28469E
:103730007146BDE8F08D1D482149BDE8F08D921B12
:1037400012153C2AC4BF19481D490EDCBAF1000FFE
:10375000BEBF12F13C0F0020014606DB624602F0BC
:1037600051F821F00041FFF761FE002C08BFBDE8D1
:10377000F08D012C04BF81F00041BDE8F08D114AAD
:10378000114B022C07D002F085FB2A46BDE8F04D14
:103790000A4B02F07FBB02F07DFB2A46BDE8F04DEC
:1037A000064B02F085BA00000000F07F182D44544B
:1037B000FB2109C07E470000FB21F9BFFB21094026
:1037C000FB21F93F075C143326A6A13C08B560B184
:1037D00020208DF8000028208DF8010030208DF881
:1037E000020038208DF8030004E0A322042168467B
:1037F000FCF7A2FD6A46042140F69E2001F038FE47
:1038000001F0F6FA08BD00003EB5044602208DF82E
:103810000000CA208DF80100E3208DF80200092085
:103820008DF803006A460421682001F021FEA320E0
:103830008DF80000610609D5C0218DF80110C8215E
:103840008DF80210C2218DF8031005E08DF80100FB
:103850008DF802008DF8030014F4C07F09D0C42154
:103860008DF80410CC218DF80510C6218DF80610B6
:1038700005E08DF804008DF805008DF806008DF840
:1038800008008DF807008DF809006A460A2140F605
:10389000A72001F0EDFDA0074FF0D80503D02020B0
:1038A0008DF8000001E08DF800506A46012140F6D5
:1038B000B62001F0DDFDA00601D5012000E00020CA
:1038C00000F08EF814F4C07F1ED0E0050AD5B220B7
:1038D0008DF800008B208DF80100B6208DF80200D5
:1038E0009B2009E0B0208DF8000080208DF80100B9
:1038F000B4208DF8020090208DF803006A46042160
:1039000040F6A22001F0B4FDE1074FF40B6022D095
:10391000F8218DF800106A46012101F0A9FDFA2175
:10392000072000F039FB072000F004FB012000F025
:1039300021FB642000F0C4FB4FF4FA7000F0D0FBD0
:10394000C821254800F0BEFA282000F0D3FA0A204A
:1039500000F0E0FA05E08DF800506A46012101F020
:1039600087FDA00703D5D9208DF8000001E08DF870
:1039700000506A46012140F23D7001F079FD600778
:1039800001D5012000E0002000F048F8E00601D554
:10399000012000E00020FFF719FF104D44F008005F
:1039A000688101F025FA0020A873600601D5062081
:1039B000A87314F4C07F02D0A87B801DA87314F0F4
:1039C000140F02D0A87B1030A873A00702D0A87BE8
:1039D000001DA87300203EBD09E3CA026004002058
:1039E0000EB54FF4976310B106A107C901E008A214
:1039F00007CA8DE807006A460921184601F038FD1C
:103A00000EBD0000B8AAB38DB4980D355D0000005E
:103A1000B8AAAAAAB088C3C5C700000008B560B19B
:103A2000C0208DF80000C2208DF80100C4208DF860
:103A30000200C6208DF8030004E08B2204216846B2
:103A4000FCF77AFC6A46042140F6982001F010FD4C
:103A500001F0CEF908BD0000C8234FF4806202498E
:103A600040F6F63001F0A6B8487100082DE9FF4F86
:103A700089B01746DDE9165200244C4E884681462F
:103A80002C80A246B07B694601F040F94FF0FF3B25
:103A900018B158460DB0BDE8F08F708910F0140FC2
:103AA0003CD0009909BA21F0FF039DF803100B43A5
:103AB0003B6001991B1409BA21F0FF029DF8071021
:103AC0005B430A437A6002999DF80B4009BA21F0E2
:103AD000FF012143B960039C091424BA24F0FF0CB0
:103AE0009DF80F4012144CEA040CC7F80CC04FEAC2
:103AF0002C47494302FB023207FB071111441024F3
:103B0000A1F17061B1F1007F04D901F071F9A5F85C
:103B100000A0BEE7298841F48071298042066946E9
:103B200011D50A19A41D13885BBAA8F80030538870
:103B30005BBAA8F80230928852BAA8F804202A8802
:103B400042F008022A8010F4C07F11D00A19A41D87
:103B500013885BBAA9F8003053885BBAA9F8023021
:103B6000928852BAA9F804202A8842F070022A806A
:103B7000800716D00C44E07800F0C00500F03F014B
:103B80006078C00706D0C80801F007013268491CF8
:103B900002B190476078000703D5716809B1A809A0
:103BA00088470C9800F088FD002073E7600400202F
:103BB0002DE9FF41044603A800F0E4FEBDF80C0027
:103BC000410CC3032F48028902F00300550754F843
:103BD000200000D54042C2F3C105960654F8255096
:103BE00000D56D42C2F38116D20554F8264000D5A7
:103BF0006442A0FB0367C21702FB037200FB0120B3
:103C0000820042EA9670A5FB0367EA1702FB037283
:103C100005FB0122950045EA9672A4FB0367E517B0
:103C200005FB037304FB01318B0043EA9671030E1D
:103C30008DF80030030C8DF80130030A8DF8023046
:103C40008DF80300100E8DF80400100C8DF805009F
:103C5000100A8DF80600080E8DF80800080C8DF883
:103C60000900080A8DF80A008DF807208DF80B105E
:103C70006A460C214FF4257001F0FAFB04B0BDE850
:103C8000F08100006004002030B5044613A285B026
:103C900007CA8DE807004FF0FF35C82C16D8C8209A
:103CA000B0FBF4F1491E080A8DF80C008DF80D10D8
:103CB00003AA022140F2162001F0DAFB30B96A466D
:103CC0000C2140F6C12001F0D3FB10B1284605B00D
:103CD00030BD054884810020F9E70000FEF2ABC446
:103CE000AAF1DFDFBBAFDFDF60040020F8B53049A9
:103CF000098901F0030250F822404A0700D56442C6
:103D0000C1F3C1028B0650F8222000D55242C1F304
:103D1000811350F82330C80500D55B42254984FB48
:103D20000140850045EA947082FB0142A40F44EAF9
:103D3000820483FB0121950F45EA8105010E8DF870
:103D40000010010C8DF80110010A8DF802108DF899
:103D500003006A4604214FF4747001F089FB4FF0B0
:103D6000FF3688B9200E8DF80000200C8DF8010078
:103D7000200A8DF802008DF803406A4604214FF4B2
:103D8000757001F075FB08B13046F8BD280E8DF84E
:103D90000000280C8DF80100280A8DF802008DF82B
:103DA00003506A4604214FF4767001F061FBF8BDC0
:103DB0006004002009E3CA022DE9FF4104463CA04B
:103DC00004F00303006802903AA0006803903AA050
:103DD00006683AA0056802A8C15C8DF80010C4F31B
:103DE000C101425C8DF80120C4F38112805C8DF822
:103DF000020003A8C35C8DF80430415C8DF8051007
:103E0000805C8DF806006A46032140F2264001F0EE
:103E10002FFB4FF0FF37E0BB01AA032140F22A40FD
:103E200001F026FBA8BBCDE9006560070BD59DF826
:103E3000000040F001008DF800009DF8040040F003
:103E400001008DF80400A0060BD59DF8010040F09C
:103E500001008DF801009DF8050040F001008DF88B
:103E60000500E0050BD59DF8020040F001008DF83B
:103E700002009DF8060040F001008DF806006A4639
:103E800003214FF4886001F0F3FA10B901AA03216D
:103E900000E004E040F2314001F0EAFA18B138469F
:103EA00004B0BDE8F081064804810020F8E7000076
:103EB0004CCD6C000CC92C003656760026466600A8
:103EC000600400204FF47A7290FBF2F008B548438A
:103ED000010E8DF80010010C8DF80110010A8DF80B
:103EE00002108DF803006A4604214FF4AE7001F011
:103EF000BFFA08BD0521B0FBF1F008B5010A8DF845
:103F000000108DF801006A4602214FF4AD7001F0F7
:103F1000AFFA08BD0521B0FBF1F008B5010A8DF834
:103F200000108DF801006A4602214FF4AC7001F0D8
:103F30009FFA08BD08B500218DF80010C10702D016
:103F400030218DF80010810705D59DF8001041F053
:103F50000C018DF80010400705D59DF8000040F0D9
:103F600003008DF800006A4601214FF4A47001F0AF
:103F70007FFA08BD08B560B1042800D90420401EAE
:103F80008DF800006A46012140F24F1001F070FAEE
:103F900008BD0120F3E700002DE9FC41054640077C
:103FA0004FF0FF367CD0B1F5C86F79D8084602F0E3
:103FB00005FA3E4902F0ECF8074601A800F0C4FCFF
:103FC0009DF80400022806D004280DD008282ED021
:103FD000102865D134E00E21384602F0A8FB02F02B
:103FE000B5F984B2324907E00D21384602F09FFB53
:103FF00002F0ACF92F4984B2384602F0F3F902F02E
:10400000A5F9210A8DF8001080B28DF80140010A4F
:104010008DF802108DF80300E8076C4620D0224688
:1040200002214FF4EA7001F023FAC8BB11E00C2121
:10403000384602F07CFB02F089F984B21E49DBE7C6
:104040000B21384602F073FB02F080F984B21B4961
:10405000D2E7A21C02214FF4927001F009FAF8B9DC
:10406000A8070DD56A4602214FF4EC7001F000FA62
:10407000B0B9A21C02214FF4947001F0F9F978B99B
:10408000680710D56A4602214FF4EE7001F0F0F98E
:1040900030B9A21C02214FF4967001F0E9F910B179
:1040A0003046BDE8FC810020FBE7000000004843EB
:1040B000000040460000C045000040450000C044EC
:1040C0000521B0FBF1F008B5010A8DF800108DF85C
:1040D00001006A4602214FF4EF7001F0C9F908BDF2
:1040E0000521B0FBF1F008B5010A8DF800108DF83C
:1040F00001006A4602214FF4ED7001F0B9F908BDE4
:104100002DE9FE430646264801AB042240680D21F6
:104110000078FEF7BBFB10B10720BDE8FE839DF8D9
:1041200004101C2000EAD1029DF80710DFF87490FB
:10413000C1F301131A438DF800209DF80520C1F347
:10414000810300EAD2021A438DF801209DF806206F
:1041500001F0030100EAD20008430024124F8DF859
:104160000200A0466D46285D10B146F824900AE092
:1041700046F824800DE000BF56F82400394602F0CE
:1041800031F946F82400285D401E10F0FF00285544
:10419000F2D1641CE4B2032CE5D30020BDE700009B
:1041A000100000207B14AE3E1D5A843F2DE9FE4FC7
:1041B00005460120C14E8DF800004FF000088DF833
:1041C000018030680C461746817C70686B4602227D
:1041D0000078FEF7E8FB4FF0FF3A00287AD1C820BC
:1041E000FDF7BEFD8DF8008030686B460122C17B73
:1041F00070680078FEF7D7FB0028EFD130686B4677
:104200000122417970680078FEF7CDFB0028E5D1E6
:1042100030686B460122817C70680078FEF7C3FB32
:104220000028DBD130686B460122C17D70680078C0
:10423000FEF7B9FB0028D1D130686B460122017925
:1042400070680078FEF7AFFB0028C7D14FF00C096B
:104250008DF8009030686B46012201797068007813
:10426000FEF7A1FB002835D10F20FDF779FDB06ADC
:104270006B460122407A8DF80000306881787068C2
:104280000078FEF790FB002824D1B06A6B4601222B
:10429000007A8DF800003068417870680078FEF789
:1042A00082FB002873D1B06A807A0FB140F0E00041
:1042B0008DF8000030686B460122817970680078C3
:1042C000FEF771FB002862D12FB1B06AC07A40F0CE
:1042D000E00001E04AE018208DF8000030686B46ED
:1042E0000122C17970680078FEF75DFBF0BB17B161
:1042F000C820FDF735FD40208DF8000030686B4682
:104300000122017970680078FEF74DFB70BB7820C0
:104310008DF8000030686B460122417970680078A2
:10432000FEF741FB10BB3220FDF71AFD8DF800802F
:10433000306847466B464179706801220078FEF785
:1043400032FB98B931687068B046897A00786B465C
:104350000222FEF79BFA48B9BDF80000AF6040BAF0
:10436000B0FBF9F06F60C6B22F6000E00FE0A7600D
:1043700067602760002739E0D8F80010D8F80400FB
:104380006B46C97A00780C22FEF780FA10B15046CD
:10439000BDE8FE8FBDF80000236840BA02B2BDF848
:1043A0000200BDF804101A44226040BA626800B2EC
:1043B0001044606049BAA06809B20844A060BDF822
:1043C00006002B6840BA02B2BDF808001A4440BA91
:1043D00001B2BDF80A002A606A6840BA11446960F7
:1043E000A96800B208447F1CFFB2A860B742C3D3DB
:1043F00028688322C117090441EA10410004002300
:10440000FBF738FF32460023FBF734FF286068686B
:104410008322C117090441EA104100040023FBF77D
:1044200029FF32460023FBF725FF6860A868832236
:10443000C117090441EA104100040023FBF71AFFE9
:1044400032460023FBF716FFA86020684FF4006592
:10445000C117090441EA104100042A460023FBF772
:1044600009FF32460023FBF705FF206060682A46FB
:10447000C117090441EA104100040023FBF7FAFECA
:1044800032460023FBF7F6FE6060A0682A46C1179B
:10449000090441EA104100040023FBF7EBFE324619
:1044A0000023FBF7E7FEA060002802DDA0F58030C6
:1044B00001E000F58030A060002069E710000020D6
:1044C0002DE9F84F81462E488846002540686B4606
:1044D000032200780D21FEF7D9F910B10720BDE8BD
:1044E000F88F9DF80000002400F01F008DF80000F8
:1044F0009DF801006FF00F0B00F01F008DF8010018
:104500009DF802006E4600F01F008DF802004FF08B
:10451000010A00BF59F8241058F82400081A00D5E1
:10452000404201F033FF594602F001F90746305D81
:10453000C0B1144802E0144901F054FF315D491E36
:1045400011F0FF013155F6D10146384601F020FE49
:104550004FF07E5102F012F80C4920F000408842E2
:1045600005DC07E00A483844B0F1D97F02D90AFADD
:1045700004F00543641C032CCCDB2846AFE70000A5
:10458000100000200000C84154E3853F295C0F3E25
:104590000000E0BE00B5024600F00DF80346D01C56
:1045A00000F009F843EAC003901D00F004F843EA64
:1045B000801080B200BD90F90010002902DD4FF09C
:1045C0000000704702DA4FF00400704790F90110C4
:1045D000002902DD4FF00100704702DA4FF00500BC
:1045E000704790F90200002802DD4FF0020070478A
:1045F00002DA4FF0060070474FF0070070470000E6
:104600001CB5FDF7D5FCFEF7D4FCFEF7F5F9FDF778
:104610009AFBFEF7DFF80021009017A30622084658
:10462000FEF71DFBFEF774FC164C164800F070F800
:10463000206801F019FDCDE9000113A3062208212D
:104640000020FEF70CFB606801F00EFDCDE90001D3
:1046500011A3062210210020FEF701FBA06801F043
:1046600003FDCDE9000110A3062218210020FEF76A
:10467000F6FAFEF74DFCD8E74D50552049443A3044
:10468000782558004800002050697463683A252B4B
:10469000302E326600000000526F6C6C3A20252BE1
:1046A000302E3266000000005961773A2020252B19
:1046B000302E326600000000704700002DE9F04106
:1046C000124C20F00101002594F8240010B10020C4
:1046D000BDE8F081A07A4FF0FF3668B10840277C32
:1046E0002074884200D0354641B1012000F02AFFF5
:1046F00000F07EFB38B127743046E9E7207D00B139
:10470000012000F01FFF2846E2E700001000002013
:104710002DE9F04F8DB004460CA902A8CDE90001A7
:104720000BAB03AA09A907A8FFF7A0F918B101204C
:104730000DB0BDE8F08FBDF80800C0057DD5039829
:1047400001F024FE6FF01D05294601F0F0FF8346BD
:10475000049801F01BFE294601F0E9FF8146059807
:1047600001F014FE294601F0E2FF8046069801F0B0
:104770000DFE294601F0DBFF82460121584601F07B
:10478000D6FF0646414601F02DFE07464FF0404158
:10479000484601F027FE0546514601F023FE394602
:1047A00001F08EFC01F060FCFEF708FD4FF0663270
:1047B0003D4B01F07FF900F043FF206001214046AE
:1047C00001F0B5FF4146009001F00CFE0746284677
:1047D000494601F007FE394601F0D0FE4FF07E5108
:1047E00001F06EFC01F040FC07460D46304649469C
:1047F00001F0F8FD06465146009801F0F3FD314600
:1048000001F05EFC01F030FC3A462B46FEF71EFF3D
:104810004FF06632244B01F04DF900F011FF514684
:104820006060084601F0DEFD07464146084601F09B
:10483000D9FD06464946084600E032E001F0D2FDC7
:1048400005465946084601F0CDFD294601F038FCE1
:10485000314601F093FE394601F090FE01F004FC70
:1048600006460D465146584601F0BCFD07464146F6
:10487000484601F0B7FD394601F022FC012101F064
:1048800056FF01F0F1FB32462B46FEF7DFFE4FF0FC
:104890006632054B01F00EF900F0D2FEA060002058
:1048A00046E7022044E7000066A64C4010B5FDF73D
:1048B00097FE00F0EDF808B10A2010BD782000F056
:1048C0007BFD10F0FF0F01D0012010BD7820FFF715
:1048D000F5FE10F0FF0F01D0022010BD642000F0A3
:1048E0002BFD10F0FF0F01D0032010BDFFF7B4F82F
:1048F00010F0FF0F01D0042010BD1248FFF74AFE50
:10490000FFF75AFA10F0FF0F01D0052010BD40F25A
:104910007310FEF779FF10F0FF0F01D0062010BDD5
:104920006420FFF7B1F910F0FF0F01D0072010BD90
:1049300000F0C8FD012000F025FC10F0FF00F6D0CB
:10494000092010BD3C0000200D494A7A42B1012ADD
:1049500008D0022A0FD0032A0FD04FF0FF30704743
:10496000022200E004220270C97C11B11106C90DB7
:104970000170002070470822F5E71022F3E70000DD
:10498000100000200F494A7A42B1012A09D0022AB8
:1049900011D0032A12D04FF0FF3070474FF48042FD
:1049A00001E041F69C720280C97C11B1C2F34E0154
:1049B0000180002070474FF48052F4E74FF400620A
:1049C000F1E70000100000200B49097A39B10129F4
:1049D00007D002290AD003290BD0002103E0FA21D5
:1049E00001E04FF4FA710180002070474FF47A71B2
:1049F000F9E74FF4FA61F6E7100000200A49097A56
:104A000041B1012908D002290AD003290AD04FF068
:104A1000FF307047054900E00549016000207047FC
:104A20000449FAE70449F8E71000002000000343B6
:104A30000000834233330342333383410C49C97A44
:104A4000072913D2DFE801F01204060A0C0E100049
:104A5000BC2100E062210180002070472A21FAE792
:104A60001421F8E70A21F6E70521F4E70021F2E72F
:104A700010000020054991F8242012B14FF0FF30BA
:104A80007047C98901800020704700001000002095
:104A90002DE9FC41464C80208DF8000020686B46D3
:104AA0000122817C60680078FDF77DFF4FF0FF37C1
:104AB000002875D16420FDF753F900258DF80050CA
:104AC00020686B460122817C60680078FDF76BFFEF
:104AD000002865D120686B460622817D60680078D9
:104AE000FDF7D4FE00285BD19DF805009DF803106A
:104AF000C007400F01F0010140EA41009DF801109C
:104B00004FF0010601F00101084304D0012831D023
:104B1000022810D044E020686B460122C17860680A
:104B20000078FDF7B3FED8BB9DF8000010F00F0031
:104B300036D004281ED0E574FF2004F80A0F4FF683
:104B4000FF7104F8020C04F8010C6070A180A071E0
:104B50002072A67026766576E572A572E5602561FD
:104B60006561A576E576A5834FF4FA6000F046FB13
:104B7000B0B901E0E674DFE7022000F061FA78B92D
:104B80002A2000F0A3FB58B9322000F0D5FB38B939
:104B90000020FFF793FD18B9002000F085FA10B14E
:104BA0003846BDE8FC81002000F006FC0020F8E754
:104BB000100000202DE9FF4FDFF89480064685B0F5
:104BC00098F8250015460F464FF0FF39B0BBAFB33C
:104BD000002420E0301B102800DD102080B2834626
:104BE0003A1901469246204600F042FC30BB6A4624
:104BF0005946204600F0D2F800BB50465A46694656
:104C0000FBF76EFB20B16FF0010009B0BDE8F08F3B
:104C100004EB0B0084B2B442DCD3280A8DF81000F8
:104C20008DF81150D8F80000444604AB817ED8F8C6
:104C3000040002220078FDF7B6FE08B14846E4E71A
:104C4000012084F825000898E0840020DDE70000BA
:104C5000100000202DE9F84305464FF0FF392828C1
:104C600044D80727284C00267DB1012000F0FCFA2B
:104C700020208DF800004FF00108012D17D0052DE0
:104C800018D88DF8018005201FE0002000F0ECFA14
:104C90008DF800608DF8017020686B460222817CDF
:104CA00060680078FDF77FFE00BB267529E08DF86F
:104CB0000160E8E7142D04D802208DF801000A20D5
:104CC00003E003208DF80100142000F0FFFA9DF8A6
:104CD00001006B4607EB80108DF80100206802226E
:104CE000817C60680078FDF75EFE10B14846BDE843
:104CF000F8830820A072267384F814800020FFF740
:104D0000DDFC0020F3E70000100000202DE9F8434F
:104D1000214C0646174694F8240089464FF0FF3888
:104D200090B3A07A80B320686B460222817A6068D3
:104D30000078FDF7ABFD38BBBDF8000045BAB542C1
:104D400002D2002038701FE060684188B5EB510F37
:104D500011D9216800786B46497C0122FDF796FD48
:104D600090B99DF80000C00605D500F041F86FF03D
:104D70000100BDE8F8832068F2B24B46C17A606852
:104D80000078FDF783FD08B14046F2E7B5FBF6F089
:104D9000401E38700020ECE710000020F8B5160027
:104DA0000D464FF0FF371FD0104CA17AE1B1010A38
:104DB0008DF80010C0B28DF8010041196068428979
:104DC000914211D8216800786B46097E0222FDF7D6
:104DD000EAFD48B92068EAB23346417D6068007850
:104DE000FDF754FD002800D03846F8BD1000002023
:104DF000F8B5564C4FF0FF36A07A00287DD000253C
:104E00008DF8005020686B460122C17B60680078F5
:104E1000FDF7C9FD002870D120686B460122417959
:104E200060680078FDF7BFFD002866D120686B46FA
:104E30000122017960680078FDF7B5FD00285CD19A
:104E400094F82400E0B30C208DF8000020686B4635
:104E50000122017960680078FDF7A5FD002872D174
:104E60003220FCF77DFFC0208DF80000A07AC0073B
:104E700002D0E0208DF8000020686B460122017905
:104E800060680078FDF78FFD00285CD1607C18B168
:104E900002208DF8000001E08DF8005020686B467C
:104EA0000122C17B60680078FDF77DFD28BB8DF88D
:104EB000005020686B4601224179606800783EE02E
:104EC000FFE704208DF8000020686B46012201797D
:104ED00060680078FDF767FD78B9A07C90B9A07A8A
:104EE000C0070FD05FF060008DF8000020686B46AF
:104EF000012201796068007800E024E0FDF753FDAD
:104F000008BB01E04020EFE73220FCF729FF607C7E
:104F100018B101208DF8000001E08DF800502068E4
:104F20006B460122C17B60680078FDF73CFD50B9FB
:104F30002068064B01224179606810330078FDF744
:104F400032FD002800D03046F8BD000010000020DF
:104F50002DE9F047394C82468AB094F824000F4678
:104F600020B1002000F00EF9012600E0002607A87D
:104F7000FFF72AFD06A8FFF7E7FC09A8FFF75EFD8B
:104F800008A8FFF777FD94F80A9094F810800025A0
:104F9000002239465046FFF709F910B16D1C022D69
:104FA000F6DB022D1AD00025012203A96846FFF77F
:104FB000FDF810B16D1C022DF6DB022D0ED003A9F9
:104FC0003846FEF7BBF8C7B269465046FFF778FA95
:104FD00010F0FF0F4FF0000502D002E0002503E0C3
:104FE00001250FB945F00205FF2020726072E072C2
:104FF0004FF6FF71E181A072207401202073BDF88B
:105000001C0000F0FBF89DF8180000F019F8BDF83E
:10501000240000F05BF9BDF8200000F08DF948464F
:1050200000F0CAF94046FFF749FB16B1012000F035
:10503000A9F80AB02846BDE8F0870000100000205B
:1050400038B5184C4FF0FF35A17A19B3022806D0B5
:10505000042806D008280ED010281BD10DE000200F
:1050600000E008208DF80000607A9DF80010B0EB99
:10507000D10F04D005E01020F4E71820F2E700205B
:1050800038BD20686B460122C17960680078FDF761
:105090008AFC08B1284638BD9DF80000C00860723F
:1050A000EDE7000010000020F8B5354C0546A07C67
:1050B000A84201D10020F8BD31484FF0FF366B46C1
:1050C000D0E900104FF001020979007835B3FDF7FF
:1050D000DDFB70BB9DF800006B4620F020008DF8D2
:1050E000000020680122017960680078FDF75BFC10
:1050F000F8B90320FCF734FE02208DF8000094F884
:10510000220078B382202BE020686B460122017DCB
:1051100060680078FDF747FC58B92EE0FDF7B6FB54
:1051200038B9A07AC0079DF8000003D040F02000F5
:1051300002E00CE020F020008DF8000020686B46B3
:105140000122017960680078FDF72DFC08B1304636
:10515000F8BD0320FCF704FE94F8220000B1802083
:105160008DF8000094F823000028CDD09DF80000B1
:1051700040F030008DF80000C6E7A5749AE7000003
:105180001000002038B51C4C94F8241081421DD02A
:10519000002500B394F82500D0B1002000F0D2F92A
:1051A0000020FFF781FFE08C00F0C6F88DF800507A
:1051B00060686B46012200782321FDF7F4FB012093
:1051C00084F8240000F0BEF9FFF712FE002038BD7D
:1051D0004FF0FF3038BD002000F0B4F9207C8DF88E
:1051E000000060686B46012200782321FDF7DBFB9D
:1051F00084F82450E8E700001000002038B5194C6E
:105200004FF0FF35A17A31B3FA2809D0B0F5FA7F13
:1052100008D0B0F57A7F0FD0B0F5FA6F1BD10DE052
:10522000002000E008208DF80000207A9DF8001092
:10523000B0EBD10F04D005E01020F4E71820F2E71E
:10524000002038BD20686B460122817960680078B3
:10525000FDF7A9FB08B1284638BD9DF80000C0083D
:105260002072EDE71000002038B5174C054694F881
:105270002300A84201D1002038BD0DB1302000E04C
:1052800000208DF80000A07C28B19DF8000040F0BF
:1052900002008DF8000094F8220028B19DF800006B
:1052A00040F080008DF8000020686B460122017DEF
:1052B00060680078FDF777FB10B14FF0FF3038BD24
:1052C00084F82350D7E700001000002038B5194CAF
:1052D0004FF0FF35A17A31B3BC2801D3012010E093
:1052E000622801D302200CE02A2801D3032008E021
:1052F000142801D3042004E00A2801D3052000E08B
:1053000006208DF80000E07A9DF80010884201D157
:10531000002038BD20686B460122817860680078E3
:10532000FDF741FB08B1284638BD9DF80000E0724A
:10533000EEE7000010000020F8B51E4D04464FF0C7
:10534000FF37A87A48B395F8240030BB287D4FF486
:105350007A7648B164B1282C03D8E0B2FFF77AFC22
:1053600026E00020FFF776FC042C05D2042406E09A
:105370000020FFF76FFCF9E7B44200D93446B6FBD2
:10538000F4F0401E8DF8000028686B460122417839
:1053900068680078FDF707FB08B13846F8BD9DF84E
:1053A0000000401CB6FBF0F0E8814008FFF78EFFDC
:1053B0000020F8BD10000020F8B5054610F0700F71
:1053C0004FF0000601D0012004E015B18DF8006017
:1053D00002E040208DF80000244C6B46012220683A
:1053E000817C60680078FDF7DEFA4FF0FF3760BB24
:1053F0009DF8000020F0400020738DF800606806E2
:1054000002D404208DF80000A80605D49DF8000001
:1054100040F002008DF80000E80605D49DF8000079
:1054200040F001008DF80000280705D49DF8000029
:1054300040F038008DF8000020686B460122C17CE6
:1054400060680078FDF7AFFA10B1A6723846F8BD73
:1054500025B1082D02D00020FFF706FFA5722675A2
:105460003220FCF77DFC0020F8BD00001000002079
:10547000F8B516000D464FF0FF371FD0104CA17A3B
:10548000E1B1010A8DF80010C0B28DF80100411998
:1054900060684289914211D8216800786B46097E84
:1054A0000222FDF780FA48B92068EAB23346417D0E
:1054B00060680078FDF777FA002800D03846F8BD1C
:1054C0001000002010B588B0694604A8FFF740FD21
:1054D000032802D0012008B010BD07A8FFF78EFAFC
:1054E000049800F053FF07990C4600F07BFF00F092
:1054F00011FF0490059800F049FF214600F072FF6B
:1055000000F008FF0590069800F040FF214600F0EB
:1055100069FF00F0FFFE069004A8FEF7E7FB03A872
:10552000FFF730FABDF80C00009941430091019952
:10553000414301910299414368460291FEF738FBCD
:105540000020C8E7F8B5144C0146224694F82460C0
:10555000D2E9000200235D1E56B179B1022111E0AB
:10556000C17B10786B460122FDF71DFA68B90EE089
:10557000A67A56B111B1617C61B902E08DF80030B4
:10558000EEE701218DF80010EAE72846F8BD9DF806
:10559000000060740020F8BD100000202DE9F041EB
:1055A00006460F4600F090FB041E0D4618BF012072
:1055B000284320F00040C0F17F6000F1E040C00FC0
:1055C0000ED0301C18BF0120384320F00040C0F13D
:1055D0007F6000F1E040C00F04BF0120FAF79BFF9D
:1055E00020462946BDE8F08110B500290AD0087888
:1055F000002807D005487844FAF7CEFE002801D0ED
:10560000002010BD0248784410BD00005E29000053
:105610005629000010B500290AD00878002807D0C4
:1056200005487844FAF7B8FE002801D0002010BDE4
:105630000248784410BD00004E29000046290000B1
:1056400021F00042A2F16052B2F5801F01F0004348
:1056500028BFD2F17F6C0BD95FEA001C43EAC2027B
:1056600042EB507018BF704728BF20F00100704710
:10567000B2F5801FBCBF184670474FEA410C1CF5BD
:10568000001F02D2084600F074BF70B500F0BCFAEB
:1056900000000089FFF7F6BF4FF00040A0F5800042
:1056A0007047000010B591EA030F48BF83F0004334
:1056B00000F1F883841A71EB030C05D2121943EB45
:1056C0000C03001B61EB0C01DFF824E14FEA1154DD
:1056D000A4EB135C1EEA430F18BF9EEA445F73D02D
:1056E00023EA0E03DCF1200E21EA045143F4801377
:1056F00032D322FA0CFE10EB0E0023FA0CFE41EB23
:105700000E01CCF1200E03FA0EFE10EB0E0051F14B
:105710000001B1F5801FCCF1200E32D201EB045113
:1057200012FA0EF2BDE8104058BF7047401C38BF57
:105730005FEA420218BF7047002814BF20F0010042
:1057400041F100014FEA410313F5001F38BF7047D4
:10575000A1F1C04100F0A6BA012A43EB0302ACF16B
:10576000200CDCF11F0E32BF4FF0000E23FA0CF3B9
:1057700010EB030041EB0451B4EB115FD0D0A1EB6F
:10578000045101F5801149085FEA300001EB045132
:105790000ED350F1000038BF12FA0EFE08D1BDE85A
:1057A0001040C9E7401C38BF5FEA4202CAD1C3E7D4
:1057B000BDE810404FEA410313F5001F38BF7047A2
:1057C000A1F1C04100F06EBA9EEA445F08D011EA30
:1057D0005E0FBDE8104004BF01F00041002070479B
:1057E000BDE8104070B500F00FFA00BF64FBBE3E8C
:1057F0000000E0FF02494FF0000000F038BF00BF9A
:105800000000F87F2DE9C04130B4DFF8A0C23CEAC7
:10581000111418BF3CEA131400F0EC8081EA030570
:105820001CEA111444EAD57418BF1CEA131500F0E1
:10583000C780A4EB05044FF0004545EAC12145EAC5
:10584000C32341EA505143EA525304F17F74994211
:1058500004F500344FEAC0204FEAC22208BF90424C
:1058600000F09C804FEA13650FF24016765D4FEA18
:10587000134506FB05F7C7F1807706FB07F74FEAEC
:10588000D737A7FB03687642C8F58038A7FB06CE5A
:1058900038BFA8F1010807FB08E64FF0000EA6FB91
:1058A000028CE6FB03CEDCF1000CCEF1004E38BFDB
:1058B000AEF1010EA6FB0C584FF000074FF00005AB
:1058C000E6FB0E87A1FB08C6A0FB07CE16EB0E0673
:1058D00045F10005E1FB076515F1E04E7EBFA4F53B
:1058E00080345FEA46066D4116F1800745F10005F8
:1058F0004FEA17274FEA066647EA0567A6F1DE4634
:10590000B6F1805F4FEA15251FD9384624F0010C07
:1059100005EBC471BCF1FE6F01EB0C1102D8F0BCB9
:10592000BDE8008124425CBF01F5801E9EEAC47F71
:1059300002D4F0BCBDE80081244238D4F0BCA1F10F
:10594000C041BDE8004100F0ADB94FEAD22242EAC1
:1059500043524FEAD323A7FB02864FEAD02040EA06
:10596000415007FB03661EEA0E0F4FEAD12105FBEB
:10597000026658BFA6EB0056B6EB00564FEA520E31
:105980004EEAC37E18EB0E0E56EB530EBDD518EB48
:1059900002085E417F1C55F10005B6E74FF4801503
:1059A0004FF000074FF000064FF00008ADE7F0BCE5
:1059B0004FF0000001F1C04101F00041BDE800815D
:1059C00011EA0C1F0CEA131500D00CE013EA0C1FAF
:1059D00000F025804FF00000F0BC81EA030101F0E7
:1059E0000041BDE80081F0BCBDE8004181EA03014F
:1059F00000F058B9F0BCBDE8004170B500F004F902
:105A0000097EFC3E00F007B881EA03014FF0000078
:105A100001F00041704781EA030100F043B9F0BC96
:105A2000BDE800414FF0000021497047FFFDFBF940
:105A3000F7F5F4F2F0EEEDEBE9E8E6E4E3E1E0DEC1
:105A4000DDDBDAD8D7D5D4D3D1D0CFCDCCCBCAC833
:105A5000C7C6C5C4C2C1C0BFBEBDBCBBBAB9B8B75A
:105A6000B6B5B4B3B2B1B0AFAEADACABAAA9A8A84D
:105A7000A7A6A5A4A3A3A2A1A09F9F9E9D9C9C9B1B
:105A80009A999998979796959594939392919190C6
:105A90008F8F8E8E8D8C8C8B8B8A89898888878757
:105AA0008685858484838382828181800000FF07CC
:105AB0000000F87FDFF848C170B51CEA111E1EBF58
:105AC0001CEA13159EEA0C0F95EA0C0F00F06F808C
:105AD00081EA030423EA4C134EEAD47E21EA4C11F6
