:020000040800F2
:10000000C00F00208901000821250008C11C00083C
:10001000952400088D040008B52D0008000000009C
:10002000000000000000000000000000772700082A
:10003000D304000800000000752700087927000895
:10004000A3010008A3010008A3010008A301000800
:10005000A3010008A3010008A3010008A3010008F0
:10006000D5040008A3010008A3010008A3010008AB
:10007000910400089D040008A3010008A3010008E2
:10008000A3010008A3010008A3010008A3010008C0
:10009000A3010008A3010008A3010008A3010008B0
:1000A000A3010008A3010008A3010008A3010008A0
:1000B000DD270008E9270008A3010008A3010008C4
:1000C000A3010008A3010008A3010008A301000880
:1000D000A3010008A3010008A3010008A92D00083E
:1000E000A3010008A3010008A301000800F002F822
:1000F00000F03AF80AA090E8000C82448344AAF188
:100100000107DA4501D100F02FF8AFF2090EBAE885
:100110000F0013F0010F18BFFB1A43F0010318473B
:10012000045A0000245A0000103A24BF78C878C14D
:10013000FAD8520724BF30C830C144BF04680C60ED
:10014000704700000023002400250026103A28BF35
:1001500078C1FBD8520728BF30C148BF0B60704739
:100160001FB51FBD10B510BD00F04EF91146FFF7C9
:10017000F7FF03F0E8FC00F06CF903B4FFF7F2FFBF
:1001800003BC00F06FF900000948804709480047A8
:10019000FEE7FEE7FEE7FEE7FEE7FEE7FEE7FEE737
:1001A000FEE7FEE704480549054A064B7047000094
:1001B000DB270008ED000008C0090020C00F002068
:1001C000C00B0020C00B002010B54C1084EA530473
:1001D00004D54042C1F1000138BF491E1B4204D57D
:1001E0005242C3F1000338BF5B1E00F06FF814F0F9
:1001F000804F04D04042C1F1000138BF491E14F0C5
:10020000004F04D05242C3F1000338BF5B1E10BD43
:1002100040EA010310B59B070FD1042A0DD310C883
:1002200008C9121F9C42F8D020BA19BA884201D9D5
:10023000012010BD4FF0FF3010BD1AB1D30703D01D
:10024000521C07E0002010BD10F8013B11F8014BD3
:100250001B1B07D110F8013B11F8014B1B1B01D1EF
:10026000921EF1D1184610BD02F0FF0343EA0322AB
:1002700042EA024200F0A3B84FF0000200B5134674
:1002800094469646203922BFA0E80C50A0E80C50B6
:10029000B1F12001BFF4F7AF090728BFA0E80C5067
:1002A00048BF0CC05DF804EB890028BF40F8042B60
:1002B00008BF704748BF20F8022B11F0804F18BFCD
:1002C00000F8012B704770477047704753EA020CE3
:1002D00000F069802DE9F04B4FF00006002B1FBFA6
:1002E000B3FA83F503FA05F424FA05F65E4012BF6B
:1002F0001643B2FA82F502FA05F4C5F120051EBFD5
:1003000022FA05FC44EA0C04203556EA044C4FEA74
:10031000144418BF641C4FF000084FF000099042CD
:1003200071EB030C39D3002919BFB1FA81F701FA37
:1003300007F6B0FA80F700FA07F6C7F120071EBFEC
:1003400020FA07FC46EA0C062037B6FBF4FCA7EBC4
:100350000507103F07F01F0BCBF120060CFA0BFB33
:100360002CFA06F644BFB3460026202FA4BF5E46F3
:100370004FF0000B5BEA060C08BF4FF0010B19EBC6
:100380000B09ABFB027C48EB0608C01B06FB02CC4A
:100390000BFB03CC71EB0C01C1E70B460246414657
:1003A0004846BDE8F08B13B54FF000004FF0000158
:1003B000AFF30080BDE81C4070474FF000020429F5
:1003C000C0F0128010F0030C3FF458AFCCF1040CD5
:1003D000BCF1020F18BF00F8012BA8BF20F8022BB8
:1003E000A1EB0C01FFF74ABF5FEAC17C24BF00F814
:1003F000012B00F8012B48BF00F8012B70470000CB
:1004000000487047600900207546FFF7F9FFAE46C7
:1004100005006946534620F00700854618B020B510
:10042000FFF7C0FEBDE820404FF000064FF0000788
:100430004FF000084FF0000B21F00701AC46ACE88C
:10044000C009ACE8C009ACE8C009ACE8C0098D46F9
:10045000704710B50446AFF300802046BDE8104059
:10046000FFF78BBE01491820ABBEFEE72600020055
:10047000704710B502F0B7F801F03AFD02F060F9EC
:1004800000F02CF8BDE8104001F014BCFEE70000BD
:10049000014800F0A5B800000C020020014800F05F
:1004A0009FB80000C801002030B590F840500124EA
:1004B000AC40C56B6C60046863604368102B0368D4
:1004C00003D099600068C26030BD9A600068C16066
:1004D00030BD7047042000F0CDB9000010B53C21BC
:1004E000044800F0D9FFBDE810403C21024800F06C
:1004F000D3BF0000A80000203801002072B6FEE73C
:1005000010B590F821100022022905D00421816342
:1005100080F82020012010BD01680B6823F00E0335
:100520000B6001680B6823F001030B6090F840300A
:10053000C46B012101FA03F3636080F8211080F895
:100540002020104610BD000010B590F821100024A6
:10055000022903D00421816301243DE001680A6877
:1005600022F00E020A6001680A6822F001020A60A5
:100570001A4A0168914201D1012121E0174A14323F
:10058000914201D110211BE0144A2832914201D13D
:10059000891515E0114A3C32914201D189140FE0CE
:1005A0000E4A5032914202D14FF4803108E00B4A9A
:1005B0006432914202D14FF4801101E04FF080711A
:1005C000064A083A5160012180F82110002180F884
:1005D0002010416B01B18847204610BD0800024041
:1005E0002DE9F05FC16B0C6801680B68D0F840C062
:1005F000042202FA0CF2494DDFF824A1494E4A4F79
:10060000DFF828B1DFF828E122422CD05A072AD59A
:100610000A68920603D40A6822F004020A6001689C
:10062000A94201D1042219E0514501D1402215E02F
:10063000B14202D14FF4806210E0B94202D14FF4CE
:1006400080420BE0594502D14FF4802206E071450B
:1006500002D14FF4800201E04FF080622F49083947
:100660004A60C16A3BE04FF0020808FA0CF818EA49
:10067000040F4FF000094FF0010235D05FEA837894
:1006800032D50B689B0605D40B6823F00A030B6078
:1006900080F821200168A94201D1022219E05145C8
:1006A00001D1202215E0B14202D14FF4007210E0D6
:1006B000B94202D14FF400520BE0594502D14FF438
:1006C000003206E0714502D14FF4001201E04FF014
:1006D0000072124908394A6080F82090816A002926
:1006E0001AD0BDE8F05F0847082505FA0CF5254249
:1006F00012D01B0710D50B6823F00E030B6090F887
:100700004010C36B02FA01F15960826380F8212026
:1007100080F82090016BE2E7BDE8F09F08000240FE
:100720001C000240300002404400024058000240D9
:100730006C00024030B528B308C81349142219448C
:10074000B1FBF2F18900C163104981630221417755
:100750001A6843F6F0718A43D0E900142143D0E9C6
:1007600002452C43214304692143446921438469A0
:10077000214311431960002141630122427701772F
:10078000084630BD012030BDF8FFFDBF000002402B
:1007900070B5044690F82000002501280CD00120F7
:1007A00084F8200094F821600020012E06D084F8FF
:1007B00020000225284670BD022070BD022684F864
:1007C0002160A0632068066826F0010606602046C6
:1007D000FFF76AFEE06A00282068016802D041F055
:1007E0000E0106E021F0040101602068016841F07B
:1007F0000A0101602068016841F001010160D9E748
:1008000070B5044600F03CF90546601C02D004486F
:100810000078044400F034F9401BA042FAD370BDC4
:100820000000002070B5042815D10F4C0F49002599
:100830002278086882B1012A0DD1406AA0606168FF
:10084000401A04F071F90A4904F082F9691E04F0B3
:10085000F2FAE060257070BD45620868406A606029
:100860000120207070BD000048000020F000002032
:1008700096430B3D044910B50A68024202D0086055
:10088000FFF7D0FF10BD0000140401402DE9F84F20
:10089000DFF8B8910024A9F1040B23460F2709F1D2
:1008A000040AABF1040EC9E00125A5402A40AA4282
:1008B0007DD1674ED1F804C0ACEB0608B44532D008
:1008C00014DCBCF1030F3AD009DCBCF1000F2AD0D4
:1008D000BCF1010F1CD0BCF1020F31D11DE0BCF105
:1008E000110F17D0BCF1120F2AD119E0B8F5881FEB
:1008F00019D006DCB8F5803F15D0B8F5801F1FD1A0
:1009000011E0B8F5001F0ED0B8F5041F18D10AE0A9
:10091000CB6815E0CB681B1D12E0CB6808330FE0F5
:10092000CB680C330CE08B682BB1012B4FF0080324
:1009300003D0456104E0042302E0056100E00023E8
:10094000FF2A01D8064601E000F104064FEA8405BB
:1009500001D9A5F12005D6F8008007FA05FC28EAA0
:100960000C0803FA05F548EA0508C6F800804D684A
:10097000ED0062D5374DAE6946F00106AE61AD6956
:1009800024F0030605F001050095334D06EB050C38
:10099000DCF80850A607360F07FA06F825EA08051E
:1009A000DFF8B880404503D14FF0000817E044E07D
:1009B000DFF8AC80404502D14FF001080FE0DFF8CE
:1009C000A480404502D14FF0020808E0DFF898808B
:1009D000404502D14FF0030801E04FF0040808FA47
:1009E00006F848EA0508CCF808804D68D9F8006098
:1009F000ED024D4601D5164300E096432E604D684A
:100A0000DAF80060AD02554601D5164300E0964382
:100A10002E604D68DBF80060AD035D4601D51643DE
:100A200000E096432E604D68DEF80060ED037546E9
:100A300001D5164300E096432E60641C0D682A46DB
:100A4000E5407FF431AFBDE8F88F000008040140B5
:100A50000000111000100240000001400008014099
:100A6000000C014000100140001401408068084063
:100A700000D0012070470AB1016170470904FBE70B
:100A8000014880687047000000000020024881682B
:100A9000027811448160704700000020074810B5BB
:100AA000016841F010010160032000F075F80F208B
:100AB00000F006F800F024F8002010BD00200240ED
:100AC00070B50D4D04464FF47A712878B1FBF0F003
:100AD0000A490968B1FBF0F000F0DCFA48B9102CC3
:100AE00007D200222146501E00F036F800206C602C
:100AF00070BD012070BD0000000000200C0000202F
:100B00000C4808B5816941F001018161816901F0FA
:100B100001010091C16941F08051C161C06900F0DB
:100B2000805000900448416821F0E06141F000717C
:100B3000416008BD0010024000000140002809DBB0
:100B400000F01F02012191404009800000F1E020E7
:100B5000C0F8001170470000F0B40E4B1B680C4643
:100B6000C3F30223C3F10705042D00D90425191D81
:100B7000072901D2002300E0DB1E012606FA05F159
:100B8000491E214099409E40761E16403143F0BCDC
:100B900002F011B90CED00E0064900F00702086808
:100BA0004FF6FF03184040EA0220034A1043086052
:100BB000704700000CED00E00000FA052DE9F04759
:100BC0000F46050061D0434E306800F00700B84280
:100BD00009D2306820F0070038433060306800F0F8
:100BE0000700B84251D128683B4C810712D5400715
:100BF00003D5606840F4E06060602878000703D5A2
:100C0000606840F4605060606068A96820F0F0009F
:100C1000084360602878C00728D06868012810D091
:100C20002168022810D0890700292EDA616821F096
:100C3000030101436160FFF723FF804641F28839D9
:100C40000DE021688903EFE78901EDE7FFF718FF61
:100C5000A0EB0801494502D90320BDE8F087606890
:100C6000696800F00C00B0EB810FEFD1306800F044
:100C70000700B8420BD9306820F0070038433060D5
:100C8000306800F00700B84201D00120E5E728787D
:100C9000400705D56068E96820F4E06008436060BB
:100CA0002878000706D56068296920F4605040EA7A
:100CB000C100606000F038F86168084AC1F30311B0
:100CC000515CC8400649086006480068FFF7F8FE16
:100CD0000020C2E70020024000100240C44E00087D
:100CE0000C00002004000020044805490068496801
:100CF000044AC1F30221515CC84070470C00002037
:100D000000100240D44E00080448054900684968B4
:100D1000044AC1F3C221515CC84070470C00002056
:100D200000100240D44E00080E4A51680E4801F0EF
:100D30000C03042B11D0082B0FD10C48C1F38343B3
:100D4000C903C05C0AD55168084AC1F34041921EEC
:100D5000515C054A5043B0FBF1F0704704494843E9
:100D6000704700000010024000127A00B44E0008E4
:100D700000093D002DE9F84F040070D02078C04DE7
:100D8000C00749D06868C0F38100012807D06868AF
:100D9000C0F38100022809D16868C00306D528681D
:100DA000800339D560680028E7D035E06068B0F589
:100DB000803F0BD010B1B0F5A02F11D0286820F4DF
:100DC00080302860286820F4802002E0286840F401
:100DD00080302860606890B1FFF752FE06460AE056
:100DE000286840F480202860F0E700BFFFF748FE45
:100DF000801B642873D828688003F7D50CE0FFF7C0
:100E00003FFE064605E000BFFFF73AFE801B642860
:100E1000F0D828688003F7D420789A4E80074FF0E6
:100E200001094FF0000839D5686810F00C0F07D0A1
:100E30006868C0F38100022809D16868C00306D43D
:100E40002868800714D52069012808D110E020699E
:100E5000B0B1C6F80090FFF713FE074605E00AE1BF
:100E6000FFF70EFEC01B0228C4D828688007F7D5FC
:100E70002868616920F0F80040EAC10028600DE0B0
:100E8000C6F80080FFF7FCFD074604E0FFF7F8FD19
:100E9000C01B022823D828688007F7D420780007D1
:100EA0002CD57948A169D9B1C0F80090FFF7E8FDC9
:100EB000074604E0FFF7E4FDC01B02280FD8686A6C
:100EC0008007F7D571484FF4FA510068B0FBF1F094
:100ED000009000BF0098411E0091FAD20EE080E021
:100EE000C0F80080FFF7CCFD074604E0FFF7C8FD1F
:100EF000C01B022875D8686A8007F7D4207840079D
:100F000060D5E8690027C00008D4E86940F0805047
:100F1000E861E869012700F0805000905C480168B2
:100F2000C90513D40168834641F480710160FFF75D
:100F3000A7FD824606E000BFFFF7A2FDA0EB0A0076
:100F400064284ED8DBF80000C005F5D5E06801281C
:100F50000AD008B1052813D0286A20F001002862C1
:100F6000286A20F0040002E0286A40F001002862AC
:100F7000E06841F2883B98B1FFF782FD82460BE0C2
:100F8000286A40F004002862EEE700BFFFF778FD12
:100F9000A0EB0A0159455AD8286A8007F6D50CE01B
:100FA000FFF76EFD824605E0FFF76AFDA0EB0A0140
:100FB00059454CD8286A8007F6D41FB1E86920F05B
:100FC0008050E861E06988B36968C1F38101022952
:100FD00044D00228C6F8608004D0FFF751FD0446D3
:100FE00038E034E0FFF74CFD074604E0FFF748FD2A
:100FF000C01B02282BD828688001F7D4206AB0F5DE
:10100000803F05D16868A16820F40030084368601B
:10101000D4E908010843696821F474110843686041
:10102000C6F86090FFF72CFD044606E025E000BFFF
:10103000FFF726FD001B022809D828688001F7D594
:101040001BE000BFFFF71CFD001B022802D9032094
:10105000BDE8F88F28688001F4D40EE00128F7D0AD
:101060006868226A00F48031914204D1616A00F418
:101070007010884201D00120EAE70020E8E7000074
:101080000010024000004242800442420C00002056
:101090000070004010B5401EB0F1807F01D30120E8
:1010A00010BD4FF0E02460610F21601701F083FE56
:1010B0000020A06107202061002010BD704770470C
:1010C00010B590F83C20012A22D0012280F83C2063
:1010D000CA688C6822F4407222434C6822F4806211
:1010E00022430C6822F4006222430C6922F48052ED
:1010F00022434C6922F400522243C969002322F49E
:1011000080420A4301684A6480F83C30002010BDE8
:10111000022010BD70B590F83C20012A26D0012491
:1011200080F83C40022280F83D2003685A689D68A0
:1011300022F070060A6832435A600D4B02689A42E8
:1011400008D0B2F1804F05D00A4B9A4202D00A4B28
:101150009A4204D1496825F080031943916080F8D0
:101160003D40002180F83C10084670BD022070BD53
:10117000002C0140000400400008004010B50400AD
:1011800003D094F83D0010B107E0012010BD00200D
:1011900084F83C00204600F01FF8022084F83D004F
:1011A000211D206801F026FB012084F8460084F808
:1011B0003E0084F83F0084F8400084F8410084F841
:1011C000420084F8430084F8440084F8450084F821
:1011D0003D00002010BD000008B5114A016811480B
:1011E000914208D1816941F400618161806900F414
:1011F0000060009008BD0C4A9142FBD1C16941F0EA
:101200000201C161C069002200F002000090114695
:101210001D20FFF7A1FCBDE808401D20FFF78EBC94
:10122000002C0140001002400004004090F83D10E6
:10123000012901D001207047022180F83D1000688B
:101240000B49884208D0B0F1804F05D00949884247
:1012500002D00949884204D1816801F007010629BA
:1012600003D0016841F001010160002070470000D7
:10127000002C0140000400400008004070B5044606
:1012800090F83C000025012817D0012684F83C6026
:10129000022084F83D002068826822F0770222F460
:1012A0007F4282600868502838D00DDC20284FD05B
:1012B00005DC90B3102811D14AE0022070BD30281F
:1012C00046D040280AD13BE060282FD070280DD0AE
:1012D000B0F5805F03D0B0F5005F12D0012584F82F
:1012E0003D60002084F83C00284670BDCB68D1E901
:1012F0000121206801F0C7FA2068816841F0770178
:1013000009E0CB68D1E90121206801F0BCFA20682E
:10131000816841F480418160E1E719E0CA68496869
:10132000206801F065FB5021206806E0CA68496822
:10133000206801F06EFB6021206801F0AEFACEE774
:10134000CA684968206801F053FB40212068F4E72F
:10135000226801461046F0E72DE9F0410D460400F1
:1013600003D094F83D0018B108E00120BDE8F081F9
:10137000002084F83C00204600F040F8022084F869
:101380003D002068816844F2070291438160211D7D
:10139000206801F02FFA226890689169166A2B681C
:1013A000AF69034340F20330814341EA0721A86853
:1013B000EF6908434FF6FC418843E96840EA07209B
:1013C000014328692F6A000140EA07300843696831
:1013D0006D6926F0220646EA0515294393602268C6
:1013E000906154F8460B0162012004F81F09E07572
:1013F0002076E0762077A0750020B7E700B585B0AD
:101400000021009101910291039101681E48B1F100
:10141000804F1AD01D4A914215D1C16941F0040193
:10142000C161C16901F004010491816941F00801C1
:1014300081618069694600F008000490C020009036
:101440001348FFF723FA05B000BDC16941F001015F
:10145000C161C16901F001010491816941F0040198
:1014600081618069694600F00400049003200090C7
:101470000848FFF70BFA002211461C20FFF76CFB0F
:101480001C20FFF75BFBDEE7001002400008004075
:10149000000C01400008014070B590F83E60044621
:1014A00090F83F5090F8423090F84320022021B14C
:1014B00004290ED0012E1BD114E0012E18D1012BCE
:1014C00016D184F83E0084F84200012200212068F1
:1014D00020E0012D0CD1012A0AD184F83F0084F8C4
:1014E000430014E0012D03D1012B01D1012A01D0C9
:1014F000012070BD84F83E0084F83F0084F842006B
:1015000084F8430001220021206801F0AFF9012294
:101510000421206801F0AAF92068016841F0010166
:101520000160002070BD70472DE9F041044600685D
:10153000C66805694FF00007A90713D5B10711D593
:10154000F91E01610120207720688069800720460C
:1015500002D0FFF7E8FF04E000F0A4F8204600F016
:1015600036F92777680716D5700714D521686FF00C
:1015700004000861022020772068806910F4407F11
:10158000204602D0FFF7CFFF04E000F08BF82046A2
:1015900000F01DF92777280715D5300713D52168E6
:1015A0006FF008000861042020772068C069800778
:1015B000204602D0FFF7B7FF04E000F073F82046A2
:1015C00000F005F92777E80616D5F00614D521684E
:1015D0006FF010000861082020772068C06910F4BF
:1015E000407F204602D0FFF79EFF04E000F05AF84B
:1015F000204600F0ECF82777E80708D0F00706D07F
:1016000021686FF001000861204600F02FF92806DC
:1016100008D5300606D521686FF0800008612046A5
:10162000FFF74CFD680608D5700606D521686FF0F7
:1016300040000861204600F01AF9A8060AD5B00655
:1016400008D521686FF0200008612046BDE8F04110
:10165000FFF735BDBDE8F08100B585B000210091F0
:1016600001910291039100680B49884212D10B4805
:10167000816941F0040181618069694600F00400DC
:1016800004904FF4106000900220019003900448F1
:10169000FFF7FCF805B000BD002C0140001002402F
:1016A00000080140704770B5044690F83C000026E1
:1016B0000D4601280FD0012084F83C006AB1042AAD
:1016C0001DD0082A2FD00C2A3FD00126002084F8F4
:1016D0003C00304670BD022070BD206801F0E6F885
:1016E0002068816941F0080181612068816921F0E9
:1016F00004018161206881692A69114311E0206831
:1017000001F0FCF82068816941F400618161206882
:10171000816921F480618161206881692A6941EAD7
:1017200002218161D2E7206801F014F92068C169C3
:1017300041F00801C1612068C16921F00401C16163
:101740002068C1692A69114311E0206801F02EF96F
:101750002068C16941F40061C1612068C16921F458
:101760008061C1612068C1692A6941EA0221C161C1
:10177000ACE710B5040003D094F83D0010B107E0C9
:10178000012010BD002084F83C00204600F01EF827
:10179000022084F83D00211D206801F02BF8012073
:1017A00084F8460084F83E0084F83F0084F8400046
:1017B00084F8410084F8420084F8430084F844002F
:1017C00084F8450084F83D00002010BD7047704744
:1017D00010B50446022249B104290ED0082913D0BD
:1017E00094F84100012816D0012010BD94F83E0065
:1017F0000128F9D184F83E200FE094F83F00012839
:10180000F2D184F83F2008E094F840000128EBD1A1
:1018100084F8402001E084F841200122206801F092
:1018200025F80F492068884203D1426C42F40042F7
:1018300042642068884208D0B0F1804F05D0094941
:10184000884202D00849884204D1816801F007012A
:10185000062903D0016841F001010160002010BD9C
:10186000002C014000040040000800407047704711
:1018700038B5044690F84200202801D0022038BD37
:1018800051B14AB10120206300206063204601F07D
:1018900043FA216B012901D0012038BD21680A6873
:1018A0004968009121680C3151E8002F42F0100284
:1018B00041E80023002BF5D138BD0000074A9042D3
:1018C0000AD1074842881144C9B241804FF480725E
:1018D00004490248FFF7CCBF704700008001002098
:1018E000580000206007002070470000F8B501682C
:1018F00004460868CA684B6910F00F0F4FF00005E6
:1019000059D003F0010602F49077374365D0C10740
:1019100005D0D10503D5616C41F001016164410737
:1019200005D5D90703D0616C41F0020161648107DC
:1019300005D5D90703D0616C41F00401616401074A
:1019400007D502F02001314303D0616C41F008015A
:101950006164616C00293AD0800604D5900602D5F6
:10196000204601F01CF920684069616CC0F38010CA
:10197000090700D460B3204601F0DCF82068406914
:10198000400621D52068143050E8001F21F04001A6
:1019900040E80012002AF5D1E06BA8B16D4941631F
:1019A000E06BFEF7D1FD002811D0E06B416B01B078
:1019B000BDE8F040084783060FD593060DD52046B5
:1019C000BDE8F84001F0EBB82046FFF78DFFF8BD09
:1019D0002046FFF789FF6564F8BD266B2023012EA2
:1019E0007CD1C6067AD5D60678D5086848680090B6
:1019F00048694FF00206400640D5E16B0868406830
:101A00000004000CE8D0A28D8242E5D9E085886907
:101A100020282DD020680C3050E8001F21F4807160
:101A200040E80012002AF5D12068143050E8001F69
:101A300021F0010140E80012002AF5D1206814309D
:101A400050E8001F21F0400140E80012002AF5D1C3
:101A500084F84230256320680C3050E8001F21F0E4
:101A6000100140E80012002AF5D1E06BFEF748FDB6
:101A70006663A08DE18D401A81B22AE0A08DE18DD0
:101A8000401A81B2E08D0028A6D00029A4D0226897
:101A90000C3252E8000F20F4907042E80007002F4B
:101AA000F5D12068143050E8002F22F0010240E800
:101AB0000027002FF5D184F84230256320680C30D0
:101AC00050E8002F22F0100240E80023002BF5D14F
:101AD00066632046FFF7F2FEF8BDFFE705062BD54B
:101AE000150629D594F841002128F5D1A068B0F554
:101AF000805F01D12069B0B1206A411C2162216858
:101B000000784860E08C401E0004000CE084E3D1C3
:101B10002068C16821F08001C1602068C16841F07F
:101B20004001C160D8E7206A0088C0F3080048601F
:101B3000206A801C2062E5E74006CDD55006CBD553
:101B4000CA68204622F04002CA6084F8413000F0A2
:101B5000A5F8C1E7372A000870B5040004D094F84E
:101B60004100002510B106E0012070BD84F840500E
:101B7000204600F023F8242084F841002068C16842
:101B800021F40051C160204601F06AF82068016923
:101B900021F4904101612068416921F02A014161ED
:101BA0002068C16841F40051C1606564202084F858
:101BB000410084F842006563002070BDF0B585B037
:101BC00000240646009401940294039400682D4971
:101BD000884254D12C48C16941F48021C161C16956
:101BE00001F480210491816941F0080181618069DB
:101BF000264D00F0080004904FF480600090022011
:101C000001900320039069462846FEF73FFEE81442
:101C1000CDE90004694628460294FEF737FE1D4DC3
:101C20001B488027C5E90004C5E902472C616C61A7
:101C3000AC612846EC61FEF77DFD08B1FEF75EFC65
:101C4000F5636E62134D12484435143801C51020F7
:101C500091C5104845F8104944306C61AC61EC61A5
:101C6000FEF768FD08B1FEF749FCB5630022114696
:101C700027206E62FEF770FF2720FEF75FFF05B09A
:101C8000F0BD00000048004000100240000C014080
:101C900030000240C80100207047704700680349C7
:101CA000884202D102490020087070470048004075
:101CB000580000200148FFF7B9BA0000F0000020EA
:101CC000FEE7000010B50E4C002208212046FEF76A
:101CD000D2FE00F017F8012210212046FEF7CBFEBD
:101CE00000F010F8002210212046FEF7C4FE00F09C
:101CF00009F820460122BDE810400821FEF7BBBECE
:101D0000000C01400020401CC0B20A28FBD37047E1
:101D10000C4800B5816985B041F008018161806996
:101D2000694600F0080004901820009003200390FA
:101D3000112001900448FEF7A9FD00F09DF805B0C0
:101D400000BD000000100240000C014010B50C4C1A
:101D5000012208212046FEF78EFEFFF7D3FF012265
:101D600010212046FEF787FEFFF7CCFF002210214E
:101D70002046FEF780FEBDE81040FFF7C3BF00001D
:101D8000000C01402DE9F0410024134E0746254682
:101D90006006040E012210213046FEF76CFEFFF7AC
:101DA000B1FF08213046FEF761FE08B1641CE4B2C1
:101DB000002210213046FEF75EFEFFF7A3FF6D1CE8
:101DC000EDB2082DE4D327B1FFF77CFF2046BDE834
:101DD000F081FFF7BBFFF9E7000C014070B5154E2D
:101DE00005460024280601D5012200E00022082132
:101DF0003046FEF740FEFFF785FF012210213046F6
:101E0000FEF739FEFFF77EFF002210213046FEF775
:101E100032FE072C04D1012208213046FEF72BFEAA
:101E20006806050EFFF76EFF641CE4B2082CD9D3D8
:101E300070BD0000000C014010B50E4C01220821BD
:101E40002046FEF718FE012210212046FEF713FE61
:101E5000FFF758FF002208212046FEF70CFEFFF78F
:101E600051FF002210212046FEF705FEBDE810407C
:101E7000FFF748BF000C014010B50A4C00220821B2
:101E80002046FEF7F8FD012210212046FEF7F3FD63
:101E9000FFF738FF20460122BDE810400821FEF779
:101EA000EABD0000000C014070B5104D0122082170
:101EB0002846FEF7E0FDFFF725FF01221021284606
:101EC000FEF7D9FDFFF71EFF08212846FEF7CEFDDD
:101ED00008B1012400E00024002210212846FEF76A
:101EE000CAFDFFF70FFF204670BD0000000C014047
:101EF00010B500F007F8002803D1BDE8104001F04C
:101F000065BE10BD10B5FFF703FF80216B2000F008
:101F1000C0F86420FEF774FC00216B2000F0B9F8D3
:101F2000032000F082F8002000F07AF8C82000F0CA
:101F300099F80021382000F0ACF800216A2000F068
:101F4000A8F80021232000F0A4F88021372000F019
:101F5000A0F8752000F011F8682801D0012010BD0C
:101F600001216B2000F095F800216C2000F091F821
:101F7000642000F077F8002010BD10B50446FFF78C
:101F80005BFFD020FFF72AFFFFF78EFF2046FFF709
:101F900025FFFFF789FFFFF74FFFD120FFF71EFF57
:101FA000FFF782FF0020FFF7EDFE0446FFF764FF16
:101FB000204610BD2DE9F0411D4614460F46064649
:101FC000FFF73AFF7006000EFFF708FFFFF76CFF00
:101FD00020B1FFF751FF0120BDE8F0813846FFF73F
:101FE000FDFEFFF761FFFFF727FF012000EB460032
:101FF000C0B2FFF7F3FEFFF757FF09E0012C0DD049
:102000005FF00100FFF7BEFE641E05F8010BE4B2AD
:10201000002CF3D1FFF730FF0020DDE70020F1E7CF
:10202000C006010E1C2000F034B8C006010E1B20B3
:1020300000F02FB8BC2801D3012110E0622801D3A1
:1020400002210CE02A2801D3032108E0142801D33F
:10205000042104E00A2801D3052100E006211A200A
:1020600000F017B810B504464FF47A70844201D9D5
:10207000044602E0042C00D20424B0FBF4F0401E1D
:10208000C1B2192000F005F86008BDE81040FFF764
:10209000D1BF70B50C460546FFF7CEFED020FFF746
:1020A0009DFEFFF701FF50B92846FFF797FEFFF7A7
:1020B000FBFE2046FFF792FEFFF7F6FE18B1FFF792
:1020C000DBFE012070BDFFF7D7FE002070BD2DE9BB
:1020D000F0411E4615460F460446FFF7ADFE60066A
:1020E000000EFFF77BFEFFF7DFFE60B93846FFF713
:1020F00075FEFFF7D9FE00240CE0305DFFF76EFEA1
:10210000FFF7D2FE20B1FFF7B7FE0120BDE8F08156
:10211000641CE4B2AC42F0D3FFF7AEFE0020F5E75A
:102120000D4808B5416941F0010141614069002253
:1021300000F00100009011460C20FEF70DFD0C2070
:10214000FEF7FCFC002211460D20FEF705FDBDE860
:1021500008400D20FEF7F2BC001002402DE9F041CE
:1021600086B000243348009401940294039481695A
:1021700041F010018161816901F0100104918169D0
:1021800041F020018161816901F0200104918169A0
:1021900041F004018161816901F0040104918169C8
:1021A00041F0080181618069234F00F0080004902C
:1021B000002208213846FEF75EFCDFF8808000220E
:1021C0004FF218314046FEF756FC042000901C48A0
:1021D0000226CDE9010669463846FEF757FB08207E
:1021E0000125CDE90005CDE9024669463846FEF7EE
:1021F0004DFB4FF470400090CDE901540324694633
:1022000040460394FEF742FB4FF4467000901120C5
:102210000394CDE9010569464046FEF737FB0022ED
:1022200011460820FEF798FC0820FEF787FC06B050
:10223000BDE8F0810010024000080140000C0140A0
:102240000000311010B596B000240F941094119432
:10225000129413941C2168461494FEF70DF8202163
:1022600007A8FEF709F82C482A4901602321C0E994
:1022700001146321C0E9031444618461FEF77EFF09
:1022800008B1FEF73BF94FF480500F900FA9224898
:10229000FEF7F4FF08B1FEF731F91F48FFF769FABE
:1022A00008B1FEF72BF9139413A91B481494FEF7F9
:1022B00031FF08B1FEF722F96020CDE90004029455
:1022C0000394049405940022694613480694FFF78A
:1022D000EAF908B1FEF712F90C2269460E48FFF739
:1022E000E2F908B1FEF70AF90794089409944FF44B
:1022F00000500A94CDE90B4007A907480E94FEF759
:10230000DFFE08B1FEF7FAF80348FFF7A5F916B0AB
:1023100010BD0000002C01406000002010B58CB002
:1023200024216846FDF7A8FF0024164809944FF0C1
:1023300080410A9401604721C0E901144FF6FF7102
:10234000C0E9031484610120CDE90004CDE9020451
:102350000221CDE90441CDE9060469460948089403
:10236000FEF7FAFF08B1FEF7C9F8099409A9054874
:102370000A94FEF7CFFE002801D0FEF7BFF80CB09C
:1023800010BD0000A800002010B586B0002417483A
:1023900000940194029403940494134905940160F9
:1023A0004721C0E901144FF6FF71C0E903148461AD
:1023B000FEF7E4FE08B1FEF7A1F84FF4805000905C
:1023C00069460A48FEF75AFF08B1FEF797F80494E9
:1023D00004A906480594FEF79DFE002801D0FEF7EB
:1023E0008DF806B010BD000000040040F000002091
:1023F00010B58CB024216846FDF73EFF0024164836
:10240000099414490A94C0E900144FF6FF71C0E919
:102410000241046184610120CDE90004CDE9020498
:10242000CDE906040221CDE9044106200890694661
:102430000948FEF791FF08B1FEF760F8099409A971
:1024400005480A94FEF766FE002801D0FEF756F80C
:102450000CB010BD00080040380100200C4810B539
:102460000A4901604FF416514160002181600C223D
:10247000C160C0E904128161C161FFF76DFB0028F2
:1024800003D0BDE81040FEF739B810BD0048004049
:1024900080010020FEE700002DE9F0410D461F4CB1
:1024A00006004FF480514FF400570AD40122204611
:1024B000FEF7E1FA002239462046FEF7DCFAB0B218
:1024C0000AE000222046FEF7D6FA012239462046CD
:1024D000FEF7D1FA704280B200F040F94FF480412B
:1024E0004E00002D0ADB00222046FEF7C4FA01222E
:1024F00031462046FEF7BFFAA8B20AE00122204684
:10250000FEF7B9FA002231462046FEF7B4FA6842D7
:1025100080B2BDE8F04100F027B90000000C014096
:10252000FEE7000010B50021074C0A46002004EB2E
:10253000C1131A54401CC0B28028FAD3491CC9B236
:102540000829F3D310BD00005002002010B5002070
:102550004FF47A720021491C9142FCD3401C9042F6
:10256000F8D3FFF7FBFD012000F0B0F8BDE8104004
:10257000012000F0B3B870B500240646802525FA86
:1025800004F0304000D0012000F0A8F8012000F055
:102590009DF8002000F09AF8641CE4B2082CEED3F9
:1025A000012000F093F8BDE87040002000F08EB8E4
:1025B00010B5012000F092F8012000F087F800200B
:1025C00000F08CF8BDE81040002000F07FB810B596
:1025D000002000F083F8012000F078F8BDE81040FA
:1025E000012000F07BB810B5FFF7B0FFAE2000F07F
:1025F0007DF8D52000F07AF8802000F077F8A82048
:1026000000F074F83F2000F071F8D32000F06EF86D
:10261000002000F06BF8402000F068F8A12000F0E6
:1026200065F8C82000F062F8DA2000F05FF81220A8
:1026300000F05CF8812000F059F8CF2000F056F847
:10264000D92000F053F8F12000F050F8DB2000F022
:102650004DF8302000F04AF8A42000F047F8A620FA
:1026600000F044F88D2000F041F8142000F03EF80E
:10267000AF2000F03BF8FFF755FFBDE8104000F039
:1026800011B810B50C4640F0B00000F02FF8102043
:1026900040EA141000F02AF804F00F00BDE81040E2
:1026A00000F024B870B5084D002400212046FFF743
:1026B000E8FF05EBC410802100F029F8641CE4B2A7
:1026C000082CF2D370BD00005002002002464FF4E7
:1026D00080710148FEF7CFB9000C014002464FF46B
:1026E00000710148FEF7C7B9000C014010B504465F
:1026F000FFF75EFF7820FFF73EFF0020FFF73BFF6C
:102700002046FFF738FFBDE81040FFF760BF70B507
:102710000D460646FFF74CFF7820FFF72CFF4020C0
:10272000FFF729FF002404E0305DFFF724FF641C5D
:10273000E4B2AC42F8D3BDE87040FFF748BF0000F8
:1027400010B500210448FFF743F8BDE810400C2104
:102750000148FFF73DB8000060000020014909680A
:1027600048637047600000200149096808647047A9
:102770006000002070477047FEF788B930B58FB011
:1027800028216846FDF778FD14210AA8FDF774FD9D
:1027900001210804CDE900100024029402250491CF
:1027A000CDE907504FF4E01009906846FEF7E2FAD1
:1027B00008B172B6FEE70F20CDE90A054FF480603C
:1027C000CDE90C4002210AA80E94FEF7F7F9002883
:1027D00001D072B6FEE70FB030BD70470148FEF77A
:1027E000A3BE0000A80000200148FEF79DBE000027
:1027F000F0000020F0B50268194B1A4C1A4D4FF04A
:102800008047984205D0B84203D0A04201D0A842E8
:1028100003D122F070064A683243984205D0B8428C
:1028200003D0A04201D0A84203D122F44074CA6868
:1028300022434C6922F08002224302608A68C2620D
:102840000A688262984201D10969016301214161EC
:102850000169C90703D0016921F001010161F0BDDF
:10286000002C0140000400400008004010B501F0B9
:102870001F030121046A99408C430462016A9A4053
:102880001143016210BD10B5846842EA032224F4AA
:102890007F440A432243826010BD826822F07002A6
:1028A0000A4342F0070181607047000030B5036AB7
:1028B000026A22F0010202624268846924F0730510
:1028C0000C682C4323F002058B682B430A4DA84269
:1028D0000BD123F00805CB6822F440722B434D69DD
:1028E00023F0040315438A692A43426084614968DE
:1028F0004163036230BD0000002C014030B5026A24
:10290000036A23F010030362436884690D6824F4AA
:10291000E64444EA05248D6822F0200242EA0512CA
:102920000B4DA8420ED1CD6822F0800242EA05127A
:102930004D6923F4406343EA85038D6922F0400228
:1029400043EA85034360846149688163026230BD64
:10295000002C014030B5036A026A22F480720262E0
:102960004268C46923F4007324F073050C682C4397
:102970008D6843EA05230C4DA8420ED1CD6823F49F
:10298000006343EA05234D6922F4405242EA0512EE
:102990008D6923F4806342EA05124260C46149688C
:1029A000C163036230BD0000002C014030B5046AF1
:1029B000026A22F4805202624268C3690D6823F4FD
:1029C000E64343EA05238D6824F4005444EA0534C1
:1029D000064DA84204D14D6922F4804242EA851294
:1029E0004260C36149680164046230BD002C01404B
:1029F00010B5036A046A24F001040462846924F0B7
:102A0000F00444EA021423F00A020A4384610262D9
:102A100010BD10B5036A046A24F0100404628469CE
:102A200023F0A00324F4704444EA023243EA011183
:102A30008261016210BD10B5406A0021C185C18468
:102A4000FEF752FF10BD70B5446A2068406994F8E3
:102A50004110C0F3C0100025212904D118B1E5842C
:102A6000204600F08EF82068406994F84210C0F3C8
:102A70008010222904D118B1E585204600F05AF8CB
:102A8000606C40F0100060642046FEF72DFF70BDC2
:102A900010B50146406A096809684FF000028906CE
:102AA0002ED4C28501680C3151E8003F23F48073B5
:102AB00041E80034002CF5D10168143151E8003FA1
:102AC00023F0010341E80034002CF5D101681431F2
:102AD00051E8003F23F0400341E80034002CF5D1D9
:102AE000202180F84210016B012909D101680C31C5
:102AF00051E8003F23F0100341E80034002CF5D1E9
:102B00004263016B012902D0FFF7C6F810BD818D29
:102B1000FEF7D4FE10BD10B5406A01214163016B80
:102B2000012902D0FFF7B9F810BD818D4908FEF7E1
:102B3000C5FE10BD01680C3151E8002F22F49072DF
:102B400041E80023002BF5D10168143151E8002F32
:102B500022F0010241E80023002BF5D1016B01298D
:102B600009D101680C3151E8002F22F0100241E830
:102B70000023002BF5D1202180F8421000210163B1
:102B8000704701680C3151E8002F22F0C00241E883
:102B90000023002BF5D1202180F84110704708B5A3
:102BA00090F84210222901D0022008BD82684FF41B
:102BB00080539A4201D1016921B1816A9A421BD0A6
:102BC0004AB10AE00268816A5268C2F308020A80C8
:102BD000816A891C08E0026972B10268526802F0D9
:102BE0007F020A70816A491C8162C18D491E0904F5
:102BF000090CC18503D01BE002685268F1E7016847
:102C0000CA6822F02002CA600168CA6822F4807291
:102C1000CA6001684A6922F001024A61202180F8F5
:102C2000421000214163026B012A03D0FFF734F800
:102C3000002008BD016301680C3151E8002F22F02B
:102C4000100241E80023002BF5D101680A68D20682
:102C500002D50A6849680091818DFEF72FFEE7E7EB
:102C600070B5044600680169E26821F440511143DF
:102C700001612169A0680843616908432168CA6845
:102C800041F20C639A430243CA6020684169A26919
:102C900021F44071114341611E492068884202D1EC
:102CA000FEF732F801E0FEF71FF800EBC00101EB80
:102CB0000012606864218000B2FBF0F3B3FBF1F313
:102CC0006FF018067343B2FBF0F5B2FBF0F605EBBC
:102CD0008305322303EB0515B5FBF1F5B6FBF1F6E1
:102CE00005F0F00505EB0615B2FBF0F6B2FBF0F0CF
:102CF000B0FBF1F06FF01802504306EB800003EBDD
:102D00000010B0FBF1F0216800F00F00284488604B
:102D100070BD00000038014038B5816204468285EC
:102D2000002013466064222284F84220E56B1B4A8F
:102D3000AA62E56B1A4AEA62E56B1A4A2A63E26BF9
:102D400050630A462168E06B091DFDF721FD2068EC
:102D5000016840680090206948B120680C3050E854
:102D6000001F41F4807140E80012002AF5D120686C
:102D7000143050E8001F41F0010140E80012002A21
:102D8000F5D12068143050E8001F41F0400140E8C0
:102D90000012002AF5D1002038BD0000912A000859
:102DA000172B0008472A00080148FEF79FBD0000C6
:102DB00080010020FEE70907090E002804DB00F16E
:102DC000E02080F80014704700F00F0000F1E020D0
:102DD00080F8141D704700002DE9FE4F07460E468F
:102DE0000025684600F030FC00246FF00F0AE8462A
:102DF0004FF0010957F8240056F82410401A00D566
:102E0000404201F079FE514602F015F858F82410BE
:102E100011F0FF4F0BD001F071FD4FF07E5101F02A
:102E200063FF0A4920F00040884205DC07E00849BA
:102E300008440849884202D309FA04F00543641C97
:102E4000032CD7DB2846BDE8FE8F0000295C0F3E2F
:102E5000666666C19A99D90008B560B120208DF8E0
:102E6000000028208DF8010030208DF80200382065
:102E70008DF8030004E0A32204216846FDF7F4F96D
:102E80006A46042140F69E2001F03AFC01F0F8F871
:102E900008BD00003EB5044602208DF80000CA209F
:102EA0008DF80100E3208DF8020009208DF8030061
:102EB0006A460421682001F023FCA3208DF800005D
:102EC000610609D5C0218DF80110C8218DF80210C6
:102ED000C2218DF8031005E08DF801008DF8020085
:102EE0008DF8030014F4C07F09D0C4218DF80410BC
:102EF000CC218DF80510C6218DF8061005E08DF85F
:102F000004008DF805008DF806008DF808008DF896
:102F100007008DF809006A460A2140F6A72001F053
:102F2000EFFBA0074FF0D80503D020208DF800005C
:102F300001E08DF800506A46012140F6B62001F00C
:102F4000DFFBA00601D5012000E0002000F08EF894
:102F500014F4C07F1ED0E0050AD5B2208DF8000021
:102F60008B208DF80100B6208DF802009B2009E02F
:102F7000B0208DF8000080208DF80100B4208DF87D
:102F8000020090208DF803006A46042140F6A2203A
:102F900001F0B6FBE1074FF40B6022D0F8218DF869
:102FA00000106A46012101F0ABFBFA21072000F076
:102FB00097FA072000F062FA012000F07FFA6420FF
:102FC00000F022FB4FF4FA7000F02EFBC8212548D8
:102FD00000F01CFA282000F031FA0A2000F03EFA36
:102FE00005E08DF800506A46012101F089FBA00739
:102FF00003D5D9208DF8000001E08DF800506A4615
:10300000012140F23D7001F07BFB600701D50120FA
:1030100000E0002000F048F8E00601D5012000E0C3
:103020000020FFF719FF104D44F00800688101F0FF
:1030300027F80020A873600601D50620A87314F4B1
:10304000C07F02D0A87B801DA87314F0140F02D09B
:10305000A87B1030A873A00702D0A87B001DA8731E
:1030600000203EBD09E3CA02500600200EB54FF411
:10307000976310B106A107C901E008A207CA8DE84D
:1030800007006A460921184601F03AFB0EBD000010
:10309000B8AAB38DB4980D355D000000B8AAAAAAED
:1030A000B088C3C5C700000008B560B1C0208DF866
:1030B0000000C2208DF80100C4208DF80200C62057
:1030C0008DF8030004E08B2204216846FDF7CCF85C
:1030D0006A46042140F6982001F012FB00F0D0FF70
:1030E00008BD0000C8234FF48062024940F6F63064
:1030F00000F0F0BE2C4F00082DE9FF41044603A864
:1031000000F0D0FDBDF80C00410CC3032F4802892C
:1031100002F00300550754F8200000D54042C2F3E6
:10312000C105960654F8255000D56D42C2F38116AC
:10313000D20554F8264000D56442A0FB0367C217AD
:1031400002FB037200FB0120820042EA9670A5FB9D
:103150000367EA1702FB037205FB0122950045EAAB
:103160009672A4FB0367E51705FB037304FB0131AB
:103170008B0043EA9671030E8DF80030030C8DF836
:103180000130030A8DF802308DF80300100E8DF81F
:103190000400100C8DF80500100A8DF80600080ECA
:1031A0008DF80800080C8DF80900080A8DF80A004F
:1031B0008DF807208DF80B106A460C214FF425700E
:1031C00001F09EFA04B0BDE8F08100005006002036
:1031D00030B5044613A285B007CA8DE807004FF04A
:1031E000FF35C82C16D8C820B0FBF4F1491E080AD8
:1031F0008DF80C008DF80D1003AA022140F2162064
:1032000001F07EFA30B96A460C2140F6C12001F087
:1032100077FA10B1284605B030BD054884810020FA
:10322000F9E70000FEF2ABC4AAF1DFDFBBAFDFDFDE
:1032300050060020F8B53049098901F0030250F822
:1032400022404A0700D56442C1F3C1028B0650F800
:10325000222000D55242C1F3811350F82330C80513
:1032600000D55B42254984FB0140850045EA947006
:1032700082FB0142A40F44EA820483FB0121950FE3
:1032800045EA8105010E8DF80010010C8DF8011042
:10329000010A8DF802108DF803006A4604214FF4EC
:1032A000747001F02DFA4FF0FF3688B9200E8DF8BA
:1032B0000000200C8DF80100200A8DF802008DF826
:1032C00003406A4604214FF4757001F019FA08B101
:1032D0003046F8BD280E8DF80000280C8DF801004E
:1032E000280A8DF802008DF803506A4604214FF435
:1032F000767001F005FAF8BD5006002009E3CA0215
:103300002DE9FF4104463CA004F00303006802904D
:103310003AA0006803903AA006683AA0056802A89F
:10332000C15C8DF80010C4F3C101425C8DF801202E
:10333000C4F38112805C8DF8020003A8C35C8DF891
:103340000430415C8DF80510805C8DF806006A46FB
:10335000032140F2264001F0D3F94FF0FF37E0BBE4
:1033600001AA032140F22A4001F0CAF9A8BBCDE925
:10337000006560070BD59DF8000040F001008DF856
:1033800000009DF8040040F001008DF80400A00644
:103390000BD59DF8010040F001008DF801009DF86B
:1033A000050040F001008DF80500E0050BD59DF803
:1033B000020040F001008DF802009DF8060040F088
:1033C00001008DF806006A4603214FF4886001F081
:1033D00097F910B901AA032100E004E040F231405E
:1033E00001F08EF918B1384604B0BDE8F081064806
:1033F00004810020F8E700004CCD6C000CC92C00C3
:103400003656760026466600500600204FF47A7243
:1034100090FBF2F008B54843010E8DF80010010C46
:103420008DF80110010A8DF802108DF803006A462C
:1034300004214FF4AE7001F063F908BD0521B0FB23
:10344000F1F008B5010A8DF800108DF801006A4608
:1034500002214FF4AD7001F053F908BD0521B0FB16
:10346000F1F008B5010A8DF800108DF801006A46E8
:1034700002214FF4AC7001F043F908BD08B50021FA
:103480008DF80010C10702D030218DF8001081079F
:1034900005D59DF8001041F00C018DF80010400793
:1034A00005D59DF8000040F003008DF800006A4645
:1034B00001214FF4A47001F023F908BD08B560B1F3
:1034C000042800D90420401E8DF800006A4601211E
:1034D00040F24F1001F014F908BD0120F3E700009D
:1034E0002DE9FC41054640074FF0FF367CD0B1F591
:1034F000C86F79D8084601F017FB3E4901F0FEF984
:10350000074601A800F0B0FB9DF80400022806D091
:1035100004280DD008282ED0102865D134E00E21C3
:10352000384601F088FC01F0C7FA84B2324907E05E
:103530000D21384601F07FFC01F0BEFA2F4984B21C
:10354000384601F005FB01F0B7FA210A8DF80010AA
:1035500080B28DF80140010A8DF802108DF8030049
:10356000E8076C4620D0224602214FF4EA7001F0B1
:10357000C7F8C8BB11E00C21384601F05CFC01F033
:103580009BFA84B21E49DBE70B21384601F053FC5D
:1035900001F092FA84B21B49D2E7A21C02214FF437
:1035A000927001F0ADF8F8B9A8070DD56A4602216E
:1035B0004FF4EC7001F0A4F8B0B9A21C02214FF452
:1035C000947001F09DF878B9680710D56A46022119
:1035D0004FF4EE7001F094F830B9A21C02214FF4C0
:1035E000967001F08DF810B13046BDE8FC810020E6
:1035F000FBE7000000004843000040460000C045D3
:10360000000040450000C0440521B0FBF1F008B5C2
:10361000010A8DF800108DF801006A4602214FF46E
:10362000EF7001F06DF808BD0521B0FBF1F008B5B1
:10363000010A8DF800108DF801006A4602214FF44E
:10364000ED7001F05DF808BD2DE9FE430646264801
:1036500001AB042240680D210078FEF7ABFC10B1ED
:103660000720BDE8FE839DF804101C2000EAD1026B
:103670009DF80710DFF87490C1F301131A438DF819
:1036800000209DF80520C1F3810300EAD2021A430D
:103690008DF801209DF8062001F0030100EAD20018
:1036A00008430024124F8DF80200A0466D46285DA5
:1036B00010B146F824900AE046F824800DE000BFDF
:1036C00056F82400394601F043FA46F82400285DF4
:1036D000401E10F0FF002855F2D1641CE4B2032C08
:1036E000E5D30020BDE70000100000207B14AE3EB3
:1036F0001D5A843F2DE9FE4F05460120C14E8DF82D
:1037000000004FF000088DF8018030680C46174625
:10371000817C70686B4602220078FEF7D8FC4FF07F
:10372000FF3A00287AD1C820FDF76AF88DF80080AA
:1037300030686B460122C17B70680078FEF7C7FCD9
:103740000028EFD130686B4601224179706800781B
:10375000FEF7BDFC0028E5D130686B460122817C74
:1037600070680078FEF7B3FC0028DBD130686B4648
:103770000122C17D70680078FEF7A9FC0028D1D134
:1037800030686B460122017970680078FEF79FFC73
:103790000028C7D14FF00C098DF8009030686B46B7
:1037A0000122017970680078FEF791FC002835D17C
:1037B0000F20FDF725F8B06A6B460122407A8DF89C
:1037C00000003068817870680078FEF780FC00287F
:1037D00024D1B06A6B460122007A8DF8000030686F
:1037E000417870680078FEF772FC002873D1B06AE7
:1037F000807A0FB140F0E0008DF8000030686B4631
:103800000122817970680078FEF761FC002862D19E
:103810002FB1B06AC07A40F0E00001E04AE0182021
:103820008DF8000030686B460122C179706800781D
:10383000FEF74DFCF0BB17B1C820FCF7E1FF4020BC
:103840008DF8000030686B460122017970680078BD
:10385000FEF73DFC70BB78208DF8000030686B46A9
:103860000122417970680078FEF731FC10BB3220EC
:10387000FCF7C6FF8DF80080306847466B464179FB
:10388000706801220078FEF722FC98B931687068F0
:10389000B046897A00786B460222FEF78BFB48B966
:1038A000BDF80000AF6040BAB0FBF9F06F60C6B27F
:1038B0002F6000E00FE0A76067602760002739E015
:1038C000D8F80010D8F804006B46C97A00780C22AA
:1038D000FEF770FB10B15046BDE8FE8FBDF800004A
:1038E000236840BA02B2BDF80200BDF804101A44C1
:1038F000226040BA626800B21044606049BAA068B1
:1039000009B20844A060BDF806002B6840BA02B2B4
:10391000BDF808001A4440BA01B2BDF80A002A6096
:103920006A6840BA11446960A96800B208447F1C03
:10393000FFB2A860B742C3D328688322C117090425
:1039400041EA104100040023FCF73EFC324600230C
:10395000FCF73AFC286068688322C117090441EA31
:10396000104100040023FCF72FFC32460023FCF733
:103970002BFC6860A8688322C117090441EA104142
:1039800000040023FCF720FC32460023FCF71CFC5B
:10399000A86020684FF40065C117090441EA10418E
:1039A00000042A460023FCF70FFC32460023FCF7F4
:1039B0000BFC206060682A46C117090441EA1041E7
:1039C00000040023FCF700FC32460023FCF7FCFB5C
:1039D0006060A0682A46C117090441EA104100044A
:1039E0000023FCF7F1FB32460023FCF7EDFBA0605F
:1039F000002802DDA0F5803001E000F58030A060F5
:103A0000002069E7100000202DE9F84F81462E487C
:103A10008846002540686B46032200780D21FEF79A
:103A2000C9FA10B10720BDE8F88F9DF80000002406
:103A300000F01F008DF800009DF801006FF00F0BE3
:103A400000F01F008DF801009DF802006E4600F0A6
:103A50001F008DF802004FF0010A00BF59F8241032
:103A600058F82400081A00D5404201F045F859469C
:103A700001F0E1F90746305DC0B1144802E0144995
:103A800001F066F8315D491E11F0FF013155F6D1A4
:103A90000146384600F032FF4FF07E5101F024F924
:103AA0000C4920F00040884205DC07E00A48384411
:103AB000B0F1D97F02D90AFA04F00543641C032C43
:103AC000CCDB2846AFE70000100000200000C84112
:103AD00054E3853F295C0F3E0000E0BE00B502467E
:103AE00000F00DF80346D01C00F009F843EAC003CB
:103AF000901D00F004F843EA801080B200BD90F9F8
:103B00000010002902DD4FF00000704702DA4FF08C
:103B10000400704790F90110002902DD4FF0010008
:103B2000704702DA4FF00500704790F90200002854
:103B300002DD4FF00200704702DA4FF006007047D6
:103B40004FF007007047FCF7A9FFFEF717FEFEF7DE
:103B500005FBFEF7E5FAFEF775FBFEF7DFFBFEF768
:103B600047FCFEF711FCFEF779FCFCF782FC142100
:103B70000846FEF791FCFEE72DE9F041124C20F0DB
:103B80000101002594F8240010B10020BDE8F08167
:103B9000A07A4FF0FF3668B10840277C2074884235
:103BA00000D0354641B1012000F014FE00F068FA63
:103BB00038B127743046E9E7207D00B1012000F0DC
:103BC00009FE2846E2E700001000002010B5FEF7CD
:103BD0009FF800F0EDF808B10A2010BD782000F041
:103BE00033FD10F0FF0F01D0012010BD7820FFF74A
:103BF000C3FF10F0FF0F01D0022010BD642000F0C1
:103C0000E3FC10F0FF0F01D0032010BDFFF76AFAAC
:103C100010F0FF0F01D0042010BD1248FFF75EFF27
:103C2000FFF76EFB10F0FF0F01D0052010BD40F232
:103C30007310FFF72FF910F0FF0F01D0062010BD11
:103C40006420FFF7C5FA10F0FF0F01D0072010BD68
:103C500000F080FD012000F0DDFB10F0FF00F6D049
:103C6000092010BD3C0000200D494A7A42B1012ACA
:103C700008D0022A0FD0032A0FD04FF0FF30704730
:103C8000022200E004220270C97C11B11106C90DA4
:103C90000170002070470822F5E71022F3E70000CA
:103CA000100000200F494A7A42B1012A09D0022AA5
:103CB00011D0032A12D04FF0FF3070474FF48042EA
:103CC00001E041F69C720280C97C11B1C2F34E0141
:103CD0000180002070474FF48052F4E74FF40062F7
:103CE000F1E70000100000200B49097A39B10129E1
:103CF00007D002290AD003290BD0002103E0FA21C2
:103D000001E04FF4FA710180002070474FF47A719E
:103D1000F9E74FF4FA61F6E7100000200A49097A42
:103D200041B1012908D002290AD003290AD04FF055
:103D3000FF307047054900E00549016000207047E9
:103D40000449FAE70449F8E71000002000000343A3
:103D50000000834233330342333383410C49C97A31
:103D6000072913D2DFE801F01204060A0C0E100036
:103D7000BC2100E062210180002070472A21FAE77F
:103D80001421F8E70A21F6E70521F4E70021F2E71C
:103D900010000020054991F8242012B14FF0FF30A7
:103DA0007047C98901800020704700001000002082
:103DB0002DE9FC41464C80208DF8000020686B46C0
:103DC0000122817C60680078FEF781F94FF0FF37AF
:103DD000002875D16420FCF713FD00258DF80050F4
:103DE00020686B460122817C60680078FEF76FF9DD
:103DF000002865D120686B460622817D60680078C6
:103E0000FEF7D8F800285BD19DF805009DF8031057
:103E1000C007400F01F0010140EA41009DF8011088
:103E20004FF0010601F00101084304D0012831D010
:103E3000022810D044E020686B460122C1786068F7
:103E40000078FEF7B7F8D8BB9DF8000010F00F001F
:103E500036D004281ED0E574FF2004F80A0F4FF670
:103E6000FF7104F8020C04F8010C6070A180A071CD
:103E70002072A67026766576E572A572E5602561EA
:103E80006561A576E576A5834FF4FA6000F0FEFA49
:103E9000B0B901E0E674DFE7022000F019FA78B962
:103EA0002A2000F05BFB58B9322000F08DFB38B9B6
:103EB0000020FFF761FE18B9002000F03DFA10B1B4
:103EC0003846BDE8FC81002000F0BEFB0020F8E78A
:103ED000100000202DE9FF4FDFF89480064685B0E2
:103EE00098F8250015460F464FF0FF39B0BBAFB329
:103EF000002420E0301B102800DD102080B2834613
:103F00003A1901469246204600F0FAFB30BB6A4659
:103F10005946204600F08AF800BB50465A4669468A
:103F2000FCF776F920B16FF0010009B0BDE8F08F21
:103F300004EB0B0084B2B442DCD3280A8DF81000E5
:103F40008DF81150D8F80000444604AB817ED8F8B3
:103F5000040002220078FEF7BAF808B14846E4E708
:103F6000012084F825000898E0840020DDE70000A7
:103F7000100000202DE9F84305464FF0FF392828AE
:103F800044D80727284C00267DB1012000F0B4FA60
:103F900020208DF800004FF00108012D17D0052DCD
:103FA00018D88DF8018005201FE0002000F0A4FA49
:103FB0008DF800608DF8017020686B460222817CCC
:103FC00060680078FEF783F800BB267529E08DF85D
:103FD0000160E8E7142D04D802208DF801000A20C2
:103FE00003E003208DF80100142000F0B7FA9DF8DB
:103FF00001006B4607EB80108DF80100206802225B
:10400000817C60680078FEF762F810B14846BDE830
:10401000F8830820A072267384F814800020FFF72C
:10402000ABFD0020F3E7000010000020F8B51600FB
:104030000D464FF0FF371FD0104CA17AE1B1010AB5
:104040008DF80010C0B28DF80100411960684289F6
:10405000914211D8216800786B46097E0222FEF752
:1040600036F848B92068EAB23346417D6068007886
:10407000FDF7A0FF002800D03846F8BD1000002052
:10408000F8B5564C4FF0FF36A07A00287DD00025B9
:104090008DF8005020686B460122C17B6068007873
:1040A000FEF715F8002870D120686B46012241798F
:1040B00060680078FEF70BF8002866D120686B4630
:1040C0000122017960680078FEF701F800285CD1D0
:1040D00094F82400E0B30C208DF8000020686B46B3
:1040E0000122017960680078FDF7F1FF002872D1A4
:1040F0003220FCF785FBC0208DF80000A07AC007B5
:1041000002D0E0208DF8000020686B460122017982
:1041100060680078FDF7DBFF00285CD1607C18B197
:1041200002208DF8000001E08DF8005020686B46F9
:104130000122C17B60680078FDF7C9FF28BB8DF8BC
:10414000005020686B4601224179606800783EE0AB
:10415000FFE704208DF8000020686B4601220179FA
:1041600060680078FDF7B3FF78B9A07C90B9A07AB9
:10417000C0070FD05FF060008DF8000020686B462C
:10418000012201796068007800E024E0FDF79FFFDC
:1041900008BB01E04020EFE73220FCF731FB607CF8
:1041A00018B101208DF8000001E08DF80050206862
:1041B0006B460122C17B60680078FDF788FF50B92B
:1041C0002068064B01224179606810330078FDF7C2
:1041D0007EFF002800D03046F8BD0000100000200F
:1041E0002DE9F047394C82468AB094F824000F46F6
:1041F00020B1002000F00EF9012600E0002607A8FB
:10420000FFF772FD06A8FFF72FFD09A8FFF7A6FD2F
:1042100008A8FFF7BFFD94F80A9094F810800025D5
:10422000002239465046FFF765FA10B16D1C022D89
:10423000F6DB022D1AD00025012203A96846FFF7FC
:1042400059FA10B16D1C022DF6DB022D0ED003A918
:104250003846FEF7C1FDC7B269465046FFF7D4FBAA
:1042600010F0FF0F4FF0000502D002E0002503E040
:1042700001250FB945F00205FF2020726072E0723F
:104280004FF6FF71E181A072207401202073BDF808
:104290001C0000F0FBF89DF8180000F019F8BDF8BC
:1042A000240000F05BF9BDF8200000F08DF94846CD
:1042B00000F0CAF94046FFF75FFC16B1012000F09C
:1042C000A9F80AB02846BDE8F087000010000020D9
:1042D00038B5184C4FF0FF35A17A19B3022806D033
:1042E000042806D008280ED010281BD10DE000208D
:1042F00000E008208DF80000607A9DF80010B0EB17
:10430000D10F04D005E01020F4E71820F2E70020D8
:1043100038BD20686B460122C17960680078FDF7DE
:10432000D6FE08B1284638BD9DF80000C00860726E
:10433000EDE7000010000020F8B5354C0546A07CE4
:10434000A84201D10020F8BD31484FF0FF366B463E
:10435000D0E900104FF001020979007835B3FDF77C
:1043600029FE70BB9DF800006B4620F020008DF800
:10437000000020680122017960680078FDF7A7FE3F
:10438000F8B90320FCF73CFA02208DF8000094F8FD
:10439000220078B382202BE020686B460122017D49
:1043A00060680078FDF793FE58B92EE0FDF702FE35
:1043B00038B9A07AC0079DF8000003D040F0200073
:1043C00002E00CE020F020008DF8000020686B4631
:1043D0000122017960680078FDF779FE08B1304666
:1043E000F8BD0320FCF70CFA94F8220000B18020FD
:1043F0008DF8000094F823000028CDD09DF800002F
:1044000040F030008DF80000C6E7A5749AE7000080
:104410001000002038B51C4C94F8241081421DD0A7
:10442000002500B394F82500D0B1002000F0D2F9A7
:104430000020FFF781FFE08C00F0C6F88DF80050F7
:1044400060686B46012200782321FDF740FE0120C1
:1044500084F8240000F0BEF9FFF712FE002038BDFA
:104460004FF0FF3038BD002000F0B4F9207C8DF80B
:10447000000060686B46012200782321FDF727FECB
:1044800084F82450E8E700001000002038B5194CEB
:104490004FF0FF35A17A31B3FA2809D0B0F5FA7F91
:1044A00008D0B0F57A7F0FD0B0F5FA6F1BD10DE0D0
:1044B000002000E008208DF80000207A9DF8001010
:1044C000B0EBD10F04D005E01020F4E71820F2E79C
:1044D000002038BD20686B46012281796068007831
:1044E000FDF7F5FD08B1284638BD9DF80000C0086D
:1044F0002072EDE71000002038B5174C054694F8FF
:104500002300A84201D1002038BD0DB1302000E0C9
:1045100000208DF80000A07C28B19DF8000040F03C
:1045200002008DF8000094F8220028B19DF80000E8
:1045300040F080008DF8000020686B460122017D6C
:1045400060680078FDF7C3FD10B14FF0FF3038BD53
:1045500084F82350D7E700001000002038B5194C2C
:104560004FF0FF35A17A31B3BC2801D3012010E010
:10457000622801D302200CE02A2801D3032008E09E
:10458000142801D3042004E00A2801D3052000E008
:1045900006208DF80000E07A9DF80010884201D1D5
:1045A000002038BD20686B46012281786068007861
:1045B000FDF78DFD08B1284638BD9DF80000E0727A
:1045C000EEE7000010000020F8B51E4D04464FF045
:1045D000FF37A87A48B395F8240030BB287D4FF404
:1045E0007A7648B164B1282C03D8E0B2FFF7C2FC58
:1045F00026E00020FFF7BEFC042C05D2042406E0D0
:104600000020FFF7B7FCF9E7B44200D93446B6FB07
:10461000F4F0401E8DF8000028686B4601224178B6
:1046200068680078FDF753FD08B13846F8BD9DF87D
:104630000000401CB6FBF0F0E8814008FFF78EFF59
:104640000020F8BD10000020F8B5054610F0700FEE
:104650004FF0000601D0012004E015B18DF8006094
:1046600002E040208DF80000244C6B4601222068B7
:10467000817C60680078FDF72AFD4FF0FF3760BB52
:104680009DF8000020F0400020738DF8006068065F
:1046900002D404208DF80000A80605D49DF800007F
:1046A00040F002008DF80000E80605D49DF80000F7
:1046B00040F001008DF80000280705D49DF80000A7
:1046C00040F038008DF8000020686B460122C17C64
:1046D00060680078FDF7FBFC10B1A6723846F8BDA3
:1046E00025B1082D02D00020FFF706FFA572267520
:1046F0003220FCF785F80020F8BD000010000020F3
:10470000F8B516000D464FF0FF371FD0104CA17AB8
:10471000E1B1010A8DF80010C0B28DF80100411915
:1047200060684289914211D8216800786B46097E01
:104730000222FDF7CCFC48B92068EAB23346417D3D
:1047400060680078FDF7C3FC002800D03846F8BD4B
:104750001000002010B588B0694604A8FFF740FD9E
:10476000032802D0012008B010BD07A8FFF7D6FA31
:10477000049800F0C1F907990C4600F0E9F900F03F
:104780007FF90490059800F0B7F9214600F0E0F9B0
:1047900000F076F90590069800F0AEF9214600F099
:1047A000D7F900F06DF9069004A8FEF743FD03A8C1
:1047B000FFF778FABDF80C00009941430091019988
:1047C000414301910299414368460291FEF794FCEE
:1047D0000020C8E7F8B5144C0146224694F824603E
:1047E000D2E9000200235D1E56B179B1022111E029
:1047F000C17B10786B460122FDF769FC68B90EE0B9
:10480000A67A56B111B1617C61B902E08DF8003031
:10481000EEE701218DF80010EAE72846F8BD9DF883
:10482000000060740020F8BD1000002090EA010F25
:1048300048BF81F0004100F15E82421A3CBF801AFD
:1048400089184FEAD0524FF07F4C1CEA410FA2EB7F
:10485000D15318BF9CEA026F00F03B804FF0004C30
:104860004CEA00204CEA012121FA03FC10EB0C0C6D
:104870001ED202F1FF325FEA1C2040EBC25038BF6B
:1048800070471CF07F0F4FEA400C18BFBCF17F4F00
:1048900038BF7047C3F12003994008BF20F00100E2
:1048A000BCF17F4F38BF7047A0F1C04000F017BA8D
:1048B0004FEA3C00000A40EBC25028BF1CF0FF0F3B
:1048C0004FEA400CE6D018BFBCF17F4F38BF7047AD
:1048D000EAE79CEA026F05D010EA5C0F08BF00F01F
:1048E0000040704710B500F0B4F900BF64FBBE3E55
:1048F000014800F06EBA00BF0000C07F4FF47F0C8B
:104900001CEAD0121EBF1CEAD11392EA0C0F93EAE4
:104910000C0F00F0858090EA010F48BF42F48072CE
:1049200040F4000C41F400002CF07F4120F07F4067
:1049300000B58142A2EB03020FF2081CACEB504E13
:10494000C0F100009EF800E04FEA4E0E00FB0EFCA6
:1049500038BF49004FEA2C1C02F5FA020CFB0EF39B
:104960004FEACE1E4FEA112C4FEAC1210EEB635ED7
:1049700042EB22420EFB0CFC4FEA1C5300FB0311DE
:104980004FEA112C4FEA01310EFB0CFC4FEADC4CD4
:1049900000FB0C11C14228BF09184CEB03335DF832
:1049A00004EB10EB410143EBC250B2F57C0F38BF72
:1049B000704729D512F0F00F1CBF00F1C04000F085
:1049C00000407047008182838485868788898B8C2C
:1049D0008D8E8F919293959697999A9C9D9FA0A268
:1049E000A3A5A7A8AAACAEB0B2B3B5B7B9BCBEC0B8
:1049F000C2C5C7C9CCCED1D4D7D9DCDFE2E6E9EC59
:104A0000F0F3F7FAFE0000004FEA400C0CF1807C56
:104A1000BCF17E4F28BF7047B0F1C04000F05FB9D5
:104A200090EA010F0CEAD11348BF42F4807262454C
:104A300038BF634507D213F47F0F16D080EA010018
:104A400000F00040704710B500F003F9097EFC3E0D
:104A500000F005B880EA010000F00040704780EAED
:104A6000010000F0004000F03AB912F47F0F04BFDB
:104A70000248704780EA010000F031B90000C07FB1
:104A800041000B0ED3F19E0208D950F400034FEA07
:104A9000032323FA02F048BF4042704710B500F0EC
:104AA000D8F800BF49922480002070476FF0004280
:104AB00082EA200070470000C10DD1F19E0206DBA2
:104AC0004FEA002343F0004323FA02F0704700420C
:104AD00007D54FEA4001B1F1FE4F02D24FF000007E
:104AE000704710B500F0B5F8499224800020704757
:104AF0006FEA20007047000010F0004148BF4042BC
:104B0000B0FA80F310FA03F2C3F19D030BD051EA1F
:104B1000C35101EB1220530638BF704700F101006A
:104B200008BF20F001007047B0FA80F310FA03F2DA
:104B3000C3F19D030AD0D90501EB1220530638BFFB
:104B4000704700F1010008BF20F00100704700002D
:104B50004FF47F0C1CEAD0121EBF1CEAD11392EA5C
:104B60000C0F93EA0C0F00F0478090EA010F48BF4A
:104B700042F480724FF0004C4CEA00204CEA0121D4
:104B800002EB0302A0FB0113A2F50002002918BFEB
:104B900043F001035B0028BF4FEA330342EB22429C
:104BA0005FEA132C4CEBC2502EBFBCEB436FB2F547
:104BB0007C0F70474FEA036CBCF1004F08BF20F038
:104BC0000100B2F57C0F38BF70470BD582F0FF02B1
:104BD00012F5803FC8BF704700F1C040D8BF00F059
:104BE0000040704700F5000C5FEA4C0C48BF70476E
:104BF000B0F1C04000F073B890EA010F0CEAD11395
:104C000048BF42F48072624538BF634504D280EAEF
:104C1000010000F00040704710B500F01AF800BF26
:104C20008900013E00F007B800F009B85FEA410CC6
:104C30005FEA1C6C08D080EA010000F050B85FEA1F
:104C4000400C5FEA1C6CF6D14FF00040A0F58000EC
:104C500070470EF1020E2EF0030E5EF8044B244254
:104C600004D44FEA4102B2F17F4F11D84FEA40031A
:104C7000B3F17F4F0CD80ED14FEAD07CB2F17F4F09
:104C80000CEB4C0C0CF1020C08BF4CEBD17C04E09B
:104C90004FF0080C01E04FEAD17C0CEB4C0324FAF6
:104CA00003F404F00704B4F1040C06D20EEB840CF8
:104CB000BDE810404CF0010C6047DFE80CF007083D
:104CC00002024FF00040A0F5800010BD08464200EF
:104CD00018BFD2F1807288BF00F0004010BDFF21E4
:104CE00041EAD050C005704790EA010F48BF81F0FB
:104CF00000413FF5A2AD421A04D882F00042A0EB79
:104D0000020011444FEAD0524FF07F4C1CEA410F91
:104D1000A2EBD15318BF9CEA026F4AD04FF0004C6F
:104D20004CEA00204CEA012121FA03FCB0EB0C0C08
:104D30000FD412F0FE0F36D05FEA4C001DD50012E2
:104D400040EBC25038BF70471CF03F0F18BF704790
:104D50000BE0A2F101025FEA1C2040EBC25038BF19
:104D600070471CF07F0F18BF7047C3F120039940B4
:104D700014BF401E20F00100704780084FEA122344
:104D800008BF7047B0FA80FCA2EB0C02CCF1280CF3
:104D900060FA0CF093EA122F04BF00EBC250704788
:104DA0004FEAC3707047130A5FEADC1008BF704710
:104DB000F6E79CEA026F04D010EA5C0F08BF0020FF
:104DC000704710B5FFF745FF40DFF63E81F0004029
:104DD00070470CF00F03092B08BF082000F051802A
:104DE0000A2B0BD0082B18BF704708BF1CF0400FD0
:104DF0000AD04FF000004FF0000170471CF0400F48
:104E000018BF4FF0004070471CF0100F08D020F082
:104E1000704300F07F4242EAD3014FEA437070478B
:104E200000F0604021F07F4242EA000201F07F4042
:104E300040EA727070474FF0FF0212EAD0521CBF76
:104E400092F0FF038B42C2BFD14200EBC1507047CA
:104E5000002A0AD0002B0BD0002900F00040A4BF8C
:104E600040F0FE4040F40000704700F00040704702
:104E700043024FF00B0C18BF4CF0806C7FF438AD40
:104E800070471CF4801F11D01CF4E02F03D06FEA90
:104E9000CC31490070474FF04050EFF3008222F0D0
:104EA000704242EA000282F3008870474FF000002F
:104EB0007047010202030405060708090A0B0C0DDE
:104EC0000E0F10100000000000000000010203049B
:104ED00006070809000000000102030475191A0CF6
:104EE0006A231B1C1F207274433B4138393A6B6C98
:104EF000376F06246D6E7000680000047600540160
:104F0000F7FD000183000000000800000001001808
:104F100032000500000020410000D242295C0F3E13
:104F20009A99993E3333733F295C0F3E000070001D
:104F3000000000240000000200030000006500548F
:104F4000FFEF0000FA80000B12820001030C30C357
:104F50000E8C8CE914D5400213710F8E3883F883C0
:104F60003000F883258EF8833000F883FFFFFFFFC1
:104F70000FFEA9D6240004001A8279A10000003C8B
:104F8000FFFF00000010000038836FA2003E0330D6
:104F90004000000002CAE3093E800000200000003B
:104FA000000000004000000060000000000C000055
:104FB000000C186E000006920A16C0DFFFFF0256B2
:104FC000FD8CD377FFE1C496E0C5BEAA00000000C7
:104FD000FFFF0B2B00001657000003594000000094
:104FE00000001DFA00026C1D000000003FFFDFEB17
:104FF000003EB3B6000D227800002F3C00000000F8
:10500000001942B5000039A20000B365D90E9FC94E
:105010001DCF4C3430000000500000003BB67AE851
:105020000064000000C80000000000001000000044
:105030001000FA921000225E000D229F0001000075
:1050400000320000FF46000063D4000010000000A2
:1050500004D6000004CC000004CC00000000107254
:1050600000000040000000000000000000060002F8
:1050700000050007000000000064000000000000C0
:105080000000000500050064002000000000000092
:10509000000000000000400000000300000000329B
:1050A000F8980000FF650000830F0000FF9BFC00E4
:1050B00000000000000000000000000000000000F0
:1050C00000000000000000000000000000000000E0
:1050D0000000000000000000000010004000000080
:1050E000000000060000B26A000200000001FB831D
:1050F0000068000000D9FC007CF1FF830000000084
:1051000000650000006403E800640028000000253A
:105110000000000016A000000000100000001000B9
:10512000002F0000000001F4000010000028000023
:10513000FFFF4581FFFFFA72000000000000000041
:10514000004400050005BAC6004778A2000000012F
:105150000000000000000600000000140000254DC3
:10516000002F706D000005AE000C02D000000000A2
:10517000000000000000000000000000001B000014
:1051800000000000000000000000000000640000BB
:105190000008000000000000000000000000000007
:1051A00000000000000000000000000000000000FF
:1051B00000000000000000000000000000000000EF
:1051C00000000000000000000000000000000000DF
:1051D00000000000000000000000000000000000CF
:1051E000000000000000000000000000001B0000A4
:1051F0000000000000000000000E000E00000AC7C2
:105200000004000000000032FFFFFF9C00000B2B99
:10521000000000020000000100000064FFE5000043
:10522000000000000000000000000000000000017D
:1052300000000000000100000000000000018000EC
:105240000001800000018000002426D3000000003F
:1052500000000000000600100096003C0000000066
:105260000000000000000000000000000C0A4E6872
:10527000CDCF770950166759C619CE8200000000BD
:10528000000000000000000000000000000000001E
:105290000000000017D78400030000000000000099
:1052A00000000000C7938F9D1E1B1C19000000000A
:1052B00000000000000000000000000000000000EE
:1052C00000000000020318850000400000000003F9
:1052D000000000030000000000000000400000008B
:1052E00000000000000000000000000000000000BE
:1052F00000000000000000000000000000000000AE
:10530000000000000000000000000000000000009D
:10531000677DDF7E72902E554CF6E6880000000017
:10532000000000000000000000000000D8DCB4B85D
:10533000B0D8B9ABF3F8FAB3B7BB8E9EAEF132F585
:105340001BF1B4B8B08097F1A9DFDFDFAADFDFDFA0
:10535000F2AAC5CDC7A90CC92C97F1A98926466622
:10536000B28999A92D557DB0B08AA896365676F1A6
:10537000BAA3B4B280C0B8A89711B28398BAA3F008
:10538000240844106418B2B9B49883F1A329557D58
:10539000BAB5B1A38393F0002850F5B2B6AA8393AF
:1053A00028547CF1B9A3829361BAA2DADEDFDB81F3
:1053B0009AB9AEF5606870F1DABAA2DFD9BAA2FA8A
:1053C000B9A38292DB31BAA2D9BAA2F8DF85A4D000
:1053D000C1BBAD83C2C5C7B8A2DFDFDFBAA0DFDFC4
:1053E000DFD8D8F1B8AAB38DB4980D355DB2B6BA8E
:1053F000AF8C96198F9FA70E161EB49AB8AA872C49
:10540000547CBAA4B08AB691325676B28494A4C8B9
:1054100008CDD8B8B4B0F19982A82D557D98A80EC2
:10542000161EA22C547C92A4F02C5078F184A898DB
:10543000C4CDFCD80DDBA8FC2DF3D9BAA6F8DABA96
:10544000A6DED8BAB2B68696A6D0F3C841DAA6C808
:10545000F8D8B0B4B882A892F52C548898F135D910
:10546000F418D8F1A2D0F8F9A884D9C7DFF8F883E6
:10547000C5DADF69DF83C1D8F40114F1A8824EA830
:1054800084F311D182F5D992289788F109F41C1C74
:10549000D884A8F3C0F9D1D99782F129F40DD8F3B3
:1054A000F9F9D1D982F4C203D8DEDF1AD8F1A2FA11
:1054B000F9A88498D9C7DFF8F8F883C7DADF69DF7D
:1054C000F883C3D8F40114F198A8822EA884F311AC
:1054D000D182F5D992509788F109F41CD884A8F3A9
:1054E000C0F8F9D1D99782F149F40DD8F3F9F9D17F
:1054F000D982F4C403D8DEDFD8F1AD8898CCA809EE
:10550000F9D98292A8F57CF1883ACF944A6E98DB5B
:105510006931DAADF2DEF9D88795A8F221D1DAA5A2
:10552000F9F417D9F1AE8ED0C0C3AE82C684C3A839
:105530008595C8A588F2C0F1F4010EF18E9EA8C62B
:105540003E56F554F18872F40115F19845856EF5D3
:105550008E9E0488F142985A8E9E068869F4011C3A
:10556000F1981E1108D0F504F11E97020298362515
:10557000DBF9D985A5F3C1DA85A5F3DFD88595A830
:10558000F309DAA5FAD88292A8F578F1881A849FEF
:1055900026889821DAF41DF3D8879F39D1AFD9DF57
:1055A000DFFBF9F40CF3D8FAD0F8DAF9F9D0DFD947
:1055B000F9D8F40BD8F3879F39D1AFD9DFDFF41DC9
:1055C000F3D8FAFCA869F9F9AFD0DADEFAD9F88F86
:1055D0009FA8F1CCF398DB45D9AFDFD0F8D8F18F95
:1055E0009FA8CAF38809DAAF8FCBF8D8F2AD978DB0
:1055F0000CD9A5DFF9BAA6F3FAF412F2D8950DD1B9
:10560000D9BAA6F3FADAA5F2C1BAA6F3DFD8F1BA8D
:10561000B2B68696A6D0CAF349DAA6CBF8D8B0B40B
:10562000B8D8AD84F2C0DFF18FCBC3A8B2B68696EE
:10563000C8C1CBC3F3B0B48898A821DB718D9D712C
:10564000859521D9ADF2FAD88597A828D9F408D83C
:10565000F28D29DAF405D9F285A4C2F2D8A88D9486
:1056600001D1D9F411F2D88721D8F40AD8F284985C
:10567000A8C801D1D9F411D8F3A4C8BBAFD0F2DEC9
:10568000F8F8F8F8F8F8F8F8D8F1B8F6B5B9B08A3B
:1056900095A3DE3CA3D9F8D85CA3D9F8D87CA3D9CC
:1056A000F8D8F8F9D1A5D9DFDAFAD8B18530F7D929
:1056B000DED8F830ADDADED8F2B48C99A32D557D62
:1056C000A083DFDFDFB591A0F629D9FBD8A0FC29A4
:1056D000D9FAD8A0D051D9F8D8FC51D9F9D879D96C
:1056E000FBD8A0D0FC79D9FAD8A1F9F9F9F9F9A039
:1056F000DADFDFDFD8A1F8F8F8F8F8ACDEF8ADDED5
:105700008393AC2C547CF1A8DFDFDFF69D2CDAA06C
:10571000DFD9FADB2DF8D8A850DAA0D0DED9D0F83E
:10572000F8F8DB55F8D8A878DAA0D0DFD9D0FAF8A5
:10573000F8F8F8DB7DF8D89CA88CF530DB38D9D0A8
:10574000DEDFA0D0DEDFD8A848DB58D9DFD0DEA06E
:10575000DFD0DED8A868DB70D9DFDFA0DFDFD8F1CB
:10576000A888902C547C98A8D05C38D1DAF2AE8C02
:10577000DFF9D8B087A8C1C1B188A8C6F9F9DA366F
:10578000D8A8F9DA36D8A8F9DA36D8A8F9DA36D8A6
:10579000A8F9DA36D8F78D9DADF818DAF2AEDFD871
:1057A000F7ADFA30D9A4DEF9D8F2AEDEFAF983A764
:1057B000D9C3C5C7F1889BA77AADF7DEDFA4F8840B
:1057C0009408A797F300AEF29819A488C6A394880A
:1057D000F632DFF28393DB09D9F2AADFD8D8AEF82C
:1057E000F9D1DAF3A4DEA7F1889B7AD8F38494AEDA
:1057F00019F9DAAAF1DFD8A881C0C3C5C7A392837B
:10580000F628ADDED9F8D8A350ADD9F8D8A378AD35
:10581000D9F8D8F8F9D1A1DADEC3C5C7D8A18194E7
:10582000F818F2B089ACC3C5C7F1D8B8B4B0978640
:10583000A8319B069907AB9728889BF00C20144051
:10584000B0B4B8F0A88A9A285078B79BA8295179A3
:10585000247059446938644831F1BBAB88002C543A
:105860007CF0B38BB8A804285078F1B088B49726A0
:10587000A85998BBABB38B02264666B0B8F08A9C99
:10588000A82951798B2951798A2470598B20587114
:105890008A4469388B3940688A6448318B30496062
:1058A00088F1AC002C547CF08CA804285078F18846
:1058B0009726A85998AC8C02264666F0899CA829A0
:1058C0005179247059446938644831A988092059AC
:1058D00070AB11384069A8193148608CA83C415C14
:1058E000207C00F187981986A86E767EA999882D6C
:1058F000557DD8B1B5B9A3DFDFDFAED0DFAAD0DEEA
:10590000F2ABF8F9D9B087C4AAF1DFDFBBAFDFDFB4
:10591000B9D8B1F1A3978E60DFB084F2C8F8F9D995
:10592000DED89385F14AB183A308B5839A0810B7EE
:105930009F10D8F1B0BAAEB08AC2B2B68E9EF1FB5B
:10594000D9F41DD8F9D90CF1D8F8F8AD61D9AEFB6E
:10595000D8F40CF1D8F8F8AD19D9AEFBDFD8F416AD
:10596000F1D8F8AD8D61D9F4F4ACF59C9C8DDF2BAA
:10597000BAB6AEFAF8F40BD8F1AED0F8AD51DAAE53
:10598000FAF8F1D8B9B1B6A3839C08B9B1839AB536
:10599000AAC0FD3083B79F10B58B93F20202D1AB42
:1059A000DADED8F1B080BAABC0C3B284C1C3D8B11B
:1059B000B9F38BA391B609B4D9ABDEB0879CB9A378
:1059C000DDF1B38B8B8B8B8BB087A3A3A3A3B28B9F
:1059D000B69BF2A3A3A3A3A3A3A3A3A3A3F1B087FE
:1059E000B59AA3F39BA3A3DCBAACDFB9A3A3A3A38B
:1059F000A3A3A3A3A3A3A3A3A3A3A3A3D8D8D8BBC0
:105A0000B3B7F1AAF9DAFFD9809AAA28B48098A787
:105A100020B79787A86688F07951F1902C870CA75A
:105A200081976293F071716085940129517990A5F5
:105A3000F1284C6C870C95188578A38390284C6CC2
:105A4000886CD8F3A28200F210A8921980A2F2D931
:105A500026D8F188A84DD948D896A83980D93CD8FD
:105A60009580A839A68698D92CDA87A72CD8A8893A
:105A70009519A980D938D8A88939A980DA3CD8A83D
:105A80002EA83990D90CD8A8953198D90CD8A80946
:105A9000D9FFD801DAFFD89539A9DA26FFD890A81E
:105AA0000D8999A810809821DA2ED88999A831807B
:105AB000DA2ED8A886963180DA2ED8A8873180DAF7
:105AC0002ED8A88292F34180F1D92ED8A882F3195A
:105AD00080F1D92ED882ACF3C0A28022F1A62EA7E5
