:020000040800F2
:1000000010100020350200082F4C00085D44000845
:100010002D4C0008BB2A00086558000800000000AD
:100020000000000000000000000000005751000820
:10003000FF2A00080000000055510008DD510008AB
:100040004F0200084F0200084F0200084F0200084C
:100050004F0200084F0200084F0200084F0200083C
:10006000012B00084F0200084F0200084F02000851
:10007000BD2A0008C92A00084F0200084F020008E4
:100080004F0200084F0200084F0200084F0200080C
:100090004F0200084F0200084F0200084F020008FC
:1000A0004F0200084F0200084F0200084F020008EC
:1000B000415200084D5200084F0200084F0200084C
:1000C0004F0200084F0200084F0200084F020008CC
:1000D0004F0200084F0200084F020008595800085C
:1000E0004F0200084F0200084F02000800F002F81B
:1000F00000F090F80AA090E8000C82448344AAF132
:100100000107DA4501D100F085F8AFF2090EBAE82F
:100110000F0013F0010F18BFFB1A43F0010318473B
:100120007CA900009CA90000103A24BF78C878C1BF
:10013000FAD8520724BF30C830C144BF04680C60ED
:10014000704700000023002400250026103A28BF35
:1001500078C1FBD8520728BF30C148BF0B60704739
:100160006E2900F00183702900F04B84662909F0A4
:100170002380652909F02080672909F01D80612905
:1001800009F01C8003681B0A28BF41F0800169291F
:1001900000F0AE82642900F0AB82752900F0A882DD
:1001A0006F2900F0D883782900F01784E92900F03E
:1001B0007383E42900F07083F52900F06D83EF2943
:1001C00000F0D583F82900F016840368DB0928BF06
:1001D00041F08001632901F0ED81732901F0F28182
:1001E000E32901F0FD81F32901F00282002070472C
:1001F0001FB501F091FA04000020002107F0F6FE7F
:10020000401C60600020002107F0DAFEE0601FBDA6
:1002100010B510BD01F052FA1146FFF7E9FF06F0E4
:1002200009FF01F0ABFD03B4FFF7F2FF03BC01F0DF
:10023000D9FF00000948804709480047FEE7FEE76C
:10024000FEE7FEE7FEE7FEE7FEE7FEE7FEE7FEE786
:1002500004480549054A064B704700003F52000814
:10026000ED000008100A002010100020100C0020E3
:10027000100C002010B54C1084EA530404D5404201
:10028000C1F1000138BF491E1B4204D55242C3F1DF
:10029000000338BF5B1E00F046F914F0804F04D015
:1002A0004042C1F1000138BF491E14F0004F04D094
:1002B0005242C3F1000338BF5B1E10BD1CB50C4693
:1002C000064B7B4469460090204600F066FA0446DF
:1002D0000020694600F074FA20461CBDFB040000B3
:1002E0007CB51D4616460C00009001D02044401EEF
:1002F000074B7B442A4669460190304600F04DFA90
:1003000005461CB10020694600F05AFA28467CBD1B
:10031000D5040000014A00F095BC000064000020F4
:1003200040EA010310B59B070FD1042A0DD310C872
:1003300008C9121F9C42F8D020BA19BA884201D9C4
:10034000012010BD4FF0FF3010BD1AB1D30703D00C
:10035000521C07E0002010BD10F8013B11F8014BC2
:100360001B1B07D110F8013B11F8014B1B1B01D1DE
:10037000921EF1D1184610BD10B5431C02E010F8D2
:10038000011B71B18107FAD14FF0013202C88C1AFA
:100390008C4314EAC211F9D0C01A0A0603D0C01E59
:1003A00010BDC01A10BD0A0401D0801E10BD090284
:1003B000FCD0401E10BD032A40F2308010F0030C28
:1003C00000F0158011F8013BBCF1020F624498BFA8
:1003D00011F801CB00F8013B38BF11F8013BA2F145
:1003E000040298BF00F801CB38BF00F8013B11F0C0
:1003F000030300F04984083AC0F0088051F8043B38
:10040000083A51F804CBA0E80810F5E7121D5CBFCC
:1004100051F8043B40F8043BAFF30080D20724BFFF
:1004200011F8013B11F801CB48BF11F8012B24BF93
:1004300000F8013B00F801CB48BF00F8012B7047E2
:1004400002F0FF0343EA032242EA024200F050BCFA
:100450004FF0000200B5134694469646203922BF5D
:10046000A0E80C50A0E80C50B1F12001BFF4F7AFA8
:10047000090728BFA0E80C5048BF0CC05DF804EB8A
:10048000890028BF40F8042B08BF704748BF20F8F8
:10049000022B11F0804F18BF00F8012B70470000AD
:1004A0004FF0013C50F8042B51F8043B9A4221D103
:1004B000A2EB0C03934313EACC1317D150F8042B8F
:1004C00051F8043B9A4215D1A2EB0C03934313EA73
:1004D000CC130BD150F8042B51F8043B9A4209D1AC
:1004E000A2EB0C03934313EACC13DBD04FF00000D4
:1004F000704700BFD01A01BAB1FA81F101F01801BA
:1005000022FA01F0CB40C1F12001DBB2C0B2C01A27
:100510002CFA01F3D11A914311EAC311E6D17047C5
:1005200070477047704753EA020C00F069802DE96C
:10053000F04B4FF00006002B1FBFB3FA83F503FA10
:1005400005F424FA05F65E4012BF1643B2FA82F5AE
:1005500002FA05F4C5F120051EBF22FA05FC44EAA3
:100560000C04203556EA044C4FEA144418BF641CAE
:100570004FF000084FF00009904271EB030C39D3A3
:10058000002919BFB1FA81F701FA07F6B0FA80F72E
:1005900000FA07F6C7F120071EBF20FA07FC46EA5B
:1005A0000C062037B6FBF4FCA7EB0507103F07F05D
:1005B0001F0BCBF120060CFA0BFB2CFA06F644BFFE
:1005C000B3460026202FA4BF5E464FF0000B5BEA27
:1005D000060C08BF4FF0010B19EB0B09ABFB027CBB
:1005E00048EB0608C01B06FB02CC0BFB03CC71EBEF
:1005F0000C01C1E70B46024641464846BDE8F08B78
:1006000013B54FF000004FF00001AFF30080BDE8DC
:100610001C40704710B500F08BFB006810BD10B592
:10062000044600F085FB046010BD70B50446856982
:100630000068C10601D5302600E02026C00707D09B
:1006400070BDD4E9012130469047206A401C2062E9
:100650006D1EF6D570BD70B5044685690078C0077B
:1006600007D170BDD4E9012120209047206A401CA9
:1006700020626D1EF6D570BD09684A0501D540B2ED
:100680007047C905FCD500B2704709684A0501D515
:10069000C0B27047C905FCD580B2704770B50C4632
:1006A0000546012A05D02878800600D5EA6900238E
:1006B00002E0012305E05B1C934202D2E05C0028CB
:1006C000F9D1A869E618C01AA861286A18442862F6
:1006D0002846FFF7AAFF04E0D5E9012114F8010B31
:1006E0009047B442F8D32846FFF7B5FF70BD00002D
:1006F0002DE9F0410646002410687529314616A5FB
:1007000010D0FFF7B9FF002802DA404213A507E036
:1007100031688A0701D512A502E0490704D511A561
:10072000012401E0FFF7B1FF00210A2206F12407AE
:1007300009E0B0FBF2FCB0FBF2F302FB1C0030302E
:1007400078541846491C0028F3D123462A463046DF
:10075000BDE8F04100F03EBB000000002D000000AD
:100760002B0000002000000011680268006A530599
:1007700001D508700AE0D30501D5088006E013060C
:1007800003D5C217C1E9000200E0086001207047EC
:1007900001694A1C02610878704700B58FB0CDE945
:1007A00001310021059105497944CDE90310114635
:1007B000684600F031F90FB000BD0000E5FFFFFF13
:1007C0000A6802F8010B0A607047D1E900239A42D7
:1007D00002D2531C0B601070704700002DE9FF5FC0
:1007E00015468A460446DFF8AC80F8440027D8E96D
:1007F00000103E46CDE9001010E03AF816106A46A7
:1008000002A800F019FF411C07D02178890603D502
:10081000E269391891420DD80744761C2078800689
:1008200002D5E069B84205DDAE42E6DB3AF81600D3
:100830000028E2D1A069C01BA0612046FFF7F5FEA9
:10084000D8E90010CDE90010002017E03AF81810A0
:100850006A4602A800F0F0FEB0F1FF3F81460BD0DF
:1008600000250DF1080B05E0D4E901211BF8050076
:1008700090476D1C4D45F7D308F10100B04280460A
:10088000E4DB206A384420622046FFF7E4FEBDE83E
:10089000FF9F00000AA100002DE9F0418046D21D13
:1008A00022F007020025D2E90002F52915A614D08E
:1008B000011E72F1000106DA0023D0EB030063EBA6
:1008C000020211A608E0D8F800108B0701D50FA688
:1008D00002E0490701D50EA601251146002408F1C2
:1008E000240704E000F028FA30323A55641C50EA3C
:1008F0000102F7D12B46324621464046BDE8F04181
:1009000000F068BA000000002D0000002B0000007D
:100910002000000030B4002100F1240408E002F0BF
:100920000705D208303542EA4372DB086554491C9A
:1009300052EA0305F3D10468002310A2250707D566
:10094000A40600D421B1C46901230DA2641EC461B0
:1009500030BC00F03FBA10B5044621461068FFF7DE
:1009600094FE02462046BDE810400023D2E7D21D87
:1009700022F00701D1E90023CCE7000000000000CD
:1009800030000000F0B40D460188090502D5214C65
:100990007C4402E01F4C7C440E34002100F124060C
:1009A00008E002F00F071209E75D42EA03721B0933
:1009B0007754491C52EA0307F3D102780023120747
:1009C00004D5702D06D009B1022311342246F0BCA3
:1009D00000F000BA01231034F8E770B504460D4664
:1009E00021461068FFF751FE024629462046BDE821
:1009F00070400023C6E7D21D22F00703D3E900238D
:100A0000C0E70368126843F0200303600823C36152
:100A10000023B7E76C9F00002DE9F05F894604468C
:100A20004FF0000ADFF874B1FB44C0F820A0204664
:100A3000E1688847002874D0252806D0D4E9012130
:100A40009047206A401C2062F1E700265F4620465E
:100A5000E16888472028054607DB312D05D2781943
:100A600010F8200C08B10643F1E7B00701D526F0D5
:100A70000406C4F81CA00027C4F818A02A2D09D029
:100A8000284604F0F4FF38B304EB8708303DC8F87B
:100A9000185019E059F8041B204604EB87029161B5
:100AA000E1688847012F054618D1E069002820DA5F
:100AB00026F020061DE0D8F8180000EB800005EBBA
:100AC00040003038C8F818002046E16888470546DD
:100AD00004F0CDFF0028EED1012F0AD02E2D08D131
:100AE0002046E16888477F1C0546022F46F0200615
:100AF000C4DBA069002803DA404246F00106A06189
:100B0000F00701D026F010066C2D0BD0682D09D00F
:100B10004C2D39D06A2D35D0742D35D07A2D33D067
:100B200016E038E0E1682F4620468847B84205467F
:100B300009D16C2F26D04FF48060E168064320462F
:100B40008847054604E06C2F1AD04FF480700643A6
:100B50000DB3A5F14100192802D8203546F40066EE
:100B60004A462946204626604E46FFF7F9FA80B1EC
:100B700001280BD0F61D26F0070000F1080956E702
:100B80004020E4E78020D8E70020D6E706F10409FA
:100B90004DE7284652E7206ABDE8F09FFC9E000022
:100BA0000FB4002300B589B00CA900910B99CB605C
:100BB000214B7B440693214B7B44079304236FF026
:100BC0000042CDE901321E4A7A446B460892024641
:100BD000002008F07BFB09B05DF814FB70B50646F9
:100BE0004FF0FF3015460C46324686B00091CDE9F5
:100BF000010169460020049004A8FFF7D1FF0246D6
:100C00000498211825B108B1084600E02046286064
:100C1000049800280DD0002A02DD0098884208D0F0
:100C20003246081B69460094CDE9010404A8FFF789
:100C3000B7FF06B070BD0000430A00005B0A000069
:100C4000F70100002DE9F04115460E46040002D1DF
:100C50002C6804B90BA4204600F01EFD0444207843
:100C600070B127463146384600F006FD044420782E
:100C700010B1002004F8010B38462C60BDE8F0816B
:100C80000027F9E70000000010B5203AC0F00B8003
:100C9000B1E81850203AA0E81850B1E81850A0E880
:100CA0001850BFF4F5AF5FEA027C24BFB1E81850DA
:100CB000A0E8185044BF18C918C0BDE810405FEA4A
:100CC000827C24BF51F8043B40F8043B08BF7047C6
:100CD000D20728BF31F8023B48BF11F8012B28BFCB
:100CE00020F8023B48BF00F8012B70474FF000028C
:100CF0000429C0F0128010F0030C3FF4ABABCCF130
:100D0000040CBCF1020F18BF00F8012BA8BF20F89B
:100D1000022BA1EB0C01FFF79DBB5FEAC17C24BF56
:100D200000F8012B00F8012B48BF00F8012B704799
:100D300000487047AC09002030B5B0F10A024FEA14
:100D4000900E71F100034EEA817EB0EB0E0061EB74
:100D500091014FEA101E4EEA017E10EB0E0041EBAE
:100D600011114FEA102E4EEA016E10EB0E0041EB0E
:100D700011214FEA104E4EEA014E10EB0E0041EBEE
:100D80001141401841F100014FEAD00040EA4170A2
:100D90004FEAD10110EB80054FEA810444EA9074D8
:100DA00044EB01046D1944EB0404521BA3414FF0C2
:100DB000000348BF0A3200D530BD401C41F100019C
:100DC00030BD10B5044600F09FFC0068005D00F0E7
:100DD000010010BD2DE9F0470D46994692460446A4
:100DE00000F124080168880604D5E06921F01001AB
:100DF000216000E00120A84201DD471B00E0002740
:100E0000A1697A1902EB0900081AA0612078C006CE
:100E100002D42046FFF709FC002608E0D4E90121AE
:100E20001AF806009047206A401C761C20624E4546
:100E3000F4DB2078C0060AD52046FFF7F6FB06E073
:100E4000D4E9012130209047206A401C2062381EDE
:100E5000A7F10107F4DC07E0D4E9012118F8050047
:100E60009047206A401C2062281EA5F10105F3DC92
:100E70002046FFF7F0FB2078000602D50220BDE8EF
:100E8000F0870120FBE770472DE9FF4F0C461E4617
:100E90004FF0FF378BB0D2E90001DDF860800A9097
:100EA0008A46C1F30A5505B93D46002108464FF070
:100EB0000000BAF1000F00F4400005DA00EB8000FA
:100EC0004FF4400101EA50004FEA9059B9F1010F87
:100ED00000DDB9460A9850EA4A000ED044F6105098
:100EE000A5F2FF3545432F14B8F1000F1ED075420F
:100EF000291E1EDDC9F100021CE0B8F1010F4FF000
:100F0000000001D0302103E0F24305E02154401CF1
:100F1000B042FBDB30460022002121540B99C1F87E
:100F20000880C1E900200FB0BDE8F08FBD1B6D1C2B
:100F3000DEE74A4600DA694206A800F0ADFE06ABDD
:100F400093E8070003AB83E8070050460A9901F0D5
:100F500071F98DE80700A0F500501F380090039844
:100F6000002D0ADD42F21F014A460844002303A96E
:100F70000390684601F01CFC09E0A0F500504A46C9
:100F80001F38002303A90390684601F03BFC8DE85D
:100F900007000004000C03D04FF0FF30410800E0D0
:100FA0001046B8F1000F03D00022009215461EE053
:100FB000751E05D4FFF7C0FE303262556D1EF9D59F
:100FC000B3460122084302D000227F1C04E02078AF
:100FD000302801D100227F1E002A099784D01DE00D
:100FE000112D07DAFFF7A8FE303262556D1C50EA6A
:100FF0000102F5D1084302D00098C8B10EE00021EB
:10100000681E05E0235C625C63542254401E491C48
:101010008142F7DBAB46A81B401E0990002004F874
:101020000B000B98099AC0F80880C0E9002B7AE7FA
:1010300011264FF0000857E72DE9F04F8846044687
:10104000D21D22F0070191B0D1E90001CDE90A01DA
:1010500004F009FC02460B98C00F01D02D2007E0D8
:101060002068810701D52B2002E0202101EAC00081
:10107000032A099001D0072A05DB03464146204692
:1010800000F04EFB0BE12078800601D5E06900E01E
:101090000620B8F1650F814606D0B8F1660F18D06A
:1010A000B8F1670F70D131E00020B9F1110F009055
:1010B00001DB112301E009F101030AAA01A90CA82F
:1010C000FFF7E2FEDDE90C70002609F10105834619
:1010D00047E001204B4600904FF000470AAA01A9C3
:1010E0000CA8FFF7D1FEDDE90DB00C995D46002696
:1010F00010B909F101000D18B9EB050003D4C0F1D6
:10110000FF3609F10105A5EB09002BE0B9F1010F4C
:1011100001DA4FF001090020B9F1110F00904846A3
:1011200001DD112300E003460AAA01A90CA8FFF77C
:10113000ABFEDDE90C704D460026834620780007A3
:101140000AD4AB4500DA5D4601A8012D04DD411942
:1011500011F8011C302907D04F4502DA17F1040FAE
:1011600004DA012082460FE06D1EEEE7002F02DC5C
:10117000ED1B3E4403E0781CA84200DD7D1CB81B3B
:1011800000F1010A4FF000472078000703D4AA4578
:1011900001DB4FF0FF3A0021B7F1004F0DF143089A
:1011A0008DF8431024D002202B23002F01DA7F4238
:1011B0002D230A21021EA0F1010000DC5FB197FB84
:1011C000F1FC97FBF1F201FB1C7C17460CF1300C93
:1011D00008F801CDEEE7A8F10100037021880905A8
:1011E00001D5452100E06521A0F1010800F8011CAE
:1011F00009980FA9A1EB0807FF1D00B101204119B3
:1012000001EBEA70A1693844081A401EA0612078F9
:10121000C00602D42046FFF708FA099828B1D4E99D
:1012200001219047206A401C20622078C00622D508
:101230002046FFF7FAF91EE0002E04DBB34502DD7D
:1012400001A8805D00E03020D4E901219047206AA8
:10125000401C2062761CAAF101005FEA000A0AD154
:1012600000F05AFAC0680168405CD4E90121904757
:10127000206A401C2062281EA5F10105DCDC07E085
:10128000D4E9012118F8010B9047206A401C206224
:10129000381EA7F10107F3DC2046FFF7DCF9032035
:1012A00011B041E62DE9F04F04460D46D21D22F063
:1012B000070089B0D0E900974846394604F0D3FAD0
:1012C0000246F80F01D02D2307E02068810701D5E1
:1012D0002B2302E0202101EAC0038DF820300BB15E
:1012E000012000E00020032A824601D0072A04DB07
:1012F0002946204600F014FA3FE12078800601D408
:101300000D2500E0E569C7F30A560D2D49DA0021E5
:101310004FEA175B08464FF00000002F00F4400032
:1013200007DA00EB80004FF4400100EBD07001EAD7
:1013300060008115012901DD4FF0FF3100224FEAE5
:10134000850CBCF1180F06D31346ACF118004FF012
:101350008052C24003E04FF4801323FA0CF30CF1E7
:101360000C0CBCF1200F04D3ACF1200C09FA0CF0EA
:1013700001E007FA0CF000294FF0004801DD18B930
:101380000FE00ED140450CD319EB02095F4121B9A2
:10139000404502D19F4329EA0209BBEB175F00D009
:1013A000761C2088000502D57B48784402E07A4804
:1013B0007844193808AA302302F80A30037C0AF16D
:1013C0000101002E0AF1020A53546A4602DC4FF072
:1013D000300101E04FF031014FF001088DF80010AD
:1013E00002D0A6F2FF3603E059EA470100D06B4E67
:1013F000002D02DC2178090704D54FF002082E21C8
:101400008DF80110C44600210BE0C7F303433F01F0
:10141000C35C491C6D1E02F80830052908F101085B
:1014200001DA002DF1DC00210CE000EB1973491CFE
:101430001B786D1E082902F808304FEA091908F1D7
:10144000010801DA002DF0DC21688B0602D516E0D8
:10145000A8F10108E04505DD02EB080313F8013CA3
:10146000302BF5D0B8F1000F09DD02EB080313F8BB
:10147000013C2E2B03D1090701D4A8F10108002D4E
:1014800005DD3E2102F808106D1E08F10108407CC0
:10149000002E02F8080008F1010804DA2D20764237
:1014A00002F8080002E02B2002F808000A214FF49D
:1014B0007A70864208F101080BDB96FBF0F33033BB
:1014C00002F8083096FBF0F308F1010800FB136600
:1014D00001E0642E0CDB642096FBF0F3303302F85D
:1014E000083096FBF0F308F1010800FB136601E0F9
:1014F0000A2E06DB96FBF1F0303002F8080008F106
:10150000010896FBF1F001FB1060303002F8080092
:10151000A16908F1010808EB050202EB0A00081AAC
:10152000A0612078C00602D42046FFF77EF8216A29
:1015300008AE01EB0A00206204E0D4E9012116F8AC
:10154000010B9047BAF1010AF7D22078C00602D504
:101550002046FFF76AF86E4609E016F8010B3E28B0
:101560000FD0D4E901219047206A401C2062B8F1D5
:101570000108F2D22046FFF76EF809B00320BDE85B
:10158000F08F206A2844206203E0D4E90121302052
:1015900090476D1EEBD3F8E74596000002FCFFFF75
:1015A00010B5436913B1AFF3008001E0FFF776F89F
:1015B000012010BD127800F124010A7000224A7047
:1015C0000122EDE711684FF0FF32E9E710B54369FA
:1015D00013B1AFF3008001E0FFF700F9012010BD67
:1015E000128800F1240182840022C2840122EDE7E6
:1015F00011684FF0FF32E9E7426842B1016811F823
:10160000013B23B1521EC0E9001218467047012168
:10161000C160881E704742685AB1C368016843B907
:1016200083688B4205D0491E521CC0E9001200207D
:1016300070474FF0FF30704770B516460C460546B0
:1016400000F062F8036893F80101012806D0FF2C2E
:101650000FD8185D68B101202C7070BDD3F8070158
:101660003246214603F2071303442846BDE8704082
:1016700018474FF0FF3070BD30B503461D781DB1DF
:101680000A4603E0AC4201D1181A30BD12F8014BF2
:10169000002CF7D15B1CF1E730B503461D783DB156
:1016A0000A4612F8014B1CB1AC42FAD15B1CF5E7BB
:1016B000181A30BD00487047AC0900207546FFF786
:1016C000F9FFAE4605006946534620F007008546FF
:1016D00018B020B5FEF7BCFDBDE820404FF0000675
:1016E0004FF000074FF000084FF0000B21F007010A
:1016F000AC46ACE8C009ACE8C009ACE8C009ACE84D
:10170000C0098D467047000010B500F005F8001DB7
:1017100010BD00BFD968000000487047CC09002008
:101720002DE9F0411F46044603260168072A01F40B
:10173000006004DB08B116A505E016A503E008B1BA
:1017400015A500E015A521F010002060A069C01EBD
:10175000A0610FB1401EA0612046FEF766FF4FB1A9
:10176000D4E9012138469047206A401C2062C01C01
:10177000206206E0206AFAE7D4E9012115F8010B9E
:101780009047761EF8D22046FEF765FFBDE8F0814F
:101790004E414E006E616E00494E4600696E660015
:1017A0002DE9FF4F06468BB00878FF2806D0491C6C
:1017B0002D2805D000244FF0000908E000200CE09F
:1017C0000124F8E709EB8903491C00EB4309087879
:1017D000FF28F7D114B1C9F1000081461078002527
:1017E0002C46AA4629462D2801D02B2804D1521C6C
:1017F0002D2813D0002082468B461078FF280FD06A
:101800004FF0000C0A21521CA5FB017804FB01815A
:1018100005FB0C11C5194BEB0104EEE70120EAE7CB
:10182000002108464FF00000BAF1000F02D000EB93
:1018300080004008C0F38157012F01DD4FF0FF37D2
:101840000E9955EA040009EB01080BD04FF002098C
:1018500018F5FA7F16DA4FEACA70002F706008DDBB
:10186000012007E04FEACA70C6E900B00FB0BDE83A
:10187000F08F00203060FFF75BFAC0F8009018216D
:10188000084616E0B8F5FA7F18DD002F02DAF748AF
:10189000784401E0F6487844D0E90010C6E9001029
:1018A00040EACA707060FFF743FAC0F80090142154
:1018B00008460FB0BDE8F04F07F07BBC002108469A
:1018C0004FF00000B8F10001099002DAC7F1000200
:1018D00000E03A4601DAC8F1000106A800F0DCF9A0
:1018E00006AB93E8070003AB83E8070044F23E0031
:1018F0005BEA04010090584604D144F21E012C46D4
:101900005D460091210C0904014306D1009924048D
:1019100044EA15442D041039009104F07F4101433D
:1019200006D10099240244EA15642D020839009179
:1019300004F07041014306D10099240144EA157472
:101940002D01091F009104F04041014306D1009987
:10195000A40044EA9574AD00891E009104F0004192
:10196000084304D100986D196441401E00904FF067
:1019700001033A466846B8F1000FCDE9014503A9D5
:1019800002DD00F054FF01E000F027FFBAF1000F84
:1019900004460D4601D084F00044002108464FF073
:1019A0000000099940F2FF77484010F00C0F07D172
:1019B00024F00040284303D0C4F30A50B84212D1A7
:1019C000FFF7B6F9C0F80090C4F30A50B8420AD144
:1019D000A8487844D0E90010C6E9001004F000419E
:1019E0000843706042E7C6E900543FE72DE9FF4F26
:1019F0001F464FF0000A4FF0FF38454691B0D7E937
:101A00000146CDF83CA0FFF787FEC0680168405C46
:101A10001090B96912986D1C8847396A81468847C9
:101A20000028F6D1B9F1FF3F0AD0002E24F4D0648B
:101A300011DDB9F12B0F08D0B9F12D0F0BD102E058
:101A4000404615B013E744F48064B96912986D1CE0
:101A50008847761E8146600504A901D52D2000E047
:101A60002B20002E01F1010B0DF130088DF8100034
:101A70003FDDB9F1690F08D0B9F1490F05D0B9F1CF
:101A80006E0F02D0B9F14E0F1CD13B4601A8009554
:101A900080E85002DDE912126FF0020007F01AFC34
:101AA000C11CCED10EE0B96912986D1C88478146E1
:101AB0001398761E44F4007405600F98401C002EA5
:101AC0000F9016DDB9F1300FEDD0B9F1780F02D0DB
:101AD000B9F1580F0DD10F9801280AD13B46CDE935
:101AE0000054DDE91212001F029607F0F1FBC11C41
:101AF000A7D1109989453ED144F0800406E013999E
:101B0000681CAAF1010A44F400740860B9696D1CEC
:101B10001298761E884730288146F0D02BE0109925
:101B2000894505D1200603D4761E44F0800418E0D0
:101B3000484603F09CFF08B3761E0DF123018B4548
:101B400044F4007408D2A9F130000BF8010B200610
:101B500007D5AAF1010003E0200602D40AF1010032
:101B60008246A00502D51399681C0860B9691298CD
:101B70006D1C88478146002ED1DC53E0002E51DDDC
:101B8000B9F1650F02D0B9F1450F4BD1A00549D588
:101B9000B9696D1C1298761E24F440748847002E93
:101BA00081460CDD2B2804D0B9F12D0F07D144F468
:101BB0008074B96912986D1C8847761E8146E005CD
:101BC00001D52D2100E02B2108F8011BCDF8008064
:101BD00021E0761E0DF13901884544F400740CD2E1
:101BE000A9F1300010F0FF0088F8000002D1009940
:101BF000884509D908F1010806E0E00501D51E482D
:101C000001E042F20F708246B96912986D1C884754
:101C1000814613980560002E04DD484603F027FF37
:101C20000028D6D1F96912988847FF2053468BF8CF
:101C3000000088F8000000200A900B9004AA0CA96C
:101C40000AA8FFF7ADFDA00502D46FF00100F8E689
:101C500014F0240F12D0E0071CD13868DDE90A1215
:101C6000031D3B600068C0E9001213E030920000E1
:101C700022920000E6900000F1D8FFFF0AA9684612
:101C800003F084FEE00705D13868009A011D396031
:101C9000006802602846D4E62DE9F04781461646E2
:101CA0008AB0354878440DC88DE80D003248784434
:101CB000801C03AC0DC884E80D0041F69B3008443D
:101CC000372190FBF1F290FBF1F5A5F1800501FBC6
:101CD00012041B3C02D56442012000E00020DFF822
:101CE00098A080460027FA44AAF1BE0A0EE0E00759
:101CF0000AD03246684607EB470101230AEB81010F
:101D000000F080FD8DE8070064107F1C002CEED1F0
:101D1000194F7F44AE3F19E0E80715D007EB0410D8
:101D20000DF1180A90E80E008AE80E00C068F04233
:101D300001D1981908903246012306A903A800F0A2
:101D400061FD03AB83E807006D10641C002DE3D137
:101D50004FF0010332466946B8F1000F03A802D0E4
:101D600000F026FD01E000F04DFDC9E90001C9F8D1
:101D700008200AB0BDE8F087DC8D000010B50446ED
:101D8000AFF300802046BDE81040FEF74CBA0000DB
:101D90002DE9FF4F1F464FF03C0987B04FF000423E
:101DA000DDE9141001F10108DDF858A002EA405005
:101DB0000390002005908346054604460490B969C7
:101DC000461E08988847AAF1010A0290BAF1000F4E
:101DD0003BDD02982E2815D0102100F01CFA0028B7
:101DE0002EDB4FF0010B0599014317D0B9F1000F1D
:101DF0000BDB4A46C11700F0FBF905430C43A9F180
:101E0000040905E0012004900BE008B145F001054C
:101E100001200590049820B9361D02E0049800B115
:101E2000361FB969089808F101088847BBF1000F0F
:101E3000AAF1010A0290C9D00999C1F80080C5E74A
:101E40000298702808D0502806D0F9690898884769
:101E5000BBF1000F14D04FE0002002900120BBF135
:101E6000000F049009D0B969089808F10108884763
:101E7000AAF10109B9F1000F07DCF9690898884750
:101E80006FF001000BB0BDE8F08F2B2804D02D2897
:101E90000CD14FF0FF300490B969089808F101089F
:101EA0008847A9F10109B9F1000FE6DD411CE4D032
:101EB0000A2100F0B0F90028DFDB029908F10108DF
:101EC00001EB810100EB41000290B9690898884755
:101ED0000A2100F0A0F9099AA9F10109B9F1000F4E
:101EE000C2F8008001DD0028E7DAF9690898884720
:101EF0000499029800FB016655EA040004D004F03E
:101F00004041090002D006E0039898E0A40044EAAA
:101F10009574AD00B61E04F00041080002D16D19A1
:101F20006441761E159810F0240F03D04FF00B0972
:101F30005C4803E04FF028096FF07D00824656456B
:101F400007DAAAEB06018944B9F1410F01DD4FF030
:101F5000410901200021A9F1010200F049F90246DE
:101F600028400B462140084301D0012100E0002118
:101F7000501E029143F1FF3128402140084301D017
:101F8000012000E000200299834651EA0B014FD066
:101F9000002108464FF00000039900F4400039B1D9
:101FA00000EB80004FF4400100EBD07001EA6000CC
:101FB0008015012802DD4FF0FF3000E013D0401CF7
:101FC00036D0029860B3BBF1000F0CD14A46012015
:101FD000002100F00DF928402140084301D00120E4
:101FE00000E00020E0B101204A46002100F000F9A5
:101FF000034640190A4661412D1A8C4111D3B9F1AB
:10200000400F09DD159810F0240F02D0AAF1340614
:1020100003E0AAF1170600E0761C00254FF000440B
:1020200006E05B1E42F1FF3220EA030521EA0204CA
:10203000CAF10100B04206DA1B4903980843019037
:10204000002000900EE0039AC4F3D321E80A0A436B
:10205000164940EA44500A433146CDE90002684639
:1020600003F0FAFC159810F0240F0BD01598C00758
:1020700015D13868DDE90012031D3B600068C0E936
:1020800000120CE002A8694603F080FC1598C00716
:1020900005D13868029A011D396000680260404627
:1020A000F0E6000002FCFFFF0000F07F0000F03FC0
:1020B0002DE9FF4F92461D4685B04FF00041DDE906
:1020C000124BDDE914727F1E01EA4B50414940F08A
:1020D000FF4940EA0108002122F02000492804912C
:1020E00002D04E2828D04CE03BA0012607C88DE83E
:1020F0000700A9690698641C88477F1E014606D41C
:102100001DF8060018B121F0200181420BD0E969C9
:1021100006988847032E34D0082E32D06FF0010085
:1021200009B0BDE8F08F761C032E01D0082EE0D157
:10213000601CCAF80000DCE7A9690698641C88479F
:102140007F1E2AD420F02000412826D1A9690698B4
:10215000641C88477F1E20D420F020004E281CD10C
:10216000A9690698641C88477F1E48F4002849F432
:102170008009CAF8004001D4282806D0E9690698E9
:1021800088475FEACB7012D022E0A9690698641CE8
:1021900088477F1E01D4002803DAE969069888473A
:1021A000BCE72928F1D1641CCAF80040E9E71BF01C
:1021B000240F07D028680499031D2B600068C0E92C
:1021C000001805E02868021D2A600068C0F8009029
:1021D0002046A5E70000F07F494E46494E49545934
:1021E0000000000001491820ABBEFEE726000200F7
:1021F000B2F120030AD5C2F1200301FA02F120FA5C
:1022000003F300FA02F041EA0301704700FA03F118
:102210004FF0000070473A2800D2303820F02002FA
:10222000412A01D3A2F13700884201D34FF0FF3099
:10223000704770475FEA400C08BF91F0000F4FEA0B
:102240008C234FEAC12243EA51514FEA1C5018BF78
:1022500000F5F0404FEA300018BF41F000415FEA5E
:102260006C5C00F02980BCF1FF3F08BF40F080406B
:102270007047130C06BF12044FF0100C4FF0000C07
:10228000130E04BF12020CF1080C130F04BF12014D
:102290000CF1040C930F04BF92000CF1020CD30F4D
:1022A00004BF52000CF1010C11464FF00002A0F1E6
:1022B0001F00A0EB0C00704711F0004F08BF7047E3
:1022C00031F000413FF4D5AF0B0C06BF09044FF0CD
:1022D000100C4FF0000C0B0E04BF09020CF1080C9F
:1022E0000B0F04BF09010CF1040C8B0F04BF890014
:1022F0000CF1020CCB0F04BF49000CF1010CCCF126
:102300002003A0EB0C0022FA03F302FA0CF241EADC
:10231000030100F10100704720F07F4C80EA0300C8
:1023200023F07F47ACEB070303F57C5300F000403C
:1023300003F1FF032DE980494FEA154B09B44FEA39
:10234000144325EA0B4E24EA03480FF2042606EB59
:10235000132749083E785FEA320203FB0667C7F598
:10236000000707FB06F64FEA54374FEAD64606F158
:10237000020607FB066CCCF1005C4FEA1C472CEA16
:10238000074C07FB06F40CFB06F504EB15464FEA79
:10239000961634BF00204FF000404FEAD13706FBBD
:1023A00007FC4FEA1C4C0CFB0BF7D21B03FB0CF792
:1023B00061EB07010CFB0EF7B0EB074072EB174225
:1023C0000CFB08F734BFA2EB0742B2EB074261EB0C
:1023D00017414FEA0C444FEA910706FB07FC4FEA0E
:1023E0001C4C0CFB0BF7B0EBC74072EB573203FBF6
:1023F0000CF734BFA2EBC742B2EBC74261EB5731D7
:102400000CFB0EF7B0EBC70072EB57720CFB08F732
:1024100034BFA2EBC702B2EBC70261EB5771039F57
:102420004FEA816141EA921104EBCC044FEAD137C3
:102430004FEA826206FB07FC42EA90124FEA806094
:102440004FEA1C4C0CFB0BF7D21B03FB0CF761EBA8
:1024500007010CFB0EF7B0EB074072EB17420CFBC9
:1024600008F734BFA2EB0742B2EB074261EB17411A
:102470004FEA8C554FEA910704EB9C2406FB07FCBE
:102480004FEA1C4C0CFB0BF7B0EBC74072EB57321A
:1024900003FB0CF734BFA2EBC742B2EBC74261EBC0
:1024A00057310CFB0EF7B0EBC70072EB57720CFB09
:1024B00008F734BFA2EBC702B2EBC70261EB57715A
:1024C00015EB4C254FEA816141EA92114FEA826295
:1024D0004FEAD13742EA901206FB07FC44F10004B0
:1024E0004FEA80604FEA1C4C0CFB0BF7D21B03FB3E
:1024F0000CF761EB07010CFB0EF7B0EB074072EB3A
:1025000017420CFB08F734BFA2EB0742B2EB0742BD
:1025100061EB174115EB1C154FEA813141EA9241FD
:102520004FEA823242EA90424FEA80304FEA0C761C
:1025300044F1000448EA03434EEA0B484FF0000E12
:10254000B2EB080C71EB030724BF624639464EEB31
:102550000E0E4FF0000B0018524149414BEB0B0B94
:10256000B2EB080C71EB03077BF1000B24BF624652
:1025700039464EEB0E0E4FF0000B00185241494108
:102580004BEB0B0BB2EB080C71EB03077BF1000B71
:1025900024BF624639464EEB0E0E51EA020718BFC1
:1025A00046F0010616EB0E7655F1000254F10001DB
:1025B00003D5BDE88901BDE80088BDE88901BDE813
:1025C0000048B619524141EB0101A3F101037047E4
:1025D00080807F7E7D7C7B7A797877767675747360
:1025E000727171706F6E6E6D6C6C6B6A6A6968681F
:1025F000676666656464636362616160605F5F5EB5
:102600005E5D5D5C5C5B5B5A5A595958585757562A
:10261000565555555454535352525251515050508F
:102620004F4F4F4E4E4D4D4D4C4C4C4B4B4B4A4AE1
:102630004A49494948484847474747464646454525
:10264000454444444443434343424242424141415E
:1026500046EA0646A3F570534FEA164646EA425646
:102660004FEAD22242EA415210B54FEAD121A3F1FA
:10267000010300F02FF820F0004000F1020C00F000
:10268000004701EB00501146BCF5006F40EA07001F
:1026900000D210BDBAF1000F0AD01CB503B44FF040
:1026A00004004FF004014FF000000FBCBDE81040E3
:1026B0004FF00001BBF1010FB9BF04484FF0FF31EB
:1026C0000348002140EA070010BD00BFFFFFEF7F75
:1026D0000000F07F002B9C4630D477002BD01CB537
:1026E0004FEA370703B44FF010004FF01001BAF172
:1026F000000F06D0BCF1000FDCBF40F0080040F036
:1027000008014FF000000FBCBDE810400BF1010BB9
:10271000BBF1010F08BF5FEA170722BF12F10102E8
:1027200011F101014FF0004143F1000300F00040BE
:1027300043EA00007047F9D35708D0E746EA064657
:1027400013F1400F4FEA16461FDD13F1200FDFBFD4
:1027500016430A46002120335B42BED0C3F1200756
:1027600046EA064602FA07F74FEA164646EA070621
:10277000C3F1200722FA03F201FA07F721FA03F165
:102780004FF0000342EA0702A7E746EA020646EADC
:1027900006464FEA164646EA0106BCBF46EA06462A
:1027A000360C4FF000034FF000024FF0000194E7A9
:1027B0002DE9804C9A46934670B491E8380007C8DA
:1027C00031EA400C48BF34EA430C03D5FFF7A4FDBF
:1027D000FFF780FFF0BCBDE8008C2DE9804C9A46E5
:1027E000934670B491E8380007C831EA400C48BFFE
:1027F00034EA430C03D5FFF78FFDFFF729FFF0BC48
:10280000BDE8008C2DE9804C9A46934670B491E85F
:10281000380007C810F0804F08BF13F0804F03D175
:1028200000F01AF8FFF756FFF0BCBDE8008C2DE968
:10283000804C9A46934670B491E8380007C810F06F
:10284000804F08BF13F0804F03D100F005F8FFF769
:10285000FFFEF0BCBDE8008C20F07F4780EA03005B
:1028600023F07F4C07EB0C03A3F57C5300F00040F2
:10287000A3F1FE0392F0000F00F0B38095F0000F7B
:1028800000F077802DE901494FEA11404FEA1446E4
:1028900021EA004800FB06FC24EA064708FB06F68E
:1028A00007FB08F800FB07F718EB06484CEB164C43
:1028B0004FEA124B18EB07484FEA15464CEB17400E
:1028C00022EA0B4E0BFB06FC25EA06470EFB06F63A
:1028D00007FB0EFE0BFB07F71EEB064E4CEB164CF0
:1028E0004FF000061EEB074E4CEB174B18EB0B0896
:1028F00040F1000018EB0E0B58EB000840F100000F
:102900008F1A4FF000013CBFC943661B14BFB5EBE3
:10291000040C00213CBFC943F61B4FEA17444EEAA2
:102920008E0E27EA04454FEA1C4704FB07622CEA97
:10293000074C05FB07F70CFB05F604FB0CFC16EB3C
:10294000074642EB174216EB0C4642EB1C421BEBD0
:10295000060658EB0202414146EA9E0601D5BDE853
:102960000189B619524141EB0101A3F10103BDE810
:1029700001894FEA14454FEA114724EA054621EA46
:10298000074C05FB07F406FB07F70CFB06F105FBFC
:102990000CFC11EB074144EB17444FEA124711EBD3
:1029A0000C4144EB1C4422EA074C05FB07F206FBF2
:1029B00007F70CFB06F605FB0CFC16EB074642EB93
:1029C000174216EB0C4642EB1C456A1854F1000105
:1029D00048BF7047B619524141EB0101A3F1010311
:1029E000704795F0000F37D04FEA11424FEA144775
:1029F00021EA024624EA074C02FB07F106FB07F72F
:102A00000CFB06F402FB0CFC14EB074441EB1741F2
:102A10004FEA154714EB0C4441EB1C4125EA074CE7
:102A200002FB07F506FB07F70CFB06F602FB0CFCA6
:102A300016EB074645EB174516EB0C4645EB1C42DB
:102A4000121951F1000148BF7047B619524141EBCC
:102A50000101A3F1010370474FEA14454FEA114702
:102A600024EA054621EA074C05FB07F106FB07F7B8
:102A70000CFB06F24FF0000605FB0CFC12EB0742C4
:102A800041EB174112EB0C4251EB1C4148BF704720
:102A9000921841EB0101A3F10103704710B502F058
:102AA00056F901F0F3FD02F047FB00F041F801F0A8
:102AB000CFFCBDE8104002F04FBBFEE7014800F03C
:102AC000B9B8000058020020014800F0B3B8000077
:102AD0001402002030B590F840500124AC40C56B82
:102AE0006C60046863604368102B036803D09960CE
:102AF0000068C26030BD9A600068C16030BD704738
:102B0000042000F0DFB9000003480168486A002291
:102B100000B24A6270470000F400002003480168D8
:102B2000486A00224A62404200B270478401002095
:102B300010B53C21044800F0DBFFBDE810403C210B
:102B4000024800F0D5BF0000F400002084010020FE
:102B500072B6FEE710B590F821100022022905D0C8
:102B60000421816380F82020012010BD01680B68DA
:102B700023F00E030B6001680B6823F001030B6068
:102B800090F84030C46B012101FA03F3636080F8D0
:102B9000211080F82020104610BD000010B590F8DC
:102BA00021100024022903D00421816301243DE087
:102BB00001680A6822F00E020A6001680A6822F0C1
:102BC00001020A601A4A0168914201D1012121E003
:102BD000174A1432914201D110211BE0144A2832C5
:102BE000914201D1891515E0114A3C32914201D13F
:102BF00089140FE00E4A5032914202D14FF48031D5
:102C000008E00B4A6432914202D14FF4801101E096
:102C10004FF08071064A083A5160012180F8211076
:102C2000002180F82010416B01B18847204610BD7B
:102C3000080002402DE9F05FC16B0C6801680B6869
:102C4000D0F840C0042202FA0CF2494DDFF824A16A
:102C5000494E4A4FDFF828B1DFF828E122422CD054
:102C60005A072AD50A68920603D40A6822F0040299
:102C70000A600168A94201D1042219E0514501D13D
:102C8000402215E0B14202D14FF4806210E0B94217
:102C900002D14FF480420BE0594502D14FF480221B
:102CA00006E0714502D14FF4800201E04FF08062EE
:102CB0002F4908394A60C16A3BE04FF0020808FA20
:102CC0000CF818EA040F4FF000094FF0010235D05C
:102CD0005FEA837832D50B689B0605D40B6823F036
:102CE0000A030B6080F821200168A94201D1022269
:102CF00019E0514501D1202215E0B14202D14FF433
:102D0000007210E0B94202D14FF400520BE0594575
:102D100002D14FF4003206E0714502D14FF40012A7
:102D200001E04FF00072124908394A6080F82090A3
:102D3000816A00291AD0BDE8F05F0847082505FA26
:102D40000CF5254212D01B0710D50B6823F00E039B
:102D50000B6090F84010C36B02FA01F15960826376
:102D600080F8212080F82090016BE2E7BDE8F09F19
:102D7000080002401C0002403000024044000240B3
:102D8000580002406C00024030B528B308C813490F
:102D900014221944B1FBF2F18900C1631049816327
:102DA000022141771A6843F6F0718A43D0E9001492
:102DB0002143D0E902452C4321430469214344695E
:102DC0002143846921431143196000214163012299
:102DD00042770177084630BD012030BDF8FFFDBFC6
:102DE0000000024070B5044690F82000002501283C
:102DF0000CD0012084F8200094F821600020012EDE
:102E000006D084F820000225284670BD022070BD3F
:102E1000022684F82160A0632068066826F0010677
:102E200006602046FFF756FEE06A00282068016829
:102E300002D041F00E0106E021F00401016020689B
:102E4000016841F00A0101602068016841F0010158
:102E50000160D9E770B5044600F03AF90546601CF8
:102E600002D004480078044400F032F9401BA0422C
:102E7000FAD370BD0400002010B5042816D10E4C02
:102E80000E482178006891B101290FD1406AA060F5
:102E90006168401A06F038F8094906F049F84FF021
:102EA000FF3106F0EDF9E0600020207010BD406AAF
:102EB00060600120F9E700004C0000203C01002088
:102EC00096430B3D044910B50A68024202D00860DF
:102ED000FFF7D2FF10BD0000140401402DE9F84FA8
:102EE000DFF8B8910024A9F1040B23460F2709F15C
:102EF000040AABF1040EC9E00125A5402A40AA420C
:102F00007DD1674ED1F804C0ACEB0608B44532D091
:102F100014DCBCF1030F3AD009DCBCF1000F2AD05D
:102F2000BCF1010F1CD0BCF1020F31D11DE0BCF18E
:102F3000110F17D0BCF1120F2AD119E0B8F5881F74
:102F400019D006DCB8F5803F15D0B8F5801F1FD129
:102F500011E0B8F5001F0ED0B8F5041F18D10AE033
:102F6000CB6815E0CB681B1D12E0CB6808330FE07F
:102F7000CB680C330CE08B682BB1012B4FF00803AE
:102F800003D0456104E0042302E0056100E0002372
:102F9000FF2A01D8064601E000F104064FEA840545
:102FA00001D9A5F12005D6F8008007FA05FC28EA2A
:102FB0000C0803FA05F548EA0508C6F800804D68D4
:102FC000ED0062D5374DAE6946F00106AE61AD69E0
:102FD00024F0030605F001050095334D06EB050CC2
:102FE000DCF80850A607360F07FA06F825EA0805A8
:102FF000DFF8B880404503D14FF0000817E044E007
:10300000DFF8AC80404502D14FF001080FE0DFF857
:10301000A480404502D14FF0020808E0DFF8988014
:10302000404502D14FF0030801E04FF0040808FAD0
:1030300006F848EA0508CCF808804D68D9F8006021
:10304000ED024D4601D5164300E096432E604D68D3
:10305000DAF80060AD02554601D5164300E096430C
:103060002E604D68DBF80060AD035D4601D5164368
:1030700000E096432E604D68DEF80060ED03754673
:1030800001D5164300E096432E60641C0D682A4665
:10309000E5407FF431AFBDE8F88F0000080401403F
:1030A0000000111000100240000001400008014023
:1030B000000C0140001001400014014080680840ED
:1030C00000D0012070470AB1016170470904FBE795
:1030D00001488068704700000400002002488168B1
:1030E000027811448160704704000020074810B541
:1030F000016841F010010160032000F075F80F2015
:1031000000F006F800F024F8002010BD0020024076
:1031100070B50D4D04464FF47A712878B1FBF0F08C
:103120000A490968B1FBF0F000F0DCFA48B9102C4C
:1031300007D200222146501E00F036F800206C60B5
:1031400070BD012070BD00000400002010000020B0
:103150000C4808B5816941F001018161816901F084
:1031600001010091C16941F08051C161C06900F065
:10317000805000900448416821F0E06141F0007106
:10318000416008BD0010024000000140002809DB3A
:1031900000F01F02012191404009800000F1E02071
:1031A000C0F8001170470000F0B40E4B1B680C46CD
:1031B000C3F30223C3F10705042D00D90425191D0B
:1031C000072901D2002300E0DB1E012606FA05F1E3
:1031D000491E214099409E40761E16403143F0BC66
:1031E00002F055BB0CED00E0064900F0070208684C
:1031F0004FF6FF03184040EA0220034A10430860DC
:10320000704700000CED00E00000FA052DE9F047E2
:103210000F46050061D0434E306800F00700B84209
:1032200009D2306820F0070038433060306800F081
:103230000700B84251D128683B4C810712D540079E
:1032400003D5606840F4E06060602878000703D52B
:10325000606840F4605060606068A96820F0F00029
:10326000084360602878C00728D06868012810D01B
:103270002168022810D0890700292EDA616821F020
:10328000030101436160FFF723FF804641F2883963
:103290000DE021688903EFE78901EDE7FFF718FFEB
:1032A000A0EB0801494502D90320BDE8F08760681A
:1032B000696800F00C00B0EB810FEFD1306800F0CE
:1032C0000700B8420BD9306820F00700384330605F
:1032D000306800F00700B84201D00120E5E7287807
:1032E000400705D56068E96820F4E0600843606045
:1032F0002878000706D56068296920F4605040EA04
:10330000C100606000F038F86168084AC1F3031139
:10331000515CC8400649086006480068FFF7F8FE9F
:103320000020C2E700200240001002401A9300086B
:103330001000002008000020044805490068496882
:10334000044AC1F30221515CC840704710000020BC
:10335000001002402A9300080448054900684968A3
:10336000044AC1F3C221515CC840704710000020DC
:10337000001002402A9300080E4A51680E4801F0DE
:103380000C03042B11D0082B0FD10C48C1F383433D
:10339000C903C05C0AD55168084AC1F34041921E76
:1033A000515C054A5043B0FBF1F070470449484373
:1033B000704700000010024000127A000A930008D3
:1033C00000093D002DE9F84F040070D02078C04D71
:1033D000C00749D06868C0F38100012807D0686839
:1033E000C0F38100022809D16868C00306D52868A7
:1033F000800339D560680028E7D035E06068B0F513
:10340000803F0BD010B1B0F5A02F11D0286820F468
:1034100080302860286820F4802002E0286840F48A
:1034200080302860606890B1FFF752FE06460AE0DF
:10343000286840F480202860F0E700BFFFF748FECE
:10344000801B642873D828688003F7D50CE0FFF749
:103450003FFE064605E000BFFFF73AFE801B6428EA
:10346000F0D828688003F7D420789A4E80074FF070
:1034700001094FF0000839D5686810F00C0F07D02B
:103480006868C0F38100022809D16868C00306D4C7
:103490002868800714D52069012808D110E0206928
:1034A000B0B1C6F80090FFF713FE074605E00AE149
:1034B000FFF70EFEC01B0228C4D828688007F7D586
:1034C0002868616920F0F80040EAC10028600DE03A
:1034D000C6F80080FFF7FCFD074604E0FFF7F8FDA3
:1034E000C01B022823D828688007F7D4207800075B
:1034F0002CD57948A169D9B1C0F80090FFF7E8FD53
:10350000074604E0FFF7E4FDC01B02280FD8686AF5
:103510008007F7D571484FF4FA510068B0FBF1F01D
:10352000009000BF0098411E0091FAD20EE080E0AA
:10353000C0F80080FFF7CCFD074604E0FFF7C8FDA8
:10354000C01B022875D8686A8007F7D42078400726
:1035500060D5E8690027C00008D4E86940F08050D1
:10356000E861E869012700F0805000905C4801683C
:10357000C90513D40168834641F480710160FFF7E7
:10358000A7FD824606E000BFFFF7A2FDA0EB0A0000
:1035900064284ED8DBF80000C005F5D5E0680128A6
:1035A0000AD008B1052813D0286A20F0010028624B
:1035B000286A20F0040002E0286A40F00100286236
:1035C000E06841F2883B98B1FFF782FD82460BE04C
:1035D000286A40F004002862EEE700BFFFF778FD9C
:1035E000A0EB0A0159455AD8286A8007F6D50CE0A5
:1035F000FFF76EFD824605E0FFF76AFDA0EB0A01CA
:1036000059454CD8286A8007F6D41FB1E86920F0E4
:103610008050E861E06988B36968C1F381010229DB
:1036200044D00228C6F8608004D0FFF751FD04465C
:1036300038E034E0FFF74CFD074604E0FFF748FDB3
:10364000C01B02282BD828688001F7D4206AB0F567
:10365000803F05D16868A16820F4003008436860A5
:10366000D4E908010843696821F4741108436860CB
:10367000C6F86090FFF72CFD044606E025E000BF89
:10368000FFF726FD001B022809D828688001F7D51E
:103690001BE000BFFFF71CFD001B022802D903201E
:1036A000BDE8F88F28688001F4D40EE00128F7D037
:1036B0006868226A00F48031914204D1616A00F4A2
:1036C0007010884201D00120EAE70020E8E70000FE
:1036D00000100240000042428004424210000020DC
:1036E0000070004010B5401EB0F1807F01D3012072
:1036F00010BD4FF0E02460610F21601702F0C7F8A1
:103700000020A06107202061002010BD7047704795
:1037100010B590F83C20012A22D0012280F83C20EC
:10372000CA688C6822F4407222434C6822F480629A
:1037300022430C6822F4006222430C6922F4805276
:1037400022434C6922F400522243C969002322F427
:1037500080420A4301684A6480F83C30002010BD72
:10376000022010BD70B590F83C20012A26D001241B
:1037700080F83C40022280F83D2003685A689D682A
:1037800022F070060A6832435A600D4B02689A4272
:1037900008D0B2F1804F05D00A4B9A4202D00A4BB2
:1037A0009A4204D1496825F080031943916080F85A
:1037B0003D40002180F83C10084670BD022070BDDD
:1037C000002C0140000400400008004010B5040037
:1037D00003D094F83D0010B107E0012010BD002097
:1037E00084F83C00204600F01FF8022084F83D00D9
:1037F000211D206801F030FD012084F8460084F886
:103800003E0084F83F0084F8400084F8410084F8CA
:10381000420084F8430084F8440084F8450084F8AA
:103820003D00002010BD000008B5114A0168114894
:10383000914208D1816941F400618161806900F49D
:103840000060009008BD0C4A9142FBD1C16941F073
:103850000201C161C069002200F00200009011461F
:103860001D20FFF7A1FCBDE808401D20FFF78EBC1E
:10387000002C0140001002400004004090F83D1070
:10388000012901D001207047022180F83D10016814
:10389000CA6842F00102CA6000680B49884208D039
:1038A000B0F1804F05D00949884202D008498842CA
:1038B00004D1816801F00701062903D0016841F0B5
:1038C0000101016000207047002C0140000400400D
:1038D0000008004070B5044690F83C00002501281F
:1038E00017D0012684F83C60022084F83D0020684F
:1038F000826822F0770222F47F42826008685028B2
:1039000038D00DDC20284FD005DC90B3102811D121
:103910004AE0022070BD302846D040280AD13BE062
:1039200060282FD070280DD0B0F5805F03D0B0F59F
:10393000005F12D0012584F83D60002084F83C002F
:10394000284670BDCB68D1E90121206801F0CDFC8B
:103950002068816841F0770109E0CB68D1E9012155
:10396000206801F0C2FC2068816841F480418160D8
:10397000E1E719E0CA684968206801F06BFD502151
:10398000206806E0CA684968206801F074FD60217B
:10399000206801F0B4FCCEE7CA684968206801F0ED
:1039A00059FD40212068F4E7226801461046F0E7FF
:1039B0002DE9F0410D46040003D094F83D0018B104
:1039C00008E00120BDE8F081002084F83C0020469A
:1039D00000F040F8022084F83D002068816844F23D
:1039E000070291438160211D206801F035FC2268A7
:1039F00090689169166A2B68AF69034340F20330FF
:103A0000814341EA0721A868EF6908434FF6FC416A
:103A10008843E96840EA0720014328692F6A0001CA
:103A200040EA0730084369686D6926F0220646EAD5
:103A30000515294393602268906154F8460B016292
:103A4000012004F81F09E0752076E0762077A07544
:103A50000020B7E700B585B00021009101910291E7
:103A6000039101681E48B1F1804F1AD01D4A91425E
:103A700015D1C16941F00401C161C16901F00401BE
:103A80000491816941F0080181618069694600F013
:103A900008000490C02000901348FFF71FFA05B0FB
:103AA00000BDC16941F00101C161C16901F00101BD
:103AB0000491816941F0040181618069694600F0E7
:103AC00004000490032000900848FFF707FA002242
:103AD00011461C20FFF768FB1C20FFF757FBDEE7B1
:103AE0000010024000080040000C014000080140A6
:103AF00070B590F83E60044690F83F5090F8423020
:103B000090F84320022021B104290ED0012E1BD1B0
:103B100014E0012E18D1012B16D184F83E0084F850
:103B2000420001220021206820E0012D0CD1012A51
:103B30000AD184F83F0084F8430014E0012D03D13A
:103B4000012B01D1012A01D0012070BD84F83E0073
:103B500084F83F0084F8420084F8430001220021E9
:103B6000206801F0B5FB01220421206801F0B0FBC0
:103B70002068016841F001010160002070BD7047BC
:103B80002DE9F04104460068C66805694FF000075A
:103B9000A90713D5B10711D5F91E016101202077BE
:103BA000206880698007204602D0FFF7E8FF04E024
:103BB00000F0A4F8204600F036F92777680716D5FC
:103BC000700714D521686FF0040008610220207787
:103BD0002068806910F4407F204602D0FFF7CFFFB5
:103BE00004E000F08BF8204600F01DF92777280745
:103BF00015D5300713D521686FF00800086104203F
:103C000020772068C0698007204602D0FFF7B7FF01
:103C100004E000F073F8204600F005F92777E80685
:103C200016D5F00614D521686FF010000861082041
:103C300020772068C06910F4407F204602D0FFF74B
:103C40009EFF04E000F05AF8204600F0ECF82777D9
:103C5000E80708D0F00706D021686FF0010008617E
:103C6000204600F02FF9280608D5300606D5216831
:103C70006FF0800008612046FFF748FD680608D510
:103C8000700606D521686FF040000861204600F0FC
:103C90002BF9A8060AD5B00608D521686FF02000D8
:103CA00008612046BDE8F041FFF731BDBDE8F08175
:103CB00000B585B000210091019102910391006847
:103CC0000B49884212D10B48816941F0040181619E
:103CD0008069694600F0040004904FF41060009081
:103CE0000220019003900448FFF7F8F805B000BDEA
:103CF000002C01400010024000080140704770B5E0
:103D0000044690F83C0000260D4601280FD0012003
:103D100084F83C006AB1042A1DD0082A2FD00C2A4E
:103D20003FD00126002084F83C00304670BD0220C0
:103D300070BD206801F0ECFA2068816941F008014B
:103D400081612068816921F00401816120688169B5
:103D50002A69114311E0206801F002FB20688169A3
:103D600041F4006181612068816921F48061816191
:103D7000206881692A6941EA02218161D2E72068CD
:103D800001F01AFB2068C16941F00801C161206897
:103D9000C16921F00401C1612068C1692A69114328
:103DA00011E0206801F034FB2068C16941F4006132
:103DB000C1612068C16921F48061C1612068C16965
:103DC0002A6941EA0221C161ACE710B5040003D0C1
:103DD00094F83D0010B107E0012010BD002084F8E8
:103DE0003C00204600F01EF8022084F83D00211D12
:103DF000206801F031FA012084F8460084F83E0082
:103E000084F83F0084F8400084F8410084F84200C0
:103E100084F8430084F8440084F8450084F83D00A9
:103E2000002010BD7047704710B50446022249B10A
:103E300004290ED0082913D094F84100012816D087
:103E4000012010BD94F83E000128F9D184F83E20ED
:103E50000FE094F83F000128F2D184F83F2008E0F9
:103E600094F840000128EBD184F8402001E084F868
:103E700041200122206801F02BFA0F492068884276
:103E800003D1426C42F4004242642068884208D068
:103E9000B0F1804F05D00949884202D008498842D4
:103EA00004D1816801F00701062903D0016841F0BF
:103EB00001010160002010BD002C01400004004001
:103EC0000008004010B500680549884206D1FEF799
:103ED0001BFE044C2080FEF721FE608010BD000018
:103EE0000004004000000020704738B5044690F8F8
:103EF0004200202801D0022038BD51B14AB1012032
:103F0000206300206063204601F05EFC216B0129E4
:103F100001D0012038BD21680A68496800912168F4
:103F20000C3151E8002F42F0100241E80023002B31
:103F3000F5D138BD2DE9F0410C462649C4B0884280
:103F400045D12548224681782144C9B24180234980
:103F500004A8FCF730FA04A90020085520A104A801
:103F6000FCF7D8F902F0D2F804F056F804461CA188
:103F70000020FCF7CFF902F0C9F804F04DF805462F
:103F800017A10020FCF7C6F902F0C0F804F044F8CD
:103F900001461448C460C0E90451084604F00AFE12
:103FA00007468846284604F005FE05460E4620468C
:103FB00004F000FE8DE8E00102460B460AA001F085
:103FC000DDF84FF4807205490248FFF78EFF44B0D8
:103FD000BDE8F081CC0100205C000020AC0700208F
:103FE0002C000000800000204B703A20252E326605
:103FF0002C204B693A20252E32662C204B643A2027
:10400000252E32660A00000070470000F8B50168EE
:1040100004460868CA684B6910F00F0F4FF000059E
:1040200059D003F0010602F49077374365D0C107F9
:1040300005D0D10503D5616C41F0010161644107F0
:1040400005D5D90703D0616C41F002016164810795
:1040500005D5D90703D0616C41F004016164010703
:1040600007D502F02001314303D0616C41F0080113
:104070006164616C00293AD0800604D5900602D5AF
:10408000204601F0E4FA20684069616CC0F38010BA
:10409000090700D460B3204601F0A4FA2068406903
:1040A000400621D52068143050E8001F21F040015F
:1040B00040E80012002AF5D1E06BA8B16D494163D8
:1040C000E06BFEF76BFD002811D0E06B416B01B097
:1040D000BDE8F040084783060FD593060DD520466E
:1040E000BDE8F84001F0B3BA2046FFF78DFFF8BDF8
:1040F0002046FFF789FF6564F8BD266B2023012E5B
:104100007CD1C6067AD5D60678D50868486800906E
:1041100048694FF00206400640D5E16B08684068E8
:104120000004000CE8D0A28D8242E5D9E0858869C0
:1041300020282DD020680C3050E8001F21F4807119
:1041400040E80012002AF5D12068143050E8001F22
:1041500021F0010140E80012002AF5D12068143056
:1041600050E8001F21F0400140E80012002AF5D17C
:1041700084F84230256320680C3050E8001F21F09D
:10418000100140E80012002AF5D1E06BFEF7E2FCD6
:104190006663A08DE18D401A81B22AE0A08DE18D89
:1041A000401A81B2E08D0028A6D00029A4D0226850
:1041B0000C3252E8000F20F4907042E80007002F04
:1041C000F5D12068143050E8002F22F0010240E8B9
:1041D0000027002FF5D184F84230256320680C3089
:1041E00050E8002F22F0100240E80023002BF5D108
:1041F00066632046FFF79EFEF8BDFFE705062BD558
:10420000150629D594F841002128F5D1A068B0F50C
:10421000805F01D12069B0B1206A411C2162216810
:1042200000784860E08C401E0004000CE084E3D17C
:104230002068C16821F08001C1602068C16841F038
:104240004001C160D8E7206A0088C0F308004860D8
:10425000206A801C2062E5E74006CDD55006CBD50C
:10426000CA68204622F04002CA6084F8413000F05B
:10427000E1F8C1E79B54000870B5040004D094F83D
:104280004100002510B106E0012070BD84F84050C7
:10429000204600F023F8242084F841002068C168FB
:1042A00021F40051C160204601F032FA2068016912
:1042B00021F4904101612068416921F02A014161A6
:1042C0002068C16841F40051C1606564202084F811
:1042D000410084F842006563002070BDF0B585B0F0
:1042E00000240646009401940294039400682D492A
:1042F000884254D12C48C16941F48021C161C1690F
:1043000001F480210491816941F008018161806993
:10431000264D00F0080004904FF4806000900220C9
:1043200001900320039069462846FEF7D7FDE81464
:10433000CDE90004694628460294FEF7CFFD1D4DE5
:104340001B488027C5E90004C5E902472C616C6160
:10435000AC612846EC61FEF717FD08B1FEF7F8FBEB
:10436000F5636E62134D12484435143801C51020B0
:1043700091C5104845F8104944306C61AC61EC615E
:10438000FEF702FD08B1FEF7E3FBB563002211461C
:1043900027206E62FEF708FF2720FEF7F7FE05B024
:1043A000F0BD00000048004000100240000C014039
:1043B00030000240140200207047704770B5044678
:1043C00090F84100202801D0022070BD49B342B3CB
:1043D0002162A284E28400206064212384F84130B9
:1043E000A56B114BAB62A56B104BEB62A56B104B31
:1043F0002B63A36B5863256813462A1DA06BFEF739
:10440000F1FC21686FF0400008602068143050E82B
:10441000001F41F0800140E80012002AF5D1002081
:1044200070BD012070BD000099550008DB550008E3
:10443000AB54000800680349884202D102490020B9
:1044400008707047004800405C0000207047000082
:104450000148FFF713BA00003C010020FEE700000E
:1044600010B50E4C002208212046FEF72CFE00F06D
:1044700017F8012210212046FEF725FE00F010F863
:10448000002210212046FEF71EFE00F009F820460B
:104490000122BDE810400821FEF715BE000C0140C6
:1044A0000020401CC0B20A28FBD370470C4800B55E
:1044B000816985B041F0080181618069694600F039
:1044C0000800049018200090032003901120019010
:1044D0000448FEF703FD00F09DF805B000BD0000A4
:1044E00000100240000C014010B50C4C01220821C4
:1044F0002046FEF7E8FDFFF7D3FF012210212046FA
:10450000FEF7E1FDFFF7CCFF002210212046FEF769
:10451000DAFDBDE81040FFF7C3BF0000000C01400A
:104520002DE9F0410024134E074625466006040E8F
:10453000012210213046FEF7C6FDFFF7B1FF08212A
:104540003046FEF7BBFD08B1641CE4B20022102126
:104550003046FEF7B8FDFFF7A3FF6D1CEDB2082D46
:10456000E4D327B1FFF77CFF2046BDE8F081FFF7D9
:10457000BBFFF9E7000C014070B5154E054600245D
:10458000280601D5012200E0002208213046FEF76E
:104590009AFDFFF785FF012210213046FEF793FDBB
:1045A000FFF77EFF002210213046FEF78CFD072C1E
:1045B00004D1012208213046FEF785FD6806050E6C
:1045C000FFF76EFF641CE4B2082CD9D370BD000065
:1045D000000C014010B50E4C012208212046FEF7C8
:1045E00072FD012210212046FEF76DFDFFF758FFF6
:1045F000002208212046FEF766FDFFF751FF00224A
:1046000010212046FEF75FFDBDE81040FFF748BFD0
:10461000000C014010B50A4C002208212046FEF78C
:1046200052FD012210212046FEF74DFDFFF738FF15
:1046300020460122BDE810400821FEF744BD0000DD
:10464000000C014070B5104D012208212846FEF7EC
:104650003AFDFFF725FF012210212846FEF733FD22
:10466000FFF71EFF08212846FEF728FD08B10124A8
:1046700000E00024002210212846FEF724FDFFF769
:104680000FFF204670BD0000000C014010B500F087
:1046900007F8002803D1BDE8104002F0F3BD10BDBB
:1046A00010B5FFF703FF80216B2000F0C0F86420F5
:1046B000FEF7D0FB00216B2000F0B9F8032000F0DA
:1046C00082F8002000F07AF8C82000F099F8002164
:1046D000382000F0ACF800216A2000F0A8F8002192
:1046E000232000F0A4F88021372000F0A0F87520E6
:1046F00000F011F8682801D0012010BD01216B20C5
:1047000000F095F800216C2000F091F8642000F092
:1047100077F8002010BD10B50446FFF75BFFD020EE
:10472000FFF72AFFFFF78EFF2046FFF725FFFFF771
:1047300089FFFFF74FFFD120FFF71EFFFFF782FF32
:104740000020FFF7EDFE0446FFF764FF204610BD92
:104750002DE9F0411D4614460F460646FFF73AFF85
:104760007006000EFFF708FFFFF76CFF20B1FFF7A0
:1047700051FF0120BDE8F0813846FFF7FDFEFFF74D
:1047800061FFFFF727FF012000EB4600C0B2FFF7F3
:10479000F3FEFFF757FF09E0012C0DD05FF0010099
:1047A000FFF7BEFE641E05F8010BE4B2002CF3D146
:1047B000FFF730FF0020DDE70020F1E7C006010E23
:1047C0001C2000F034B8C006010E1B2000F02FB8EA
:1047D000BC2801D3012110E0622801D302210CE0A2
:1047E0002A2801D3032108E0142801D3042104E07E
:1047F0000A2801D3052100E006211A2000F017B88D
:1048000010B504464FF47A70844201D9044602E0A0
:10481000042C00D20424B0FBF4F0401EC1B21920D5
:1048200000F005F86008BDE81040FFF7D1BF70B593
:104830000C460546FFF7CEFED020FFF79DFEFFF7A2
:1048400001FF50B92846FFF797FEFFF7FBFE204611
:10485000FFF792FEFFF7F6FE18B1FFF7DBFE01202F
:1048600070BDFFF7D7FE002070BD2DE9F0411E4658
:1048700015460F460446FFF7ADFE6006000EFFF733
:104880007BFEFFF7DFFE60B93846FFF775FEFFF7E6
:10489000D9FE00240CE0305DFFF76EFEFFF7D2FE7C
:1048A00020B1FFF7B7FE0120BDE8F081641CE4B23F
:1048B000AC42F0D3FFF7AEFE0020F5E70D4808B597
:1048C000416941F0010141614069002200F00100AD
:1048D000009011460C20FEF767FC0C20FEF756FCFA
:1048E000002211460D20FEF75FFCBDE808400D20B8
:1048F000FEF74CBC001002402DE9F04186B00024C8
:1049000033480094019402940394816941F01001AA
:104910008161816901F010010491816941F02001F8
:104920008161816901F020010491816941F00401F4
:104930008161816901F004010491816941F00801FC
:1049400081618069234F00F0080004900022082153
:104950003846FEF7B8FBDFF8808000224FF21831AE
:104960004046FEF7B0FB042000901C480226CDE92B
:10497000010669463846FEF7B1FA08200125CDE95F
:104980000005CDE9024669463846FEF7A7FA4FF41E
:1049900070400090CDE901540324694640460394D9
:1049A000FEF79CFA4FF44670009011200394CDE975
:1049B000010569464046FEF791FA0022114608209B
:1049C000FEF7F2FB0820FEF7E1FB06B0BDE8F08140
:1049D0000010024000080140000C014000003110AE
:1049E00010B596B000240F9410941194129413945F
:1049F0001C2168461494FBF72BFD202107A8FBF728
:104A000027FD2C482A4901602321C0E901146321B4
:104A1000C0E9031444618461FEF7D8FE08B1FEF7D3
:104A200097F84FF480500F900FA92248FEF752FFDD
:104A300008B1FEF78DF81F48FFF7C7F908B1FEF778
:104A400087F8139413A91B481494FEF78BFE08B142
:104A5000FEF77EF86020CDE90004029403940494EC
:104A600005940022694613480694FFF748F908B1F7
:104A7000FEF76EF80C2269460E48FFF740F908B1C0
:104A8000FEF766F80794089409944FF400500A94CE
:104A9000CDE90B4007A907480E94FEF739FE08B18F
:104AA000FEF756F80348FFF703F916B010BD0000F3
:104AB000002C0140AC00002010B58CB024216846C9
:104AC000FBF7C6FC0024154809944FF080410A9476
:104AD000C0E900144FF6FF71C0E90241046184612E
:104AE0000120CDE90004CDE902040221CDE9044111
:104AF000CDE90604694609480894FEF759FF08B154
:104B0000FEF726F8099409A904480A94FEF72AFE3C
:104B1000002801D0FEF71CF80CB010BDF4000020F6
:104B200010B586B0002417480094019402940394B1
:104B300004941349059401604721C0E9011449F622
:104B40003F41C0E903148461FEF740FE08B1FDF760
:104B5000FFFF4FF48050009069460A48FEF7BAFE06
:104B600008B1FDF7F5FF049404A906480594FEF783
:104B7000F9FD002801D0FDF7EBFF06B010BD0000E5
:104B8000000400403C01002010B58CB02421684690
:104B9000FBF75EFC00241648099414490A94C0E906
:104BA00000144FF6FF71C0E90241046184610120E5
:104BB000CDE90004CDE90204CDE906040221CDE9E6
:104BC00004410620089069460948FEF7F1FE08B145
:104BD000FDF7BEFF099409A905480A94FEF7C2FD36
:104BE000002801D0FDF7B4FF0CB010BD0008004054
:104BF000840100200C4810B50A4901604FF4165199
:104C00004160002181600C22C160C0E90412816111
:104C1000C161FFF731FB002803D0BDE81040FDF76C
:104C200097BF10BD00480040CC010020FEE7FEE722
:104C300010B50021074C0A46002004EBC1131A549A
:104C4000401CC0B28028FAD3491CC9B20829F3D34A
:104C500010BD00009C020020F0B50B4424E0044687
:104C600085181DE07F2C19D8002917DB3F2915DC9A
:104C7000CE1701EB56764FEAE60C0D4F26F00706ED
:104C800007EBCC172744A1EB060E97F800C00126CE
:104C900006FA0EF62CEA060C87F800C0641C24B253
:104CA000A542DFDC491C09B28B42D8DCF0BD000014
:104CB0009C02002010B500204FF47A720021491C9C
:104CC0009142FCD3401C9042F8D3FFF715FE01201F
:104CD00000F0F8F9BDE81040012000F0FBB970B514
:104CE00000240646802525FA04F0304000D001203B
:104CF00000F0F0F9012000F0E5F9002000F0E2F901
:104D0000641CE4B2082CEED3012000F0DBF9BDE80E
:104D10007040002000F0D6B910B5012000F0DAF99B
:104D2000012000F0CFF9002000F0D4F9BDE81040D8
:104D3000002000F0C7B910B5002000F0CBF9012029
:104D400000F0C0F9BDE81040012000F0C3B910B573
:104D5000FFF7B0FFAE2000F0C5F9D52000F0C2F992
:104D6000802000F0BFF9A82000F0BCF93F2000F03F
:104D7000B9F9D32000F0B6F9002000F0B3F94020D3
:104D800000F0B0F9A12000F0ADF9C82000F0AAF9B8
:104D9000DA2000F0A7F9122000F0A4F9812000F039
:104DA000A1F9CF2000F09EF9D92000F09BF9F12065
:104DB00000F098F9DB2000F095F9302000F092F92E
:104DC000A42000F08FF9A62000F08CF98D2000F0CF
:104DD00089F9142000F086F9AF2000F083F9FFF77D
:104DE00027FFBDE8104000F059B90FB470B5C0B04E
:104DF00014460D46064648AA68464799FBF75EFAF0
:104E000023466A462946304600F092F840B070BC0E
:104E10005DF814FB10B50C4640F0B00000F062F9EC
:104E2000102040EA141000F05DF904F00F00BDE816
:104E3000104000F057B9000008B5082B0DD0062B24
:104E40000AD10A4B02EB420203EB4202C03A009243
:104E50000823062200F00EF808BD054B03EB0212F2
:104E6000A2F50072102300920822F3E722990008AD
:104E7000329300082DE9F04F1F4616460D46824634
:104E80000024FFF7E9FE7F1EF81707EB50700121A1
:104E9000DFF898B001EBE00743E000203DE000BF01
:104EA0000AEB00037F2B36D8E91705EB5171CA10C6
:104EB00021F00701691A002D03DA521E083112B2DF
:104EC00009B202EB0409B9F1070F0ED8099A04FBE5
:104ED00006F802440BEBC91E18F802201EF803C0A6
:104EE0008A404CEA020C0EF803C009F10102072ABD
:104EF00011D80BEBC91202EB0308099A04FB06FC5C
:104F0000024498F880301CF80220C1F10801CA4020
:104F1000134388F88030401CC0B2B042C0D3641C38
:104F2000E4B2A742B9DCBDE8F08F00009C0200208B
:104F30002DE9FF4F002483B09B4690462546A246AC
:104F4000DFF850919EE0100610D403988DF80420ED
:104F5000641C2844A4B28DF805A000B25B460499F5
:104F6000FFF76AFF05EB0B0085B28BE00620B0EB84
:104F7000521F0ED1641CA0B28DF8042018F8001046
:104F8000002974D08DF80510401C84B28DF806A05D
:104F90003CE00E20B0EB121F16D1641CA0B28DF8BD
:104FA000042018F80010002971D0401C80B28DF840
:104FB000051018F80010002969D08DF80610401C63
:104FC00084B28DF807A021E01E20B0EBD20F1FD1D4
:104FD000641CA0B28DF8042018F80010002956D0E7
:104FE000401C80B28DF8051018F8001000294ED032
:104FF000401C80B28DF8061018F80010002946D029
:10500000401C8DF8071084B28DF808A0002609E036
:10501000641CA4B236E0384601A9FBF741FA68B136
:10502000761CB6B206EB860000EB461101EB0900D8
:10503000074619A1FBF734FA0028ECD1BBF1080FA1
:1050400003D0BBF1060F1DD112E006EB860000EB8A
:10505000461101EB0900401D0090039810232844DD
:1050600000B21A460499FFF705FF103509E00EE07B
:1050700003980623284400B23F220499FFF7DCFE80
:10508000AD1DADB218F80420002A7FF45CAF07B064
:10509000BDE8F08F5C9B00080000000070B5084D73
:1050A000002400212046FFF7B5FE05EBC410802147
:1050B00000F029F8641CE4B2082CF2D370BD0000A3
:1050C0009C02002002464FF480710148FDF7FBBFAF
:1050D000000C014002464FF400710148FDF7F3BF98
:1050E000000C014010B50446FFF716FE7820FFF7CC
:1050F000F6FD0020FFF7F3FD2046FFF7F0FDBDE8C9
:105100001040FFF718BE70B50D460646FFF704FEC7
:105110007820FFF7E4FD4020FFF7E1FD002404E0E4
:10512000305DFFF7DCFD641CE4B2AC42F8D3BDE8AF
:105130007040FFF700BE000010B500210448FEF7E4
:1051400073FEBDE810400C210148FEF76DBE000063
:10515000AC00002070477047054800214FF4807272
:1051600001704180818003490348FEF7BEBE000004
:105170005C000020AC070020CC0100200FB44FF4ED
:10518000807170B505AB1148049AFBF7A9F8104C73
:10519000002520780028FDD1012020700B48FBF766
:1051A000EBF80A49024601F50070FBF704F90748DD
:1051B000FBF7E2F882B207490748FFF7FFF800283B
:1051C00000D0257070BC5DF814FB0000AC06002018
:1051D0005C000020AC080020CC010020FDF77EBF61
:1051E00030B58FB028216846FBF732F914210AA8A0
:1051F000FBF72EF901210804CDE9001000240294E8
:1052000002250491CDE907504FF4E010099068465B
:10521000FEF7D8F808B172B6FEE70F20CDE90A050F
:105220004FF48060CDE90C4002210AA80E94FDF7EE
:10523000EDFF002801D072B6FEE70FB030BD704719
:105240000148FEF79DBC0000F40000200148FEF775
:1052500097BC00003C010020F0B50268194B1A4CC5
:105260001A4D4FF08047984205D0B84203D0A04273
:1052700001D0A84203D122F070064A683243984216
:1052800005D0B84203D0A04201D0A84203D122F4F5
:105290004074CA6822434C6922F0800222430260B3
:1052A0008A68C2620A688262984201D10969016310
:1052B000012141610169C90703D0016921F00101A0
:1052C0000161F0BD002C01400004004000080040D6
:1052D00010B501F01F030121046A99408C43046258
:1052E000016A9A401143016210BD10B5846842EA18
:1052F000032224F47F440A432243826010BD826863
:1053000022F070020A4342F00701816070470000FA
:1053100030B5036A026A22F00102026242688469BF
:1053200024F073050C682C4323F002058B682B4393
:105330000A4DA8420BD123F00805CB6822F4407235
:105340002B434D6923F0040315438A692A434260C5
:10535000846149684163036230BD0000002C014054
:1053600030B5026A036A23F010030362436884695C
:105370000D6824F4E64444EA05248D6822F02002F6
:1053800042EA05120B4DA8420ED1CD6822F08002F0
:1053900042EA05124D6923F4406343EA85038D69AF
:1053A00022F0400243EA85034360846149688163D7
:1053B000026230BD002C014030B5036A026A22F45B
:1053C000807202624268C46923F4007324F073059A
:1053D0000C682C438D6843EA05230C4DA8420ED17E
:1053E000CD6823F4006343EA05234D6922F440525B
:1053F00042EA05128D6923F4806342EA0512426095
:10540000C4614968C163036230BD0000002C0140E3
:1054100030B5046A026A22F4805202624268C369AB
:105420000D6823F4E64343EA05238D6824F4005411
:1054300044EA0534064DA84204D14D6922F4804265
:1054400042EA85124260C36149680164046230BD6A
:10545000002C014010B5036A046A24F001040462C0
:10546000846924F0F00444EA021423F00A020A4397
:105470008461026210BD10B5036A046A24F010044E
:105480000462846923F0A00324F4704444EA0232E5
:1054900043EA01118261016210BD10B5406A00212A
:1054A000C185C184FEF7B0FD10BD70B5446A2068A7
:1054B000406994F84110C0F3C0100025212904D19F
:1054C00018B1E584204600F0B4F82068406994F8EB
:1054D0004210C0F38010222904D118B1E58520467E
:1054E00000F080F8606C40F0100060642046FEF729
:1054F0008BFD70BD10B50146406A096809684FF020
:10550000000289062ED4C28501680C3151E8003FA3
:1055100023F4807341E80034002CF5D10168143184
:1055200051E8003F23F0010341E80034002CF5D19D
:105530000168143151E8003F23F0400341E8003492
:10554000002CF5D1202180F84210016B012909D1EE
:1055500001680C3151E8003F23F0100341E80034AA
:10556000002CF5D14263016B012902D0FEF724FF24
:1055700010BD818DFEF7DEFC10BD10B5406A012123
:105580004163016B012902D0FEF717FF10BD818D29
:105590004908FEF7CFFC10BD10B50146406A096806
:1055A0000968890616D40021C1840168143151E8C4
:1055B000002F22F0800241E80023002BF5D1016882
:1055C0000C3151E8002F42F0400241E80023002B4B
:1055D000F5D110BDFEF72EFF10BD10B5406AFEF7E5
:1055E00035FF10BD01680C3151E8002F22F4907294
:1055F00041E80023002BF5D10168143151E8002F58
:1056000022F0010241E80023002BF5D1016B0129B2
:1056100009D101680C3151E8002F22F0100241E855
:105620000023002BF5D1202180F8421000210163D6
:10563000704701680C3151E8002F22F0C00241E8A8
:105640000023002BF5D1202180F84110704708B5C8
:1056500090F84210222901D0022008BD82684FF440
:1056600080539A4201D1016921B1816A9A421BD0CB
:105670004AB10AE00268816A5268C2F308020A80ED
:10568000816A891C08E0026972B10268526802F0FE
:105690007F020A70816A491C8162C18D491E09041A
:1056A000090CC18503D01BE002685268F1E701686C
:1056B000CA6822F02002CA600168CA6822F48072B7
:1056C000CA6001684A6922F001024A61202180F81B
:1056D000421000214163026B012A03D0FEF76CFEE9
:1056E000002008BD016301680C3151E8002F22F051
:1056F000100241E80023002BF5D101680A68D206A8
:1057000002D50A6849680091818DFEF713FCE7E72E
:1057100070B5044600680169E26821F44051114304
:1057200001612169A0680843616908432168CA686A
:1057300041F20C639A430243CA6020684169A2693E
:1057400021F44071114341611E492068884202D111
:10575000FDF702FE01E0FDF7EFFD00EBC00101EBFC
:105760000012606864218000B2FBF0F3B3FBF1F338
:105770006FF018067343B2FBF0F5B2FBF0F605EBE1
:105780008305322303EB0515B5FBF1F5B6FBF1F606
:1057900005F0F00505EB0615B2FBF0F6B2FBF0F0F4
:1057A000B0FBF1F06FF01802504306EB800003EB02
:1057B0000010B0FBF1F0216800F00F002844886071
:1057C00070BD00000038014038B581620446828512
:1057D000002013466064222284F84220E56B1B4AB5
:1057E000AA62E56B1A4AEA62E56B1A4A2A63E26B1F
:1057F00050630A462168E06B091DFDF7F3FA206843
:10580000016840680090206948B120680C3050E879
:10581000001F41F4807140E80012002AF5D1206891
:10582000143050E8001F41F0010140E80012002A46
:10583000F5D12068143050E8001F41F0400140E8E5
:105840000012002AF5D1002038BD0000F5540008F0
:105850007B550008AB5400080148FEF7D7BB000099
:10586000CC010020FEE7490050EAC12018BF042007
:105870004A0D18BF40F0010040F2FF72B2EB515FD9
:1058800008BF40F00200012808BF05207047090743
:10589000090E002804DB00F1E02080F800147047B6
:1058A00000F00F0000F1E02080F8141D70472DE992
:1058B000F0414F1E00EBC7010446D1E90001154637
:1058C0001E4637F006020DD02A46334602F062FE2D
:1058D0007F1E04EBC703D3E9002302F0CFFB37F0B0
:1058E0000602F1D1022F25D0042F13D0062F18BFA6
:1058F000BDE8F0812A46334602F04CFED4E90A2383
:1059000002F0BCFB2A46334602F044FED4E90823E9
:1059100002F0B4FB2A46334602F03CFED4E90623EB
:1059200002F0ACFB2A46334602F034FED4E90423ED
:1059300002F0A4FB2A46334602F02CFED4E90223EF
:1059400002F09CFB2A46334602F024FED4E90023F1
:10595000BDE8F04102F092BB012203F063BC02F00B
:105960008DBB002213461046114602F043BC40F2A4
:10597000013200204FF0E04103F054BC024A002005
:10598000110703F04FBC000001FDFFFF10B50446F6
:10599000D1E9000100F002F8206010BDF8B504461E
:1059A0000D466A4601F060F800987E3000900028AD
:1059B0001EDC002213462046294602F073FD17D054
:1059C000002140F608004FF0000006462046294618
:1059D00002F022FB044640F6080006EA00014FF000
:1059E000000034F0004004BF0220FAF718FE29E05E
:1059F0000098FF2828DB002108464FF0000000F443
:105A00004006002213462046294602F0C1FE8CBF04
:105A1000002501250220FAF702FE4FF0FF4446B1AF
:105A2000002D0CBF4FF400004FF48000B04218BFAF
:105A3000084C042108464FF00000002D04BF84F0FC
:105A40000040F8BD2046F8BD20462946BDE8F84094
:105A500002F0E2BAFFFF7F7F10B504460A46D4E9A0
:105A60000003194601F0ABFAC4E9000110BD30385B
:105A70000A2801D201207047002070472DE9FE4F0F
:105A800007460E460025684601F01AF800246FF01C
:105A90000F0AE8464FF0010957F8240056F8241081
:105AA000401A00D5404203F017FA514603F0E8FBD4
:105AB00058F8241011F0FF4F0BD003F00FF94FF0FE
:105AC0007E5103F001FB0A4920F00040884205DCCA
:105AD00007E0084908440849884202D309FA04F05B
