:020000040800F2
:10000000C80F002035020008133F00083D370008E4
:10001000113F00088D1E000839480008000000004C
:100020000000000000000000000000004F41000838
:10003000D31E0008000000004D410008B141000837
:100040004F0200084F0200084F0200084F0200084C
:100050004F0200084F0200084F0200084F0200083C
:10006000D51E00084F0200084F0200084F0200088A
:10007000911E00089D1E00084F0200084F02000854
:100080004F0200084F0200084F0200084F0200080C
:100090004F0200084F0200084F0200084F020008FC
:1000A0004F0200084F0200084F0200084F020008EC
:1000B00015420008214200084F0200084F020008C4
:1000C0004F0200084F0200084F0200084F020008CC
:1000D0004F0200084F0200084F0200082D48000898
:1000E0004F0200084F0200084F02000800F002F81B
:1000F00000F090F80AA090E8000C82448344AAF132
:100100000107DA4501D100F085F8AFF2090EBAE82F
:100110000F0013F0010F18BFFB1A43F0010318473B
:100120005476000074760000103A24BF78C878C175
:10013000FAD8520724BF30C830C144BF04680C60ED
:10014000704700000023002400250026103A28BF35
:1001500078C1FBD8520728BF30C148BF0B60704739
:100160006E2900F0DD82702900F02784662906F0F0
:10017000D683652906F0D383672906F0D0836129E9
:1001800006F0CF8303681B0A28BF41F0800169296C
:1001900000F08A82642900F08782752900F0848249
:1001A0006F2900F0B483782900F0F383E92900F087
:1001B0004F83E42900F04C83F52900F04983EF29AF
:1001C00000F0B183F82900F0F2830368DB0928BF4F
:1001D00041F08001632901F04981732901F04E81CA
:1001E000E32901F05981F32901F05E810020704775
:1001F0001FB501F0AFF904000020002106F0A6F8B9
:10020000401C60600020002106F08AF8E0601FBDFD
:1002100010B510BD01F070F91146FFF7E9FF05F0C8
:10022000EFF901F04DFA03B4FFF7F2FF03BC01F060
:1002300051FA00000948804709480047FEE7FEE7F9
:10024000FEE7FEE7FEE7FEE7FEE7FEE7FEE7FEE786
:1002500004480549054A064B704700001342000850
:10026000ED000008C8090020C80F0020C80B0020BE
:10027000C80B002010B54C1084EA530404D540424A
:10028000C1F1000138BF491E1B4204D55242C3F1DF
:10029000000338BF5B1E00F02EF914F0804F04D02D
:1002A0004042C1F1000138BF491E14F0004F04D094
:1002B0005242C3F1000338BF5B1E10BD7CB51D4622
:1002C00016460C00009001D02044401E074B7B4492
:1002D0002A4669460190304600F03BFA05461CB1BB
:1002E0000020694600F048FA28467CBDB1040000B1
:1002F00040EA010310B59B070FD1042A0DD310C8A3
:1003000008C9121F9C42F8D020BA19BA884201D9F4
:10031000012010BD4FF0FF3010BD1AB1D30703D03C
:10032000521C07E0002010BD10F8013B11F8014BF2
:100330001B1B07D110F8013B11F8014B1B1B01D10E
:10034000921EF1D1184610BD10B5431C02E010F802
:10035000011B71B18107FAD14FF0013202C88C1A2A
:100360008C4314EAC211F9D0C01A0A0603D0C01E89
:1003700010BDC01A10BD0A0401D0801E10BD0902B4
:10038000FCD0401E10BD032A40F2308010F0030C58
:1003900000F0158011F8013BBCF1020F624498BFD8
:1003A00011F801CB00F8013B38BF11F8013BA2F175
:1003B000040298BF00F801CB38BF00F8013B11F0F0
:1003C000030300F0C983083AC0F0088051F8043BE9
:1003D000083A51F804CBA0E80810F5E7121D5CBFFD
:1003E00051F8043B40F8043BAFF30080D20724BF30
:1003F00011F8013B11F801CB48BF11F8012B24BFC4
:1004000000F8013B00F801CB48BF00F8012B704712
:1004100002F0FF0343EA032242EA024200F0D0BBAB
:100420004FF0000200B5134694469646203922BF8D
:10043000A0E80C50A0E80C50B1F12001BFF4F7AFD8
:10044000090728BFA0E80C5048BF0CC05DF804EBBA
:10045000890028BF40F8042B08BF704748BF20F828
:10046000022B11F0804F18BF00F8012B70470000DD
:100470004FF0013C50F8042B51F8043B9A4221D133
:10048000A2EB0C03934313EACC1317D150F8042BBF
:1004900051F8043B9A4215D1A2EB0C03934313EAA3
:1004A000CC130BD150F8042B51F8043B9A4209D1DC
:1004B000A2EB0C03934313EACC13DBD04FF0000004
:1004C000704700BFD01A01BAB1FA81F101F01801EA
:1004D00022FA01F0CB40C1F12001DBB2C0B2C01A58
:1004E0002CFA01F3D11A914311EAC311E6D17047F6
:1004F00070477047704753EA020C00F069802DE99D
:10050000F04B4FF00006002B1FBFB3FA83F503FA40
:1005100005F424FA05F65E4012BF1643B2FA82F5DE
:1005200002FA05F4C5F120051EBF22FA05FC44EAD3
:100530000C04203556EA044C4FEA144418BF641CDE
:100540004FF000084FF00009904271EB030C39D3D3
:10055000002919BFB1FA81F701FA07F6B0FA80F75E
:1005600000FA07F6C7F120071EBF20FA07FC46EA8B
:100570000C062037B6FBF4FCA7EB0507103F07F08D
:100580001F0BCBF120060CFA0BFB2CFA06F644BF2E
:10059000B3460026202FA4BF5E464FF0000B5BEA57
:1005A000060C08BF4FF0010B19EB0B09ABFB027CEB
:1005B00048EB0608C01B06FB02CC0BFB03CC71EB1F
:1005C0000C01C1E70B46024641464846BDE8F08BA8
:1005D00013B54FF000004FF00001AFF30080BDE80D
:1005E0001C40704770B5044685690068C10601D596
:1005F000302600E02026C00707D070BDD4E90121D5
:1006000030469047206A401C20626D1EF6D570BDB2
:1006100070B5044685690078C00707D170BDD4E97C
:10062000012120209047206A401C20626D1EF6D5D3
:1006300070BD09684A0501D540B27047C905FCD5AF
:1006400000B2704709684A0501D5C0B27047C905B4
:10065000FCD580B2704770B50C460546012A05D01E
:100660002878800600D5EA69002302E0012305E02E
:100670005B1C934202D2E05C0028F9D1A869E6181D
:10068000C01AA861286A184428622846FFF7AAFF02
:1006900004E0D5E9012114F8010B9047B442F8D3E6
:1006A0002846FFF7B5FF70BD2DE9F041064600244E
:1006B00010687529314616A510D0FFF7BAFF00283B
:1006C00002DA404213A507E031688A0701D512A576
:1006D00002E0490704D511A5012401E0FFF7B2FFAC
:1006E00000210A2206F1240709E0B0FBF2FCB0FB6E
:1006F000F2F302FB1C00303078541846491C0028E5
:10070000F3D123462A463046BDE8F04100F0BDBA99
:10071000000000002D0000002B0000002000000061
:1007200011680268006A530501D508700AE0D30514
:1007300001D5088006E0130603D5C217C1E90002FF
:1007400000E008600120704701694A1C02610878D6
:10075000704700B58FB0CDE9013100210591054901
:100760007944CDE903101146684600F031F90FB025
:1007700000BD0000E5FFFFFF0A6802F8010B0A60F8
:100780007047D1E900239A4202D2531C0B601070CB
:10079000704700002DE9FF5F15468A460446DFF8E2
:1007A000AC80F8440027D8E900103E46CDE900109F
:1007B00010E03AF816106A4602A800F079FE411CD3
:1007C00007D02178890603D5E269391891420DD8FE
:1007D0000744761C2078800602D5E069B84205DD22
:1007E000AE42E6DB3AF816000028E2D1A069C01B51
:1007F000A0612046FFF7F6FED8E90010CDE9001011
:10080000002017E03AF818106A4602A800F050FEDF
:10081000B0F1FF3F81460BD000250DF1080B05E03C
:10082000D4E901211BF8050090476D1C4D45F7D315
:1008300008F10100B0428046E4DB206A38442062BF
:100840002046FFF7E5FEBDE8FF9F0000D26E0000E6
:100850002DE9F0418046D21D22F007020025D2E9A1
:100860000002F52915A614D0011E72F1000106DA66
:100870000023D0EB030063EB020211A608E0D8F8D6
:1008800000108B0701D50FA602E0490701D50EA67F
:1008900001251146002408F1240704E000F0B0F916
:1008A00030323A55641C50EA0102F7D12B463246E9
:1008B00021464046BDE8F04100F0E7B900000000E5
:1008C0002D0000002B0000002000000030B40021AB
:1008D00000F1240408E002F00705D208303542EAAE
:1008E0004372DB086554491C52EA0305F3D10468DE
:1008F000002310A2250707D5A40600D421B1C4699E
:1009000001230DA2641EC46130BC00F0BEB910B555
:10091000044621461068FFF795FE02462046BDE8D2
:1009200010400023D2E7D21D22F00701D1E90023B5
:10093000CCE700000000000030000000F0B40D46DD
:100940000188090502D5214C7C4402E01F4C7C44FF
:100950000E34002100F1240608E002F00F0712090E
:10096000E75D42EA03721B097754491C52EA030708
:10097000F3D102780023120704D5702D06D009B1F7
:10098000022311342246F0BC00F07FB90123103459
:10099000F8E770B504460D4621461068FFF752FE91
:1009A000024629462046BDE870400023C6E7D21D16
:1009B00022F00703D3E90023C0E70368126843F07D
:1009C000200303600823C3610023B7E7346D0000F0
:1009D0002DE9F05F894604464FF0000ADFF874B154
:1009E000FB44C0F820A02046E1688847002874D066
:1009F000252806D0D4E901219047206A401C2062B6
:100A0000F1E700265F462046E16888472028054632
:100A100007DB312D05D2781910F8200C08B10643F8
:100A2000F1E7B00701D526F00406C4F81CA00027A2
:100A3000C4F818A02A2D09D0284603F022FF38B3A5
:100A400004EB8708303DC8F8185019E059F8041B2A
:100A5000204604EB87029161E1688847012F054633
:100A600018D1E069002820DA26F020061DE0D8F829
:100A7000180000EB800005EB40003038C8F8180083
:100A80002046E1688847054603F0FBFE0028EED1CA
:100A9000012F0AD02E2D08D12046E16888477F1CFF
:100AA0000546022F46F02006C4DBA069002803DAC1
:100AB000404246F00106A061F00701D026F0100682
:100AC0006C2D0BD0682D09D04C2D39D06A2D35D026
:100AD000742D35D07A2D33D016E038E0E1682F46FA
:100AE00020468847B842054609D16C2F26D04FF4DE
:100AF0008060E168064320468847054604E06C2F85
:100B00001AD04FF4807006430DB3A5F141001928A7
:100B100002D8203546F400664A462946204626601B
:100B20004E46FFF71DFB80B101280BD0F61D26F0C5
:100B3000070000F1080956E74020E4E78020D8E7E5
:100B40000020D6E706F104094DE7284652E7206A5F
:100B5000BDE8F09FC46C000010B5203AC0F00B80D7
:100B6000B1E81850203AA0E81850B1E81850A0E8B1
:100B70001850BFF4F5AF5FEA027C24BFB1E818500B
:100B8000A0E8185044BF18C918C0BDE810405FEA7B
:100B9000827C24BF51F8043B40F8043B08BF7047F7
:100BA000D20728BF31F8023B48BF11F8012B28BFFC
:100BB00020F8023B48BF00F8012B70474FF00002BD
:100BC0000429C0F0128010F0030C3FF42BACCCF1E0
:100BD000040CBCF1020F18BF00F8012BA8BF20F8CD
:100BE000022BA1EB0C01FFF71DBC5FEAC17C24BF07
:100BF00000F8012B00F8012B48BF00F8012B7047CB
:100C000030B5B0F10A024FEA900E71F100034EEADE
:100C1000817EB0EB0E0061EB91014FEA101E4EEAAF
:100C2000017E10EB0E0041EB11114FEA102E4EEA3F
:100C3000016E10EB0E0041EB11214FEA104E4EEA0F
:100C4000014E10EB0E0041EB1141401841F1000143
:100C50004FEAD00040EA41704FEAD10110EB800525
:100C60004FEA810444EA907444EB01046D1944EBAB
:100C70000404521BA3414FF0000348BF0A3200D5C1
:100C800030BD401C41F1000130BD2DE9F0470D465B
:100C900099469246044600F124080168880604D566
:100CA000E06921F01001216000E00120A84201DD8F
:100CB000471B00E00027A1697A1902EB0900081A16
:100CC000A0612078C00602D42046FFF78BFC0026E6
:100CD00008E0D4E901211AF806009047206A401C78
:100CE000761C20624E45F4DB2078C0060AD52046EB
:100CF000FFF778FC06E0D4E9012130209047206A14
:100D0000401C2062381EA7F10107F4DC07E0D4E99B
:100D1000012118F805009047206A401C2062281E17
:100D2000A5F10105F3DC2046FFF772FC20780006F0
:100D300002D50220BDE8F0870120FBE770472DE9CE
:100D4000FF4F0C461E464FF0FF378BB0D2E9000133
:100D5000DDF860800A908A46C1F30A5505B93D4620
:100D6000002108464FF00000BAF1000F00F44000E7
:100D700005DA00EB80004FF4400101EA50004FEA31
:100D80009059B9F1010F00DDB9460A9850EA4A00BE
:100D90000ED044F61050A5F2FF3545432F14B8F19C
:100DA000000F1ED07542291E1EDDC9F100021CE095
:100DB000B8F1010F4FF0000001D0302103E0F24301
:100DC00005E02154401CB042FBDB304600220021EC
:100DD00021540B99C1F80880C1E900200FB0BDE88B
:100DE000F08FBD1B6D1CDEE74A4600DA694206A89B
:100DF00000F0F4FB06AB93E8070003AB83E80700C1
:100E000050460A9900F06DFC8DE80700A0F50050EF
:100E10001F3800900398002D0ADD42F21F014A4658
:100E20000844002303A90390684600F0D6FE09E0B9
:100E3000A0F500504A461F38002303A903906846D6
:100E400000F0E0FE8DE807000004000C03D04FF036
:100E5000FF30410800E01046B8F1000F03D0002237
:100E6000009215461EE0751E05D4FFF7C9FE30320C
:100E700062556D1EF9D5B3460122084302D0002207
:100E80007F1C04E02078302801D100227F1E002A38
:100E9000099784D01DE0112D07DAFFF7B1FE30323B
:100EA00062556D1C50EA0102F5D1084302D000984A
:100EB000C8B10EE00021681E05E0235C625C63544B
:100EC0002254401E491C8142F7DBAB46A81B401E42
:100ED0000990002004F80B000B98099AC0F80880CC
:100EE000C0E9002B7AE711264FF0000857E72DE9FB
:100EF000F04F88460446D21D22F0070191B0D1E997
:100F00000001CDE90A0103F098FC02460B98C00FDE
:100F100001D02D2007E02068810701D52B2002E0B9
:100F2000202101EAC000032A099001D0072A05DB2D
:100F300003464146204600F011FB0BE12078800675
:100F400001D5E06900E00620B8F1650F814606D0C2
:100F5000B8F1660F18D0B8F1670F70D131E00020FA
:100F6000B9F1110F009001DB112301E009F1010338
:100F70000AAA01A90CA8FFF7E2FEDDE90C70002621
:100F800009F10105834647E001204B4600904FF0F0
:100F900000470AAA01A90CA8FFF7D1FEDDE90DB0B0
:100FA0000C995D46002610B909F101000D18B9EB46
:100FB000050003D4C0F1FF3609F10105A5EB0900D6
:100FC0002BE0B9F1010F01DA4FF001090020B9F16E
:100FD000110F0090484601DD112300E003460AAAE4
:100FE00001A90CA8FFF7ABFEDDE90C704D46002609
:100FF0008346207800070AD4AB4500DA5D4601A895
:10100000012D04DD411911F8011C302907D04F458D
:1010100002DA17F1040F04DA012082460FE06D1E98
:10102000EEE7002F02DCED1B3E4403E0781CA842F3
:1010300000DD7D1CB81B00F1010A4FF0004720784D
:10104000000703D4AA4501DB4FF0FF3A0021B7F1B6
:10105000004F0DF143088DF8431024D002202B23BC
:10106000002F01DA7F422D230A21021EA0F1010088
:1010700000DC5FB197FBF1FC97FBF1F201FB1C7CFC
:1010800017460CF1300C08F801CDEEE7A8F101008D
:1010900003702188090501D5452100E06521A0F1F3
:1010A000010800F8011C09980FA9A1EB0807FF1D12
:1010B00000B10120411901EBEA70A1693844081A16
:1010C000401EA0612078C00602D42046FFF78AFAAD
:1010D000099828B1D4E901219047206A401C206278
:1010E0002078C00622D52046FFF77CFA1EE0002EAD
:1010F00004DBB34502DD01A8805D00E03020D4E9C7
:1011000001219047206A401C2062761CAAF1010050
:101110005FEA000A0AD100F01DFAC0680168405C6D
:10112000D4E901219047206A401C2062281EA5F1C5
:101130000105DCDC07E0D4E9012118F8010B904738
:10114000206A401C2062381EA7F10107F3DC20460C
:10115000FFF75EFA032011B041E600002DE9F04FE1
:1011600004460D46D21D22F0070089B0D0E9009751
:101170004846394603F061FB0246F80F01D02D23A3
:1011800007E02068810701D52B2302E0202101EA36
:10119000C0038DF820300BB1012000E00020032AAD
:1011A000824601D0072A04DB2946204600F0D6F902
:1011B0003FE12078800601D40D2500E0E569C7F302
:1011C0000A560D2D49DA00214FEA175B08464FF009
:1011D0000000002F00F4400007DA00EB80004FF41D
:1011E000400100EBD07001EA60008115012901DDAA
:1011F0004FF0FF3100224FEA850CBCF1180F06D3E7
:101200001346ACF118004FF08052C24003E04FF497
:10121000801323FA0CF30CF10C0CBCF1200F04D357
:10122000ACF1200C09FA0CF001E007FA0CF00029EF
:101230004FF0004801DD18B90FE00ED140450CD346
:1012400019EB02095F4121B9404502D19F4329EAC8
:101250000209BBEB175F00D0761C2088000502D581
:101260007B48784402E07A487844193808AA302349
:1012700002F80A30037C0AF10101002E0AF1020A89
:1012800053546A4602DC4FF0300101E04FF0310167
:101290004FF001088DF8001002D0A6F2FF3603E0EF
:1012A00059EA470100D06B4E002D02DC2178090776
:1012B00004D54FF002082E218DF80110C4460021FC
:1012C0000BE0C7F303433F01C35C491C6D1E02F8EA
:1012D0000830052908F1010801DA002DF1DC0021B0
:1012E0000CE000EB1973491C1B786D1E082902F8ED
:1012F00008304FEA091908F1010801DA002DF0DC85
:1013000021688B0602D516E0A8F10108E04505DD4D
:1013100002EB080313F8013C302BF5D0B8F1000FB5
:1013200009DD02EB080313F8013C2E2B03D109075A
:1013300001D4A8F10108002D05DD3E2102F80810B6
:101340006D1E08F10108407C002E02F8080008F12B
:10135000010804DA2D20764202F8080002E02B2072
:1013600002F808000A214FF47A70864208F1010859
:101370000BDB96FBF0F3303302F8083096FBF0F30A
:1013800008F1010800FB136601E0642E0CDB642009
:1013900096FBF0F3303302F8083096FBF0F308F1D7
:1013A000010800FB136601E00A2E06DB96FBF1F054
:1013B000303002F8080008F1010896FBF1F001FB5B
:1013C0001060303002F80800A16908F1010808EB4C
:1013D000050202EB0A00081AA0612078C00602D4B8
:1013E0002046FFF7FFF8216A08AE01EB0A002062F1
:1013F00004E0D4E9012116F8010B9047BAF1010A83
:10140000F7D22078C00602D52046FFF7EBF86E46EB
:1014100009E016F8010B3E280FD0D4E901219047CE
:10142000206A401C2062B8F10108F2D22046FFF782
:10143000EFF809B00320BDE8F08F206A284420624D
:1014400003E0D4E90121302090476D1EEBD3F8E78B
:101450006664000002FCFFFF10B5436913B1AFF3EF
:10146000008001E0FFF7F7F8012010BD127800F1CD
:1014700024010A7000224A700122EDE711684FF042
:10148000FF32E9E710B5436913B1AFF3008001E023
:10149000FFF780F9012010BD128800F12401828439
:1014A0000022C2840122EDE711684FF0FF32E9E724
:1014B00070B516460C46054600F044F8036893F8EC
:1014C0000101012806D0FF2C0FD8185D68B101205A
:1014D0002C7070BDD3F807013246214603F2071382
:1014E00003442846BDE8704018474FF0FF3070BDF8
:1014F00000487047640900207546FFF7F9FFAE46C3
:1015000005006946534620F00700854618B020B50F
:10151000FEF79EFEBDE820404FF000064FF00007AA
:101520004FF000084FF0000B21F00701AC46ACE88B
:10153000C009ACE8C009ACE8C009ACE8C0098D46F8
:101540007047000010B500F005F8001D10BD00BF89
:10155000FD4D000000487047840900202DE9F0414E
:101560001F46044603260168072A01F4006004DBD5
:1015700008B116A505E016A503E008B115A500E021
:1015800015A521F010002060A069C01EA0610FB158
:10159000401EA0612046FFF725F84FB1D4E9012194
:1015A00038469047206A401C2062C01C206206E03A
:1015B000206AFAE7D4E9012115F8010B9047761E5D
:1015C000F8D22046FFF724F8BDE8F0814E414E00E6
:1015D0006E616E00494E4600696E66002DE9F04767
:1015E000814616468AB0354878440DC88DE80D000E
:1015F00032487844801C03AC0DC884E80D0041F6E5
:101600009B300844372190FBF1F290FBF1F5A5F1F6
:10161000800501FB12041B3C02D56442012000E05E
:101620000020DFF898A080460027FA44AAF1BE0AFD
:101630000EE0E0070AD03246684607EB4701012377
:101640000AEB810100F0DEFA8DE8070064107F1CD0
:10165000002CEED1194F7F44AE3F19E0E80715D0BA
:1016600007EB04100DF1180A90E80E008AE80E004E
:10167000C068F04201D1981908903246012306A9AA
:1016800003A800F0BFFA03AB83E807006D10641CE9
:10169000002DE3D14FF0010332466946B8F1000F47
:1016A00003A802D000F099FA01E000F0ABFAC9E912
:1016B0000001C9F808200AB0BDE8F0877061000099
:1016C00010B50446AFF300802046BDE81040FEF799
:1016D000AABD000001491820ABBEFEE726000200AB
:1016E00070475FEA400C08BF91F0000F4FEA8C236F
:1016F0004FEAC12243EA51514FEA1C5018BF00F58E
:10170000F0404FEA300018BF41F000415FEA6C5CE6
:1017100000F02980BCF1FF3F08BF40F080407047D7
:10172000130C06BF12044FF0100C4FF0000C130EF8
:1017300004BF12020CF1080C130F04BF12010CF1CC
:10174000040C930F04BF92000CF1020CD30F04BFE2
:1017500052000CF1010C11464FF00002A0F11F00E5
:10176000A0EB0C00704711F0004F08BF704731F03C
:1017700000413FF4D5AF0B0C06BF09044FF0100C2D
:101780004FF0000C0B0E04BF09020CF1080C0B0FFC
:1017900004BF09010CF1040C8B0F04BF89000CF18C
:1017A000020CCB0F04BF49000CF1010CCCF120035B
:1017B000A0EB0C0022FA03F302FA0CF241EA030157
:1017C00000F10100704720F07F4C80EA030023F015
:1017D0007F47ACEB070303F57C5300F0004003F1B7
:1017E000FF032DE980494FEA154B09B44FEA144332
:1017F00025EA0B4E24EA03480FF2042606EB1327D2
:1018000049083E785FEA320203FB0667C7F5000726
:1018100007FB06F64FEA54374FEAD64606F10206B2
:1018200007FB066CCCF1005C4FEA1C472CEA074C26
:1018300007FB06F40CFB06F504EB15464FEA96167B
:1018400034BF00204FF000404FEAD13706FB07FCC1
:101850004FEA1C4C0CFB0BF7D21B03FB0CF761EBA4
:1018600007010CFB0EF7B0EB074072EB17420CFBC5
:1018700008F734BFA2EB0742B2EB074261EB174116
:101880004FEA0C444FEA910706FB07FC4FEA1C4C59
:101890000CFB0BF7B0EBC74072EB573203FB0CF7B6
:1018A00034BFA2EBC742B2EBC74261EB57310CFB2E
:1018B0000EF7B0EBC70072EB57720CFB08F734BFA2
:1018C000A2EBC702B2EBC70261EB5771039F4FEA6D
:1018D000816141EA921104EBCC044FEAD1374FEA1F
:1018E000826206FB07FC42EA90124FEA80604FEAF0
:1018F0001C4C0CFB0BF7D21B03FB0CF761EB070135
:101900000CFB0EF7B0EB074072EB17420CFB08F72D
:1019100034BFA2EB0742B2EB074261EB17414FEA3B
:101920008C554FEA910704EB9C2406FB07FC4FEA19
:101930001C4C0CFB0BF7B0EBC74072EB573203FBB0
:101940000CF734BFA2EBC742B2EBC74261EB573191
:101950000CFB0EF7B0EBC70072EB57720CFB08F7ED
:1019600034BFA2EBC702B2EBC70261EB577115EBB4
:101970004C254FEA816141EA92114FEA82624FEAB7
:10198000D13742EA901206FB07FC44F100044FEA0B
:1019900080604FEA1C4C0CFB0BF7D21B03FB0CF7CF
:1019A00061EB07010CFB0EF7B0EB074072EB17423F
:1019B0000CFB08F734BFA2EB0742B2EB074261EB26
:1019C000174115EB1C154FEA813141EA92414FEA6C
:1019D000823242EA90424FEA80304FEA0C7644F17C
:1019E000000448EA03434EEA0B484FF0000EB2EB06
:1019F000080C71EB030724BF624639464EEB0E0E0E
:101A00004FF0000B0018524149414BEB0B0BB2EB6E
:101A1000080C71EB03077BF1000B24BF62463946CB
:101A20004EEB0E0E4FF0000B0018524149414BEBAC
:101A30000B0BB2EB080C71EB03077BF1000B24BF1F
:101A4000624639464EEB0E0E51EA020718BF46F0C9
:101A5000010616EB0E7655F1000254F1000103D594
:101A6000BDE88901BDE80088BDE88901BDE80048FE
:101A7000B619524141EB0101A3F101037047808087
:101A80007F7E7D7C7B7A79787776767574737271D8
:101A900071706F6E6E6D6C6C6B6A6A696868676690
:101AA00066656464636362616160605F5F5E5E5D22
:101AB0005D5C5C5B5B5A5A59595858575756565596
:101AC00055555454535352525251515050504F4FF8
:101AD0004F4E4E4D4D4D4C4C4C4B4B4B4A4A4A4948
:101AE000494948484847474747464646454545448B
:101AF0004444444343434342424242414141002B18
:101B00009C4630D477002BD01CB54FEA370703B47E
:101B10004FF010004FF01001BAF1000F06D0BCF1E9
:101B2000000FDCBF40F0080040F008014FF000005B
:101B30000FBCBDE810400BF1010BBBF1010F08BF5A
:101B40005FEA170722BF12F1010211F101014FF004
:101B5000004143F1000300F0004043EA00007047F9
:101B6000F9D35708D0E746EA064613F1400F4FEA8B
:101B700016461FDD13F1200FDFBF16430A46002172
:101B800020335B42BED0C3F1200746EA064602FA84
:101B900007F74FEA164646EA0706C3F1200722FA7E
:101BA00003F201FA07F721FA03F14FF0000342EACA
:101BB0000702A7E746EA020646EA06464FEA164645
:101BC00046EA0106BCBF46EA0646360C4FF0000363
:101BD0004FF000024FF0000194E72DE9804C9A4647
:101BE000934670B491E8380007C831EA400C48BF0A
:101BF00034EA430C03D5FFF7E6FDFFF780FFF0BCA6
:101C0000BDE8008C2DE9804C9A46934670B491E86B
:101C1000380007C810F0804F08BF13F0804F03D181
:101C200000F005F8FFF76BFFF0BCBDE8008C20F07A
:101C30007F4780EA030023F07F4C07EB0C03A3F5FA
:101C40007C5300F00040A3F1FE0392F0000F00F07F
:101C5000B38095F0000F00F077802DE901494FEA3D
:101C600011404FEA144621EA004800FB06FC24EA32
:101C7000064708FB06F607FB08F800FB07F718EB1A
:101C800006484CEB164C4FEA124B18EB07484FEA4C
:101C900015464CEB174022EA0B4E0BFB06FC25EADF
:101CA00006470EFB06F607FB0EFE0BFB07F71EEBC7
:101CB000064E4CEB164C4FF000061EEB074E4CEB5D
:101CC000174B18EB0B0840F1000018EB0E0B58EB0C
:101CD000000840F100008F1A4FF000013CBFC943DB
:101CE000661B14BFB5EB040C00213CBFC943F61BB7
:101CF0004FEA17444EEA8E0E27EA04454FEA1C4786
:101D000004FB07622CEA074C05FB07F70CFB05F602
:101D100004FB0CFC16EB074642EB174216EB0C4695
:101D200042EB1C421BEB060658EB0202414146EA1D
:101D30009E0601D5BDE80189B619524141EB01016A
:101D4000A3F10103BDE801894FEA14454FEA1147A9
:101D500024EA054621EA074C05FB07F406FB07F7D2
:101D60000CFB06F105FB0CFC11EB074144EB17449F
:101D70004FEA124711EB0C4144EB1C4422EA074C9A
:101D800005FB07F206FB07F70CFB06F605FB0CFC50
:101D900016EB074642EB174216EB0C4642EB1C458E
:101DA0006A1854F1000148BF7047B619524141EB1F
:101DB0000101A3F10103704795F0000F37D04FEAFE
:101DC00011424FEA144721EA024624EA074C02FB7B
:101DD00007F106FB07F70CFB06F402FB0CFC14EB07
:101DE000074441EB17414FEA154714EB0C4441EB14
:101DF0001C4125EA074C02FB07F506FB07F70CFB25
:101E000006F602FB0CFC16EB074645EB174516EBF6
:101E10000C4645EB1C42121951F1000148BF7047B6
:101E2000B619524141EB0101A3F1010370474FEA9A
:101E300014454FEA114724EA054621EA074C05FB01
:101E400007F106FB07F70CFB06F24FF0000605FB57
:101E50000CFC12EB074241EB174112EB0C4251EB29
:101E60001C4148BF7047921841EB0101A3F10103E7
:101E7000704710B502F0AFF801F078FD02F058F9A4
:101E800000F02CF8BDE8104001F052BCFEE7000065
:101E9000014800F0A5B8000010020020014800F041
:101EA0009FB80000CC01002030B590F840500124CC
:101EB000AC40C56B6C60046863604368102B0368BA
:101EC00003D099600068C26030BD9A600068C1604C
:101ED00030BD7047042000F0CDB9000010B53C21A2
:101EE000044800F0D9FFBDE810403C21024800F052
:101EF000D3BF0000AC0000203C01002072B6FEE71A
:101F000010B590F821100022022905D00421816328
:101F100080F82020012010BD01680B6823F00E031B
:101F20000B6001680B6823F001030B6090F84030F0
:101F3000C46B012101FA03F3636080F8211080F87B
:101F40002020104610BD000010B590F8211000248C
:101F5000022903D00421816301243DE001680A685D
:101F600022F00E020A6001680A6822F001020A608B
:101F70001A4A0168914201D1012121E0174A143225
:101F8000914201D110211BE0144A2832914201D123
:101F9000891515E0114A3C32914201D189140FE0B4
:101FA0000E4A5032914202D14FF4803108E00B4A80
:101FB0006432914202D14FF4801101E04FF0807100
:101FC000064A083A5160012180F82110002180F86A
:101FD0002010416B01B18847204610BD0800024027
:101FE0002DE9F05FC16B0C6801680B68D0F840C048
:101FF000042202FA0CF2494DDFF824A1494E4A4F5F
:10200000DFF828B1DFF828E122422CD05A072AD580
:102010000A68920603D40A6822F004020A60016882
:10202000A94201D1042219E0514501D1402215E015
:10203000B14202D14FF4806210E0B94202D14FF4B4
:1020400080420BE0594502D14FF4802206E07145F1
:1020500002D14FF4800201E04FF080622F4908392D
:102060004A60C16A3BE04FF0020808FA0CF818EA2F
:10207000040F4FF000094FF0010235D05FEA83787A
:1020800032D50B689B0605D40B6823F00A030B605E
:1020900080F821200168A94201D1022219E05145AE
:1020A00001D1202215E0B14202D14FF4007210E0BC
:1020B000B94202D14FF400520BE0594502D14FF41E
:1020C000003206E0714502D14FF4001201E04FF0FA
:1020D0000072124908394A6080F82090816A00290C
:1020E0001AD0BDE8F05F0847082505FA0CF525422F
:1020F00012D01B0710D50B6823F00E030B6090F86D
:102100004010C36B02FA01F15960826380F821200C
:1021100080F82090016BE2E7BDE8F09F08000240E4
:102120001C000240300002404400024058000240BF
:102130006C00024030B528B308C813491422194472
:10214000B1FBF2F18900C16310498163022141773B
:102150001A6843F6F0718A43D0E900142143D0E9AC
:1021600002452C4321430469214344692143846986
:102170002143114319600021416301224277017715
:10218000084630BD012030BDF8FFFDBF0000024011
:1021900070B5044690F82000002501280CD00120DD
:1021A00084F8200094F821600020012E06D084F8E5
:1021B00020000225284670BD022070BD022684F84A
:1021C0002160A0632068066826F0010606602046AC
:1021D000FFF76AFEE06A00282068016802D041F03B
:1021E0000E0106E021F0040101602068016841F061
:1021F0000A0101602068016841F001010160D9E72E
:1022000070B5044600F03CF90546601C02D0044855
:102210000078044400F034F9401BA042FAD370BDAA
:102220000400002070B5042815D10F4C0F4900257B
:102230002278086882B1012A0DD1406AA0606168E5
:10224000401A04F017FA0A4904F028FA691E04F04B
:102250009CFBE060257070BD45620868406A606064
:102260000120207070BD00004C000020F400002010
:1022700096430B3D044910B50A68024202D008603B
:10228000FFF7D0FF10BD0000140401402DE9F84F06
:10229000DFF8B8910024A9F1040B23460F2709F1B8
:1022A000040AABF1040EC9E00125A5402A40AA4268
:1022B0007DD1674ED1F804C0ACEB0608B44532D0EE
:1022C00014DCBCF1030F3AD009DCBCF1000F2AD0BA
:1022D000BCF1010F1CD0BCF1020F31D11DE0BCF1EB
:1022E000110F17D0BCF1120F2AD119E0B8F5881FD1
:1022F00019D006DCB8F5803F15D0B8F5801F1FD186
:1023000011E0B8F5001F0ED0B8F5041F18D10AE08F
:10231000CB6815E0CB681B1D12E0CB6808330FE0DB
:10232000CB680C330CE08B682BB1012B4FF008030A
:1023300003D0456104E0042302E0056100E00023CE
:10234000FF2A01D8064601E000F104064FEA8405A1
:1023500001D9A5F12005D6F8008007FA05FC28EA86
:102360000C0803FA05F548EA0508C6F800804D6830
:10237000ED0062D5374DAE6946F00106AE61AD693C
:1023800024F0030605F001050095334D06EB050C1E
:10239000DCF80850A607360F07FA06F825EA080504
:1023A000DFF8B880404503D14FF0000817E044E063
:1023B000DFF8AC80404502D14FF001080FE0DFF8B4
:1023C000A480404502D14FF0020808E0DFF8988071
:1023D000404502D14FF0030801E04FF0040808FA2D
:1023E00006F848EA0508CCF808804D68D9F800607E
:1023F000ED024D4601D5164300E096432E604D6830
:10240000DAF80060AD02554601D5164300E0964368
:102410002E604D68DBF80060AD035D4601D51643C4
:1024200000E096432E604D68DEF80060ED037546CF
:1024300001D5164300E096432E60641C0D682A46C1
:10244000E5407FF431AFBDE8F88F0000080401409B
:10245000000011100010024000000140000801407F
:10246000000C014000100140001401408068084049
:1024700000D0012070470AB1016170470904FBE7F1
:10248000014880687047000004000020024881680D
:10249000027811448160704704000020074810B59D
:1024A000016841F010010160032000F075F80F2071
:1024B00000F006F800F024F8002010BD00200240D3
:1024C00070B50D4D04464FF47A712878B1FBF0F0E9
:1024D0000A490968B1FBF0F000F0DCFA48B9102CA9
:1024E00007D200222146501E00F036F800206C6012
:1024F00070BD012070BD000004000020100000200D
:102500000C4808B5816941F001018161816901F0E0
:1025100001010091C16941F08051C161C06900F0C1
:10252000805000900448416821F0E06141F0007162
:10253000416008BD0010024000000140002809DB96
:1025400000F01F02012191404009800000F1E020CD
:10255000C0F8001170470000F0B40E4B1B680C4629
:10256000C3F30223C3F10705042D00D90425191D67
:10257000072901D2002300E0DB1E012606FA05F13F
:10258000491E214099409E40761E16403143F0BCC2
:1025900002F067B90CED00E0064900F00702086898
:1025A0004FF6FF03184040EA0220034A1043086038
:1025B000704700000CED00E00000FA052DE9F0473F
:1025C0000F46050061D0434E306800F00700B84266
:1025D00009D2306820F0070038433060306800F0DE
:1025E0000700B84251D128683B4C810712D54007FB
:1025F00003D5606840F4E06060602878000703D588
:10260000606840F4605060606068A96820F0F00085
:10261000084360602878C00728D06868012810D077
:102620002168022810D0890700292EDA616821F07C
:10263000030101436160FFF723FF804641F28839BF
:102640000DE021688903EFE78901EDE7FFF718FF47
:10265000A0EB0801494502D90320BDE8F087606876
:10266000696800F00C00B0EB810FEFD1306800F02A
:102670000700B8420BD9306820F0070038433060BB
:10268000306800F00700B84201D00120E5E7287863
:10269000400705D56068E96820F4E06008436060A1
:1026A0002878000706D56068296920F4605040EA60
:1026B000C100606000F038F86168084AC1F3031196
:1026C000515CC8400649086006480068FFF7F8FEFC
:1026D0000020C2E70020024000100240186A0008F3
:1026E00010000020080000200448054900684968DF
:1026F000044AC1F30221515CC84070471000002019
:1027000000100240286A000804480549006849682A
:10271000044AC1F3C221515CC84070471000002038
:1027200000100240286A00080E4A51680E4801F065
:102730000C03042B11D0082B0FD10C48C1F3834399
:10274000C903C05C0AD55168084AC1F34041921ED2
:10275000515C054A5043B0FBF1F0704704494843CF
:10276000704700000010024000127A00086A00085A
:1027700000093D002DE9F84F040070D02078C04DCD
:10278000C00749D06868C0F38100012807D0686895
:10279000C0F38100022809D16868C00306D5286803
:1027A000800339D560680028E7D035E06068B0F56F
:1027B000803F0BD010B1B0F5A02F11D0286820F4C5
:1027C00080302860286820F4802002E0286840F4E7
:1027D00080302860606890B1FFF752FE06460AE03C
:1027E000286840F480202860F0E700BFFFF748FE2B
:1027F000801B642873D828688003F7D50CE0FFF7A6
:102800003FFE064605E000BFFFF73AFE801B642846
:10281000F0D828688003F7D420789A4E80074FF0CC
:1028200001094FF0000839D5686810F00C0F07D087
:102830006868C0F38100022809D16868C00306D423
:102840002868800714D52069012808D110E0206984
:10285000B0B1C6F80090FFF713FE074605E00AE1A5
:10286000FFF70EFEC01B0228C4D828688007F7D5E2
:102870002868616920F0F80040EAC10028600DE096
:10288000C6F80080FFF7FCFD074604E0FFF7F8FDFF
:10289000C01B022823D828688007F7D420780007B7
:1028A0002CD57948A169D9B1C0F80090FFF7E8FDAF
:1028B000074604E0FFF7E4FDC01B02280FD8686A52
:1028C0008007F7D571484FF4FA510068B0FBF1F07A
:1028D000009000BF0098411E0091FAD20EE080E007
:1028E000C0F80080FFF7CCFD074604E0FFF7C8FD05
:1028F000C01B022875D8686A8007F7D42078400783
:1029000060D5E8690027C00008D4E86940F080502D
:10291000E861E869012700F0805000905C48016898
:10292000C90513D40168834641F480710160FFF743
:10293000A7FD824606E000BFFFF7A2FDA0EB0A005C
:1029400064284ED8DBF80000C005F5D5E068012802
:102950000AD008B1052813D0286A20F001002862A7
:10296000286A20F0040002E0286A40F00100286292
:10297000E06841F2883B98B1FFF782FD82460BE0A8
:10298000286A40F004002862EEE700BFFFF778FDF8
:10299000A0EB0A0159455AD8286A8007F6D50CE001
:1029A000FFF76EFD824605E0FFF76AFDA0EB0A0126
:1029B00059454CD8286A8007F6D41FB1E86920F041
:1029C0008050E861E06988B36968C1F38101022938
:1029D00044D00228C6F8608004D0FFF751FD0446B9
:1029E00038E034E0FFF74CFD074604E0FFF748FD10
:1029F000C01B02282BD828688001F7D4206AB0F5C4
:102A0000803F05D16868A16820F400300843686001
:102A1000D4E908010843696821F474110843686027
:102A2000C6F86090FFF72CFD044606E025E000BFE5
:102A3000FFF726FD001B022809D828688001F7D57A
:102A40001BE000BFFFF71CFD001B022802D903207A
:102A5000BDE8F88F28688001F4D40EE00128F7D093
:102A60006868226A00F48031914204D1616A00F4FE
:102A70007010884201D00120EAE70020E8E700005A
:102A80000010024000004242800442421000002038
:102A90000070004010B5401EB0F1807F01D30120CE
:102AA00010BD4FF0E02460610F21601701F0D9FEE6
:102AB0000020A06107202061002010BD70477047F2
:102AC00010B590F83C20012A22D0012280F83C2049
:102AD000CA688C6822F4407222434C6822F48062F7
:102AE00022430C6822F4006222430C6922F48052D3
:102AF00022434C6922F400522243C969002322F484
:102B000080420A4301684A6480F83C30002010BDCE
:102B1000022010BD70B590F83C20012A26D0012477
:102B200080F83C40022280F83D2003685A689D6886
:102B300022F070060A6832435A600D4B02689A42CE
:102B400008D0B2F1804F05D00A4B9A4202D00A4B0E
:102B50009A4204D1496825F080031943916080F8B6
:102B60003D40002180F83C10084670BD022070BD39
:102B7000002C0140000400400008004010B5040093
:102B800003D094F83D0010B107E0012010BD0020F3
:102B900084F83C00204600F01FF8022084F83D0035
:102BA000211D206801F042FB012084F8460084F8D2
:102BB0003E0084F83F0084F8400084F8410084F827
:102BC000420084F8430084F8440084F8450084F807
:102BD0003D00002010BD000008B5114A01681148F1
:102BE000914208D1816941F400618161806900F4FA
:102BF0000060009008BD0C4A9142FBD1C16941F0D0
:102C00000201C161C069002200F00200009011467B
:102C10001D20FFF7A1FCBDE808401D20FFF78EBC7A
:102C2000002C0140001002400004004090F83D10CC
:102C3000012901D001207047022180F83D10006871
:102C40000B49884208D0B0F1804F05D0094988422D
:102C500002D00949884204D1816801F007010629A0
:102C600003D0016841F001010160002070470000BD
:102C7000002C0140000400400008004070B50446EC
:102C800090F83C000025012817D0012684F83C600C
:102C9000022084F83D002068826822F0770222F446
:102CA0007F4282600868502838D00DDC20284FD041
:102CB00005DC90B3102811D14AE0022070BD302805
:102CC00046D040280AD13BE060282FD070280DD094
:102CD000B0F5805F03D0B0F5005F12D0012584F815
:102CE0003D60002084F83C00284670BDCB68D1E9E7
:102CF0000121206801F0E3FA2068816841F0770142
:102D000009E0CB68D1E90121206801F0D8FA2068F8
:102D1000816841F480418160E1E719E0CA6849684F
:102D2000206801F081FB5021206806E0CA684968EC
:102D3000206801F08AFB6021206801F0CAFACEE722
:102D4000CA684968206801F06FFB40212068F4E7F9
:102D5000226801461046F0E72DE9F0410D460400D7
:102D600003D094F83D0018B108E00120BDE8F081DF
:102D7000002084F83C00204600F040F8022084F84F
:102D80003D002068816844F2070291438160211D63
:102D9000206801F04BFA226890689169166A2B68E6
:102DA000AF69034340F20330814341EA0721A86839
:102DB000EF6908434FF6FC418843E96840EA072081
:102DC000014328692F6A000140EA07300843696817
:102DD0006D6926F0220646EA0515294393602268AC
:102DE000906154F8460B0162012004F81F09E07558
:102DF0002076E0762077A0750020B7E700B585B093
:102E00000021009101910291039101681E48B1F1E6
:102E1000804F1AD01D4A914215D1C16941F0040179
:102E2000C161C16901F004010491816941F00801A7
:102E300081618069694600F008000490C02000901C
:102E40001348FFF723FA05B000BDC16941F0010145
:102E5000C161C16901F001010491816941F004017E
:102E600081618069694600F00400049003200090AD
:102E70000848FFF70BFA002211461C20FFF76CFBF5
:102E80001C20FFF75BFBDEE700100240000800405B
:102E9000000C01400008014070B590F83E60044607
:102EA00090F83F5090F8423090F84320022021B132
:102EB00004290ED0012E1BD114E0012E18D1012BB4
:102EC00016D184F83E0084F84200012200212068D7
:102ED00020E0012D0CD1012A0AD184F83F0084F8AA
:102EE000430014E0012D03D1012B01D1012A01D0AF
:102EF000012070BD84F83E0084F83F0084F8420051
:102F000084F8430001220021206801F0CBF901225E
:102F10000421206801F0C6F92068016841F0010130
:102F20000160002070BD70472DE9F0410446006843
:102F3000C66805694FF00007A90713D5B10711D579
:102F4000F91E0161012020772068806980072046F2
:102F500002D0FFF7E8FF04E000F0A4F8204600F0FC
:102F600036F92777680716D5700714D521686FF0F2
:102F700004000861022020772068806910F4407FF7
:102F8000204602D0FFF7CFFF04E000F08BF8204688
:102F900000F01DF92777280715D5300713D52168CC
:102FA0006FF008000861042020772068C06980075E
:102FB000204602D0FFF7B7FF04E000F073F8204688
:102FC00000F005F92777E80616D5F00614D5216834
:102FD0006FF010000861082020772068C06910F4A5
:102FE000407F204602D0FFF79EFF04E000F05AF831
:102FF000204600F0ECF82777E80708D0F00706D065
:1030000021686FF001000861204600F02FF92806C2
:1030100008D5300606D521686FF08000086120468B
:10302000FFF74CFD680608D5700606D521686FF0DD
:1030300040000861204600F01AF9A8060AD5B0063B
:1030400008D521686FF0200008612046BDE8F041F6
:10305000FFF735BDBDE8F08100B585B000210091D6
:1030600001910291039100680B49884212D10B48EB
:10307000816941F0040181618069694600F00400C2
:1030800004904FF4106000900220019003900448D7
:10309000FFF7FCF805B000BD002C01400010024015
:1030A00000080140704770B5044690F83C000026C7
:1030B0000D4601280FD0012084F83C006AB1042A93
:1030C0001DD0082A2FD00C2A3FD00126002084F8DA
:1030D0003C00304670BD022070BD206801F002F94E
:1030E0002068816941F0080181612068816921F0CF
:1030F00004018161206881692A69114311E0206817
:1031000001F018F92068816941F40061816120684B
:10311000816921F480618161206881692A6941EABD
:1031200002218161D2E7206801F030F92068C1698D
:1031300041F00801C1612068C16921F00401C16149
:103140002068C1692A69114311E0206801F04AF939
:103150002068C16941F40061C1612068C16921F43E
:103160008061C1612068C1692A6941EA0221C161A7
:10317000ACE710B5040003D094F83D0010B107E0AF
:10318000012010BD002084F83C00204600F01EF80D
:10319000022084F83D00211D206801F047F801203D
:1031A00084F8460084F83E0084F83F0084F840002C
:1031B00084F8410084F8420084F8430084F8440015
:1031C00084F8450084F83D00002010BD704770472A
:1031D00010B50446022249B104290ED0082913D0A3
:1031E00094F84100012816D0012010BD94F83E004B
:1031F0000128F9D184F83E200FE094F83F0001281F
:10320000F2D184F83F2008E094F840000128EBD187
:1032100084F8402001E084F841200122206801F078
:1032200041F80F492068884203D1426C42F40042C1
:1032300042642068884208D0B0F1804F05D0094927
:10324000884202D00849884204D1816801F0070110
:10325000062903D0016841F001010160002010BD82
:10326000002C0140000400400008004070477047F7
:1032700038B5044690F84200202801D0022038BD1D
:1032800051B14AB10120206300206063204601F063
:1032900085FA216B012901D0012038BD21680A6817
:1032A0004968009121680C3151E8002F42F010026A
:1032B00041E80023002BF5D138BD0000074A9042B9
:1032C0000AD1074842881144C9B241804FF4807244
:1032D00004490248FFF7CCBF70470000840100207A
:1032E0005C0000206407002070470000F8B501680A
:1032F00004460868CA684B6910F00F0F4FF00005CC
:1033000059D003F0010602F49077374365D0C10726
:1033100005D0D10503D5616C41F00101616441071D
:1033200005D5D90703D0616C41F0020161648107C2
:1033300005D5D90703D0616C41F004016164010730
:1033400007D502F02001314303D0616C41F0080140
:103350006164616C00293AD0800604D5900602D5DC
:10336000204601F05EF920684069616CC0F380106E
:10337000090700D460B3204601F01EF920684069B7
:10338000400621D52068143050E8001F21F040018C
:1033900040E80012002AF5D1E06BA8B16D49416305
:1033A000E06BFEF7D1FD002811D0E06B416B01B05E
:1033B000BDE8F040084783060FD593060DD520469B
:1033C000BDE8F84001F02DB92046FFF78DFFF8BDAC
:1033D0002046FFF789FF6564F8BD266B2023012E88
:1033E0007CD1C6067AD5D60678D50868486800909C
:1033F00048694FF00206400640D5E16B0868406816
:103400000004000CE8D0A28D8242E5D9E0858869ED
:1034100020282DD020680C3050E8001F21F4807146
:1034200040E80012002AF5D12068143050E8001F4F
:1034300021F0010140E80012002AF5D12068143083
:1034400050E8001F21F0400140E80012002AF5D1A9
:1034500084F84230256320680C3050E8001F21F0CA
:10346000100140E80012002AF5D1E06BFEF748FD9C
:103470006663A08DE18D401A81B22AE0A08DE18DB6
:10348000401A81B2E08D0028A6D00029A4D022687D
:103490000C3252E8000F20F4907042E80007002F31
:1034A000F5D12068143050E8002F22F0010240E8E6
:1034B0000027002FF5D184F84230256320680C30B6
:1034C00050E8002F22F0100240E80023002BF5D135
:1034D00066632046FFF7F2FEF8BDFFE705062BD531
:1034E000150629D594F841002128F5D1A068B0F53A
:1034F000805F01D12069B0B1206A411C216221683E
:1035000000784860E08C401E0004000CE084E3D1A9
:103510002068C16821F08001C1602068C16841F065
:103520004001C160D8E7206A0088C0F30800486005
:10353000206A801C2062E5E74006CDD55006CBD539
:10354000CA68204622F04002CA6084F8413000F088
:10355000E1F8C1E76F44000870B5040004D094F8A6
:103560004100002510B106E0012070BD84F84050F4
:10357000204600F023F8242084F841002068C16828
:1035800021F40051C160204601F0ACF820680169C7
:1035900021F4904101612068416921F02A014161D3
:1035A0002068C16841F40051C1606564202084F83E
:1035B000410084F842006563002070BDF0B585B01D
:1035C00000240646009401940294039400682D4957
:1035D000884254D12C48C16941F48021C161C1693C
:1035E00001F480210491816941F0080181618069C1
:1035F000264D00F0080004904FF4806000900220F7
:1036000001900320039069462846FEF73FFEE81428
:10361000CDE90004694628460294FEF737FE1D4DA9
:103620001B488027C5E90004C5E902472C616C618D
:10363000AC612846EC61FEF77DFD08B1FEF75EFC4B
:10364000F5636E62134D12484435143801C51020DD
:1036500091C5104845F8104944306C61AC61EC618B
:10366000FEF768FD08B1FEF749FCB563002211467C
:1036700027206E62FEF770FF2720FEF75FFF05B080
:10368000F0BD00000048004000100240000C014066
:1036900030000240CC0100207047704770B50446EE
:1036A00090F84100202801D0022070BD49B342B3F8
:1036B0002162A284E28400206064212384F84130E6
:1036C000A56B114BAB62A56B104BEB62A56B104B5E
:1036D0002B63A36B5863256813462A1DA06BFEF766
:1036E00057FD21686FF0400008602068143050E8F2
:1036F000001F41F0800140E80012002AF5D10020AF
:1037000070BD012070BD00006D450008AF45000888
:103710007F44000800680349884202D10249002022
:1037200008707047004800405C00002070470000AF
:103730000148FFF77BBA0000F4000020FEE700001C
:1037400010B50E4C002208212046FEF794FE00F032
:1037500017F8012210212046FEF78DFE00F010F828
:10376000002210212046FEF786FE00F009F82046D0
:103770000122BDE810400821FEF77DBE000C01408B
:103780000020401CC0B20A28FBD370470C4800B58B
:10379000816985B041F0080181618069694600F066
:1037A000080004901820009003200390112001903D
:1037B0000448FEF76BFD00F09DF805B000BD000069
:1037C00000100240000C014010B50C4C01220821F1
:1037D0002046FEF750FEFFF7D3FF012210212046BE
:1037E000FEF749FEFFF7CCFF002210212046FEF72E
:1037F00042FEBDE81040FFF7C3BF0000000C0140CF
:103800002DE9F0410024134E074625466006040EBC
:10381000012210213046FEF72EFEFFF7B1FF0821EE
:103820003046FEF723FE08B1641CE4B200221021EA
:103830003046FEF720FEFFF7A3FF6D1CEDB2082D0A
:10384000E4D327B1FFF77CFF2046BDE8F081FFF706
:10385000BBFFF9E7000C014070B5154E054600248A
:10386000280601D5012200E0002208213046FEF79B
:1038700002FEFFF785FF012210213046FEF7FBFD17
:10388000FFF77EFF002210213046FEF7F4FD072CE3
:1038900004D1012208213046FEF7EDFD6806050E31
:1038A000FFF76EFF641CE4B2082CD9D370BD000092
:1038B000000C014010B50E4C012208212046FEF7F5
:1038C000DAFD012210212046FEF7D5FDFFF758FF53
:1038D000002208212046FEF7CEFDFFF751FF00220F
:1038E00010212046FEF7C7FDBDE81040FFF748BF96
:1038F000000C014010B50A4C002208212046FEF7BA
:10390000BAFD012210212046FEF7B5FDFFF738FF72
:1039100020460122BDE810400821FEF7ACBD0000A2
:10392000000C014070B5104D012208212846FEF719
:10393000A2FDFFF725FF012210212846FEF79BFD7F
:10394000FFF71EFF08212846FEF790FD08B101246D
:1039500000E00024002210212846FEF78CFDFFF72E
:103960000FFF204670BD0000000C014010B500F0B4
:1039700007F8002803D1BDE8104001F0A1BE10BD3A
:1039800010B5FFF703FF80216B2000F0C0F8642022
:10399000FEF736FC00216B2000F0B9F8032000F0A0
:1039A00082F8002000F07AF8C82000F099F8002191
:1039B000382000F0ACF800216A2000F0A8F80021BF
:1039C000232000F0A4F88021372000F0A0F8752013
:1039D00000F011F8682801D0012010BD01216B20F2
:1039E00000F095F800216C2000F091F8642000F0C0
:1039F00077F8002010BD10B50446FFF75BFFD0201C
:103A0000FFF72AFFFFF78EFF2046FFF725FFFFF79E
:103A100089FFFFF74FFFD120FFF71EFFFFF782FF5F
:103A20000020FFF7EDFE0446FFF764FF204610BDBF
:103A30002DE9F0411D4614460F460646FFF73AFFB2
:103A40007006000EFFF708FFFFF76CFF20B1FFF7CD
:103A500051FF0120BDE8F0813846FFF7FDFEFFF77A
:103A600061FFFFF727FF012000EB4600C0B2FFF720
:103A7000F3FEFFF757FF09E0012C0DD05FF00100C6
:103A8000FFF7BEFE641E05F8010BE4B2002CF3D173
:103A9000FFF730FF0020DDE70020F1E7C006010E50
:103AA0001C2000F034B8C006010E1B2000F02FB817
:103AB000BC2801D3012110E0622801D302210CE0CF
:103AC0002A2801D3032108E0142801D3042104E0AB
:103AD0000A2801D3052100E006211A2000F017B8BA
:103AE00010B504464FF47A70844201D9044602E0CE
:103AF000042C00D20424B0FBF4F0401EC1B2192003
:103B000000F005F86008BDE81040FFF7D1BF70B5C0
:103B10000C460546FFF7CEFED020FFF79DFEFFF7CF
:103B200001FF50B92846FFF797FEFFF7FBFE20463E
:103B3000FFF792FEFFF7F6FE18B1FFF7DBFE01205C
:103B400070BDFFF7D7FE002070BD2DE9F0411E4685
:103B500015460F460446FFF7ADFE6006000EFFF760
:103B60007BFEFFF7DFFE60B93846FFF775FEFFF713
:103B7000D9FE00240CE0305DFFF76EFEFFF7D2FEA9
:103B800020B1FFF7B7FE0120BDE8F081641CE4B26C
:103B9000AC42F0D3FFF7AEFE0020F5E70D4808B5C4
:103BA000416941F0010141614069002200F00100DA
:103BB000009011460C20FEF7CFFC0C20FEF7BEFC57
:103BC000002211460D20FEF7C7FCBDE808400D207D
:103BD000FEF7B4BC001002402DE9F04186B000248D
:103BE00033480094019402940394816941F01001D8
:103BF0008161816901F010010491816941F0200126
:103C00008161816901F020010491816941F0040121
:103C10008161816901F004010491816941F0080129
:103C200081618069234F00F0080004900022082180
:103C30003846FEF720FCDFF8808000224FF2183172
:103C40004046FEF718FC042000901C480226CDE9EF
:103C5000010669463846FEF719FB08200125CDE923
:103C60000005CDE9024669463846FEF70FFB4FF4E2
:103C700070400090CDE90154032469464046039406
:103C8000FEF704FB4FF44670009011200394CDE939
:103C9000010569464046FEF7F9FA00221146082060
:103CA000FEF75AFC0820FEF749FC06B0BDE8F0819B
:103CB0000010024000080140000C014000003110DB
:103CC00010B596B000240F9410941194129413948C
:103CD0001C2168461494FCF7A3FB202107A8FCF7DD
:103CE0009FFB2C482A4901602321C0E9011463216C
:103CF000C0E9031444618461FEF740FF08B1FEF798
:103D0000FDF84FF480500F900FA92248FEF7B6FF40
:103D100008B1FEF7F3F81F48FFF72BFA08B1FEF7DA
:103D2000EDF8139413A91B481494FEF7F3FE08B1A1
:103D3000FEF7E4F86020CDE90004029403940494B3
:103D400005940022694613480694FFF7ACF908B1C0
:103D5000FEF7D4F80C2269460E48FFF7A4F908B123
:103D6000FEF7CCF80794089409944FF400500A9495
:103D7000CDE90B4007A907480E94FEF7A1FE08B154
:103D8000FEF7BCF80348FFF767F916B010BD000056
:103D9000002C01406400002010B58CB0242168463E
:103DA000FCF73EFB0024164809944FF080410A942A
:103DB00001604721C0E901144FF6FF71C0E9031407
:103DC00084610120CDE90004CDE902040221CDE99E
:103DD0000441CDE90604694609480894FEF7BCFF92
:103DE00008B1FEF78BF8099409A905480A94FEF773
:103DF00091FE002801D0FEF781F80CB010BD000044
:103E0000AC00002010B586B000241748009401943F
:103E10000294039404941349059401604721C0E976
:103E200001144FF6FF71C0E903148461FEF7A6FE8A
:103E300008B1FEF763F84FF48050009069460A48D5
:103E4000FEF71CFF08B1FEF759F8049404A90648D0
:103E50000594FEF75FFE002801D0FEF74FF806B08C
:103E600010BD000000040040F400002010B58CB02C
:103E700024216846FCF7D4FA002416480994144912
:103E80000A94C0E900144FF6FF71C0E902410461D1
:103E900084610120CDE90004CDE90204CDE90604E6
:103EA0000221CDE904410620089069460948FEF741
:103EB00053FF08B1FEF722F8099409A905480A94AE
:103EC000FEF728FE002801D0FEF718F80CB010BD50
:103ED000000800403C0100200C4810B50A49016070
:103EE0004FF416514160002181600C22C160C0E98D
:103EF00004128161C161FFF72FFB002803D0BDE8E8
:103F00001040FDF7FBBF10BD0048004084010020B9
:103F1000FEE7FEE710B50021074C0A46002004EB3F
:103F2000C1131A54401CC0B28028FAD3491CC9B22C
:103F30000829F3D310BD00005402002010B5002062
:103F40004FF47A720021491C9142FCD3401C9042EC
:103F5000F8D3FFF741FE012000F0B0F8BDE81040B3
:103F6000012000F0B3B870B500240646802525FA7C
:103F700004F0304000D0012000F0A8F8012000F04B
:103F80009DF8002000F09AF8641CE4B2082CEED3EF
:103F9000012000F093F8BDE87040002000F08EB8DA
:103FA00010B5012000F092F8012000F087F8002001
:103FB00000F08CF8BDE81040002000F07FB810B58C
:103FC000002000F083F8012000F078F8BDE81040F0
:103FD000012000F07BB810B5FFF7B0FFAE2000F075
:103FE0007DF8D52000F07AF8802000F077F8A8203E
:103FF00000F074F83F2000F071F8D32000F06EF864
:10400000002000F06BF8402000F068F8A12000F0DC
:1040100065F8C82000F062F8DA2000F05FF812209E
:1040200000F05CF8812000F059F8CF2000F056F83D
:10403000D92000F053F8F12000F050F8DB2000F018
:104040004DF8302000F04AF8A42000F047F8A620F0
:1040500000F044F88D2000F041F8142000F03EF804
:10406000AF2000F03BF8FFF755FFBDE8104000F02F
:1040700011B810B50C4640F0B00000F02FF8102039
:1040800040EA141000F02AF804F00F00BDE81040D8
:1040900000F024B870B5084D002400212046FFF739
:1040A000E8FF05EBC410802100F029F8641CE4B29D
:1040B000082CF2D370BD00005402002002464FF4D9
:1040C00080710148FEF7D7B9000C014002464FF459
:1040D00000710148FEF7CFB9000C014010B504464D
:1040E000FFF75EFF7820FFF73EFF0020FFF73BFF62
:1040F0002046FFF738FFBDE81040FFF760BF70B5FE
:104100000D460646FFF74CFF7820FFF72CFF4020B6
:10411000FFF729FF002404E0305DFFF724FF641C53
:10412000E4B2AC42F8D3BDE87040FFF748BF0000EE
:1041300010B500210448FFF74BF8BDE810400C21F2
:104140000148FFF745B80000640000207047704741
:104150000FB44FF4807170B505AB1148049AFCF7A9
:10416000ADF8104C002520780028FCD101202070EB
:104170000B48FCF7E9F80A49024601F50070FCF724
:1041800002F90748FCF7E0F882B207490748FFF751
:1041900085FA002800D0257070BC5DF814FB000083
:1041A000640600205C0000206408002084010020D8
:1041B000FEF76CB930B58FB028216846FCF730F9AE
:1041C00014210AA8FCF72CF901210804CDE90010FC
:1041D0000024029402250491CDE907504FF4E01029
:1041E00009906846FEF7C6FA08B172B6FEE70F20DE
:1041F000CDE90A054FF48060CDE90C4002210AA800
:104200000E94FEF7DBF9002801D072B6FEE70FB07E
:1042100030BD70470148FEF787BE0000AC000020AB
:104220000148FEF781BE0000F4000020F0B50268EE
:10423000194B1A4C1A4D4FF08047984205D0B8429E
:1042400003D0A04201D0A84203D122F070064A68F0
:104250003243984205D0B84203D0A04201D0A842D0
:1042600003D122F44074CA6822434C6922F08002D0
:10427000224302608A68C2620A688262984201D15F
:1042800009690163012141610169C90703D001691D
:1042900021F001010161F0BD002C0140000400404B
:1042A0000008004010B501F01F030121046A994085
:1042B0008C430462016A9A401143016210BD10B53B
:1042C000846842EA032224F47F440A432243826042
:1042D00010BD826822F070020A4342F0070181603B
:1042E0007047000030B5036A026A22F001020262E0
:1042F0004268846924F073050C682C4323F002059E
:104300008B682B430A4DA8420BD123F00805CB68DC
:1043100022F440722B434D6923F0040315438A694C
:104320002A434260846149684163036230BD0000F2
:10433000002C014030B5026A036A23F010030362C7
:10434000436884690D6824F4E64444EA05248D68D2
:1043500022F0200242EA05120B4DA8420ED1CD6890
:1043600022F0800242EA05124D6923F4406343EAD9
:1043700085038D6922F0400243EA8503436084612E
:1043800049688163026230BD002C014030B5036A88
:10439000026A22F4807202624268C46923F40073E4
:1043A00024F073050C682C438D6843EA05230C4DFB
:1043B000A8420ED1CD6823F4006343EA05234D697A
:1043C00022F4405242EA05128D6923F4806342EAE6
:1043D00005124260C4614968C163036230BD0000D8
:1043E000002C014030B5046A026A22F48052026255
:1043F0004268C3690D6823F4E64343EA05238D68E8
:1044000024F4005444EA0534064DA84204D14D6911
:1044100022F4804242EA85124260C3614968016425
:10442000046230BD002C014010B5036A046A24F018
:1044300001040462846924F0F00444EA021423F0C5
:104440000A020A438461026210BD10B5036A046A5D
:1044500024F010040462846923F0A00324F470445F
:1044600044EA023243EA01118261016210BD10B5D3
:10447000406A0021C185C184FEF736FF10BD70B5CA
:10448000446A2068406994F84110C0F3C0100025C8
:10449000212904D118B1E584204600F0B4F8206841
:1044A000406994F84210C0F38010222904D118B159
:1044B000E585204600F080F8606C40F010006064F4
:1044C0002046FEF711FF70BD10B50146406A09682D
:1044D00009684FF0000289062ED4C28501680C31AC
:1044E00051E8003F23F4807341E80034002CF5D1FB
:1044F0000168143151E8003F23F0010341E8003422
:10450000002CF5D10168143151E8003F23F040033D
:1045100041E80034002CF5D1202180F84210016BD5
:10452000012909D101680C3151E8003F23F0100343
:1045300041E80034002CF5D14263016B012902D01F
:10454000FFF7AAF810BD818DFEF7B8FE10BD10B5BB
:10455000406A01214163016B012902D0FFF79DF8F8
:1045600010BD818D4908FEF7A9FE10BD10B50146AA
:10457000406A09680968890616D40021C184016867
:10458000143151E8002F22F0800241E80023002B73
:10459000F5D101680C3151E8002F42F0400241E8AA
:1045A0000023002BF5D110BDFFF7B4F810BD10B5F6
:1045B000406AFFF7BBF810BD01680C3151E8002FCD
:1045C00022F4907241E80023002BF5D101681431E8
:1045D00051E8002F22F0010241E80023002BF5D121
:1045E000016B012909D101680C3151E8002F22F03B
:1045F000100241E80023002BF5D1202180F8421061
:1046000000210163704701680C3151E8002F22F04E
:10461000C00241E80023002BF5D1202180F8411091
:10462000704708B590F84210222901D0022008BD39
:1046300082684FF480539A4201D1016921B1816AA5
:104640009A421BD04AB10AE00268816A5268C2F3FA
:1046500008020A80816A891C08E0026972B1026856
:10466000526802F07F020A70816A491C8162C18D22
:10467000491E0904090CC18503D01BE00268526879
:10468000F1E70168CA6822F02002CA600168CA68BE
:1046900022F48072CA6001684A6922F001024A610C
:1046A000202180F8421000214163026B012A03D0CF
:1046B000FEF7F2FF002008BD016301680C3151E8EC
:1046C000002F22F0100241E80023002BF5D10168F1
:1046D0000A68D20602D50A6849680091818DFEF702
:1046E000EDFDE7E770B5044600680169E26821F472
:1046F0004051114301612169A06808436169084381
:104700002168CA6841F20C639A430243CA60206878
:104710004169A26921F44071114341611E49206839
:10472000884202D1FDF7F0FF01E0FDF7DDFF00EB6D
:10473000C00101EB0012606864218000B2FBF0F35D
:10474000B3FBF1F36FF018067343B2FBF0F5B2FB65
:10475000F0F605EB8305322303EB0515B5FBF1F508
:10476000B6FBF1F605F0F00505EB0615B2FBF0F629
:10477000B2FBF0F0B0FBF1F06FF01802504306EB23
:10478000800003EB0010B0FBF1F0216800F00F0097
:104790002844886070BD00000038014038B581624F
:1047A00004468285002013466064222284F8422059
:1047B000E56B1B4AAA62E56B1A4AEA62E56B1A4A84
:1047C0002A63E26B50630A462168E06B091DFDF71E
:1047D000DFFC2068016840680090206948B12068CB
:1047E0000C3050E8001F41F4807140E80012002AAC
:1047F000F5D12068143050E8001F41F0010140E875
:104800000012002AF5D12068143050E8001F41F052
:10481000400140E80012002AF5D1002038BD000018
:10482000C94400084F4500087F4400080148FEF7CE
:104830005DBD000084010020FEE7490050EAC12070
:1048400018BF04204A0D18BF40F0010040F2FF726B
:10485000B2EB515F08BF40F00200012808BF0520FD
:1048600070470907090E002804DB00F1E02080F8FA
:104870000014704700F00F0000F1E02080F8141DD4
:10488000704730380A2801D2012070470020704755
:104890002DE9FE4F07460E460025684600F030FC25
:1048A00000246FF00F0AE8464FF0010957F8240082
:1048B00056F82410401A00D5404201F0C3FE51467C
:1048C00002F063F858F8241011F0FF4F0BD001F0FC
:1048D000BBFD4FF07E5101F0ADFF0A4920F00040D2
:1048E000884205DC07E0084908440849884202D3A9
:1048F00009FA04F00543641C032CD7DB2846BDE805
:10490000FE8F0000295C0F3E666666C19A99D90049
:1049100008B560B120208DF8000028208DF8010036
:1049200030208DF8020038208DF8030004E0A32227
:1049300004216846FBF76CFD6A46042140F69E2080
:1049400001F058FC01F016F908BD00003EB5044620
:1049500002208DF80000CA208DF80100E3208DF8B8
:10496000020009208DF803006A460421682001F046
:1049700041FCA3208DF80000610609D5C0218DF807
:104980000110C8218DF80210C2218DF8031005E036
:104990008DF801008DF802008DF8030014F4C07F3B
:1049A00009D0C4218DF80410CC218DF80510C62142
:1049B0008DF8061005E08DF804008DF805008DF8DF
:1049C00006008DF808008DF807008DF809006A468A
:1049D0000A2140F6A72001F00DFCA0074FF0D805F2
:1049E00003D020208DF8000001E08DF800506A46C9
:1049F000012140F6B62001F0FDFBA00601D5012003
:104A000000E0002000F08EF814F4C07F1ED0E00516
:104A10000AD5B2208DF800008B208DF80100B62059
:104A20008DF802009B2009E0B0208DF80000802066
:104A30008DF80100B4208DF8020090208DF803005D
:104A40006A46042140F6A22001F0D4FBE1074FF4AE
:104A50000B6022D0F8218DF800106A46012101F088
:104A6000C9FBFA21072000F097FA072000F062FA4C
:104A7000012000F07FFA642000F022FB4FF4FA706E
:104A800000F02EFBC821254800F01CFA282000F079
:104A900031FA0A2000F03EFA05E08DF800506A462F
:104AA000012101F0A7FBA00703D5D9208DF8000054
:104AB00001E08DF800506A46012140F23D7001F09E
:104AC00099FB600701D5012000E0002000F048F8C4
:104AD000E00601D5012000E00020FFF719FF104D8E
:104AE00044F00800688101F045F80020A8736006D2
:104AF00001D50620A87314F4C07F02D0A87B801DC6
:104B0000A87314F0140F02D0A87B1030A873A0076C
:104B100002D0A87B001DA87300203EBD09E3CA0295
:104B2000540600200EB54FF4976310B106A107C9D3
:104B300001E008A207CA8DE807006A460921184665
:104B400001F058FB0EBD0000B8AAB38DB4980D3526
:104B50005D000000B8AAAAAAB088C3C5C7000000BB
:104B600008B560B1C0208DF80000C2208DF80100AA
:104B7000C4208DF80200C6208DF8030004E08B22CB
:104B800004216846FBF744FC6A46042140F698205D
:104B900001F030FB00F0EEFF08BD0000C8234FF429
:104BA0008062024940F6F63000F00EBF806A0008CD
:104BB0002DE9FF41044603A800F0EEFDBDF80C000E
:104BC000410CC3032F48028902F00300550754F833
:104BD000200000D54042C2F3C105960654F8255086
:104BE00000D56D42C2F38116D20554F8264000D597
:104BF0006442A0FB0367C21702FB037200FB0120A3
:104C0000820042EA9670A5FB0367EA1702FB037273
:104C100005FB0122950045EA9672A4FB0367E517A0
:104C200005FB037304FB01318B0043EA9671030E0D
:104C30008DF80030030C8DF80130030A8DF8023036
:104C40008DF80300100E8DF80400100C8DF805008F
:104C5000100A8DF80600080E8DF80800080C8DF873
:104C60000900080A8DF80A008DF807208DF80B104E
:104C70006A460C214FF4257001F0BCFA04B0BDE87F
:104C8000F08100005406002030B5044613A285B020
:104C900007CA8DE807004FF0FF35C82C16D8C8208A
:104CA000B0FBF4F1491E080A8DF80C008DF80D10C8
:104CB00003AA022140F2162001F09CFA30B96A469C
:104CC0000C2140F6C12001F095FA10B1284605B03C
:104CD00030BD054884810020F9E70000FEF2ABC436
:104CE000AAF1DFDFBBAFDFDF54060020F8B53049A3
:104CF000098901F0030250F822404A0700D56442B6
:104D0000C1F3C1028B0650F8222000D55242C1F3F4
:104D1000811350F82330C80500D55B42254984FB38
:104D20000140850045EA947082FB0142A40F44EAE9
:104D3000820483FB0121950F45EA8105010E8DF860
:104D40000010010C8DF80110010A8DF802108DF889
:104D500003006A4604214FF4747001F04BFA4FF0DF
:104D6000FF3688B9200E8DF80000200C8DF8010068
:104D7000200A8DF802008DF803406A4604214FF4A2
:104D8000757001F037FA08B13046F8BD280E8DF87D
:104D90000000280C8DF80100280A8DF802008DF81B
:104DA00003506A4604214FF4767001F023FAF8BDEF
:104DB0005406002009E3CA022DE9FF4104463CA045
:104DC00004F00303006802903AA0006803903AA040
:104DD00006683AA0056802A8C15C8DF80010C4F30B
:104DE000C101425C8DF80120C4F38112805C8DF812
:104DF000020003A8C35C8DF80430415C8DF80510F7
:104E0000805C8DF806006A46032140F2264001F0DE
:104E1000F1F94FF0FF37E0BB01AA032140F22A402D
:104E200001F0E8F9A8BBCDE9006560070BD59DF856
:104E3000000040F001008DF800009DF8040040F0F3
:104E400001008DF80400A0060BD59DF8010040F08C
:104E500001008DF801009DF8050040F001008DF87B
:104E60000500E0050BD59DF8020040F001008DF82B
:104E700002009DF8060040F001008DF806006A4629
:104E800003214FF4886001F0B5F910B901AA03219C
:104E900000E004E040F2314001F0ACF918B13846CE
:104EA00004B0BDE8F081064804810020F8E7000066
:104EB0004CCD6C000CC92C00365676002646660098
:104EC000540600204FF47A7290FBF2F008B5484384
:104ED000010E8DF80010010C8DF80110010A8DF8FB
:104EE00002108DF803006A4604214FF4AE7001F001
:104EF00081F908BD0521B0FBF1F008B5010A8DF874
:104F000000108DF801006A4602214FF4AD7001F0E7
:104F100071F908BD0521B0FBF1F008B5010A8DF863
:104F200000108DF801006A4602214FF4AC7001F0C8
:104F300061F908BD08B500218DF80010C10702D045
:104F400030218DF80010810705D59DF8001041F043
:104F50000C018DF80010400705D59DF8000040F0C9
:104F600003008DF800006A4601214FF4A47001F09F
:104F700041F908BD08B560B1042800D90420401EDD
:104F80008DF800006A46012140F24F1001F032F91D
:104F900008BD0120F3E700002DE9FC41054640076C
:104FA0004FF0FF367CD0B1F5C86F79D8084601F0D4
:104FB00061FB3E4901F048FA074601A800F0CEFB2C
:104FC0009DF80400022806D004280DD008282ED011
:104FD000102865D134E00E21384601F0D6FC01F0EE
:104FE00011FB84B2324907E00D21384601F0CDFCB7
:104FF00001F008FB2F4984B2384601F04FFB01F065
:1050000001FB210A8DF8001080B28DF80140010AE1
:105010008DF802108DF80300E8076C4620D0224678
:1050200002214FF4EA7001F0E5F8C8BB11E00C2151
:10503000384601F0AAFC01F0E5FA84B21E49DBE72C
:105040000B21384601F0A1FC01F0DCFA84B21B49C7
:10505000D2E7A21C02214FF4927001F0CBF8F8B90C
:10506000A8070DD56A4602214FF4EC7001F0C2F892
:10507000B0B9A21C02214FF4947001F0BBF878B9CA
:10508000680710D56A4602214FF4EE7001F0B2F8BD
:1050900030B9A21C02214FF4967001F0ABF810B1A8
:1050A0003046BDE8FC810020FBE7000000004843DB
:1050B000000040460000C045000040450000C044DC
:1050C0000521B0FBF1F008B5010A8DF800108DF84C
:1050D00001006A4602214FF4EF7001F08BF808BD21
:1050E0000521B0FBF1F008B5010A8DF800108DF82C
:1050F00001006A4602214FF4ED7001F07BF808BD13
:105100002DE9FE430646264801AB042240680D21E6
:105110000078FEF78DFC10B10720BDE8FE839DF8F6
:1051200004101C2000EAD1029DF80710DFF87490EB
:10513000C1F301131A438DF800209DF80520C1F337
:10514000810300EAD2021A438DF801209DF806205F
:1051500001F0030100EAD20008430024124F8DF849
:105160000200A0466D46285D10B146F824900AE082
:1051700046F824800DE000BF56F82400394601F0BF
:105180008DFA46F82400285D401E10F0FF002855D7
:10519000F2D1641CE4B2032CE5D30020BDE700008B
:1051A000140000207B14AE3E1D5A843F2DE9FE4FB3
:1051B00005460120C14E8DF800004FF000088DF823
:1051C000018030680C461746817C70686B4602226D
:1051D0000078FEF7BAFC4FF0FF3A00287AD1C820D9
:1051E000FDF70EF88DF8008030686B460122C17B18
:1051F00070680078FEF7A9FC0028EFD130686B4694
:105200000122417970680078FEF79FFC0028E5D103
:1052100030686B460122817C70680078FEF795FC4F
:105220000028DBD130686B460122C17D70680078B0
:10523000FEF78BFC0028D1D130686B460122017942
:1052400070680078FEF781FC0028C7D14FF00C0988
:105250008DF8009030686B46012201797068007803
:10526000FEF773FC002835D10F20FCF7C9FFB06AA8
:105270006B460122407A8DF80000306881787068B2
:105280000078FEF762FC002824D1B06A6B46012248
:10529000007A8DF800003068417870680078FEF779
:1052A00054FC002873D1B06A807A0FB140F0E0005E
:1052B0008DF8000030686B460122817970680078B3
:1052C000FEF743FC002862D12FB1B06AC07A40F0EB
:1052D000E00001E04AE018208DF8000030686B46DD
:1052E0000122C17970680078FEF72FFCF0BB17B17E
:1052F000C820FCF785FF40208DF8000030686B4621
:105300000122017970680078FEF71FFC70BB7820DD
:105310008DF8000030686B46012241797068007892
:10532000FEF713FC10BB3220FCF76AFF8DF80080FB
:10533000306847466B464179706801220078FEF775
:1053400004FC98B931687068B046897A00786B4679
:105350000222FEF76DFB48B9BDF80000AF6040BA0D
:10536000B0FBF9F06F60C6B22F6000E00FE0A760FD
:1053700067602760002739E0D8F80010D8F80400EB
:105380006B46C97A00780C22FEF752FB10B15046EA
:10539000BDE8FE8FBDF80000236840BA02B2BDF838
:1053A0000200BDF804101A44226040BA626800B2DC
:1053B0001044606049BAA06809B20844A060BDF812
:1053C00006002B6840BA02B2BDF808001A4440BA81
:1053D00001B2BDF80A002A606A6840BA11446960E7
:1053E000A96800B208447F1CFFB2A860B742C3D3CB
:1053F00028688322C117090441EA104100040023F0
:10540000FAF738FF32460023FAF734FF286068685D
:105410008322C117090441EA104100040023FAF76E
:1054200029FF32460023FAF725FF6860A868832227
:10543000C117090441EA104100040023FAF71AFFDA
:1054400032460023FAF716FFA86020684FF4006583
:10545000C117090441EA104100042A460023FAF763
:1054600009FF32460023FAF705FF206060682A46EC
:10547000C117090441EA104100040023FAF7FAFEBB
:1054800032460023FAF7F6FE6060A0682A46C1178C
:10549000090441EA104100040023FAF7EBFE32460A
:1054A0000023FAF7E7FEA060002802DDA0F58030B7
:1054B00001E000F58030A060002069E714000020C2
:1054C0002DE9F84F81462E488846002540686B46F6
:1054D000032200780D21FEF7ABFA10B10720BDE8DA
:1054E000F88F9DF80000002400F01F008DF80000E8
:1054F0009DF801006FF00F0B00F01F008DF8010008
:105500009DF802006E4600F01F008DF802004FF07B
:10551000010A00BF59F8241058F82400081A00D5D1
:10552000404201F08FF8594601F02FFA0746305DEE
:10553000C0B1144802E0144901F0B0F8315D491ED1
:1055400011F0FF013155F6D10146384600F07CFFDD
:105550004FF07E5101F06EF90C4920F00040884276
:1055600005DC07E00A483844B0F1D97F02D90AFACD
:1055700004F00543641C032CCCDB2846AFE7000095
:10558000140000200000C84154E3853F295C0F3E11
:105590000000E0BE00B5024600F00DF80346D01C46
:1055A00000F009F843EAC003901D00F004F843EA54
:1055B000801080B200BD90F90010002902DD4FF08C
:1055C0000000704702DA4FF00400704790F90110B4
:1055D000002902DD4FF00100704702DA4FF00500AC
:1055E000704790F90200002802DD4FF0020070477A
:1055F00002DA4FF0060070474FF0070070470000D6
:10560000FCF74CFFFEF7D6FDFEF7E6FAFEF7C6FA0A
:10561000FEF756FBFEF7C0FBFEF728FCFEF7F2FB99
:10562000FEF75AFCFCF725FC08A0FEF791FD0B4C99
:105630004FF47A752088401C81B2218008A0FEF7C3
:1056400087FD2846FCF7DCFDF4E70000536572692E
:10565000616C20546573740D0A0000000000002086
:10566000693A253035640D0A000000002DE9F0414B
:10567000124C20F00101002594F8240010B1002004
:10568000BDE8F081A07A4FF0FF3668B10840277C72
:105690002074884200D0354641B1012000F014FE4C
:1056A00000F068FA38B127743046E9E7207D00B190
:1056B000012000F009FE2846E2E700001400002067
:1056C00010B5FEF763F800F0EDF808B10A2010BD40
:1056D000782000F033FD10F0FF0F01D0012010BD45
:1056E0007820FFF7C3FF10F0FF0F01D0022010BD9C
:1056F000642000F0E3FC10F0FF0F01D0032010BD88
:10570000FFF74CFA10F0FF0F01D0042010BD124833
:10571000FFF740FFFFF750FB10F0FF0F01D005200F
:1057200010BD40F27310FFF711F910F0FF0F01D018
:10573000062010BD6420FFF7A7FA10F0FF0F01D07C
:10574000072010BD00F080FD012000F0DDFB10F00F
:10575000FF00F6D0092010BD400000200D494A7A14
:1057600042B1012A08D0022A0FD0032A0FD04FF0ED
:10577000FF307047022200E004220270C97C11B1A0
:105780001106C90D0170002070470822F5E71022AC
:10579000F3E70000140000200F494A7A42B1012AC1
:1057A00009D0022A11D0032A12D04FF0FF307047DF
:1057B0004FF4804201E041F69C720280C97C11B135
:1057C000C2F34E010180002070474FF48052F4E78D
:1057D0004FF40062F1E70000140000200B49097A41
:1057E00039B1012907D002290AD003290BD00021A1
:1057F00003E0FA2101E04FF4FA71018000207047C4
:105800004FF47A71F9E74FF4FA61F6E714000020DB
:105810000A49097A41B1012908D002290AD003298D
:105820000AD04FF0FF307047054900E0054901609C
:10583000002070470449FAE70449F8E71400002003
:105840000000034300008342333303423333834178
:105850000C49C97A072913D2DFE801F01204060ABD
:105860000C0E1000BC2100E0622101800020704776
:105870002A21FAE71421F8E70A21F6E70521F4E7DF
:105880000021F2E714000020054991F8242012B10C
:105890004FF0FF307047C989018000207047000039
:1058A000140000202DE9FC41464C80208DF80000BA
:1058B00020686B460122817C60680078FEF745F91C
:1058C0004FF0FF37002875D16420FCF799FC0025C4
:1058D0008DF8005020686B460122817C606800785A
:1058E000FEF733F9002865D120686B460622817DDA
:1058F00060680078FEF79CF800285BD19DF80500F1
:105900009DF80310C007400F01F0010140EA41007B
:105910009DF801104FF0010601F00101084304D089
:10592000012831D0022810D044E020686B460122C3
:10593000C17860680078FEF77BF8D8BB9DF800005E
:1059400010F00F0036D004281ED0E574FF2004F8B4
:105950000A0F4FF6FF7104F8020C04F8010C607096
:10596000A180A0712072A67026766576E572A57278
:10597000E56025616561A576E576A5834FF4FA605B
:1059800000F0FEFAB0B901E0E674DFE7022000F0B3
:1059900019FA78B92A2000F05BFB58B9322000F0E0
:1059A0008DFB38B90020FFF761FE18B9002000F028
:1059B0003DFA10B13846BDE8FC81002000F0BEFB86
:1059C0000020F8E7140000202DE9FF4FDFF8948055
:1059D000064685B098F8250015460F464FF0FF396A
:1059E000B0BBAFB3002420E0301B102800DD102036
:1059F00080B283463A1901469246204600F0FAFBEF
:105A000030BB6A465946204600F08AF800BB504633
:105A10005A466946FAF76CFC20B16FF0010009B0F4
:105A2000BDE8F08F04EB0B0084B2B442DCD3280A4B
:105A30008DF810008DF81150D8F80000444604ABE2
:105A4000817ED8F8040002220078FEF77EF808B1C3
:105A50004846E4E7012084F825000898E084002007
:105A6000DDE70000140000202DE9F84305464FF063
:105A7000FF39282844D80727284C00267DB101206B
:105A800000F0B4FA20208DF800004FF00108012D3D
:105A900017D0052D18D88DF8018005201FE00020B3
:105AA00000F0A4FA8DF800608DF8017020686B4654
:105AB0000222817C60680078FEF747F800BB2675FB
:105AC00029E08DF80160E8E7142D04D802208DF854
:105AD00001000A2003E003208DF80100142000F0EB
